{"project/contracts/campaign.sol":{"CampaignVault":{"abi":[{"inputs":[{"components":[{"internalType":"address","name":"admin","type":"address"},{"internalType":"address","name":"signer","type":"address"},{"internalType":"string","name":"_name","type":"string"},{"internalType":"string","name":"_symbol","type":"string"},{"internalType":"contract IERC20","name":"asset","type":"address"},{"internalType":"uint256","name":"goal","type":"uint256"},{"internalType":"uint256","name":"_minInvestment","type":"uint256"},{"internalType":"uint256","name":"_maxInvestment","type":"uint256"},{"internalType":"uint256","name":"_startTime","type":"uint256"},{"internalType":"uint256","name":"_endTime","type":"uint256"},{"internalType":"uint256","name":"_tokenPrice","type":"uint256"},{"internalType":"enum Structs.PayoutType","name":"_payoutType","type":"uint8"},{"internalType":"uint256","name":"maturityTime","type":"uint256"},{"internalType":"uint256","name":"interestPermile","type":"uint256"}],"internalType":"struct Structs.deployParams","name":"params","type":"tuple"}],"stateMutability":"nonpayable","type":"constructor"},{"inputs":[],"name":"ALREADYADMIN","type":"error"},{"inputs":[],"name":"AccessControlBadConfirmation","type":"error"},{"inputs":[{"internalType":"address","name":"account","type":"address"},{"internalType":"bytes32","name":"neededRole","type":"bytes32"}],"name":"AccessControlUnauthorizedAccount","type":"error"},{"inputs":[],"name":"CANNOTRESCUEUNDERLYING","type":"error"},{"inputs":[],"name":"CAPEXCEEDED","type":"error"},{"inputs":[],"name":"CLAIMNOTAVAILABLE","type":"error"},{"inputs":[],"name":"ECDSAInvalidSignature","type":"error"},{"inputs":[{"internalType":"uint256","name":"length","type":"uint256"}],"name":"ECDSAInvalidSignatureLength","type":"error"},{"inputs":[{"internalType":"bytes32","name":"s","type":"bytes32"}],"name":"ECDSAInvalidSignatureS","type":"error"},{"inputs":[{"internalType":"address","name":"spender","type":"address"},{"internalType":"uint256","name":"allowance","type":"uint256"},{"internalType":"uint256","name":"needed","type":"uint256"}],"name":"ERC20InsufficientAllowance","type":"error"},{"inputs":[{"internalType":"address","name":"sender","type":"address"},{"internalType":"uint256","name":"balance","type":"uint256"},{"internalType":"uint256","name":"needed","type":"uint256"}],"name":"ERC20InsufficientBalance","type":"error"},{"inputs":[{"internalType":"address","name":"approver","type":"address"}],"name":"ERC20InvalidApprover","type":"error"},{"inputs":[{"internalType":"address","name":"receiver","type":"address"}],"name":"ERC20InvalidReceiver","type":"error"},{"inputs":[{"internalType":"address","name":"sender","type":"address"}],"name":"ERC20InvalidSender","type":"error"},{"inputs":[{"internalType":"address","name":"spender","type":"address"}],"name":"ERC20InvalidSpender","type":"error"},{"inputs":[{"internalType":"address","name":"receiver","type":"address"},{"internalType":"uint256","name":"assets","type":"uint256"},{"internalType":"uint256","name":"max","type":"uint256"}],"name":"ERC4626ExceededMaxDeposit","type":"error"},{"inputs":[{"internalType":"address","name":"receiver","type":"address"},{"internalType":"uint256","name":"shares","type":"uint256"},{"internalType":"uint256","name":"max","type":"uint256"}],"name":"ERC4626ExceededMaxMint","type":"error"},{"inputs":[{"internalType":"address","name":"owner","type":"address"},{"internalType":"uint256","name":"shares","type":"uint256"},{"internalType":"uint256","name":"max","type":"uint256"}],"name":"ERC4626ExceededMaxRedeem","type":"error"},{"inputs":[{"internalType":"address","name":"owner","type":"address"},{"internalType":"uint256","name":"assets","type":"uint256"},{"internalType":"uint256","name":"max","type":"uint256"}],"name":"ERC4626ExceededMaxWithdraw","type":"error"},{"inputs":[{"internalType":"uint256","name":"time","type":"uint256"}],"name":"EXPIRED","type":"error"},{"inputs":[],"name":"EnforcedPause","type":"error"},{"inputs":[],"name":"ExpectedPause","type":"error"},{"inputs":[],"name":"FEEDCOUNTOVERFLOW","type":"error"},{"inputs":[],"name":"INSUFFICIENTDIVIDENDFUNDS","type":"error"},{"inputs":[],"name":"INSUFFICIENTFUNDS","type":"error"},{"inputs":[],"name":"INSUFFICIENTSHARES","type":"error"},{"inputs":[],"name":"INVALIDRECEIVER","type":"error"},{"inputs":[],"name":"INVALIDSIGNATURE","type":"error"},{"inputs":[],"name":"INVALIDTIMERANGE","type":"error"},{"inputs":[],"name":"INVWINDOWNOTCLOSED","type":"error"},{"inputs":[],"name":"INVWINDOWNOTOPEN","type":"error"},{"inputs":[],"name":"MATURITYBEFOREEND","type":"error"},{"inputs":[],"name":"MAXLESSTHANMIN","type":"error"},{"inputs":[],"name":"MINIMUMDEPOSITREQUIRED","type":"error"},{"inputs":[],"name":"NOCLAIMABLEAMOUNT","type":"error"},{"inputs":[],"name":"NONCEALREADYUSED","type":"error"},{"inputs":[],"name":"NOROIAVAILABLE","type":"error"},{"inputs":[],"name":"NOROIDEPOSITAVAILABLE","type":"error"},{"inputs":[],"name":"NOSHARESMINTED","type":"error"},{"inputs":[],"name":"ReentrancyGuardReentrantCall","type":"error"},{"inputs":[{"internalType":"address","name":"token","type":"address"}],"name":"SafeERC20FailedOperation","type":"error"},{"inputs":[],"name":"ZEROADDRESS","type":"error"},{"inputs":[],"name":"ZEROAMOUNT","type":"error"},{"inputs":[],"name":"ZEROGOAL","type":"error"},{"inputs":[],"name":"ZEROMININVESTMENT","type":"error"},{"inputs":[],"name":"ZEROTOKENPRICE","type":"error"},{"anonymous":false,"inputs":[{"indexed":true,"internalType":"address","name":"owner","type":"address"},{"indexed":true,"internalType":"address","name":"spender","type":"address"},{"indexed":false,"internalType":"uint256","name":"value","type":"uint256"}],"name":"Approval","type":"event"},{"anonymous":false,"inputs":[{"indexed":true,"internalType":"address","name":"sender","type":"address"},{"indexed":true,"internalType":"address","name":"owner","type":"address"},{"indexed":false,"internalType":"uint256","name":"assets","type":"uint256"},{"indexed":false,"internalType":"uint256","name":"shares","type":"uint256"}],"name":"Deposit","type":"event"},{"anonymous":false,"inputs":[{"indexed":false,"internalType":"uint256","name":"amount","type":"uint256"},{"indexed":false,"internalType":"uint256","name":"index","type":"uint256"},{"indexed":false,"internalType":"uint256","name":"time","type":"uint256"}],"name":"FUNDSAdded","type":"event"},{"anonymous":false,"inputs":[{"indexed":false,"internalType":"address","name":"prevAdmin","type":"address"},{"indexed":false,"internalType":"address","name":"newUser","type":"address"}],"name":"OwnerChanged","type":"event"},{"anonymous":false,"inputs":[{"indexed":false,"internalType":"address","name":"account","type":"address"}],"name":"Paused","type":"event"},{"anonymous":false,"inputs":[{"indexed":true,"internalType":"bytes32","name":"role","type":"bytes32"},{"indexed":true,"internalType":"bytes32","name":"previousAdminRole","type":"bytes32"},{"indexed":true,"internalType":"bytes32","name":"newAdminRole","type":"bytes32"}],"name":"RoleAdminChanged","type":"event"},{"anonymous":false,"inputs":[{"indexed":true,"internalType":"bytes32","name":"role","type":"bytes32"},{"indexed":true,"internalType":"address","name":"account","type":"address"},{"indexed":true,"internalType":"address","name":"sender","type":"address"}],"name":"RoleGranted","type":"event"},{"anonymous":false,"inputs":[{"indexed":true,"internalType":"bytes32","name":"role","type":"bytes32"},{"indexed":true,"internalType":"address","name":"account","type":"address"},{"indexed":true,"internalType":"address","name":"sender","type":"address"}],"name":"RoleRevoked","type":"event"},{"anonymous":false,"inputs":[{"indexed":true,"internalType":"address","name":"from","type":"address"},{"indexed":true,"internalType":"address","name":"to","type":"address"},{"indexed":false,"internalType":"uint256","name":"value","type":"uint256"}],"name":"Transfer","type":"event"},{"anonymous":false,"inputs":[{"indexed":false,"internalType":"address","name":"account","type":"address"}],"name":"Unpaused","type":"event"},{"anonymous":false,"inputs":[{"indexed":true,"internalType":"address","name":"sender","type":"address"},{"indexed":true,"internalType":"address","name":"receiver","type":"address"},{"indexed":true,"internalType":"address","name":"owner","type":"address"},{"indexed":false,"internalType":"uint256","name":"assets","type":"uint256"},{"indexed":false,"internalType":"uint256","name":"shares","type":"uint256"}],"name":"Withdraw","type":"event"},{"anonymous":false,"inputs":[{"indexed":true,"internalType":"uint256","name":"amount","type":"uint256"}],"name":"withdrawnFunds","type":"event"},{"inputs":[],"name":"DEFAULT_ADMIN_ROLE","outputs":[{"internalType":"bytes32","name":"","type":"bytes32"}],"stateMutability":"view","type":"function"},{"inputs":[],"name":"DEPOSIT_FEE_PERMILE","outputs":[{"internalType":"uint256","name":"","type":"uint256"}],"stateMutability":"view","type":"function"},{"inputs":[],"name":"ENDTIME","outputs":[{"internalType":"uint256","name":"","type":"uint256"}],"stateMutability":"view","type":"function"},{"inputs":[],"name":"FUNDING_CAP","outputs":[{"internalType":"uint256","name":"","type":"uint256"}],"stateMutability":"view","type":"function"},{"inputs":[],"name":"MATURITY_INTEREST_PERMILE","outputs":[{"internalType":"uint256","name":"","type":"uint256"}],"stateMutability":"view","type":"function"},{"inputs":[],"name":"MATURITY_TIME","outputs":[{"internalType":"uint256","name":"","type":"uint256"}],"stateMutability":"view","type":"function"},{"inputs":[],"name":"MAX_DEPOSIT","outputs":[{"internalType":"uint256","name":"","type":"uint256"}],"stateMutability":"view","type":"function"},{"inputs":[],"name":"MIN_DEPOSIT","outputs":[{"internalType":"uint256","name":"","type":"uint256"}],"stateMutability":"view","type":"function"},{"inputs":[],"name":"PAYOUT_TYPE","outputs":[{"internalType":"enum Structs.PayoutType","name":"","type":"uint8"}],"stateMutability":"view","type":"function"},{"inputs":[],"name":"STARTTIME","outputs":[{"internalType":"uint256","name":"","type":"uint256"}],"stateMutability":"view","type":"function"},{"inputs":[],"name":"TOKEN_PRICE","outputs":[{"internalType":"uint256","name":"","type":"uint256"}],"stateMutability":"view","type":"function"},{"inputs":[],"name":"TOTAL_INVESTMENTS","outputs":[{"internalType":"uint256","name":"","type":"uint256"}],"stateMutability":"view","type":"function"},{"inputs":[],"name":"WITHDRAW_FEE_PERMILE","outputs":[{"internalType":"uint256","name":"","type":"uint256"}],"stateMutability":"view","type":"function"},{"inputs":[],"name":"admin","outputs":[{"internalType":"address","name":"","type":"address"}],"stateMutability":"view","type":"function"},{"inputs":[{"internalType":"address","name":"owner","type":"address"},{"internalType":"address","name":"spender","type":"address"}],"name":"allowance","outputs":[{"internalType":"uint256","name":"","type":"uint256"}],"stateMutability":"view","type":"function"},{"inputs":[{"internalType":"address","name":"spender","type":"address"},{"internalType":"uint256","name":"value","type":"uint256"}],"name":"approve","outputs":[{"internalType":"bool","name":"","type":"bool"}],"stateMutability":"nonpayable","type":"function"},{"inputs":[],"name":"asset","outputs":[{"internalType":"address","name":"","type":"address"}],"stateMutability":"view","type":"function"},{"inputs":[{"internalType":"address","name":"account","type":"address"}],"name":"balanceOf","outputs":[{"internalType":"uint256","name":"","type":"uint256"}],"stateMutability":"view","type":"function"},{"inputs":[],"name":"claim","outputs":[],"stateMutability":"nonpayable","type":"function"},{"inputs":[{"internalType":"uint256","name":"shares","type":"uint256"}],"name":"convertToAssets","outputs":[{"internalType":"uint256","name":"","type":"uint256"}],"stateMutability":"view","type":"function"},{"inputs":[{"internalType":"uint256","name":"assets","type":"uint256"}],"name":"convertToShares","outputs":[{"internalType":"uint256","name":"","type":"uint256"}],"stateMutability":"view","type":"function"},{"inputs":[],"name":"decimals","outputs":[{"internalType":"uint8","name":"","type":"uint8"}],"stateMutability":"view","type":"function"},{"inputs":[{"internalType":"uint256","name":"assets","type":"uint256"},{"internalType":"address","name":"receiver","type":"address"}],"name":"deposit","outputs":[{"internalType":"uint256","name":"shares","type":"uint256"}],"stateMutability":"nonpayable","type":"function"},{"inputs":[{"internalType":"uint256","name":"assets","type":"uint256"},{"components":[{"internalType":"uint8","name":"v","type":"uint8"},{"internalType":"bytes32","name":"r","type":"bytes32"},{"internalType":"bytes32","name":"s","type":"bytes32"},{"internalType":"uint256","name":"nonce","type":"uint256"},{"internalType":"uint256","name":"deadline","type":"uint256"}],"internalType":"struct CampaignVault.Sign","name":"sign","type":"tuple"}],"name":"depositWithSign","outputs":[{"internalType":"uint256","name":"shares","type":"uint256"}],"stateMutability":"nonpayable","type":"function"},{"inputs":[{"internalType":"uint256","name":"_amount","type":"uint256"},{"internalType":"address","name":"_from","type":"address"}],"name":"feedFunds","outputs":[{"internalType":"bool","name":"","type":"bool"}],"stateMutability":"nonpayable","type":"function"},{"inputs":[{"internalType":"address","name":"user","type":"address"}],"name":"getROI","outputs":[{"internalType":"uint256","name":"","type":"uint256"}],"stateMutability":"view","type":"function"},{"inputs":[{"internalType":"bytes32","name":"role","type":"bytes32"}],"name":"getRoleAdmin","outputs":[{"internalType":"bytes32","name":"","type":"bytes32"}],"stateMutability":"view","type":"function"},{"inputs":[{"internalType":"address","name":"user","type":"address"}],"name":"getUserDetails","outputs":[{"components":[{"components":[{"internalType":"uint256","name":"amount","type":"uint256"},{"internalType":"uint256","name":"allocatedShares","type":"uint256"},{"internalType":"uint256","name":"timeStamp","type":"uint256"}],"internalType":"struct CampaignVault.investmentDetail[]","name":"investments","type":"tuple[]"},{"internalType":"uint256","name":"totalAllocatedShares","type":"uint256"},{"internalType":"uint32","name":"lastclaimedIndex","type":"uint32"},{"internalType":"uint256","name":"lastclaimTimestamp","type":"uint256"}],"internalType":"struct CampaignVault.userDetail","name":"","type":"tuple"}],"stateMutability":"view","type":"function"},{"inputs":[{"internalType":"address","name":"user","type":"address"}],"name":"getmaturityROI","outputs":[{"internalType":"uint256","name":"","type":"uint256"}],"stateMutability":"view","type":"function"},{"inputs":[{"internalType":"bytes32","name":"role","type":"bytes32"},{"internalType":"address","name":"account","type":"address"}],"name":"grantRole","outputs":[],"stateMutability":"nonpayable","type":"function"},{"inputs":[{"internalType":"bytes32","name":"role","type":"bytes32"},{"internalType":"address","name":"account","type":"address"}],"name":"hasRole","outputs":[{"internalType":"bool","name":"","type":"bool"}],"stateMutability":"view","type":"function"},{"inputs":[{"internalType":"address","name":"","type":"address"}],"name":"maxDeposit","outputs":[{"internalType":"uint256","name":"","type":"uint256"}],"stateMutability":"view","type":"function"},{"inputs":[{"internalType":"address","name":"","type":"address"}],"name":"maxMint","outputs":[{"internalType":"uint256","name":"","type":"uint256"}],"stateMutability":"view","type":"function"},{"inputs":[{"internalType":"address","name":"owner","type":"address"}],"name":"maxRedeem","outputs":[{"internalType":"uint256","name":"","type":"uint256"}],"stateMutability":"view","type":"function"},{"inputs":[{"internalType":"address","name":"owner","type":"address"}],"name":"maxWithdraw","outputs":[{"internalType":"uint256","name":"","type":"uint256"}],"stateMutability":"view","type":"function"},{"inputs":[{"internalType":"uint256","name":"shares","type":"uint256"},{"internalType":"address","name":"receiver","type":"address"}],"name":"mint","outputs":[{"internalType":"uint256","name":"","type":"uint256"}],"stateMutability":"nonpayable","type":"function"},{"inputs":[],"name":"name","outputs":[{"internalType":"string","name":"","type":"string"}],"stateMutability":"view","type":"function"},{"inputs":[],"name":"pause","outputs":[],"stateMutability":"nonpayable","type":"function"},{"inputs":[],"name":"paused","outputs":[{"internalType":"bool","name":"","type":"bool"}],"stateMutability":"view","type":"function"},{"inputs":[{"internalType":"uint256","name":"assets","type":"uint256"}],"name":"previewDeposit","outputs":[{"internalType":"uint256","name":"","type":"uint256"}],"stateMutability":"view","type":"function"},{"inputs":[{"internalType":"uint256","name":"shares","type":"uint256"}],"name":"previewMint","outputs":[{"internalType":"uint256","name":"","type":"uint256"}],"stateMutability":"view","type":"function"},{"inputs":[{"internalType":"uint256","name":"shares","type":"uint256"}],"name":"previewRedeem","outputs":[{"internalType":"uint256","name":"","type":"uint256"}],"stateMutability":"view","type":"function"},{"inputs":[{"internalType":"uint256","name":"assets","type":"uint256"}],"name":"previewWithdraw","outputs":[{"internalType":"uint256","name":"","type":"uint256"}],"stateMutability":"view","type":"function"},{"inputs":[{"internalType":"uint256","name":"shares","type":"uint256"},{"internalType":"address","name":"receiver","type":"address"},{"internalType":"address","name":"owner","type":"address"}],"name":"redeem","outputs":[{"internalType":"uint256","name":"assets","type":"uint256"}],"stateMutability":"nonpayable","type":"function"},{"inputs":[{"internalType":"bytes32","name":"role","type":"bytes32"},{"internalType":"address","name":"callerConfirmation","type":"address"}],"name":"renounceRole","outputs":[],"stateMutability":"nonpayable","type":"function"},{"inputs":[{"internalType":"address","name":"token","type":"address"},{"internalType":"uint256","name":"amount","type":"uint256"}],"name":"rescueTokens","outputs":[],"stateMutability":"nonpayable","type":"function"},{"inputs":[{"internalType":"bytes32","name":"role","type":"bytes32"},{"internalType":"address","name":"account","type":"address"}],"name":"revokeRole","outputs":[],"stateMutability":"nonpayable","type":"function"},{"inputs":[],"name":"signAuthority","outputs":[{"internalType":"address","name":"","type":"address"}],"stateMutability":"view","type":"function"},{"inputs":[{"internalType":"bytes4","name":"interfaceId","type":"bytes4"}],"name":"supportsInterface","outputs":[{"internalType":"bool","name":"","type":"bool"}],"stateMutability":"view","type":"function"},{"inputs":[],"name":"symbol","outputs":[{"internalType":"string","name":"","type":"string"}],"stateMutability":"view","type":"function"},{"inputs":[],"name":"totalAssets","outputs":[{"internalType":"uint256","name":"","type":"uint256"}],"stateMutability":"view","type":"function"},{"inputs":[],"name":"totalSupply","outputs":[{"internalType":"uint256","name":"","type":"uint256"}],"stateMutability":"view","type":"function"},{"inputs":[{"internalType":"address","name":"to","type":"address"},{"internalType":"uint256","name":"value","type":"uint256"}],"name":"transfer","outputs":[{"internalType":"bool","name":"","type":"bool"}],"stateMutability":"nonpayable","type":"function"},{"inputs":[{"internalType":"address","name":"from","type":"address"},{"internalType":"address","name":"to","type":"address"},{"internalType":"uint256","name":"value","type":"uint256"}],"name":"transferFrom","outputs":[{"internalType":"bool","name":"","type":"bool"}],"stateMutability":"nonpayable","type":"function"},{"inputs":[{"internalType":"address","name":"newUser","type":"address"}],"name":"transferOwnership","outputs":[],"stateMutability":"nonpayable","type":"function"},{"inputs":[],"name":"unpause","outputs":[],"stateMutability":"nonpayable","type":"function"},{"inputs":[{"internalType":"uint256","name":"assets","type":"uint256"},{"internalType":"address","name":"receiver","type":"address"},{"internalType":"address","name":"owner","type":"address"}],"name":"withdraw","outputs":[{"internalType":"uint256","name":"shares","type":"uint256"}],"stateMutability":"nonpayable","type":"function"},{"inputs":[{"internalType":"uint256","name":"amount","type":"uint256"}],"name":"withdrawFunds","outputs":[],"stateMutability":"nonpayable","type":"function"}],"evm":{"bytecode":{"linkReferences":{},"object":"60c0604052600b805463ffffffff1916905560fa60128190556013555f60145534801561002a575f5ffd5b5060405161381a38038061381a8339810160408190526100499161051f565b608081015160408201516060830151600361006483826106d5565b50600461007182826106d5565b5050505f5f610085836102ad60201b60201c565b9150915081610095576012610097565b805b60ff1660a05250506001600160a01b0390811660805260016006558151166100d2576040516314f5977360e11b815260040160405180910390fd5b60208101516001600160a01b03166100fd576040516314f5977360e11b815260040160405180910390fd5b80610120015181610100015110610127576040516329c6f4c160e01b815260040160405180910390fd5b8061018001518161012001511061015157604051630389bd8f60e41b815260040160405180910390fd5b8060c001515f03610175576040516347f46f0160e11b815260040160405180910390fd5b8060c001518160e00151101561019e5760405163084068b160e31b815260040160405180910390fd5b8060a001515f036101c257604051636e29d8a560e11b815260040160405180910390fd5b8061014001515f036101e75760405163614fe19960e11b815260040160405180910390fd5b80516101f4905f90610383565b508051600d80546001600160a01b0319166001600160a01b03928316179055602082015160078054610100600160a81b0319166101009290931682029290921790915560a082015160085560c082015160095560e0820151600a55610140820151600c55810151600e55610120810151600f556101808101516010556101a0810151601155610160810151600b805460ff60201b19166401000000008360028111156102a2576102a261078f565b0217905550506107d0565b60408051600481526024810182526020810180516001600160e01b031663313ce56760e01b17905290515f918291829182916001600160a01b038716916102f3916107a3565b5f60405180830381855afa9150503d805f811461032b576040519150601f19603f3d011682016040523d82523d5f602084013e610330565b606091505b509150915081801561034457506020815110155b15610377575f8180602001905181019061035e91906107b9565b905060ff8111610375576001969095509350505050565b505b505f9485945092505050565b5f8281526005602090815260408083206001600160a01b038516845290915281205460ff16610427575f8381526005602090815260408083206001600160a01b03861684529091529020805460ff191660011790556103df3390565b6001600160a01b0316826001600160a01b0316847f2f8788117e7eff1d82e926ec794901d17c78024a50270940304540a733656f0d60405160405180910390a450600161042a565b505f5b92915050565b634e487b7160e01b5f52604160045260245ffd5b6040516101c081016001600160401b038111828210171561046757610467610430565b60405290565b80516001600160a01b0381168114610483575f5ffd5b919050565b5f82601f830112610497575f5ffd5b81516001600160401b038111156104b0576104b0610430565b604051601f8201601f19908116603f011681016001600160401b03811182821017156104de576104de610430565b6040528181528382016020018510156104f5575f5ffd5b8160208501602083015e5f918101602001919091529392505050565b805160038110610483575f5ffd5b5f6020828403121561052f575f5ffd5b81516001600160401b03811115610544575f5ffd5b82016101c08185031215610556575f5ffd5b61055e610444565b6105678261046d565b81526105756020830161046d565b602082015260408201516001600160401b03811115610592575f5ffd5b61059e86828501610488565b60408301525060608201516001600160401b038111156105bc575f5ffd5b6105c886828501610488565b6060830152506105da6080830161046d565b608082015260a0828101519082015260c0808301519082015260e0808301519082015261010080830151908201526101208083015190820152610140808301519082015261062b6101608301610511565b61016082015261018082810151908201526101a091820151918101919091529392505050565b600181811c9082168061066557607f821691505b60208210810361068357634e487b7160e01b5f52602260045260245ffd5b50919050565b601f8211156106d057805f5260205f20601f840160051c810160208510156106ae5750805b601f840160051c820191505b818110156106cd575f81556001016106ba565b50505b505050565b81516001600160401b038111156106ee576106ee610430565b610702816106fc8454610651565b84610689565b6020601f821160018114610734575f831561071d5750848201515b5f19600385901b1c1916600184901b1784556106cd565b5f84815260208120601f198516915b828110156107635787850151825560209485019460019092019101610743565b508482101561078057868401515f19600387901b60f8161c191681555b50505050600190811b01905550565b634e487b7160e01b5f52602160045260245ffd5b5f82518060208501845e5f920191825250919050565b5f602082840312156107c9575f5ffd5b5051919050565b60805160a051612fc061085a5f395f610ab201525f81816104da015281816107ad015281816109f401528181610cb201528181610e5501528181610f5b01528181610fbf01528181611248015281816114a801528181611e1d01528181611e4e01528181611ebc0152818161200b015281816122950152818161290b015261293c0152612fc05ff3fe608060405234801561000f575f5ffd5b506004361061037d575f3560e01c806370a08231116101d4578063c6e6f59211610109578063dd5967c3116100a9578063ed9dbced11610079578063ed9dbced14610770578063ef8b30f71461069f578063f2fde38b14610783578063f851a44014610796575f5ffd5b8063dd5967c31461071d578063dd62ed3e14610726578063e1e158a51461075e578063e3275eb014610767575f5ffd5b8063cfd7ab91116100e4578063cfd7ab91146106e5578063d2d8cb67146106ee578063d547741f146106f7578063d905777e1461070a575f5ffd5b8063c6e6f5921461069f578063cc3d967b146106b2578063ce96cb77146106d2575f5ffd5b8063a217fddf11610174578063b422271f1161014f578063b422271f14610652578063b460af9414610665578063ba08765214610678578063c63d75b61461068b575f5ffd5b8063a217fddf14610625578063a9059cbb1461062c578063b3d7f6b91461063f575f5ffd5b806391d14854116101af57806391d14854146105ee57806394bf804d1461060157806395d89b411461061457806398b78a4b1461061c575f5ffd5b806370a08231146105b55780638456cb59146105dd578063850d9afb146105e5575f5ffd5b806336568abe116102b55780634bd0c2d811610255578063573761981161022557806357376198146105715780635c975abb146105845780635f04c5e41461058f5780636e553f65146105a2575f5ffd5b80634bd0c2d81461054d5780634cdad506146103d45780634e71d92d14610560578063571e1c6814610568575f5ffd5b80633c37475e116102905780633c37475e146105075780633f4ba83a14610529578063402d267d14610531578063428a8bad14610544575f5ffd5b806336568abe146104c557806338d52e0f146104d85780633bc64d2b146104fe575f5ffd5b806318160ddd11610320578063248a9ca3116102fb578063248a9ca31461046d5780632f2ff15d1461048f578063313ce567146104a257806333acd652146104bc575f5ffd5b806318160ddd1461042257806319dcd8841461042a57806323b872dd1461045a575f5ffd5b806307a2d13a1161035b57806307a2d13a146103d4578063095ea7b3146103e75780630a28a477146103fa578063155dd5ee1461040d575f5ffd5b806301e1d1141461038157806301ffc9a71461039c57806306fdde03146103bf575b5f5ffd5b6103896107a9565b6040519081526020015b60405180910390f35b6103af6103aa366004612b76565b610859565b6040519015158152602001610393565b6103c761088f565b6040516103939190612b9d565b6103896103e2366004612bd2565b61091f565b6103af6103f5366004612c04565b61092a565b610389610408366004612bd2565b610941565b61042061041b366004612bd2565b61094d565b005b600254610389565b6007546104429061010090046001600160a01b031681565b6040516001600160a01b039091168152602001610393565b6103af610468366004612c2c565b610a5c565b61038961047b366004612bd2565b5f9081526005602052604090206001015490565b61042061049d366004612c66565b610a81565b6104aa610aab565b60405160ff9091168152602001610393565b61038960115481565b6104206104d3366004612c66565b610adb565b7f0000000000000000000000000000000000000000000000000000000000000000610442565b61038960085481565b600b5461051c90640100000000900460ff1681565b6040516103939190612ca4565b610420610b13565b61038961053f366004612cca565b610b25565b61038960145481565b61038961055b366004612cca565b610b79565b610420610b83565b61038960125481565b61042061057f366004612c04565b610c7f565b60075460ff166103af565b61038961059d366004612ce3565b610dbd565b6103896105b0366004612c66565b6110f4565b6103896105c3366004612cca565b6001600160a01b03165f9081526020819052604090205490565b610420611362565b610389600f5481565b6103af6105fc366004612c66565b611374565b61038961060f366004612c66565b61139e565b6103c76113c1565b61038960135481565b6103895f81565b6103af61063a366004612c04565b6113d0565b61038961064d366004612bd2565b6113dd565b6103af610660366004612c66565b6113e9565b610389610673366004612d18565b6115b8565b610389610686366004612d18565b611698565b610389610699366004612cca565b505f1990565b6103896106ad366004612bd2565b61174a565b6106c56106c0366004612cca565b611755565b6040516103939190612d51565b6103896106e0366004612cca565b611842565b610389600e5481565b610389600c5481565b610420610705366004612c66565b611864565b610389610718366004612cca565b611888565b610389600a5481565b610389610734366004612dea565b6001600160a01b039182165f90815260016020908152604080832093909416825291909152205490565b61038960095481565b61038960105481565b61038961077e366004612cca565b6118a5565b610420610791366004612cca565b6118df565b600d54610442906001600160a01b031681565b5f807f00000000000000000000000000000000000000000000000000000000000000006040516370a0823160e01b81523060048201526001600160a01b0391909116906370a0823190602401602060405180830381865afa158015610810573d5f5f3e3d5ffd5b505050506040513d601f19601f820116820180604052508101906108349190612e12565b90506015548111610846575f91505090565b6015546108539082612e3d565b91505090565b5f6001600160e01b03198216637965db0b60e01b148061088957506301ffc9a760e01b6001600160e01b03198316145b92915050565b60606003805461089e90612e50565b80601f01602080910402602001604051908101604052809291908181526020018280546108ca90612e50565b80156109155780601f106108ec57610100808354040283529160200191610915565b820191905f5260205f20905b8154815290600101906020018083116108f857829003601f168201915b5050505050905090565b5f610889825f611a03565b5f33610937818585611a1a565b5060019392505050565b5f610889826001611a27565b610955611a3e565b61095d611a68565b5f61096781611a8c565b600f544210801561097b5750600854601454105b1561099957604051630ac3270f60e41b815260040160405180910390fd5b815f036109b9576040516326753bb560e11b815260040160405180910390fd5b6109c16107a9565b8211156109e157604051635462f71f60e01b815260040160405180910390fd5b600d54610a24906001600160a01b0316837f00000000000000000000000000000000000000000000000000000000000000005b6001600160a01b03169190611a96565b60405182907f5fafc30b7c5090dc417458251e397ac4cfa3c5be8195e2312894b18b125e1fc3905f90a250610a596001600655565b50565b5f33610a69858285611af5565b610a74858585611b58565b60019150505b9392505050565b5f82815260056020526040902060010154610a9b81611a8c565b610aa58383611bb5565b50505050565b5f610ad6817f0000000000000000000000000000000000000000000000000000000000000000612e88565b905090565b6001600160a01b0381163314610b045760405163334bd91960e11b815260040160405180910390fd5b610b0e8282611c46565b505050565b5f610b1d81611a8c565b610a59611cb1565b5f600e54421080610b375750600f5442115b15610b4357505f919050565b60085460145410610b5557505f919050565b5f601454600854610b669190612e3d565b9050600a54811061088957600a54610a7a565b5f61088982611d03565b610b8b611a3e565b610b93611a68565b600f5442108015610ba75750600854601454105b15610bc557604051630ac3270f60e41b815260040160405180910390fd5b5f600b54640100000000900460ff166002811115610be557610be5612c90565b148015610bf457506010544210155b15610c0657610c01611d41565b610c73565b6001600b54640100000000900460ff166002811115610c2757610c27612c90565b03610c3457610c01611ee0565b6002600b54640100000000900460ff166002811115610c5557610c55612c90565b03610c73576010544210610c6b57610c01611d41565b610c73611ee0565b610c7d6001600655565b565b5f610c8981611a8c565b6001600160a01b038316610cb0576040516314f5977360e11b815260040160405180910390fd5b7f00000000000000000000000000000000000000000000000000000000000000006001600160a01b0316836001600160a01b031603610d02576040516316abf95d60e31b815260040160405180910390fd5b815f03610d22576040516326753bb560e11b815260040160405180910390fd5b6040516370a0823160e01b815230600482015282906001600160a01b038516906370a0823190602401602060405180830381865afa158015610d66573d5f5f3e3d5ffd5b505050506040513d601f19601f82011682018060405250810190610d8a9190612e12565b1015610da957604051635462f71f60e01b815260040160405180910390fd5b610b0e6001600160a01b0384163384611a96565b5f610dc6611a3e565b610dce611a68565b600e54421080610ddf5750600f5442115b80610dee575060085460145410155b15610e0c57604051633e8502df60e01b815260040160405180910390fd5b825f03610e2c576040516326753bb560e11b815260040160405180910390fd5b5f3390505f610e41856012546127105f61202f565b90505f610e4e8287612e3d565b9050610e7d7f00000000000000000000000000000000000000000000000000000000000000008388868961207a565b60608501355f9081526018602052604090205460ff1615610eb1576040516331537f5560e21b815260040160405180910390fd5b600954811015610ed45760405163ac1e14e560e01b815260040160405180910390fd5b60085481601454610ee59190612ea1565b1115610f04576040516317c0604960e31b815260040160405180910390fd5b5f610f0e84610b25565b905080821115610f4057838282604051633c8097d960e11b8152600401610f3793929190612eb4565b60405180910390fd5b5f610f4b835f611a27565b90508215610f8c57610f8c8530857f00000000000000000000000000000000000000000000000000000000000000005b6001600160a01b0316929190612196565b5f84118015610fa55750600d546001600160a01b031615155b15610fe357600d54610fe39086906001600160a01b0316867f0000000000000000000000000000000000000000000000000000000000000000610f7b565b610fed85826121cf565b60608701355f908152601860205260408120805460ff191660011790556014805485929061101c908490612ea1565b90915550506001600160a01b0385165f8181526017602081815260408084208151606081018352898152808401888152429382019384528254600181810185558489528689209351600390920290930190815590518183015592516002909301929092559484529190529091018054839290611099908490612ea1565b909155505060408051848152602081018390526001600160a01b0387169182917fdcbc1c05240f31ff3ad067ef1ee35ce4997762752e3a095284754544f4c709d7910160405180910390a39450505050506108896001600655565b5f6110fd611a3e565b611105611a68565b600e544210806111165750600f5442115b80611125575060085460145410155b1561114357604051633e8502df60e01b815260040160405180910390fd5b825f03611163576040516326753bb560e11b815260040160405180910390fd5b6001600160a01b038216331461118c5760405163162692a760e01b815260040160405180910390fd5b5f61119d846012546127105f61202f565b90505f6111aa8286612e3d565b90506009548110156111e557600854816014546111c79190612ea1565b146111e55760405163ac1e14e560e01b815260040160405180910390fd5b600854816014546111f69190612ea1565b1115611215576040516317c0604960e31b815260040160405180910390fd5b5f8211801561122e5750600d546001600160a01b031615155b1561126c57600d5461126c9033906001600160a01b0316847f0000000000000000000000000000000000000000000000000000000000000000610f7b565b6112768185612207565b6001600160a01b0385165f818152601760208181526040808420815160608101835288815280840188815242938201938452825460018181018555848952868920935160039092029093019081559051818301559251600290930192909255948452919052909101805492955085929091906112f3908490612ea1565b925050819055508060145f82825461130b9190612ea1565b909155505060408051828152602081018590526001600160a01b0386169182917fdcbc1c05240f31ff3ad067ef1ee35ce4997762752e3a095284754544f4c709d7910160405180910390a350506108896001600655565b5f61136c81611a8c565b610a59612253565b5f9182526005602090815260408084206001600160a01b0393909316845291905290205460ff1690565b5f5f195f6113ab856113dd565b90506113b933858388612290565b949350505050565b60606004805461089e90612e50565b5f33610937818585611b58565b5f610889826001611a03565b5f6113f2611a3e565b6113fa611a68565b5f61140481611a8c565b835f03611424576040516326753bb560e11b815260040160405180910390fd5b6001600160a01b03831661144b576040516314f5977360e11b815260040160405180910390fd5b5f61145560025490565b9050805f036114775760405163c450ddf160e01b815260040160405180910390fd5b600b5463ffffffff908116106114a057604051632e6b161360e01b815260040160405180910390fd5b6114cc8430877f0000000000000000000000000000000000000000000000000000000000000000610f7b565b600b546114e09063ffffffff166001612ed5565b600b805463ffffffff191663ffffffff929092169190911790555f61150f86670de0b6b3a7640000848461202f565b604080518082018252828152426020808301918252600b5463ffffffff165f9081526016909152928320915182555160019091015560158054929350889290919061155b908490612ea1565b9091555050600b546040805188815263ffffffff90921660208301524282820152517f6f030ba6d582d7a59edc355267529fa420bb4a982750488913f3ee91645e3aeb9181900360600190a1600193505050506108896001600655565b5f6115c1611a3e565b6115c9611a68565b835f036115e9576040516326753bb560e11b815260040160405180910390fd5b5f611608856127106013546127106116019190612e3d565b600161202f565b905061161381610941565b6001600160a01b0384165f908152601760205260409020600101549092508211156116505760405162c5644d60e71b815260040160405180910390fd5b6001600160a01b0383165f908152601760205260408120600101805484929061167a908490612e3d565b9091555061168b9050818585612322565b915050610a7a6001600655565b5f6116a1611a3e565b6116a9611a68565b835f036116c9576040516326753bb560e11b815260040160405180910390fd5b6001600160a01b0382165f908152601760205260409020600101548411156117035760405162c5644d60e71b815260040160405180910390fd5b6001600160a01b0382165f908152601760205260408120600101805486929061172d908490612e3d565b9091555061173e905084848461236f565b9050610a7a6001600655565b5f610889825f611a27565b6117836040518060800160405280606081526020015f81526020015f63ffffffff1681526020015f81525090565b6001600160a01b0382165f9081526017602090815260408083208151815460a09481028201850190935260808101838152909491938593919285929185015b8282101561180f578382905f5260205f2090600302016040518060600160405290815f820154815260200160018201548152602001600282015481525050815260200190600101906117c2565b5050509082525060018201546020820152600282015463ffffffff16604082015260039091015460609091015292915050565b6001600160a01b0381165f90815260208190526040812054610889905f611a03565b5f8281526005602052604090206001015461187e81611a8c565b610aa58383611c46565b6001600160a01b0381165f90815260208190526040812054610889565b6001600160a01b0381165f9081526017602052604081206002015481906118d39063ffffffff166001612ed5565b9050610a7a83826123bc565b6118e7611a3e565b6118ef611a68565b5f6118f981611a8c565b6001600160a01b038216611920576040516314f5977360e11b815260040160405180910390fd5b600d546001600160a01b039081169083160361194f5760405163ce3b397b60e01b815260040160405180910390fd5b6119595f83611374565b156119775760405163ce3b397b60e01b815260040160405180910390fd5b600d546001600160a01b031661198d5f82611c46565b50600d80546001600160a01b0319166001600160a01b0385161790556119b35f84611bb5565b50604080516001600160a01b038084168252851660208201527fb532073b38c83145e3e5135377a08bf9aab55bc0fd7c1179cd4fb995d2a5159c910160405180910390a15050610a596001600655565b5f610a7a83600c54670de0b6b3a76400008561202f565b610b0e8383836001612457565b5f610a7a83670de0b6b3a7640000600c548561202f565b600260065403611a6157604051633ee5aeb560e01b815260040160405180910390fd5b6002600655565b60075460ff1615610c7d5760405163d93c066560e01b815260040160405180910390fd5b610a59813361251b565b6040516001600160a01b03838116602483015260448201839052610b0e91859182169063a9059cbb906064015b604051602081830303815290604052915060e01b6020820180516001600160e01b038381831617835250505050612554565b6001600160a01b038381165f908152600160209081526040808320938616835292905220545f19811015610aa55781811015611b4a57828183604051637dc7a0d960e11b8152600401610f3793929190612eb4565b610aa584848484035f612457565b6001600160a01b038316611b8157604051634b637e8f60e11b81525f6004820152602401610f37565b6001600160a01b038216611baa5760405163ec442f0560e01b81525f6004820152602401610f37565b610b0e8383836125c0565b5f611bc08383611374565b611c3f575f8381526005602090815260408083206001600160a01b03861684529091529020805460ff19166001179055611bf73390565b6001600160a01b0316826001600160a01b0316847f2f8788117e7eff1d82e926ec794901d17c78024a50270940304540a733656f0d60405160405180910390a4506001610889565b505f610889565b5f611c518383611374565b15611c3f575f8381526005602090815260408083206001600160a01b0386168085529252808320805460ff1916905551339286917ff6391f5c32d9c69d2a47ea670b442974b53935d1edc7fd64eb21e047a839171b9190a4506001610889565b611cb96126d3565b6007805460ff191690557f5db9ee0a495bf2e6ff9c91a7834c1ba4fdd244a5e8aa4e537bd38aeae4b073aa335b6040516001600160a01b03909116815260200160405180910390a1565b6001600160a01b0381165f90815260176020526040812060018101548203611d2d57505f92915050565b610a7a81600101546011546127105f61202f565b335f611d4c82611d03565b6001600160a01b0383165f9081526017602052604090206001015490915081158015611d76575080155b15611d94576040516344388c2b60e01b815260040160405180910390fd5b5f611d9f825f611a03565b6001600160a01b0385165f9081526017602052604081206001015590508115611e7557611dcc84836126f6565b5f611ddd826013546127105f61202f565b90505f611dea8284612e3d565b90505f82118015611e055750600d546001600160a01b031615155b15611e4157600d54611e41906001600160a01b0316837f0000000000000000000000000000000000000000000000000000000000000000610a14565b8015611e7257611e7286827f0000000000000000000000000000000000000000000000000000000000000000610a14565b50505b8215610aa557826015541015611e9e57604051637521b38f60e11b815260040160405180910390fd5b8260155f828254611eaf9190612e3d565b90915550610aa5905084847f0000000000000000000000000000000000000000000000000000000000000000610a14565b600b5463ffffffff165f03611f08576040516328bf11b960e11b815260040160405180910390fd5b335f81815260176020526040812060020154611f2b9063ffffffff166001612ed5565b600b5490915063ffffffff9081169082161115611f5b57604051631114dc6360e01b815260040160405180910390fd5b5f611f6683836123bc565b9050805f03611f885760405163e7f2f92f60e01b815260040160405180910390fd5b600b546001600160a01b0384165f90815260176020526040902060028101805463ffffffff191663ffffffff9093169290921790915542600390910155601554811115611fe857604051637521b38f60e11b815260040160405180910390fd5b8060155f828254611ff99190612e3d565b90915550508015610b0e57610b0e83827f0000000000000000000000000000000000000000000000000000000000000000610a14565b5f61205c61203c8361272a565b801561205757505f848061205257612052612ef1565b868809115b151590565b612067868686612756565b6120719190612ea1565b95945050505050565b8060800135804211156120a35760405163a53b254560e01b815260048101829052602401610f37565b60408051306020808301919091526001600160a01b038681168385015289166060808401919091526080830188905260a083018990524660c084015285013560e0808401919091528351808403909101815261010090920190925280519101207f19457468657265756d205369676e6564204d6573736167653a0a3332000000005f908152601c829052603c812090505f6121556121446020870187612f05565b839060208801356040890135612806565b6007549091506001600160a01b03808316610100909204161461218b5760405163dc9796c960e01b815260040160405180910390fd5b505050505050505050565b6040516001600160a01b038481166024830152838116604483015260648201839052610aa59186918216906323b872dd90608401611ac3565b6001600160a01b0382166121f85760405163ec442f0560e01b81525f6004820152602401610f37565b6122035f83836125c0565b5050565b5f5f61221283610b25565b90508084111561223b57828482604051633c8097d960e11b8152600401610f3793929190612eb4565b5f6122458561174a565b90506113b933858784612290565b61225b611a68565b6007805460ff191660011790557f62e78cea01bee320cd4e420270b5ea74000d11b0c9f74754ebdbfc544b05a258611ce63390565b6122bc7f0000000000000000000000000000000000000000000000000000000000000000853085612196565b6122c683826121cf565b826001600160a01b0316846001600160a01b03167fdcbc1c05240f31ff3ad067ef1ee35ce4997762752e3a095284754544f4c709d78484604051612314929190918252602082015260400190565b60405180910390a350505050565b5f5f61232d83611842565b90508085111561235657828582604051633fa733bb60e21b8152600401610f3793929190612eb4565b5f61236086610941565b90506120713386868985612832565b5f5f61237a83611888565b9050808511156123a357828582604051632e52afbb60e21b8152600401610f3793929190612eb4565b5f6123ad8661091f565b9050612071338686848a612832565b6001600160a01b0382165f908152601760205260408120600181015482036123e7575f915050610889565b5f835b600b5463ffffffff9081169082161161244e5763ffffffff81165f90815260166020526040812060018501548154919261242e9290670de0b6b3a76400009061202f565b6124389084612ea1565b925050808061244690612f25565b9150506123ea565b50949350505050565b6001600160a01b0384166124805760405163e602df0560e01b81525f6004820152602401610f37565b6001600160a01b0383166124a957604051634a1406b160e11b81525f6004820152602401610f37565b6001600160a01b038085165f9081526001602090815260408083209387168352929052208290558015610aa557826001600160a01b0316846001600160a01b03167f8c5be1e5ebec7d5bd14f71427d1e84f3dd0314c0f7b2291e5b200ac8c7c3b9258460405161231491815260200190565b6125258282611374565b6122035760405163e2517d3f60e01b81526001600160a01b038216600482015260248101839052604401610f37565b5f5f60205f8451602086015f885af180612573576040513d5f823e3d81fd5b50505f513d9150811561258a578060011415612597565b6001600160a01b0384163b155b15610aa557604051635274afe760e01b81526001600160a01b0385166004820152602401610f37565b6001600160a01b0383166125ea578060025f8282546125df9190612ea1565b909155506126479050565b6001600160a01b0383165f90815260208190526040902054818110156126295783818360405163391434e360e21b8152600401610f3793929190612eb4565b6001600160a01b0384165f9081526020819052604090209082900390555b6001600160a01b03821661266357600280548290039055612681565b6001600160a01b0382165f9081526020819052604090208054820190555b816001600160a01b0316836001600160a01b03167fddf252ad1be2c89b69c2b068fc378daa952ba7f163c4a11628f55a4df523b3ef836040516126c691815260200190565b60405180910390a3505050565b60075460ff16610c7d57604051638dfc202b60e01b815260040160405180910390fd5b6001600160a01b03821661271f57604051634b637e8f60e11b81525f6004820152602401610f37565b612203825f836125c0565b5f600282600381111561273f5761273f612c90565b6127499190612f49565b60ff166001149050919050565b5f5f5f61276386866129c9565b91509150815f036127875783818161277d5761277d612ef1565b0492505050610a7a565b81841161279e5761279e60038515026011186129e5565b5f848688095f868103871696879004966002600389028118808a02820302808a02820302808a02820302808a02820302808a02820302808a02909103029181900381900460010185841190960395909502919093039390930492909217029150509392505050565b5f5f5f5f612816888888886129f6565b9250925092506128268282612abe565b50909695505050505050565b826001600160a01b0316856001600160a01b03161461285657612856838683611af5565b6001600160a01b0383165f9081526017602052604090206001015481111561288057612880612f76565b6001600160a01b0383165f90815260176020526040812060010180548392906128aa908490612e3d565b909155506128ba905083826126f6565b5f6128cb836013546127105f61202f565b90505f6128d88285612e3d565b90505f821180156128f35750600d546001600160a01b031615155b1561292f57600d5461292f906001600160a01b0316837f0000000000000000000000000000000000000000000000000000000000000000610a14565b80156129605761296086827f0000000000000000000000000000000000000000000000000000000000000000610a14565b846001600160a01b0316866001600160a01b0316886001600160a01b03167ffbde797d201c681b91056529119e0b02407c7bb96a4a2c75c01fc9667232c8db87876040516129b8929190918252602082015260400190565b60405180910390a450505050505050565b5f805f1983850993909202808410938190039390930393915050565b634e487b715f52806020526024601cfd5b5f80807f7fffffffffffffffffffffffffffffff5d576e7357a4501ddfe92f46681b20a0841115612a2f57505f91506003905082612ab4565b604080515f808252602082018084528a905260ff891692820192909252606081018790526080810186905260019060a0016020604051602081039080840390855afa158015612a80573d5f5f3e3d5ffd5b5050604051601f1901519150506001600160a01b038116612aab57505f925060019150829050612ab4565b92505f91508190505b9450945094915050565b5f826003811115612ad157612ad1612c90565b03612ada575050565b6001826003811115612aee57612aee612c90565b03612b0c5760405163f645eedf60e01b815260040160405180910390fd5b6002826003811115612b2057612b20612c90565b03612b415760405163fce698f760e01b815260048101829052602401610f37565b6003826003811115612b5557612b55612c90565b03612203576040516335e2f38360e21b815260048101829052602401610f37565b5f60208284031215612b86575f5ffd5b81356001600160e01b031981168114610a7a575f5ffd5b602081525f82518060208401528060208501604085015e5f604082850101526040601f19601f83011684010191505092915050565b5f60208284031215612be2575f5ffd5b5035919050565b80356001600160a01b0381168114612bff575f5ffd5b919050565b5f5f60408385031215612c15575f5ffd5b612c1e83612be9565b946020939093013593505050565b5f5f5f60608486031215612c3e575f5ffd5b612c4784612be9565b9250612c5560208501612be9565b929592945050506040919091013590565b5f5f60408385031215612c77575f5ffd5b82359150612c8760208401612be9565b90509250929050565b634e487b7160e01b5f52602160045260245ffd5b6020810160038310612cc457634e487b7160e01b5f52602160045260245ffd5b91905290565b5f60208284031215612cda575f5ffd5b610a7a82612be9565b5f5f82840360c0811215612cf5575f5ffd5b8335925060a0601f1982011215612d0a575f5ffd5b506020830190509250929050565b5f5f5f60608486031215612d2a575f5ffd5b83359250612d3a60208501612be9565b9150612d4860408501612be9565b90509250925092565b60208082528251608083830152805160a084018190525f929190910190829060c08501905b80831015612db057835180518352602081015160208401526040810151604084015250606082019150602084019350600183019250612d76565b506020860151604086015260408601519250612dd4606086018463ffffffff169052565b6060860151608086015280935050505092915050565b5f5f60408385031215612dfb575f5ffd5b612e0483612be9565b9150612c8760208401612be9565b5f60208284031215612e22575f5ffd5b5051919050565b634e487b7160e01b5f52601160045260245ffd5b8181038181111561088957610889612e29565b600181811c90821680612e6457607f821691505b602082108103612e8257634e487b7160e01b5f52602260045260245ffd5b50919050565b60ff818116838216019081111561088957610889612e29565b8082018082111561088957610889612e29565b6001600160a01b039390931683526020830191909152604082015260600190565b63ffffffff818116838216019081111561088957610889612e29565b634e487b7160e01b5f52601260045260245ffd5b5f60208284031215612f15575f5ffd5b813560ff81168114610a7a575f5ffd5b5f63ffffffff821663ffffffff8103612f4057612f40612e29565b60010192915050565b5f60ff831680612f6757634e487b7160e01b5f52601260045260245ffd5b8060ff84160691505092915050565b634e487b7160e01b5f52600160045260245ffdfea2646970667358221220e6d8b0ab0a27d8058d322b2feb3255b3388dc8c2ed21177e3a63e5c6d49037c264736f6c634300081e0033","opcodes":"PUSH1 0xC0 PUSH1 0x40 MSTORE PUSH1 0xB DUP1 SLOAD PUSH4 0xFFFFFFFF NOT AND SWAP1 SSTORE PUSH1 0xFA PUSH1 0x12 DUP2 SWAP1 SSTORE PUSH1 0x13 SSTORE PUSH0 PUSH1 0x14 SSTORE CALLVALUE DUP1 ISZERO PUSH2 0x2A JUMPI PUSH0 PUSH0 REVERT JUMPDEST POP PUSH1 0x40 MLOAD PUSH2 0x381A CODESIZE SUB DUP1 PUSH2 0x381A DUP4 CODECOPY DUP2 ADD PUSH1 0x40 DUP2 SWAP1 MSTORE PUSH2 0x49 SWAP2 PUSH2 0x51F JUMP JUMPDEST PUSH1 0x80 DUP2 ADD MLOAD PUSH1 0x40 DUP3 ADD MLOAD PUSH1 0x60 DUP4 ADD MLOAD PUSH1 0x3 PUSH2 0x64 DUP4 DUP3 PUSH2 0x6D5 JUMP JUMPDEST POP PUSH1 0x4 PUSH2 0x71 DUP3 DUP3 PUSH2 0x6D5 JUMP JUMPDEST POP POP POP PUSH0 PUSH0 PUSH2 0x85 DUP4 PUSH2 0x2AD PUSH1 0x20 SHL PUSH1 0x20 SHR JUMP JUMPDEST SWAP2 POP SWAP2 POP DUP2 PUSH2 0x95 JUMPI PUSH1 0x12 PUSH2 0x97 JUMP JUMPDEST DUP1 JUMPDEST PUSH1 0xFF AND PUSH1 0xA0 MSTORE POP POP PUSH1 0x1 PUSH1 0x1 PUSH1 0xA0 SHL SUB SWAP1 DUP2 AND PUSH1 0x80 MSTORE PUSH1 0x1 PUSH1 0x6 SSTORE DUP2 MLOAD AND PUSH2 0xD2 JUMPI PUSH1 0x40 MLOAD PUSH4 0x14F59773 PUSH1 0xE1 SHL DUP2 MSTORE PUSH1 0x4 ADD PUSH1 0x40 MLOAD DUP1 SWAP2 SUB SWAP1 REVERT JUMPDEST PUSH1 0x20 DUP2 ADD MLOAD PUSH1 0x1 PUSH1 0x1 PUSH1 0xA0 SHL SUB AND PUSH2 0xFD JUMPI PUSH1 0x40 MLOAD PUSH4 0x14F59773 PUSH1 0xE1 SHL DUP2 MSTORE PUSH1 0x4 ADD PUSH1 0x40 MLOAD DUP1 SWAP2 SUB SWAP1 REVERT JUMPDEST DUP1 PUSH2 0x120 ADD MLOAD DUP2 PUSH2 0x100 ADD MLOAD LT PUSH2 0x127 JUMPI PUSH1 0x40 MLOAD PUSH4 0x29C6F4C1 PUSH1 0xE0 SHL DUP2 MSTORE PUSH1 0x4 ADD PUSH1 0x40 MLOAD DUP1 SWAP2 SUB SWAP1 REVERT JUMPDEST DUP1 PUSH2 0x180 ADD MLOAD DUP2 PUSH2 0x120 ADD MLOAD LT PUSH2 0x151 JUMPI PUSH1 0x40 MLOAD PUSH4 0x389BD8F PUSH1 0xE4 SHL DUP2 MSTORE PUSH1 0x4 ADD PUSH1 0x40 MLOAD DUP1 SWAP2 SUB SWAP1 REVERT JUMPDEST DUP1 PUSH1 0xC0 ADD MLOAD PUSH0 SUB PUSH2 0x175 JUMPI PUSH1 0x40 MLOAD PUSH4 0x47F46F01 PUSH1 0xE1 SHL DUP2 MSTORE PUSH1 0x4 ADD PUSH1 0x40 MLOAD DUP1 SWAP2 SUB SWAP1 REVERT JUMPDEST DUP1 PUSH1 0xC0 ADD MLOAD DUP2 PUSH1 0xE0 ADD MLOAD LT ISZERO PUSH2 0x19E JUMPI PUSH1 0x40 MLOAD PUSH4 0x84068B1 PUSH1 0xE3 SHL DUP2 MSTORE PUSH1 0x4 ADD PUSH1 0x40 MLOAD DUP1 SWAP2 SUB SWAP1 REVERT JUMPDEST DUP1 PUSH1 0xA0 ADD MLOAD PUSH0 SUB PUSH2 0x1C2 JUMPI PUSH1 0x40 MLOAD PUSH4 0x6E29D8A5 PUSH1 0xE1 SHL DUP2 MSTORE PUSH1 0x4 ADD PUSH1 0x40 MLOAD DUP1 SWAP2 SUB SWAP1 REVERT JUMPDEST DUP1 PUSH2 0x140 ADD MLOAD PUSH0 SUB PUSH2 0x1E7 JUMPI PUSH1 0x40 MLOAD PUSH4 0x614FE199 PUSH1 0xE1 SHL DUP2 MSTORE PUSH1 0x4 ADD PUSH1 0x40 MLOAD DUP1 SWAP2 SUB SWAP1 REVERT JUMPDEST DUP1 MLOAD PUSH2 0x1F4 SWAP1 PUSH0 SWAP1 PUSH2 0x383 JUMP JUMPDEST POP DUP1 MLOAD PUSH1 0xD DUP1 SLOAD PUSH1 0x1 PUSH1 0x1 PUSH1 0xA0 SHL SUB NOT AND PUSH1 0x1 PUSH1 0x1 PUSH1 0xA0 SHL SUB SWAP3 DUP4 AND OR SWAP1 SSTORE PUSH1 0x20 DUP3 ADD MLOAD PUSH1 0x7 DUP1 SLOAD PUSH2 0x100 PUSH1 0x1 PUSH1 0xA8 SHL SUB NOT AND PUSH2 0x100 SWAP3 SWAP1 SWAP4 AND DUP3 MUL SWAP3 SWAP1 SWAP3 OR SWAP1 SWAP2 SSTORE PUSH1 0xA0 DUP3 ADD MLOAD PUSH1 0x8 SSTORE PUSH1 0xC0 DUP3 ADD MLOAD PUSH1 0x9 SSTORE PUSH1 0xE0 DUP3 ADD MLOAD PUSH1 0xA SSTORE PUSH2 0x140 DUP3 ADD MLOAD PUSH1 0xC SSTORE DUP2 ADD MLOAD PUSH1 0xE SSTORE PUSH2 0x120 DUP2 ADD MLOAD PUSH1 0xF SSTORE PUSH2 0x180 DUP2 ADD MLOAD PUSH1 0x10 SSTORE PUSH2 0x1A0 DUP2 ADD MLOAD PUSH1 0x11 SSTORE PUSH2 0x160 DUP2 ADD MLOAD PUSH1 0xB DUP1 SLOAD PUSH1 0xFF PUSH1 0x20 SHL NOT AND PUSH5 0x100000000 DUP4 PUSH1 0x2 DUP2 GT ISZERO PUSH2 0x2A2 JUMPI PUSH2 0x2A2 PUSH2 0x78F JUMP JUMPDEST MUL OR SWAP1 SSTORE POP POP PUSH2 0x7D0 JUMP JUMPDEST PUSH1 0x40 DUP1 MLOAD PUSH1 0x4 DUP2 MSTORE PUSH1 0x24 DUP2 ADD DUP3 MSTORE PUSH1 0x20 DUP2 ADD DUP1 MLOAD PUSH1 0x1 PUSH1 0x1 PUSH1 0xE0 SHL SUB AND PUSH4 0x313CE567 PUSH1 0xE0 SHL OR SWAP1 MSTORE SWAP1 MLOAD PUSH0 SWAP2 DUP3 SWAP2 DUP3 SWAP2 DUP3 SWAP2 PUSH1 0x1 PUSH1 0x1 PUSH1 0xA0 SHL SUB DUP8 AND SWAP2 PUSH2 0x2F3 SWAP2 PUSH2 0x7A3 JUMP JUMPDEST PUSH0 PUSH1 0x40 MLOAD DUP1 DUP4 SUB DUP2 DUP6 GAS STATICCALL SWAP2 POP POP RETURNDATASIZE DUP1 PUSH0 DUP2 EQ PUSH2 0x32B JUMPI PUSH1 0x40 MLOAD SWAP2 POP PUSH1 0x1F NOT PUSH1 0x3F RETURNDATASIZE ADD AND DUP3 ADD PUSH1 0x40 MSTORE RETURNDATASIZE DUP3 MSTORE RETURNDATASIZE PUSH0 PUSH1 0x20 DUP5 ADD RETURNDATACOPY PUSH2 0x330 JUMP JUMPDEST PUSH1 0x60 SWAP2 POP JUMPDEST POP SWAP2 POP SWAP2 POP DUP2 DUP1 ISZERO PUSH2 0x344 JUMPI POP PUSH1 0x20 DUP2 MLOAD LT ISZERO JUMPDEST ISZERO PUSH2 0x377 JUMPI PUSH0 DUP2 DUP1 PUSH1 0x20 ADD SWAP1 MLOAD DUP2 ADD SWAP1 PUSH2 0x35E SWAP2 SWAP1 PUSH2 0x7B9 JUMP JUMPDEST SWAP1 POP PUSH1 0xFF DUP2 GT PUSH2 0x375 JUMPI PUSH1 0x1 SWAP7 SWAP1 SWAP6 POP SWAP4 POP POP POP POP JUMP JUMPDEST POP JUMPDEST POP PUSH0 SWAP5 DUP6 SWAP5 POP SWAP3 POP POP POP JUMP JUMPDEST PUSH0 DUP3 DUP2 MSTORE PUSH1 0x5 PUSH1 0x20 SWAP1 DUP2 MSTORE PUSH1 0x40 DUP1 DUP4 KECCAK256 PUSH1 0x1 PUSH1 0x1 PUSH1 0xA0 SHL SUB DUP6 AND DUP5 MSTORE SWAP1 SWAP2 MSTORE DUP2 KECCAK256 SLOAD PUSH1 0xFF AND PUSH2 0x427 JUMPI PUSH0 DUP4 DUP2 MSTORE PUSH1 0x5 PUSH1 0x20 SWAP1 DUP2 MSTORE PUSH1 0x40 DUP1 DUP4 KECCAK256 PUSH1 0x1 PUSH1 0x1 PUSH1 0xA0 SHL SUB DUP7 AND DUP5 MSTORE SWAP1 SWAP2 MSTORE SWAP1 KECCAK256 DUP1 SLOAD PUSH1 0xFF NOT AND PUSH1 0x1 OR SWAP1 SSTORE PUSH2 0x3DF CALLER SWAP1 JUMP JUMPDEST PUSH1 0x1 PUSH1 0x1 PUSH1 0xA0 SHL SUB AND DUP3 PUSH1 0x1 PUSH1 0x1 PUSH1 0xA0 SHL SUB AND DUP5 PUSH32 0x2F8788117E7EFF1D82E926EC794901D17C78024A50270940304540A733656F0D PUSH1 0x40 MLOAD PUSH1 0x40 MLOAD DUP1 SWAP2 SUB SWAP1 LOG4 POP PUSH1 0x1 PUSH2 0x42A JUMP JUMPDEST POP PUSH0 JUMPDEST SWAP3 SWAP2 POP POP JUMP JUMPDEST PUSH4 0x4E487B71 PUSH1 0xE0 SHL PUSH0 MSTORE PUSH1 0x41 PUSH1 0x4 MSTORE PUSH1 0x24 PUSH0 REVERT JUMPDEST PUSH1 0x40 MLOAD PUSH2 0x1C0 DUP2 ADD PUSH1 0x1 PUSH1 0x1 PUSH1 0x40 SHL SUB DUP2 GT DUP3 DUP3 LT OR ISZERO PUSH2 0x467 JUMPI PUSH2 0x467 PUSH2 0x430 JUMP JUMPDEST PUSH1 0x40 MSTORE SWAP1 JUMP JUMPDEST DUP1 MLOAD PUSH1 0x1 PUSH1 0x1 PUSH1 0xA0 SHL SUB DUP2 AND DUP2 EQ PUSH2 0x483 JUMPI PUSH0 PUSH0 REVERT JUMPDEST SWAP2 SWAP1 POP JUMP JUMPDEST PUSH0 DUP3 PUSH1 0x1F DUP4 ADD SLT PUSH2 0x497 JUMPI PUSH0 PUSH0 REVERT JUMPDEST DUP2 MLOAD PUSH1 0x1 PUSH1 0x1 PUSH1 0x40 SHL SUB DUP2 GT ISZERO PUSH2 0x4B0 JUMPI PUSH2 0x4B0 PUSH2 0x430 JUMP JUMPDEST PUSH1 0x40 MLOAD PUSH1 0x1F DUP3 ADD PUSH1 0x1F NOT SWAP1 DUP2 AND PUSH1 0x3F ADD AND DUP2 ADD PUSH1 0x1 PUSH1 0x1 PUSH1 0x40 SHL SUB DUP2 GT DUP3 DUP3 LT OR ISZERO PUSH2 0x4DE JUMPI PUSH2 0x4DE PUSH2 0x430 JUMP JUMPDEST PUSH1 0x40 MSTORE DUP2 DUP2 MSTORE DUP4 DUP3 ADD PUSH1 0x20 ADD DUP6 LT ISZERO PUSH2 0x4F5 JUMPI PUSH0 PUSH0 REVERT JUMPDEST DUP2 PUSH1 0x20 DUP6 ADD PUSH1 0x20 DUP4 ADD MCOPY PUSH0 SWAP2 DUP2 ADD PUSH1 0x20 ADD SWAP2 SWAP1 SWAP2 MSTORE SWAP4 SWAP3 POP POP POP JUMP JUMPDEST DUP1 MLOAD PUSH1 0x3 DUP2 LT PUSH2 0x483 JUMPI PUSH0 PUSH0 REVERT JUMPDEST PUSH0 PUSH1 0x20 DUP3 DUP5 SUB SLT ISZERO PUSH2 0x52F JUMPI PUSH0 PUSH0 REVERT JUMPDEST DUP2 MLOAD PUSH1 0x1 PUSH1 0x1 PUSH1 0x40 SHL SUB DUP2 GT ISZERO PUSH2 0x544 JUMPI PUSH0 PUSH0 REVERT JUMPDEST DUP3 ADD PUSH2 0x1C0 DUP2 DUP6 SUB SLT ISZERO PUSH2 0x556 JUMPI PUSH0 PUSH0 REVERT JUMPDEST PUSH2 0x55E PUSH2 0x444 JUMP JUMPDEST PUSH2 0x567 DUP3 PUSH2 0x46D JUMP JUMPDEST DUP2 MSTORE PUSH2 0x575 PUSH1 0x20 DUP4 ADD PUSH2 0x46D JUMP JUMPDEST PUSH1 0x20 DUP3 ADD MSTORE PUSH1 0x40 DUP3 ADD MLOAD PUSH1 0x1 PUSH1 0x1 PUSH1 0x40 SHL SUB DUP2 GT ISZERO PUSH2 0x592 JUMPI PUSH0 PUSH0 REVERT JUMPDEST PUSH2 0x59E DUP7 DUP3 DUP6 ADD PUSH2 0x488 JUMP JUMPDEST PUSH1 0x40 DUP4 ADD MSTORE POP PUSH1 0x60 DUP3 ADD MLOAD PUSH1 0x1 PUSH1 0x1 PUSH1 0x40 SHL SUB DUP2 GT ISZERO PUSH2 0x5BC JUMPI PUSH0 PUSH0 REVERT JUMPDEST PUSH2 0x5C8 DUP7 DUP3 DUP6 ADD PUSH2 0x488 JUMP JUMPDEST PUSH1 0x60 DUP4 ADD MSTORE POP PUSH2 0x5DA PUSH1 0x80 DUP4 ADD PUSH2 0x46D JUMP JUMPDEST PUSH1 0x80 DUP3 ADD MSTORE PUSH1 0xA0 DUP3 DUP2 ADD MLOAD SWAP1 DUP3 ADD MSTORE PUSH1 0xC0 DUP1 DUP4 ADD MLOAD SWAP1 DUP3 ADD MSTORE PUSH1 0xE0 DUP1 DUP4 ADD MLOAD SWAP1 DUP3 ADD MSTORE PUSH2 0x100 DUP1 DUP4 ADD MLOAD SWAP1 DUP3 ADD MSTORE PUSH2 0x120 DUP1 DUP4 ADD MLOAD SWAP1 DUP3 ADD MSTORE PUSH2 0x140 DUP1 DUP4 ADD MLOAD SWAP1 DUP3 ADD MSTORE PUSH2 0x62B PUSH2 0x160 DUP4 ADD PUSH2 0x511 JUMP JUMPDEST PUSH2 0x160 DUP3 ADD MSTORE PUSH2 0x180 DUP3 DUP2 ADD MLOAD SWAP1 DUP3 ADD MSTORE PUSH2 0x1A0 SWAP2 DUP3 ADD MLOAD SWAP2 DUP2 ADD SWAP2 SWAP1 SWAP2 MSTORE SWAP4 SWAP3 POP POP POP JUMP JUMPDEST PUSH1 0x1 DUP2 DUP2 SHR SWAP1 DUP3 AND DUP1 PUSH2 0x665 JUMPI PUSH1 0x7F DUP3 AND SWAP2 POP JUMPDEST PUSH1 0x20 DUP3 LT DUP2 SUB PUSH2 0x683 JUMPI PUSH4 0x4E487B71 PUSH1 0xE0 SHL PUSH0 MSTORE PUSH1 0x22 PUSH1 0x4 MSTORE PUSH1 0x24 PUSH0 REVERT JUMPDEST POP SWAP2 SWAP1 POP JUMP JUMPDEST PUSH1 0x1F DUP3 GT ISZERO PUSH2 0x6D0 JUMPI DUP1 PUSH0 MSTORE PUSH1 0x20 PUSH0 KECCAK256 PUSH1 0x1F DUP5 ADD PUSH1 0x5 SHR DUP2 ADD PUSH1 0x20 DUP6 LT ISZERO PUSH2 0x6AE JUMPI POP DUP1 JUMPDEST PUSH1 0x1F DUP5 ADD PUSH1 0x5 SHR DUP3 ADD SWAP2 POP JUMPDEST DUP2 DUP2 LT ISZERO PUSH2 0x6CD JUMPI PUSH0 DUP2 SSTORE PUSH1 0x1 ADD PUSH2 0x6BA JUMP JUMPDEST POP POP JUMPDEST POP POP POP JUMP JUMPDEST DUP2 MLOAD PUSH1 0x1 PUSH1 0x1 PUSH1 0x40 SHL SUB DUP2 GT ISZERO PUSH2 0x6EE JUMPI PUSH2 0x6EE PUSH2 0x430 JUMP JUMPDEST PUSH2 0x702 DUP2 PUSH2 0x6FC DUP5 SLOAD PUSH2 0x651 JUMP JUMPDEST DUP5 PUSH2 0x689 JUMP JUMPDEST PUSH1 0x20 PUSH1 0x1F DUP3 GT PUSH1 0x1 DUP2 EQ PUSH2 0x734 JUMPI PUSH0 DUP4 ISZERO PUSH2 0x71D JUMPI POP DUP5 DUP3 ADD MLOAD JUMPDEST PUSH0 NOT PUSH1 0x3 DUP6 SWAP1 SHL SHR NOT AND PUSH1 0x1 DUP5 SWAP1 SHL OR DUP5 SSTORE PUSH2 0x6CD JUMP JUMPDEST PUSH0 DUP5 DUP2 MSTORE PUSH1 0x20 DUP2 KECCAK256 PUSH1 0x1F NOT DUP6 AND SWAP2 JUMPDEST DUP3 DUP2 LT ISZERO PUSH2 0x763 JUMPI DUP8 DUP6 ADD MLOAD DUP3 SSTORE PUSH1 0x20 SWAP5 DUP6 ADD SWAP5 PUSH1 0x1 SWAP1 SWAP3 ADD SWAP2 ADD PUSH2 0x743 JUMP JUMPDEST POP DUP5 DUP3 LT ISZERO PUSH2 0x780 JUMPI DUP7 DUP5 ADD MLOAD PUSH0 NOT PUSH1 0x3 DUP8 SWAP1 SHL PUSH1 0xF8 AND SHR NOT AND DUP2 SSTORE JUMPDEST POP POP POP POP PUSH1 0x1 SWAP1 DUP2 SHL ADD SWAP1 SSTORE POP JUMP JUMPDEST PUSH4 0x4E487B71 PUSH1 0xE0 SHL PUSH0 MSTORE PUSH1 0x21 PUSH1 0x4 MSTORE PUSH1 0x24 PUSH0 REVERT JUMPDEST PUSH0 DUP3 MLOAD DUP1 PUSH1 0x20 DUP6 ADD DUP5 MCOPY PUSH0 SWAP3 ADD SWAP2 DUP3 MSTORE POP SWAP2 SWAP1 POP JUMP JUMPDEST PUSH0 PUSH1 0x20 DUP3 DUP5 SUB SLT ISZERO PUSH2 0x7C9 JUMPI PUSH0 PUSH0 REVERT JUMPDEST POP MLOAD SWAP2 SWAP1 POP JUMP JUMPDEST PUSH1 0x80 MLOAD PUSH1 0xA0 MLOAD PUSH2 0x2FC0 PUSH2 0x85A PUSH0 CODECOPY PUSH0 PUSH2 0xAB2 ADD MSTORE PUSH0 DUP2 DUP2 PUSH2 0x4DA ADD MSTORE DUP2 DUP2 PUSH2 0x7AD ADD MSTORE DUP2 DUP2 PUSH2 0x9F4 ADD MSTORE DUP2 DUP2 PUSH2 0xCB2 ADD MSTORE DUP2 DUP2 PUSH2 0xE55 ADD MSTORE DUP2 DUP2 PUSH2 0xF5B ADD MSTORE DUP2 DUP2 PUSH2 0xFBF ADD MSTORE DUP2 DUP2 PUSH2 0x1248 ADD MSTORE DUP2 DUP2 PUSH2 0x14A8 ADD MSTORE DUP2 DUP2 PUSH2 0x1E1D ADD MSTORE DUP2 DUP2 PUSH2 0x1E4E ADD MSTORE DUP2 DUP2 PUSH2 0x1EBC ADD MSTORE DUP2 DUP2 PUSH2 0x200B ADD MSTORE DUP2 DUP2 PUSH2 0x2295 ADD MSTORE DUP2 DUP2 PUSH2 0x290B ADD MSTORE PUSH2 0x293C ADD MSTORE PUSH2 0x2FC0 PUSH0 RETURN INVALID PUSH1 0x80 PUSH1 0x40 MSTORE CALLVALUE DUP1 ISZERO PUSH2 0xF JUMPI PUSH0 PUSH0 REVERT JUMPDEST POP PUSH1 0x4 CALLDATASIZE LT PUSH2 0x37D JUMPI PUSH0 CALLDATALOAD PUSH1 0xE0 SHR DUP1 PUSH4 0x70A08231 GT PUSH2 0x1D4 JUMPI DUP1 PUSH4 0xC6E6F592 GT PUSH2 0x109 JUMPI DUP1 PUSH4 0xDD5967C3 GT PUSH2 0xA9 JUMPI DUP1 PUSH4 0xED9DBCED GT PUSH2 0x79 JUMPI DUP1 PUSH4 0xED9DBCED EQ PUSH2 0x770 JUMPI DUP1 PUSH4 0xEF8B30F7 EQ PUSH2 0x69F JUMPI DUP1 PUSH4 0xF2FDE38B EQ PUSH2 0x783 JUMPI DUP1 PUSH4 0xF851A440 EQ PUSH2 0x796 JUMPI PUSH0 PUSH0 REVERT JUMPDEST DUP1 PUSH4 0xDD5967C3 EQ PUSH2 0x71D JUMPI DUP1 PUSH4 0xDD62ED3E EQ PUSH2 0x726 JUMPI DUP1 PUSH4 0xE1E158A5 EQ PUSH2 0x75E JUMPI DUP1 PUSH4 0xE3275EB0 EQ PUSH2 0x767 JUMPI PUSH0 PUSH0 REVERT JUMPDEST DUP1 PUSH4 0xCFD7AB91 GT PUSH2 0xE4 JUMPI DUP1 PUSH4 0xCFD7AB91 EQ PUSH2 0x6E5 JUMPI DUP1 PUSH4 0xD2D8CB67 EQ PUSH2 0x6EE JUMPI DUP1 PUSH4 0xD547741F EQ PUSH2 0x6F7 JUMPI DUP1 PUSH4 0xD905777E EQ PUSH2 0x70A JUMPI PUSH0 PUSH0 REVERT JUMPDEST DUP1 PUSH4 0xC6E6F592 EQ PUSH2 0x69F JUMPI DUP1 PUSH4 0xCC3D967B EQ PUSH2 0x6B2 JUMPI DUP1 PUSH4 0xCE96CB77 EQ PUSH2 0x6D2 JUMPI PUSH0 PUSH0 REVERT JUMPDEST DUP1 PUSH4 0xA217FDDF GT PUSH2 0x174 JUMPI DUP1 PUSH4 0xB422271F GT PUSH2 0x14F JUMPI DUP1 PUSH4 0xB422271F EQ PUSH2 0x652 JUMPI DUP1 PUSH4 0xB460AF94 EQ PUSH2 0x665 JUMPI DUP1 PUSH4 0xBA087652 EQ PUSH2 0x678 JUMPI DUP1 PUSH4 0xC63D75B6 EQ PUSH2 0x68B JUMPI PUSH0 PUSH0 REVERT JUMPDEST DUP1 PUSH4 0xA217FDDF EQ PUSH2 0x625 JUMPI DUP1 PUSH4 0xA9059CBB EQ PUSH2 0x62C JUMPI DUP1 PUSH4 0xB3D7F6B9 EQ PUSH2 0x63F JUMPI PUSH0 PUSH0 REVERT JUMPDEST DUP1 PUSH4 0x91D14854 GT PUSH2 0x1AF JUMPI DUP1 PUSH4 0x91D14854 EQ PUSH2 0x5EE JUMPI DUP1 PUSH4 0x94BF804D EQ PUSH2 0x601 JUMPI DUP1 PUSH4 0x95D89B41 EQ PUSH2 0x614 JUMPI DUP1 PUSH4 0x98B78A4B EQ PUSH2 0x61C JUMPI PUSH0 PUSH0 REVERT JUMPDEST DUP1 PUSH4 0x70A08231 EQ PUSH2 0x5B5 JUMPI DUP1 PUSH4 0x8456CB59 EQ PUSH2 0x5DD JUMPI DUP1 PUSH4 0x850D9AFB EQ PUSH2 0x5E5 JUMPI PUSH0 PUSH0 REVERT JUMPDEST DUP1 PUSH4 0x36568ABE GT PUSH2 0x2B5 JUMPI DUP1 PUSH4 0x4BD0C2D8 GT PUSH2 0x255 JUMPI DUP1 PUSH4 0x57376198 GT PUSH2 0x225 JUMPI DUP1 PUSH4 0x57376198 EQ PUSH2 0x571 JUMPI DUP1 PUSH4 0x5C975ABB EQ PUSH2 0x584 JUMPI DUP1 PUSH4 0x5F04C5E4 EQ PUSH2 0x58F JUMPI DUP1 PUSH4 0x6E553F65 EQ PUSH2 0x5A2 JUMPI PUSH0 PUSH0 REVERT JUMPDEST DUP1 PUSH4 0x4BD0C2D8 EQ PUSH2 0x54D JUMPI DUP1 PUSH4 0x4CDAD506 EQ PUSH2 0x3D4 JUMPI DUP1 PUSH4 0x4E71D92D EQ PUSH2 0x560 JUMPI DUP1 PUSH4 0x571E1C68 EQ PUSH2 0x568 JUMPI PUSH0 PUSH0 REVERT JUMPDEST DUP1 PUSH4 0x3C37475E GT PUSH2 0x290 JUMPI DUP1 PUSH4 0x3C37475E EQ PUSH2 0x507 JUMPI DUP1 PUSH4 0x3F4BA83A EQ PUSH2 0x529 JUMPI DUP1 PUSH4 0x402D267D EQ PUSH2 0x531 JUMPI DUP1 PUSH4 0x428A8BAD EQ PUSH2 0x544 JUMPI PUSH0 PUSH0 REVERT JUMPDEST DUP1 PUSH4 0x36568ABE EQ PUSH2 0x4C5 JUMPI DUP1 PUSH4 0x38D52E0F EQ PUSH2 0x4D8 JUMPI DUP1 PUSH4 0x3BC64D2B EQ PUSH2 0x4FE JUMPI PUSH0 PUSH0 REVERT JUMPDEST DUP1 PUSH4 0x18160DDD GT PUSH2 0x320 JUMPI DUP1 PUSH4 0x248A9CA3 GT PUSH2 0x2FB JUMPI DUP1 PUSH4 0x248A9CA3 EQ PUSH2 0x46D JUMPI DUP1 PUSH4 0x2F2FF15D EQ PUSH2 0x48F JUMPI DUP1 PUSH4 0x313CE567 EQ PUSH2 0x4A2 JUMPI DUP1 PUSH4 0x33ACD652 EQ PUSH2 0x4BC JUMPI PUSH0 PUSH0 REVERT JUMPDEST DUP1 PUSH4 0x18160DDD EQ PUSH2 0x422 JUMPI DUP1 PUSH4 0x19DCD884 EQ PUSH2 0x42A JUMPI DUP1 PUSH4 0x23B872DD EQ PUSH2 0x45A JUMPI PUSH0 PUSH0 REVERT JUMPDEST DUP1 PUSH4 0x7A2D13A GT PUSH2 0x35B JUMPI DUP1 PUSH4 0x7A2D13A EQ PUSH2 0x3D4 JUMPI DUP1 PUSH4 0x95EA7B3 EQ PUSH2 0x3E7 JUMPI DUP1 PUSH4 0xA28A477 EQ PUSH2 0x3FA JUMPI DUP1 PUSH4 0x155DD5EE EQ PUSH2 0x40D JUMPI PUSH0 PUSH0 REVERT JUMPDEST DUP1 PUSH4 0x1E1D114 EQ PUSH2 0x381 JUMPI DUP1 PUSH4 0x1FFC9A7 EQ PUSH2 0x39C JUMPI DUP1 PUSH4 0x6FDDE03 EQ PUSH2 0x3BF JUMPI JUMPDEST PUSH0 PUSH0 REVERT JUMPDEST PUSH2 0x389 PUSH2 0x7A9 JUMP JUMPDEST PUSH1 0x40 MLOAD SWAP1 DUP2 MSTORE PUSH1 0x20 ADD JUMPDEST PUSH1 0x40 MLOAD DUP1 SWAP2 SUB SWAP1 RETURN JUMPDEST PUSH2 0x3AF PUSH2 0x3AA CALLDATASIZE PUSH1 0x4 PUSH2 0x2B76 JUMP JUMPDEST PUSH2 0x859 JUMP JUMPDEST PUSH1 0x40 MLOAD SWAP1 ISZERO ISZERO DUP2 MSTORE PUSH1 0x20 ADD PUSH2 0x393 JUMP JUMPDEST PUSH2 0x3C7 PUSH2 0x88F JUMP JUMPDEST PUSH1 0x40 MLOAD PUSH2 0x393 SWAP2 SWAP1 PUSH2 0x2B9D JUMP JUMPDEST PUSH2 0x389 PUSH2 0x3E2 CALLDATASIZE PUSH1 0x4 PUSH2 0x2BD2 JUMP JUMPDEST PUSH2 0x91F JUMP JUMPDEST PUSH2 0x3AF PUSH2 0x3F5 CALLDATASIZE PUSH1 0x4 PUSH2 0x2C04 JUMP JUMPDEST PUSH2 0x92A JUMP JUMPDEST PUSH2 0x389 PUSH2 0x408 CALLDATASIZE PUSH1 0x4 PUSH2 0x2BD2 JUMP JUMPDEST PUSH2 0x941 JUMP JUMPDEST PUSH2 0x420 PUSH2 0x41B CALLDATASIZE PUSH1 0x4 PUSH2 0x2BD2 JUMP JUMPDEST PUSH2 0x94D JUMP JUMPDEST STOP JUMPDEST PUSH1 0x2 SLOAD PUSH2 0x389 JUMP JUMPDEST PUSH1 0x7 SLOAD PUSH2 0x442 SWAP1 PUSH2 0x100 SWAP1 DIV PUSH1 0x1 PUSH1 0x1 PUSH1 0xA0 SHL SUB AND DUP2 JUMP JUMPDEST PUSH1 0x40 MLOAD PUSH1 0x1 PUSH1 0x1 PUSH1 0xA0 SHL SUB SWAP1 SWAP2 AND DUP2 MSTORE PUSH1 0x20 ADD PUSH2 0x393 JUMP JUMPDEST PUSH2 0x3AF PUSH2 0x468 CALLDATASIZE PUSH1 0x4 PUSH2 0x2C2C JUMP JUMPDEST PUSH2 0xA5C JUMP JUMPDEST PUSH2 0x389 PUSH2 0x47B CALLDATASIZE PUSH1 0x4 PUSH2 0x2BD2 JUMP JUMPDEST PUSH0 SWAP1 DUP2 MSTORE PUSH1 0x5 PUSH1 0x20 MSTORE PUSH1 0x40 SWAP1 KECCAK256 PUSH1 0x1 ADD SLOAD SWAP1 JUMP JUMPDEST PUSH2 0x420 PUSH2 0x49D CALLDATASIZE PUSH1 0x4 PUSH2 0x2C66 JUMP JUMPDEST PUSH2 0xA81 JUMP JUMPDEST PUSH2 0x4AA PUSH2 0xAAB JUMP JUMPDEST PUSH1 0x40 MLOAD PUSH1 0xFF SWAP1 SWAP2 AND DUP2 MSTORE PUSH1 0x20 ADD PUSH2 0x393 JUMP JUMPDEST PUSH2 0x389 PUSH1 0x11 SLOAD DUP2 JUMP JUMPDEST PUSH2 0x420 PUSH2 0x4D3 CALLDATASIZE PUSH1 0x4 PUSH2 0x2C66 JUMP JUMPDEST PUSH2 0xADB JUMP JUMPDEST PUSH32 0x0 PUSH2 0x442 JUMP JUMPDEST PUSH2 0x389 PUSH1 0x8 SLOAD DUP2 JUMP JUMPDEST PUSH1 0xB SLOAD PUSH2 0x51C SWAP1 PUSH5 0x100000000 SWAP1 DIV PUSH1 0xFF AND DUP2 JUMP JUMPDEST PUSH1 0x40 MLOAD PUSH2 0x393 SWAP2 SWAP1 PUSH2 0x2CA4 JUMP JUMPDEST PUSH2 0x420 PUSH2 0xB13 JUMP JUMPDEST PUSH2 0x389 PUSH2 0x53F CALLDATASIZE PUSH1 0x4 PUSH2 0x2CCA JUMP JUMPDEST PUSH2 0xB25 JUMP JUMPDEST PUSH2 0x389 PUSH1 0x14 SLOAD DUP2 JUMP JUMPDEST PUSH2 0x389 PUSH2 0x55B CALLDATASIZE PUSH1 0x4 PUSH2 0x2CCA JUMP JUMPDEST PUSH2 0xB79 JUMP JUMPDEST PUSH2 0x420 PUSH2 0xB83 JUMP JUMPDEST PUSH2 0x389 PUSH1 0x12 SLOAD DUP2 JUMP JUMPDEST PUSH2 0x420 PUSH2 0x57F CALLDATASIZE PUSH1 0x4 PUSH2 0x2C04 JUMP JUMPDEST PUSH2 0xC7F JUMP JUMPDEST PUSH1 0x7 SLOAD PUSH1 0xFF AND PUSH2 0x3AF JUMP JUMPDEST PUSH2 0x389 PUSH2 0x59D CALLDATASIZE PUSH1 0x4 PUSH2 0x2CE3 JUMP JUMPDEST PUSH2 0xDBD JUMP JUMPDEST PUSH2 0x389 PUSH2 0x5B0 CALLDATASIZE PUSH1 0x4 PUSH2 0x2C66 JUMP JUMPDEST PUSH2 0x10F4 JUMP JUMPDEST PUSH2 0x389 PUSH2 0x5C3 CALLDATASIZE PUSH1 0x4 PUSH2 0x2CCA JUMP JUMPDEST PUSH1 0x1 PUSH1 0x1 PUSH1 0xA0 SHL SUB AND PUSH0 SWAP1 DUP2 MSTORE PUSH1 0x20 DUP2 SWAP1 MSTORE PUSH1 0x40 SWAP1 KECCAK256 SLOAD SWAP1 JUMP JUMPDEST PUSH2 0x420 PUSH2 0x1362 JUMP JUMPDEST PUSH2 0x389 PUSH1 0xF SLOAD DUP2 JUMP JUMPDEST PUSH2 0x3AF PUSH2 0x5FC CALLDATASIZE PUSH1 0x4 PUSH2 0x2C66 JUMP JUMPDEST PUSH2 0x1374 JUMP JUMPDEST PUSH2 0x389 PUSH2 0x60F CALLDATASIZE PUSH1 0x4 PUSH2 0x2C66 JUMP JUMPDEST PUSH2 0x139E JUMP JUMPDEST PUSH2 0x3C7 PUSH2 0x13C1 JUMP JUMPDEST PUSH2 0x389 PUSH1 0x13 SLOAD DUP2 JUMP JUMPDEST PUSH2 0x389 PUSH0 DUP2 JUMP JUMPDEST PUSH2 0x3AF PUSH2 0x63A CALLDATASIZE PUSH1 0x4 PUSH2 0x2C04 JUMP JUMPDEST PUSH2 0x13D0 JUMP JUMPDEST PUSH2 0x389 PUSH2 0x64D CALLDATASIZE PUSH1 0x4 PUSH2 0x2BD2 JUMP JUMPDEST PUSH2 0x13DD JUMP JUMPDEST PUSH2 0x3AF PUSH2 0x660 CALLDATASIZE PUSH1 0x4 PUSH2 0x2C66 JUMP JUMPDEST PUSH2 0x13E9 JUMP JUMPDEST PUSH2 0x389 PUSH2 0x673 CALLDATASIZE PUSH1 0x4 PUSH2 0x2D18 JUMP JUMPDEST PUSH2 0x15B8 JUMP JUMPDEST PUSH2 0x389 PUSH2 0x686 CALLDATASIZE PUSH1 0x4 PUSH2 0x2D18 JUMP JUMPDEST PUSH2 0x1698 JUMP JUMPDEST PUSH2 0x389 PUSH2 0x699 CALLDATASIZE PUSH1 0x4 PUSH2 0x2CCA JUMP JUMPDEST POP PUSH0 NOT SWAP1 JUMP JUMPDEST PUSH2 0x389 PUSH2 0x6AD CALLDATASIZE PUSH1 0x4 PUSH2 0x2BD2 JUMP JUMPDEST PUSH2 0x174A JUMP JUMPDEST PUSH2 0x6C5 PUSH2 0x6C0 CALLDATASIZE PUSH1 0x4 PUSH2 0x2CCA JUMP JUMPDEST PUSH2 0x1755 JUMP JUMPDEST PUSH1 0x40 MLOAD PUSH2 0x393 SWAP2 SWAP1 PUSH2 0x2D51 JUMP JUMPDEST PUSH2 0x389 PUSH2 0x6E0 CALLDATASIZE PUSH1 0x4 PUSH2 0x2CCA JUMP JUMPDEST PUSH2 0x1842 JUMP JUMPDEST PUSH2 0x389 PUSH1 0xE SLOAD DUP2 JUMP JUMPDEST PUSH2 0x389 PUSH1 0xC SLOAD DUP2 JUMP JUMPDEST PUSH2 0x420 PUSH2 0x705 CALLDATASIZE PUSH1 0x4 PUSH2 0x2C66 JUMP JUMPDEST PUSH2 0x1864 JUMP JUMPDEST PUSH2 0x389 PUSH2 0x718 CALLDATASIZE PUSH1 0x4 PUSH2 0x2CCA JUMP JUMPDEST PUSH2 0x1888 JUMP JUMPDEST PUSH2 0x389 PUSH1 0xA SLOAD DUP2 JUMP JUMPDEST PUSH2 0x389 PUSH2 0x734 CALLDATASIZE PUSH1 0x4 PUSH2 0x2DEA JUMP JUMPDEST PUSH1 0x1 PUSH1 0x1 PUSH1 0xA0 SHL SUB SWAP2 DUP3 AND PUSH0 SWAP1 DUP2 MSTORE PUSH1 0x1 PUSH1 0x20 SWAP1 DUP2 MSTORE PUSH1 0x40 DUP1 DUP4 KECCAK256 SWAP4 SWAP1 SWAP5 AND DUP3 MSTORE SWAP2 SWAP1 SWAP2 MSTORE KECCAK256 SLOAD SWAP1 JUMP JUMPDEST PUSH2 0x389 PUSH1 0x9 SLOAD DUP2 JUMP JUMPDEST PUSH2 0x389 PUSH1 0x10 SLOAD DUP2 JUMP JUMPDEST PUSH2 0x389 PUSH2 0x77E CALLDATASIZE PUSH1 0x4 PUSH2 0x2CCA JUMP JUMPDEST PUSH2 0x18A5 JUMP JUMPDEST PUSH2 0x420 PUSH2 0x791 CALLDATASIZE PUSH1 0x4 PUSH2 0x2CCA JUMP JUMPDEST PUSH2 0x18DF JUMP JUMPDEST PUSH1 0xD SLOAD PUSH2 0x442 SWAP1 PUSH1 0x1 PUSH1 0x1 PUSH1 0xA0 SHL SUB AND DUP2 JUMP JUMPDEST PUSH0 DUP1 PUSH32 0x0 PUSH1 0x40 MLOAD PUSH4 0x70A08231 PUSH1 0xE0 SHL DUP2 MSTORE ADDRESS PUSH1 0x4 DUP3 ADD MSTORE PUSH1 0x1 PUSH1 0x1 PUSH1 0xA0 SHL SUB SWAP2 SWAP1 SWAP2 AND SWAP1 PUSH4 0x70A08231 SWAP1 PUSH1 0x24 ADD PUSH1 0x20 PUSH1 0x40 MLOAD DUP1 DUP4 SUB DUP2 DUP7 GAS STATICCALL ISZERO DUP1 ISZERO PUSH2 0x810 JUMPI RETURNDATASIZE PUSH0 PUSH0 RETURNDATACOPY RETURNDATASIZE PUSH0 REVERT JUMPDEST POP POP POP POP PUSH1 0x40 MLOAD RETURNDATASIZE PUSH1 0x1F NOT PUSH1 0x1F DUP3 ADD AND DUP3 ADD DUP1 PUSH1 0x40 MSTORE POP DUP2 ADD SWAP1 PUSH2 0x834 SWAP2 SWAP1 PUSH2 0x2E12 JUMP JUMPDEST SWAP1 POP PUSH1 0x15 SLOAD DUP2 GT PUSH2 0x846 JUMPI PUSH0 SWAP2 POP POP SWAP1 JUMP JUMPDEST PUSH1 0x15 SLOAD PUSH2 0x853 SWAP1 DUP3 PUSH2 0x2E3D JUMP JUMPDEST SWAP2 POP POP SWAP1 JUMP JUMPDEST PUSH0 PUSH1 0x1 PUSH1 0x1 PUSH1 0xE0 SHL SUB NOT DUP3 AND PUSH4 0x7965DB0B PUSH1 0xE0 SHL EQ DUP1 PUSH2 0x889 JUMPI POP PUSH4 0x1FFC9A7 PUSH1 0xE0 SHL PUSH1 0x1 PUSH1 0x1 PUSH1 0xE0 SHL SUB NOT DUP4 AND EQ JUMPDEST SWAP3 SWAP2 POP POP JUMP JUMPDEST PUSH1 0x60 PUSH1 0x3 DUP1 SLOAD PUSH2 0x89E SWAP1 PUSH2 0x2E50 JUMP JUMPDEST DUP1 PUSH1 0x1F ADD PUSH1 0x20 DUP1 SWAP2 DIV MUL PUSH1 0x20 ADD PUSH1 0x40 MLOAD SWAP1 DUP2 ADD PUSH1 0x40 MSTORE DUP1 SWAP3 SWAP2 SWAP1 DUP2 DUP2 MSTORE PUSH1 0x20 ADD DUP3 DUP1 SLOAD PUSH2 0x8CA SWAP1 PUSH2 0x2E50 JUMP JUMPDEST DUP1 ISZERO PUSH2 0x915 JUMPI DUP1 PUSH1 0x1F LT PUSH2 0x8EC JUMPI PUSH2 0x100 DUP1 DUP4 SLOAD DIV MUL DUP4 MSTORE SWAP2 PUSH1 0x20 ADD SWAP2 PUSH2 0x915 JUMP JUMPDEST DUP3 ADD SWAP2 SWAP1 PUSH0 MSTORE PUSH1 0x20 PUSH0 KECCAK256 SWAP1 JUMPDEST DUP2 SLOAD DUP2 MSTORE SWAP1 PUSH1 0x1 ADD SWAP1 PUSH1 0x20 ADD DUP1 DUP4 GT PUSH2 0x8F8 JUMPI DUP3 SWAP1 SUB PUSH1 0x1F AND DUP3 ADD SWAP2 JUMPDEST POP POP POP POP POP SWAP1 POP SWAP1 JUMP JUMPDEST PUSH0 PUSH2 0x889 DUP3 PUSH0 PUSH2 0x1A03 JUMP JUMPDEST PUSH0 CALLER PUSH2 0x937 DUP2 DUP6 DUP6 PUSH2 0x1A1A JUMP JUMPDEST POP PUSH1 0x1 SWAP4 SWAP3 POP POP POP JUMP JUMPDEST PUSH0 PUSH2 0x889 DUP3 PUSH1 0x1 PUSH2 0x1A27 JUMP JUMPDEST PUSH2 0x955 PUSH2 0x1A3E JUMP JUMPDEST PUSH2 0x95D PUSH2 0x1A68 JUMP JUMPDEST PUSH0 PUSH2 0x967 DUP2 PUSH2 0x1A8C JUMP JUMPDEST PUSH1 0xF SLOAD TIMESTAMP LT DUP1 ISZERO PUSH2 0x97B JUMPI POP PUSH1 0x8 SLOAD PUSH1 0x14 SLOAD LT JUMPDEST ISZERO PUSH2 0x999 JUMPI PUSH1 0x40 MLOAD PUSH4 0xAC3270F PUSH1 0xE4 SHL DUP2 MSTORE PUSH1 0x4 ADD PUSH1 0x40 MLOAD DUP1 SWAP2 SUB SWAP1 REVERT JUMPDEST DUP2 PUSH0 SUB PUSH2 0x9B9 JUMPI PUSH1 0x40 MLOAD PUSH4 0x26753BB5 PUSH1 0xE1 SHL DUP2 MSTORE PUSH1 0x4 ADD PUSH1 0x40 MLOAD DUP1 SWAP2 SUB SWAP1 REVERT JUMPDEST PUSH2 0x9C1 PUSH2 0x7A9 JUMP JUMPDEST DUP3 GT ISZERO PUSH2 0x9E1 JUMPI PUSH1 0x40 MLOAD PUSH4 0x5462F71F PUSH1 0xE0 SHL DUP2 MSTORE PUSH1 0x4 ADD PUSH1 0x40 MLOAD DUP1 SWAP2 SUB SWAP1 REVERT JUMPDEST PUSH1 0xD SLOAD PUSH2 0xA24 SWAP1 PUSH1 0x1 PUSH1 0x1 PUSH1 0xA0 SHL SUB AND DUP4 PUSH32 0x0 JUMPDEST PUSH1 0x1 PUSH1 0x1 PUSH1 0xA0 SHL SUB AND SWAP2 SWAP1 PUSH2 0x1A96 JUMP JUMPDEST PUSH1 0x40 MLOAD DUP3 SWAP1 PUSH32 0x5FAFC30B7C5090DC417458251E397AC4CFA3C5BE8195E2312894B18B125E1FC3 SWAP1 PUSH0 SWAP1 LOG2 POP PUSH2 0xA59 PUSH1 0x1 PUSH1 0x6 SSTORE JUMP JUMPDEST POP JUMP JUMPDEST PUSH0 CALLER PUSH2 0xA69 DUP6 DUP3 DUP6 PUSH2 0x1AF5 JUMP JUMPDEST PUSH2 0xA74 DUP6 DUP6 DUP6 PUSH2 0x1B58 JUMP JUMPDEST PUSH1 0x1 SWAP2 POP POP JUMPDEST SWAP4 SWAP3 POP POP POP JUMP JUMPDEST PUSH0 DUP3 DUP2 MSTORE PUSH1 0x5 PUSH1 0x20 MSTORE PUSH1 0x40 SWAP1 KECCAK256 PUSH1 0x1 ADD SLOAD PUSH2 0xA9B DUP2 PUSH2 0x1A8C JUMP JUMPDEST PUSH2 0xAA5 DUP4 DUP4 PUSH2 0x1BB5 JUMP JUMPDEST POP POP POP POP JUMP JUMPDEST PUSH0 PUSH2 0xAD6 DUP2 PUSH32 0x0 PUSH2 0x2E88 JUMP JUMPDEST SWAP1 POP SWAP1 JUMP JUMPDEST PUSH1 0x1 PUSH1 0x1 PUSH1 0xA0 SHL SUB DUP2 AND CALLER EQ PUSH2 0xB04 JUMPI PUSH1 0x40 MLOAD PUSH4 0x334BD919 PUSH1 0xE1 SHL DUP2 MSTORE PUSH1 0x4 ADD PUSH1 0x40 MLOAD DUP1 SWAP2 SUB SWAP1 REVERT JUMPDEST PUSH2 0xB0E DUP3 DUP3 PUSH2 0x1C46 JUMP JUMPDEST POP POP POP JUMP JUMPDEST PUSH0 PUSH2 0xB1D DUP2 PUSH2 0x1A8C JUMP JUMPDEST PUSH2 0xA59 PUSH2 0x1CB1 JUMP JUMPDEST PUSH0 PUSH1 0xE SLOAD TIMESTAMP LT DUP1 PUSH2 0xB37 JUMPI POP PUSH1 0xF SLOAD TIMESTAMP GT JUMPDEST ISZERO PUSH2 0xB43 JUMPI POP PUSH0 SWAP2 SWAP1 POP JUMP JUMPDEST PUSH1 0x8 SLOAD PUSH1 0x14 SLOAD LT PUSH2 0xB55 JUMPI POP PUSH0 SWAP2 SWAP1 POP JUMP JUMPDEST PUSH0 PUSH1 0x14 SLOAD PUSH1 0x8 SLOAD PUSH2 0xB66 SWAP2 SWAP1 PUSH2 0x2E3D JUMP JUMPDEST SWAP1 POP PUSH1 0xA SLOAD DUP2 LT PUSH2 0x889 JUMPI PUSH1 0xA SLOAD PUSH2 0xA7A JUMP JUMPDEST PUSH0 PUSH2 0x889 DUP3 PUSH2 0x1D03 JUMP JUMPDEST PUSH2 0xB8B PUSH2 0x1A3E JUMP JUMPDEST PUSH2 0xB93 PUSH2 0x1A68 JUMP JUMPDEST PUSH1 0xF SLOAD TIMESTAMP LT DUP1 ISZERO PUSH2 0xBA7 JUMPI POP PUSH1 0x8 SLOAD PUSH1 0x14 SLOAD LT JUMPDEST ISZERO PUSH2 0xBC5 JUMPI PUSH1 0x40 MLOAD PUSH4 0xAC3270F PUSH1 0xE4 SHL DUP2 MSTORE PUSH1 0x4 ADD PUSH1 0x40 MLOAD DUP1 SWAP2 SUB SWAP1 REVERT JUMPDEST PUSH0 PUSH1 0xB SLOAD PUSH5 0x100000000 SWAP1 DIV PUSH1 0xFF AND PUSH1 0x2 DUP2 GT ISZERO PUSH2 0xBE5 JUMPI PUSH2 0xBE5 PUSH2 0x2C90 JUMP JUMPDEST EQ DUP1 ISZERO PUSH2 0xBF4 JUMPI POP PUSH1 0x10 SLOAD TIMESTAMP LT ISZERO JUMPDEST ISZERO PUSH2 0xC06 JUMPI PUSH2 0xC01 PUSH2 0x1D41 JUMP JUMPDEST PUSH2 0xC73 JUMP JUMPDEST PUSH1 0x1 PUSH1 0xB SLOAD PUSH5 0x100000000 SWAP1 DIV PUSH1 0xFF AND PUSH1 0x2 DUP2 GT ISZERO PUSH2 0xC27 JUMPI PUSH2 0xC27 PUSH2 0x2C90 JUMP JUMPDEST SUB PUSH2 0xC34 JUMPI PUSH2 0xC01 PUSH2 0x1EE0 JUMP JUMPDEST PUSH1 0x2 PUSH1 0xB SLOAD PUSH5 0x100000000 SWAP1 DIV PUSH1 0xFF AND PUSH1 0x2 DUP2 GT ISZERO PUSH2 0xC55 JUMPI PUSH2 0xC55 PUSH2 0x2C90 JUMP JUMPDEST SUB PUSH2 0xC73 JUMPI PUSH1 0x10 SLOAD TIMESTAMP LT PUSH2 0xC6B JUMPI PUSH2 0xC01 PUSH2 0x1D41 JUMP JUMPDEST PUSH2 0xC73 PUSH2 0x1EE0 JUMP JUMPDEST PUSH2 0xC7D PUSH1 0x1 PUSH1 0x6 SSTORE JUMP JUMPDEST JUMP JUMPDEST PUSH0 PUSH2 0xC89 DUP2 PUSH2 0x1A8C JUMP JUMPDEST PUSH1 0x1 PUSH1 0x1 PUSH1 0xA0 SHL SUB DUP4 AND PUSH2 0xCB0 JUMPI PUSH1 0x40 MLOAD PUSH4 0x14F59773 PUSH1 0xE1 SHL DUP2 MSTORE PUSH1 0x4 ADD PUSH1 0x40 MLOAD DUP1 SWAP2 SUB SWAP1 REVERT JUMPDEST PUSH32 0x0 PUSH1 0x1 PUSH1 0x1 PUSH1 0xA0 SHL SUB AND DUP4 PUSH1 0x1 PUSH1 0x1 PUSH1 0xA0 SHL SUB AND SUB PUSH2 0xD02 JUMPI PUSH1 0x40 MLOAD PUSH4 0x16ABF95D PUSH1 0xE3 SHL DUP2 MSTORE PUSH1 0x4 ADD PUSH1 0x40 MLOAD DUP1 SWAP2 SUB SWAP1 REVERT JUMPDEST DUP2 PUSH0 SUB PUSH2 0xD22 JUMPI PUSH1 0x40 MLOAD PUSH4 0x26753BB5 PUSH1 0xE1 SHL DUP2 MSTORE PUSH1 0x4 ADD PUSH1 0x40 MLOAD DUP1 SWAP2 SUB SWAP1 REVERT JUMPDEST PUSH1 0x40 MLOAD PUSH4 0x70A08231 PUSH1 0xE0 SHL DUP2 MSTORE ADDRESS PUSH1 0x4 DUP3 ADD MSTORE DUP3 SWAP1 PUSH1 0x1 PUSH1 0x1 PUSH1 0xA0 SHL SUB DUP6 AND SWAP1 PUSH4 0x70A08231 SWAP1 PUSH1 0x24 ADD PUSH1 0x20 PUSH1 0x40 MLOAD DUP1 DUP4 SUB DUP2 DUP7 GAS STATICCALL ISZERO DUP1 ISZERO PUSH2 0xD66 JUMPI RETURNDATASIZE PUSH0 PUSH0 RETURNDATACOPY RETURNDATASIZE PUSH0 REVERT JUMPDEST POP POP POP POP PUSH1 0x40 MLOAD RETURNDATASIZE PUSH1 0x1F NOT PUSH1 0x1F DUP3 ADD AND DUP3 ADD DUP1 PUSH1 0x40 MSTORE POP DUP2 ADD SWAP1 PUSH2 0xD8A SWAP2 SWAP1 PUSH2 0x2E12 JUMP JUMPDEST LT ISZERO PUSH2 0xDA9 JUMPI PUSH1 0x40 MLOAD PUSH4 0x5462F71F PUSH1 0xE0 SHL DUP2 MSTORE PUSH1 0x4 ADD PUSH1 0x40 MLOAD DUP1 SWAP2 SUB SWAP1 REVERT JUMPDEST PUSH2 0xB0E PUSH1 0x1 PUSH1 0x1 PUSH1 0xA0 SHL SUB DUP5 AND CALLER DUP5 PUSH2 0x1A96 JUMP JUMPDEST PUSH0 PUSH2 0xDC6 PUSH2 0x1A3E JUMP JUMPDEST PUSH2 0xDCE PUSH2 0x1A68 JUMP JUMPDEST PUSH1 0xE SLOAD TIMESTAMP LT DUP1 PUSH2 0xDDF JUMPI POP PUSH1 0xF SLOAD TIMESTAMP GT JUMPDEST DUP1 PUSH2 0xDEE JUMPI POP PUSH1 0x8 SLOAD PUSH1 0x14 SLOAD LT ISZERO JUMPDEST ISZERO PUSH2 0xE0C JUMPI PUSH1 0x40 MLOAD PUSH4 0x3E8502DF PUSH1 0xE0 SHL DUP2 MSTORE PUSH1 0x4 ADD PUSH1 0x40 MLOAD DUP1 SWAP2 SUB SWAP1 REVERT JUMPDEST DUP3 PUSH0 SUB PUSH2 0xE2C JUMPI PUSH1 0x40 MLOAD PUSH4 0x26753BB5 PUSH1 0xE1 SHL DUP2 MSTORE PUSH1 0x4 ADD PUSH1 0x40 MLOAD DUP1 SWAP2 SUB SWAP1 REVERT JUMPDEST PUSH0 CALLER SWAP1 POP PUSH0 PUSH2 0xE41 DUP6 PUSH1 0x12 SLOAD PUSH2 0x2710 PUSH0 PUSH2 0x202F JUMP JUMPDEST SWAP1 POP PUSH0 PUSH2 0xE4E DUP3 DUP8 PUSH2 0x2E3D JUMP JUMPDEST SWAP1 POP PUSH2 0xE7D PUSH32 0x0 DUP4 DUP9 DUP7 DUP10 PUSH2 0x207A JUMP JUMPDEST PUSH1 0x60 DUP6 ADD CALLDATALOAD PUSH0 SWAP1 DUP2 MSTORE PUSH1 0x18 PUSH1 0x20 MSTORE PUSH1 0x40 SWAP1 KECCAK256 SLOAD PUSH1 0xFF AND ISZERO PUSH2 0xEB1 JUMPI PUSH1 0x40 MLOAD PUSH4 0x31537F55 PUSH1 0xE2 SHL DUP2 MSTORE PUSH1 0x4 ADD PUSH1 0x40 MLOAD DUP1 SWAP2 SUB SWAP1 REVERT JUMPDEST PUSH1 0x9 SLOAD DUP2 LT ISZERO PUSH2 0xED4 JUMPI PUSH1 0x40 MLOAD PUSH4 0xAC1E14E5 PUSH1 0xE0 SHL DUP2 MSTORE PUSH1 0x4 ADD PUSH1 0x40 MLOAD DUP1 SWAP2 SUB SWAP1 REVERT JUMPDEST PUSH1 0x8 SLOAD DUP2 PUSH1 0x14 SLOAD PUSH2 0xEE5 SWAP2 SWAP1 PUSH2 0x2EA1 JUMP JUMPDEST GT ISZERO PUSH2 0xF04 JUMPI PUSH1 0x40 MLOAD PUSH4 0x17C06049 PUSH1 0xE3 SHL DUP2 MSTORE PUSH1 0x4 ADD PUSH1 0x40 MLOAD DUP1 SWAP2 SUB SWAP1 REVERT JUMPDEST PUSH0 PUSH2 0xF0E DUP5 PUSH2 0xB25 JUMP JUMPDEST SWAP1 POP DUP1 DUP3 GT ISZERO PUSH2 0xF40 JUMPI DUP4 DUP3 DUP3 PUSH1 0x40 MLOAD PUSH4 0x3C8097D9 PUSH1 0xE1 SHL DUP2 MSTORE PUSH1 0x4 ADD PUSH2 0xF37 SWAP4 SWAP3 SWAP2 SWAP1 PUSH2 0x2EB4 JUMP JUMPDEST PUSH1 0x40 MLOAD DUP1 SWAP2 SUB SWAP1 REVERT JUMPDEST PUSH0 PUSH2 0xF4B DUP4 PUSH0 PUSH2 0x1A27 JUMP JUMPDEST SWAP1 POP DUP3 ISZERO PUSH2 0xF8C JUMPI PUSH2 0xF8C DUP6 ADDRESS DUP6 PUSH32 0x0 JUMPDEST PUSH1 0x1 PUSH1 0x1 PUSH1 0xA0 SHL SUB AND SWAP3 SWAP2 SWAP1 PUSH2 0x2196 JUMP JUMPDEST PUSH0 DUP5 GT DUP1 ISZERO PUSH2 0xFA5 JUMPI POP PUSH1 0xD SLOAD PUSH1 0x1 PUSH1 0x1 PUSH1 0xA0 SHL SUB AND ISZERO ISZERO JUMPDEST ISZERO PUSH2 0xFE3 JUMPI PUSH1 0xD SLOAD PUSH2 0xFE3 SWAP1 DUP7 SWAP1 PUSH1 0x1 PUSH1 0x1 PUSH1 0xA0 SHL SUB AND DUP7 PUSH32 0x0 PUSH2 0xF7B JUMP JUMPDEST PUSH2 0xFED DUP6 DUP3 PUSH2 0x21CF JUMP JUMPDEST PUSH1 0x60 DUP8 ADD CALLDATALOAD PUSH0 SWAP1 DUP2 MSTORE PUSH1 0x18 PUSH1 0x20 MSTORE PUSH1 0x40 DUP2 KECCAK256 DUP1 SLOAD PUSH1 0xFF NOT AND PUSH1 0x1 OR SWAP1 SSTORE PUSH1 0x14 DUP1 SLOAD DUP6 SWAP3 SWAP1 PUSH2 0x101C SWAP1 DUP5 SWAP1 PUSH2 0x2EA1 JUMP JUMPDEST SWAP1 SWAP2 SSTORE POP POP PUSH1 0x1 PUSH1 0x1 PUSH1 0xA0 SHL SUB DUP6 AND PUSH0 DUP2 DUP2 MSTORE PUSH1 0x17 PUSH1 0x20 DUP2 DUP2 MSTORE PUSH1 0x40 DUP1 DUP5 KECCAK256 DUP2 MLOAD PUSH1 0x60 DUP2 ADD DUP4 MSTORE DUP10 DUP2 MSTORE DUP1 DUP5 ADD DUP9 DUP2 MSTORE TIMESTAMP SWAP4 DUP3 ADD SWAP4 DUP5 MSTORE DUP3 SLOAD PUSH1 0x1 DUP2 DUP2 ADD DUP6 SSTORE DUP5 DUP10 MSTORE DUP7 DUP10 KECCAK256 SWAP4 MLOAD PUSH1 0x3 SWAP1 SWAP3 MUL SWAP1 SWAP4 ADD SWAP1 DUP2 SSTORE SWAP1 MLOAD DUP2 DUP4 ADD SSTORE SWAP3 MLOAD PUSH1 0x2 SWAP1 SWAP4 ADD SWAP3 SWAP1 SWAP3 SSTORE SWAP5 DUP5 MSTORE SWAP2 SWAP1 MSTORE SWAP1 SWAP2 ADD DUP1 SLOAD DUP4 SWAP3 SWAP1 PUSH2 0x1099 SWAP1 DUP5 SWAP1 PUSH2 0x2EA1 JUMP JUMPDEST SWAP1 SWAP2 SSTORE POP POP PUSH1 0x40 DUP1 MLOAD DUP5 DUP2 MSTORE PUSH1 0x20 DUP2 ADD DUP4 SWAP1 MSTORE PUSH1 0x1 PUSH1 0x1 PUSH1 0xA0 SHL SUB DUP8 AND SWAP2 DUP3 SWAP2 PUSH32 0xDCBC1C05240F31FF3AD067EF1EE35CE4997762752E3A095284754544F4C709D7 SWAP2 ADD PUSH1 0x40 MLOAD DUP1 SWAP2 SUB SWAP1 LOG3 SWAP5 POP POP POP POP POP PUSH2 0x889 PUSH1 0x1 PUSH1 0x6 SSTORE JUMP JUMPDEST PUSH0 PUSH2 0x10FD PUSH2 0x1A3E JUMP JUMPDEST PUSH2 0x1105 PUSH2 0x1A68 JUMP JUMPDEST PUSH1 0xE SLOAD TIMESTAMP LT DUP1 PUSH2 0x1116 JUMPI POP PUSH1 0xF SLOAD TIMESTAMP GT JUMPDEST DUP1 PUSH2 0x1125 JUMPI POP PUSH1 0x8 SLOAD PUSH1 0x14 SLOAD LT ISZERO JUMPDEST ISZERO PUSH2 0x1143 JUMPI PUSH1 0x40 MLOAD PUSH4 0x3E8502DF PUSH1 0xE0 SHL DUP2 MSTORE PUSH1 0x4 ADD PUSH1 0x40 MLOAD DUP1 SWAP2 SUB SWAP1 REVERT JUMPDEST DUP3 PUSH0 SUB PUSH2 0x1163 JUMPI PUSH1 0x40 MLOAD PUSH4 0x26753BB5 PUSH1 0xE1 SHL DUP2 MSTORE PUSH1 0x4 ADD PUSH1 0x40 MLOAD DUP1 SWAP2 SUB SWAP1 REVERT JUMPDEST PUSH1 0x1 PUSH1 0x1 PUSH1 0xA0 SHL SUB DUP3 AND CALLER EQ PUSH2 0x118C JUMPI PUSH1 0x40 MLOAD PUSH4 0x162692A7 PUSH1 0xE0 SHL DUP2 MSTORE PUSH1 0x4 ADD PUSH1 0x40 MLOAD DUP1 SWAP2 SUB SWAP1 REVERT JUMPDEST PUSH0 PUSH2 0x119D DUP5 PUSH1 0x12 SLOAD PUSH2 0x2710 PUSH0 PUSH2 0x202F JUMP JUMPDEST SWAP1 POP PUSH0 PUSH2 0x11AA DUP3 DUP7 PUSH2 0x2E3D JUMP JUMPDEST SWAP1 POP PUSH1 0x9 SLOAD DUP2 LT ISZERO PUSH2 0x11E5 JUMPI PUSH1 0x8 SLOAD DUP2 PUSH1 0x14 SLOAD PUSH2 0x11C7 SWAP2 SWAP1 PUSH2 0x2EA1 JUMP JUMPDEST EQ PUSH2 0x11E5 JUMPI PUSH1 0x40 MLOAD PUSH4 0xAC1E14E5 PUSH1 0xE0 SHL DUP2 MSTORE PUSH1 0x4 ADD PUSH1 0x40 MLOAD DUP1 SWAP2 SUB SWAP1 REVERT JUMPDEST PUSH1 0x8 SLOAD DUP2 PUSH1 0x14 SLOAD PUSH2 0x11F6 SWAP2 SWAP1 PUSH2 0x2EA1 JUMP JUMPDEST GT ISZERO PUSH2 0x1215 JUMPI PUSH1 0x40 MLOAD PUSH4 0x17C06049 PUSH1 0xE3 SHL DUP2 MSTORE PUSH1 0x4 ADD PUSH1 0x40 MLOAD DUP1 SWAP2 SUB SWAP1 REVERT JUMPDEST PUSH0 DUP3 GT DUP1 ISZERO PUSH2 0x122E JUMPI POP PUSH1 0xD SLOAD PUSH1 0x1 PUSH1 0x1 PUSH1 0xA0 SHL SUB AND ISZERO ISZERO JUMPDEST ISZERO PUSH2 0x126C JUMPI PUSH1 0xD SLOAD PUSH2 0x126C SWAP1 CALLER SWAP1 PUSH1 0x1 PUSH1 0x1 PUSH1 0xA0 SHL SUB AND DUP5 PUSH32 0x0 PUSH2 0xF7B JUMP JUMPDEST PUSH2 0x1276 DUP2 DUP6 PUSH2 0x2207 JUMP JUMPDEST PUSH1 0x1 PUSH1 0x1 PUSH1 0xA0 SHL SUB DUP6 AND PUSH0 DUP2 DUP2 MSTORE PUSH1 0x17 PUSH1 0x20 DUP2 DUP2 MSTORE PUSH1 0x40 DUP1 DUP5 KECCAK256 DUP2 MLOAD PUSH1 0x60 DUP2 ADD DUP4 MSTORE DUP9 DUP2 MSTORE DUP1 DUP5 ADD DUP9 DUP2 MSTORE TIMESTAMP SWAP4 DUP3 ADD SWAP4 DUP5 MSTORE DUP3 SLOAD PUSH1 0x1 DUP2 DUP2 ADD DUP6 SSTORE DUP5 DUP10 MSTORE DUP7 DUP10 KECCAK256 SWAP4 MLOAD PUSH1 0x3 SWAP1 SWAP3 MUL SWAP1 SWAP4 ADD SWAP1 DUP2 SSTORE SWAP1 MLOAD DUP2 DUP4 ADD SSTORE SWAP3 MLOAD PUSH1 0x2 SWAP1 SWAP4 ADD SWAP3 SWAP1 SWAP3 SSTORE SWAP5 DUP5 MSTORE SWAP2 SWAP1 MSTORE SWAP1 SWAP2 ADD DUP1 SLOAD SWAP3 SWAP6 POP DUP6 SWAP3 SWAP1 SWAP2 SWAP1 PUSH2 0x12F3 SWAP1 DUP5 SWAP1 PUSH2 0x2EA1 JUMP JUMPDEST SWAP3 POP POP DUP2 SWAP1 SSTORE POP DUP1 PUSH1 0x14 PUSH0 DUP3 DUP3 SLOAD PUSH2 0x130B SWAP2 SWAP1 PUSH2 0x2EA1 JUMP JUMPDEST SWAP1 SWAP2 SSTORE POP POP PUSH1 0x40 DUP1 MLOAD DUP3 DUP2 MSTORE PUSH1 0x20 DUP2 ADD DUP6 SWAP1 MSTORE PUSH1 0x1 PUSH1 0x1 PUSH1 0xA0 SHL SUB DUP7 AND SWAP2 DUP3 SWAP2 PUSH32 0xDCBC1C05240F31FF3AD067EF1EE35CE4997762752E3A095284754544F4C709D7 SWAP2 ADD PUSH1 0x40 MLOAD DUP1 SWAP2 SUB SWAP1 LOG3 POP POP PUSH2 0x889 PUSH1 0x1 PUSH1 0x6 SSTORE JUMP JUMPDEST PUSH0 PUSH2 0x136C DUP2 PUSH2 0x1A8C JUMP JUMPDEST PUSH2 0xA59 PUSH2 0x2253 JUMP JUMPDEST PUSH0 SWAP2 DUP3 MSTORE PUSH1 0x5 PUSH1 0x20 SWAP1 DUP2 MSTORE PUSH1 0x40 DUP1 DUP5 KECCAK256 PUSH1 0x1 PUSH1 0x1 PUSH1 0xA0 SHL SUB SWAP4 SWAP1 SWAP4 AND DUP5 MSTORE SWAP2 SWAP1 MSTORE SWAP1 KECCAK256 SLOAD PUSH1 0xFF AND SWAP1 JUMP JUMPDEST PUSH0 PUSH0 NOT PUSH0 PUSH2 0x13AB DUP6 PUSH2 0x13DD JUMP JUMPDEST SWAP1 POP PUSH2 0x13B9 CALLER DUP6 DUP4 DUP9 PUSH2 0x2290 JUMP JUMPDEST SWAP5 SWAP4 POP POP POP POP JUMP JUMPDEST PUSH1 0x60 PUSH1 0x4 DUP1 SLOAD PUSH2 0x89E SWAP1 PUSH2 0x2E50 JUMP JUMPDEST PUSH0 CALLER PUSH2 0x937 DUP2 DUP6 DUP6 PUSH2 0x1B58 JUMP JUMPDEST PUSH0 PUSH2 0x889 DUP3 PUSH1 0x1 PUSH2 0x1A03 JUMP JUMPDEST PUSH0 PUSH2 0x13F2 PUSH2 0x1A3E JUMP JUMPDEST PUSH2 0x13FA PUSH2 0x1A68 JUMP JUMPDEST PUSH0 PUSH2 0x1404 DUP2 PUSH2 0x1A8C JUMP JUMPDEST DUP4 PUSH0 SUB PUSH2 0x1424 JUMPI PUSH1 0x40 MLOAD PUSH4 0x26753BB5 PUSH1 0xE1 SHL DUP2 MSTORE PUSH1 0x4 ADD PUSH1 0x40 MLOAD DUP1 SWAP2 SUB SWAP1 REVERT JUMPDEST PUSH1 0x1 PUSH1 0x1 PUSH1 0xA0 SHL SUB DUP4 AND PUSH2 0x144B JUMPI PUSH1 0x40 MLOAD PUSH4 0x14F59773 PUSH1 0xE1 SHL DUP2 MSTORE PUSH1 0x4 ADD PUSH1 0x40 MLOAD DUP1 SWAP2 SUB SWAP1 REVERT JUMPDEST PUSH0 PUSH2 0x1455 PUSH1 0x2 SLOAD SWAP1 JUMP JUMPDEST SWAP1 POP DUP1 PUSH0 SUB PUSH2 0x1477 JUMPI PUSH1 0x40 MLOAD PUSH4 0xC450DDF1 PUSH1 0xE0 SHL DUP2 MSTORE PUSH1 0x4 ADD PUSH1 0x40 MLOAD DUP1 SWAP2 SUB SWAP1 REVERT JUMPDEST PUSH1 0xB SLOAD PUSH4 0xFFFFFFFF SWAP1 DUP2 AND LT PUSH2 0x14A0 JUMPI PUSH1 0x40 MLOAD PUSH4 0x2E6B1613 PUSH1 0xE0 SHL DUP2 MSTORE PUSH1 0x4 ADD PUSH1 0x40 MLOAD DUP1 SWAP2 SUB SWAP1 REVERT JUMPDEST PUSH2 0x14CC DUP5 ADDRESS DUP8 PUSH32 0x0 PUSH2 0xF7B JUMP JUMPDEST PUSH1 0xB SLOAD PUSH2 0x14E0 SWAP1 PUSH4 0xFFFFFFFF AND PUSH1 0x1 PUSH2 0x2ED5 JUMP JUMPDEST PUSH1 0xB DUP1 SLOAD PUSH4 0xFFFFFFFF NOT AND PUSH4 0xFFFFFFFF SWAP3 SWAP1 SWAP3 AND SWAP2 SWAP1 SWAP2 OR SWAP1 SSTORE PUSH0 PUSH2 0x150F DUP7 PUSH8 0xDE0B6B3A7640000 DUP5 DUP5 PUSH2 0x202F JUMP JUMPDEST PUSH1 0x40 DUP1 MLOAD DUP1 DUP3 ADD DUP3 MSTORE DUP3 DUP2 MSTORE TIMESTAMP PUSH1 0x20 DUP1 DUP4 ADD SWAP2 DUP3 MSTORE PUSH1 0xB SLOAD PUSH4 0xFFFFFFFF AND PUSH0 SWAP1 DUP2 MSTORE PUSH1 0x16 SWAP1 SWAP2 MSTORE SWAP3 DUP4 KECCAK256 SWAP2 MLOAD DUP3 SSTORE MLOAD PUSH1 0x1 SWAP1 SWAP2 ADD SSTORE PUSH1 0x15 DUP1 SLOAD SWAP3 SWAP4 POP DUP9 SWAP3 SWAP1 SWAP2 SWAP1 PUSH2 0x155B SWAP1 DUP5 SWAP1 PUSH2 0x2EA1 JUMP JUMPDEST SWAP1 SWAP2 SSTORE POP POP PUSH1 0xB SLOAD PUSH1 0x40 DUP1 MLOAD DUP9 DUP2 MSTORE PUSH4 0xFFFFFFFF SWAP1 SWAP3 AND PUSH1 0x20 DUP4 ADD MSTORE TIMESTAMP DUP3 DUP3 ADD MSTORE MLOAD PUSH32 0x6F030BA6D582D7A59EDC355267529FA420BB4A982750488913F3EE91645E3AEB SWAP2 DUP2 SWAP1 SUB PUSH1 0x60 ADD SWAP1 LOG1 PUSH1 0x1 SWAP4 POP POP POP POP PUSH2 0x889 PUSH1 0x1 PUSH1 0x6 SSTORE JUMP JUMPDEST PUSH0 PUSH2 0x15C1 PUSH2 0x1A3E JUMP JUMPDEST PUSH2 0x15C9 PUSH2 0x1A68 JUMP JUMPDEST DUP4 PUSH0 SUB PUSH2 0x15E9 JUMPI PUSH1 0x40 MLOAD PUSH4 0x26753BB5 PUSH1 0xE1 SHL DUP2 MSTORE PUSH1 0x4 ADD PUSH1 0x40 MLOAD DUP1 SWAP2 SUB SWAP1 REVERT JUMPDEST PUSH0 PUSH2 0x1608 DUP6 PUSH2 0x2710 PUSH1 0x13 SLOAD PUSH2 0x2710 PUSH2 0x1601 SWAP2 SWAP1 PUSH2 0x2E3D JUMP JUMPDEST PUSH1 0x1 PUSH2 0x202F JUMP JUMPDEST SWAP1 POP PUSH2 0x1613 DUP2 PUSH2 0x941 JUMP JUMPDEST PUSH1 0x1 PUSH1 0x1 PUSH1 0xA0 SHL SUB DUP5 AND PUSH0 SWAP1 DUP2 MSTORE PUSH1 0x17 PUSH1 0x20 MSTORE PUSH1 0x40 SWAP1 KECCAK256 PUSH1 0x1 ADD SLOAD SWAP1 SWAP3 POP DUP3 GT ISZERO PUSH2 0x1650 JUMPI PUSH1 0x40 MLOAD PUSH3 0xC5644D PUSH1 0xE7 SHL DUP2 MSTORE PUSH1 0x4 ADD PUSH1 0x40 MLOAD DUP1 SWAP2 SUB SWAP1 REVERT JUMPDEST PUSH1 0x1 PUSH1 0x1 PUSH1 0xA0 SHL SUB DUP4 AND PUSH0 SWAP1 DUP2 MSTORE PUSH1 0x17 PUSH1 0x20 MSTORE PUSH1 0x40 DUP2 KECCAK256 PUSH1 0x1 ADD DUP1 SLOAD DUP5 SWAP3 SWAP1 PUSH2 0x167A SWAP1 DUP5 SWAP1 PUSH2 0x2E3D JUMP JUMPDEST SWAP1 SWAP2 SSTORE POP PUSH2 0x168B SWAP1 POP DUP2 DUP6 DUP6 PUSH2 0x2322 JUMP JUMPDEST SWAP2 POP POP PUSH2 0xA7A PUSH1 0x1 PUSH1 0x6 SSTORE JUMP JUMPDEST PUSH0 PUSH2 0x16A1 PUSH2 0x1A3E JUMP JUMPDEST PUSH2 0x16A9 PUSH2 0x1A68 JUMP JUMPDEST DUP4 PUSH0 SUB PUSH2 0x16C9 JUMPI PUSH1 0x40 MLOAD PUSH4 0x26753BB5 PUSH1 0xE1 SHL DUP2 MSTORE PUSH1 0x4 ADD PUSH1 0x40 MLOAD DUP1 SWAP2 SUB SWAP1 REVERT JUMPDEST PUSH1 0x1 PUSH1 0x1 PUSH1 0xA0 SHL SUB DUP3 AND PUSH0 SWAP1 DUP2 MSTORE PUSH1 0x17 PUSH1 0x20 MSTORE PUSH1 0x40 SWAP1 KECCAK256 PUSH1 0x1 ADD SLOAD DUP5 GT ISZERO PUSH2 0x1703 JUMPI PUSH1 0x40 MLOAD PUSH3 0xC5644D PUSH1 0xE7 SHL DUP2 MSTORE PUSH1 0x4 ADD PUSH1 0x40 MLOAD DUP1 SWAP2 SUB SWAP1 REVERT JUMPDEST PUSH1 0x1 PUSH1 0x1 PUSH1 0xA0 SHL SUB DUP3 AND PUSH0 SWAP1 DUP2 MSTORE PUSH1 0x17 PUSH1 0x20 MSTORE PUSH1 0x40 DUP2 KECCAK256 PUSH1 0x1 ADD DUP1 SLOAD DUP7 SWAP3 SWAP1 PUSH2 0x172D SWAP1 DUP5 SWAP1 PUSH2 0x2E3D JUMP JUMPDEST SWAP1 SWAP2 SSTORE POP PUSH2 0x173E SWAP1 POP DUP5 DUP5 DUP5 PUSH2 0x236F JUMP JUMPDEST SWAP1 POP PUSH2 0xA7A PUSH1 0x1 PUSH1 0x6 SSTORE JUMP JUMPDEST PUSH0 PUSH2 0x889 DUP3 PUSH0 PUSH2 0x1A27 JUMP JUMPDEST PUSH2 0x1783 PUSH1 0x40 MLOAD DUP1 PUSH1 0x80 ADD PUSH1 0x40 MSTORE DUP1 PUSH1 0x60 DUP2 MSTORE PUSH1 0x20 ADD PUSH0 DUP2 MSTORE PUSH1 0x20 ADD PUSH0 PUSH4 0xFFFFFFFF AND DUP2 MSTORE PUSH1 0x20 ADD PUSH0 DUP2 MSTORE POP SWAP1 JUMP JUMPDEST PUSH1 0x1 PUSH1 0x1 PUSH1 0xA0 SHL SUB DUP3 AND PUSH0 SWAP1 DUP2 MSTORE PUSH1 0x17 PUSH1 0x20 SWAP1 DUP2 MSTORE PUSH1 0x40 DUP1 DUP4 KECCAK256 DUP2 MLOAD DUP2 SLOAD PUSH1 0xA0 SWAP5 DUP2 MUL DUP3 ADD DUP6 ADD SWAP1 SWAP4 MSTORE PUSH1 0x80 DUP2 ADD DUP4 DUP2 MSTORE SWAP1 SWAP5 SWAP2 SWAP4 DUP6 SWAP4 SWAP2 SWAP3 DUP6 SWAP3 SWAP2 DUP6 ADD JUMPDEST DUP3 DUP3 LT ISZERO PUSH2 0x180F JUMPI DUP4 DUP3 SWAP1 PUSH0 MSTORE PUSH1 0x20 PUSH0 KECCAK256 SWAP1 PUSH1 0x3 MUL ADD PUSH1 0x40 MLOAD DUP1 PUSH1 0x60 ADD PUSH1 0x40 MSTORE SWAP1 DUP2 PUSH0 DUP3 ADD SLOAD DUP2 MSTORE PUSH1 0x20 ADD PUSH1 0x1 DUP3 ADD SLOAD DUP2 MSTORE PUSH1 0x20 ADD PUSH1 0x2 DUP3 ADD SLOAD DUP2 MSTORE POP POP DUP2 MSTORE PUSH1 0x20 ADD SWAP1 PUSH1 0x1 ADD SWAP1 PUSH2 0x17C2 JUMP JUMPDEST POP POP POP SWAP1 DUP3 MSTORE POP PUSH1 0x1 DUP3 ADD SLOAD PUSH1 0x20 DUP3 ADD MSTORE PUSH1 0x2 DUP3 ADD SLOAD PUSH4 0xFFFFFFFF AND PUSH1 0x40 DUP3 ADD MSTORE PUSH1 0x3 SWAP1 SWAP2 ADD SLOAD PUSH1 0x60 SWAP1 SWAP2 ADD MSTORE SWAP3 SWAP2 POP POP JUMP JUMPDEST PUSH1 0x1 PUSH1 0x1 PUSH1 0xA0 SHL SUB DUP2 AND PUSH0 SWAP1 DUP2 MSTORE PUSH1 0x20 DUP2 SWAP1 MSTORE PUSH1 0x40 DUP2 KECCAK256 SLOAD PUSH2 0x889 SWAP1 PUSH0 PUSH2 0x1A03 JUMP JUMPDEST PUSH0 DUP3 DUP2 MSTORE PUSH1 0x5 PUSH1 0x20 MSTORE PUSH1 0x40 SWAP1 KECCAK256 PUSH1 0x1 ADD SLOAD PUSH2 0x187E DUP2 PUSH2 0x1A8C JUMP JUMPDEST PUSH2 0xAA5 DUP4 DUP4 PUSH2 0x1C46 JUMP JUMPDEST PUSH1 0x1 PUSH1 0x1 PUSH1 0xA0 SHL SUB DUP2 AND PUSH0 SWAP1 DUP2 MSTORE PUSH1 0x20 DUP2 SWAP1 MSTORE PUSH1 0x40 DUP2 KECCAK256 SLOAD PUSH2 0x889 JUMP JUMPDEST PUSH1 0x1 PUSH1 0x1 PUSH1 0xA0 SHL SUB DUP2 AND PUSH0 SWAP1 DUP2 MSTORE PUSH1 0x17 PUSH1 0x20 MSTORE PUSH1 0x40 DUP2 KECCAK256 PUSH1 0x2 ADD SLOAD DUP2 SWAP1 PUSH2 0x18D3 SWAP1 PUSH4 0xFFFFFFFF AND PUSH1 0x1 PUSH2 0x2ED5 JUMP JUMPDEST SWAP1 POP PUSH2 0xA7A DUP4 DUP3 PUSH2 0x23BC JUMP JUMPDEST PUSH2 0x18E7 PUSH2 0x1A3E JUMP JUMPDEST PUSH2 0x18EF PUSH2 0x1A68 JUMP JUMPDEST PUSH0 PUSH2 0x18F9 DUP2 PUSH2 0x1A8C JUMP JUMPDEST PUSH1 0x1 PUSH1 0x1 PUSH1 0xA0 SHL SUB DUP3 AND PUSH2 0x1920 JUMPI PUSH1 0x40 MLOAD PUSH4 0x14F59773 PUSH1 0xE1 SHL DUP2 MSTORE PUSH1 0x4 ADD PUSH1 0x40 MLOAD DUP1 SWAP2 SUB SWAP1 REVERT JUMPDEST PUSH1 0xD SLOAD PUSH1 0x1 PUSH1 0x1 PUSH1 0xA0 SHL SUB SWAP1 DUP2 AND SWAP1 DUP4 AND SUB PUSH2 0x194F JUMPI PUSH1 0x40 MLOAD PUSH4 0xCE3B397B PUSH1 0xE0 SHL DUP2 MSTORE PUSH1 0x4 ADD PUSH1 0x40 MLOAD DUP1 SWAP2 SUB SWAP1 REVERT JUMPDEST PUSH2 0x1959 PUSH0 DUP4 PUSH2 0x1374 JUMP JUMPDEST ISZERO PUSH2 0x1977 JUMPI PUSH1 0x40 MLOAD PUSH4 0xCE3B397B PUSH1 0xE0 SHL DUP2 MSTORE PUSH1 0x4 ADD PUSH1 0x40 MLOAD DUP1 SWAP2 SUB SWAP1 REVERT JUMPDEST PUSH1 0xD SLOAD PUSH1 0x1 PUSH1 0x1 PUSH1 0xA0 SHL SUB AND PUSH2 0x198D PUSH0 DUP3 PUSH2 0x1C46 JUMP JUMPDEST POP PUSH1 0xD DUP1 SLOAD PUSH1 0x1 PUSH1 0x1 PUSH1 0xA0 SHL SUB NOT AND PUSH1 0x1 PUSH1 0x1 PUSH1 0xA0 SHL SUB DUP6 AND OR SWAP1 SSTORE PUSH2 0x19B3 PUSH0 DUP5 PUSH2 0x1BB5 JUMP JUMPDEST POP PUSH1 0x40 DUP1 MLOAD PUSH1 0x1 PUSH1 0x1 PUSH1 0xA0 SHL SUB DUP1 DUP5 AND DUP3 MSTORE DUP6 AND PUSH1 0x20 DUP3 ADD MSTORE PUSH32 0xB532073B38C83145E3E5135377A08BF9AAB55BC0FD7C1179CD4FB995D2A5159C SWAP2 ADD PUSH1 0x40 MLOAD DUP1 SWAP2 SUB SWAP1 LOG1 POP POP PUSH2 0xA59 PUSH1 0x1 PUSH1 0x6 SSTORE JUMP JUMPDEST PUSH0 PUSH2 0xA7A DUP4 PUSH1 0xC SLOAD PUSH8 0xDE0B6B3A7640000 DUP6 PUSH2 0x202F JUMP JUMPDEST PUSH2 0xB0E DUP4 DUP4 DUP4 PUSH1 0x1 PUSH2 0x2457 JUMP JUMPDEST PUSH0 PUSH2 0xA7A DUP4 PUSH8 0xDE0B6B3A7640000 PUSH1 0xC SLOAD DUP6 PUSH2 0x202F JUMP JUMPDEST PUSH1 0x2 PUSH1 0x6 SLOAD SUB PUSH2 0x1A61 JUMPI PUSH1 0x40 MLOAD PUSH4 0x3EE5AEB5 PUSH1 0xE0 SHL DUP2 MSTORE PUSH1 0x4 ADD PUSH1 0x40 MLOAD DUP1 SWAP2 SUB SWAP1 REVERT JUMPDEST PUSH1 0x2 PUSH1 0x6 SSTORE JUMP JUMPDEST PUSH1 0x7 SLOAD PUSH1 0xFF AND ISZERO PUSH2 0xC7D JUMPI PUSH1 0x40 MLOAD PUSH4 0xD93C0665 PUSH1 0xE0 SHL DUP2 MSTORE PUSH1 0x4 ADD PUSH1 0x40 MLOAD DUP1 SWAP2 SUB SWAP1 REVERT JUMPDEST PUSH2 0xA59 DUP2 CALLER PUSH2 0x251B JUMP JUMPDEST PUSH1 0x40 MLOAD PUSH1 0x1 PUSH1 0x1 PUSH1 0xA0 SHL SUB DUP4 DUP2 AND PUSH1 0x24 DUP4 ADD MSTORE PUSH1 0x44 DUP3 ADD DUP4 SWAP1 MSTORE PUSH2 0xB0E SWAP2 DUP6 SWAP2 DUP3 AND SWAP1 PUSH4 0xA9059CBB SWAP1 PUSH1 0x64 ADD JUMPDEST PUSH1 0x40 MLOAD PUSH1 0x20 DUP2 DUP4 SUB SUB DUP2 MSTORE SWAP1 PUSH1 0x40 MSTORE SWAP2 POP PUSH1 0xE0 SHL PUSH1 0x20 DUP3 ADD DUP1 MLOAD PUSH1 0x1 PUSH1 0x1 PUSH1 0xE0 SHL SUB DUP4 DUP2 DUP4 AND OR DUP4 MSTORE POP POP POP POP PUSH2 0x2554 JUMP JUMPDEST PUSH1 0x1 PUSH1 0x1 PUSH1 0xA0 SHL SUB DUP4 DUP2 AND PUSH0 SWAP1 DUP2 MSTORE PUSH1 0x1 PUSH1 0x20 SWAP1 DUP2 MSTORE PUSH1 0x40 DUP1 DUP4 KECCAK256 SWAP4 DUP7 AND DUP4 MSTORE SWAP3 SWAP1 MSTORE KECCAK256 SLOAD PUSH0 NOT DUP2 LT ISZERO PUSH2 0xAA5 JUMPI DUP2 DUP2 LT ISZERO PUSH2 0x1B4A JUMPI DUP3 DUP2 DUP4 PUSH1 0x40 MLOAD PUSH4 0x7DC7A0D9 PUSH1 0xE1 SHL DUP2 MSTORE PUSH1 0x4 ADD PUSH2 0xF37 SWAP4 SWAP3 SWAP2 SWAP1 PUSH2 0x2EB4 JUMP JUMPDEST PUSH2 0xAA5 DUP5 DUP5 DUP5 DUP5 SUB PUSH0 PUSH2 0x2457 JUMP JUMPDEST PUSH1 0x1 PUSH1 0x1 PUSH1 0xA0 SHL SUB DUP4 AND PUSH2 0x1B81 JUMPI PUSH1 0x40 MLOAD PUSH4 0x4B637E8F PUSH1 0xE1 SHL DUP2 MSTORE PUSH0 PUSH1 0x4 DUP3 ADD MSTORE PUSH1 0x24 ADD PUSH2 0xF37 JUMP JUMPDEST PUSH1 0x1 PUSH1 0x1 PUSH1 0xA0 SHL SUB DUP3 AND PUSH2 0x1BAA JUMPI PUSH1 0x40 MLOAD PUSH4 0xEC442F05 PUSH1 0xE0 SHL DUP2 MSTORE PUSH0 PUSH1 0x4 DUP3 ADD MSTORE PUSH1 0x24 ADD PUSH2 0xF37 JUMP JUMPDEST PUSH2 0xB0E DUP4 DUP4 DUP4 PUSH2 0x25C0 JUMP JUMPDEST PUSH0 PUSH2 0x1BC0 DUP4 DUP4 PUSH2 0x1374 JUMP JUMPDEST PUSH2 0x1C3F JUMPI PUSH0 DUP4 DUP2 MSTORE PUSH1 0x5 PUSH1 0x20 SWAP1 DUP2 MSTORE PUSH1 0x40 DUP1 DUP4 KECCAK256 PUSH1 0x1 PUSH1 0x1 PUSH1 0xA0 SHL SUB DUP7 AND DUP5 MSTORE SWAP1 SWAP2 MSTORE SWAP1 KECCAK256 DUP1 SLOAD PUSH1 0xFF NOT AND PUSH1 0x1 OR SWAP1 SSTORE PUSH2 0x1BF7 CALLER SWAP1 JUMP JUMPDEST PUSH1 0x1 PUSH1 0x1 PUSH1 0xA0 SHL SUB AND DUP3 PUSH1 0x1 PUSH1 0x1 PUSH1 0xA0 SHL SUB AND DUP5 PUSH32 0x2F8788117E7EFF1D82E926EC794901D17C78024A50270940304540A733656F0D PUSH1 0x40 MLOAD PUSH1 0x40 MLOAD DUP1 SWAP2 SUB SWAP1 LOG4 POP PUSH1 0x1 PUSH2 0x889 JUMP JUMPDEST POP PUSH0 PUSH2 0x889 JUMP JUMPDEST PUSH0 PUSH2 0x1C51 DUP4 DUP4 PUSH2 0x1374 JUMP JUMPDEST ISZERO PUSH2 0x1C3F JUMPI PUSH0 DUP4 DUP2 MSTORE PUSH1 0x5 PUSH1 0x20 SWAP1 DUP2 MSTORE PUSH1 0x40 DUP1 DUP4 KECCAK256 PUSH1 0x1 PUSH1 0x1 PUSH1 0xA0 SHL SUB DUP7 AND DUP1 DUP6 MSTORE SWAP3 MSTORE DUP1 DUP4 KECCAK256 DUP1 SLOAD PUSH1 0xFF NOT AND SWAP1 SSTORE MLOAD CALLER SWAP3 DUP7 SWAP2 PUSH32 0xF6391F5C32D9C69D2A47EA670B442974B53935D1EDC7FD64EB21E047A839171B SWAP2 SWAP1 LOG4 POP PUSH1 0x1 PUSH2 0x889 JUMP JUMPDEST PUSH2 0x1CB9 PUSH2 0x26D3 JUMP JUMPDEST PUSH1 0x7 DUP1 SLOAD PUSH1 0xFF NOT AND SWAP1 SSTORE PUSH32 0x5DB9EE0A495BF2E6FF9C91A7834C1BA4FDD244A5E8AA4E537BD38AEAE4B073AA CALLER JUMPDEST PUSH1 0x40 MLOAD PUSH1 0x1 PUSH1 0x1 PUSH1 0xA0 SHL SUB SWAP1 SWAP2 AND DUP2 MSTORE PUSH1 0x20 ADD PUSH1 0x40 MLOAD DUP1 SWAP2 SUB SWAP1 LOG1 JUMP JUMPDEST PUSH1 0x1 PUSH1 0x1 PUSH1 0xA0 SHL SUB DUP2 AND PUSH0 SWAP1 DUP2 MSTORE PUSH1 0x17 PUSH1 0x20 MSTORE PUSH1 0x40 DUP2 KECCAK256 PUSH1 0x1 DUP2 ADD SLOAD DUP3 SUB PUSH2 0x1D2D JUMPI POP PUSH0 SWAP3 SWAP2 POP POP JUMP JUMPDEST PUSH2 0xA7A DUP2 PUSH1 0x1 ADD SLOAD PUSH1 0x11 SLOAD PUSH2 0x2710 PUSH0 PUSH2 0x202F JUMP JUMPDEST CALLER PUSH0 PUSH2 0x1D4C DUP3 PUSH2 0x1D03 JUMP JUMPDEST PUSH1 0x1 PUSH1 0x1 PUSH1 0xA0 SHL SUB DUP4 AND PUSH0 SWAP1 DUP2 MSTORE PUSH1 0x17 PUSH1 0x20 MSTORE PUSH1 0x40 SWAP1 KECCAK256 PUSH1 0x1 ADD SLOAD SWAP1 SWAP2 POP DUP2 ISZERO DUP1 ISZERO PUSH2 0x1D76 JUMPI POP DUP1 ISZERO JUMPDEST ISZERO PUSH2 0x1D94 JUMPI PUSH1 0x40 MLOAD PUSH4 0x44388C2B PUSH1 0xE0 SHL DUP2 MSTORE PUSH1 0x4 ADD PUSH1 0x40 MLOAD DUP1 SWAP2 SUB SWAP1 REVERT JUMPDEST PUSH0 PUSH2 0x1D9F DUP3 PUSH0 PUSH2 0x1A03 JUMP JUMPDEST PUSH1 0x1 PUSH1 0x1 PUSH1 0xA0 SHL SUB DUP6 AND PUSH0 SWAP1 DUP2 MSTORE PUSH1 0x17 PUSH1 0x20 MSTORE PUSH1 0x40 DUP2 KECCAK256 PUSH1 0x1 ADD SSTORE SWAP1 POP DUP2 ISZERO PUSH2 0x1E75 JUMPI PUSH2 0x1DCC DUP5 DUP4 PUSH2 0x26F6 JUMP JUMPDEST PUSH0 PUSH2 0x1DDD DUP3 PUSH1 0x13 SLOAD PUSH2 0x2710 PUSH0 PUSH2 0x202F JUMP JUMPDEST SWAP1 POP PUSH0 PUSH2 0x1DEA DUP3 DUP5 PUSH2 0x2E3D JUMP JUMPDEST SWAP1 POP PUSH0 DUP3 GT DUP1 ISZERO PUSH2 0x1E05 JUMPI POP PUSH1 0xD SLOAD PUSH1 0x1 PUSH1 0x1 PUSH1 0xA0 SHL SUB AND ISZERO ISZERO JUMPDEST ISZERO PUSH2 0x1E41 JUMPI PUSH1 0xD SLOAD PUSH2 0x1E41 SWAP1 PUSH1 0x1 PUSH1 0x1 PUSH1 0xA0 SHL SUB AND DUP4 PUSH32 0x0 PUSH2 0xA14 JUMP JUMPDEST DUP1 ISZERO PUSH2 0x1E72 JUMPI PUSH2 0x1E72 DUP7 DUP3 PUSH32 0x0 PUSH2 0xA14 JUMP JUMPDEST POP POP JUMPDEST DUP3 ISZERO PUSH2 0xAA5 JUMPI DUP3 PUSH1 0x15 SLOAD LT ISZERO PUSH2 0x1E9E JUMPI PUSH1 0x40 MLOAD PUSH4 0x7521B38F PUSH1 0xE1 SHL DUP2 MSTORE PUSH1 0x4 ADD PUSH1 0x40 MLOAD DUP1 SWAP2 SUB SWAP1 REVERT JUMPDEST DUP3 PUSH1 0x15 PUSH0 DUP3 DUP3 SLOAD PUSH2 0x1EAF SWAP2 SWAP1 PUSH2 0x2E3D JUMP JUMPDEST SWAP1 SWAP2 SSTORE POP PUSH2 0xAA5 SWAP1 POP DUP5 DUP5 PUSH32 0x0 PUSH2 0xA14 JUMP JUMPDEST PUSH1 0xB SLOAD PUSH4 0xFFFFFFFF AND PUSH0 SUB PUSH2 0x1F08 JUMPI PUSH1 0x40 MLOAD PUSH4 0x28BF11B9 PUSH1 0xE1 SHL DUP2 MSTORE PUSH1 0x4 ADD PUSH1 0x40 MLOAD DUP1 SWAP2 SUB SWAP1 REVERT JUMPDEST CALLER PUSH0 DUP2 DUP2 MSTORE PUSH1 0x17 PUSH1 0x20 MSTORE PUSH1 0x40 DUP2 KECCAK256 PUSH1 0x2 ADD SLOAD PUSH2 0x1F2B SWAP1 PUSH4 0xFFFFFFFF AND PUSH1 0x1 PUSH2 0x2ED5 JUMP JUMPDEST PUSH1 0xB SLOAD SWAP1 SWAP2 POP PUSH4 0xFFFFFFFF SWAP1 DUP2 AND SWAP1 DUP3 AND GT ISZERO PUSH2 0x1F5B JUMPI PUSH1 0x40 MLOAD PUSH4 0x1114DC63 PUSH1 0xE0 SHL DUP2 MSTORE PUSH1 0x4 ADD PUSH1 0x40 MLOAD DUP1 SWAP2 SUB SWAP1 REVERT JUMPDEST PUSH0 PUSH2 0x1F66 DUP4 DUP4 PUSH2 0x23BC JUMP JUMPDEST SWAP1 POP DUP1 PUSH0 SUB PUSH2 0x1F88 JUMPI PUSH1 0x40 MLOAD PUSH4 0xE7F2F92F PUSH1 0xE0 SHL DUP2 MSTORE PUSH1 0x4 ADD PUSH1 0x40 MLOAD DUP1 SWAP2 SUB SWAP1 REVERT JUMPDEST PUSH1 0xB SLOAD PUSH1 0x1 PUSH1 0x1 PUSH1 0xA0 SHL SUB DUP5 AND PUSH0 SWAP1 DUP2 MSTORE PUSH1 0x17 PUSH1 0x20 MSTORE PUSH1 0x40 SWAP1 KECCAK256 PUSH1 0x2 DUP2 ADD DUP1 SLOAD PUSH4 0xFFFFFFFF NOT AND PUSH4 0xFFFFFFFF SWAP1 SWAP4 AND SWAP3 SWAP1 SWAP3 OR SWAP1 SWAP2 SSTORE TIMESTAMP PUSH1 0x3 SWAP1 SWAP2 ADD SSTORE PUSH1 0x15 SLOAD DUP2 GT ISZERO PUSH2 0x1FE8 JUMPI PUSH1 0x40 MLOAD PUSH4 0x7521B38F PUSH1 0xE1 SHL DUP2 MSTORE PUSH1 0x4 ADD PUSH1 0x40 MLOAD DUP1 SWAP2 SUB SWAP1 REVERT JUMPDEST DUP1 PUSH1 0x15 PUSH0 DUP3 DUP3 SLOAD PUSH2 0x1FF9 SWAP2 SWAP1 PUSH2 0x2E3D JUMP JUMPDEST SWAP1 SWAP2 SSTORE POP POP DUP1 ISZERO PUSH2 0xB0E JUMPI PUSH2 0xB0E DUP4 DUP3 PUSH32 0x0 PUSH2 0xA14 JUMP JUMPDEST PUSH0 PUSH2 0x205C PUSH2 0x203C DUP4 PUSH2 0x272A JUMP JUMPDEST DUP1 ISZERO PUSH2 0x2057 JUMPI POP PUSH0 DUP5 DUP1 PUSH2 0x2052 JUMPI PUSH2 0x2052 PUSH2 0x2EF1 JUMP JUMPDEST DUP7 DUP9 MULMOD GT JUMPDEST ISZERO ISZERO SWAP1 JUMP JUMPDEST PUSH2 0x2067 DUP7 DUP7 DUP7 PUSH2 0x2756 JUMP JUMPDEST PUSH2 0x2071 SWAP2 SWAP1 PUSH2 0x2EA1 JUMP JUMPDEST SWAP6 SWAP5 POP POP POP POP POP JUMP JUMPDEST DUP1 PUSH1 0x80 ADD CALLDATALOAD DUP1 TIMESTAMP GT ISZERO PUSH2 0x20A3 JUMPI PUSH1 0x40 MLOAD PUSH4 0xA53B2545 PUSH1 0xE0 SHL DUP2 MSTORE PUSH1 0x4 DUP2 ADD DUP3 SWAP1 MSTORE PUSH1 0x24 ADD PUSH2 0xF37 JUMP JUMPDEST PUSH1 0x40 DUP1 MLOAD ADDRESS PUSH1 0x20 DUP1 DUP4 ADD SWAP2 SWAP1 SWAP2 MSTORE PUSH1 0x1 PUSH1 0x1 PUSH1 0xA0 SHL SUB DUP7 DUP2 AND DUP4 DUP6 ADD MSTORE DUP10 AND PUSH1 0x60 DUP1 DUP5 ADD SWAP2 SWAP1 SWAP2 MSTORE PUSH1 0x80 DUP4 ADD DUP9 SWAP1 MSTORE PUSH1 0xA0 DUP4 ADD DUP10 SWAP1 MSTORE CHAINID PUSH1 0xC0 DUP5 ADD MSTORE DUP6 ADD CALLDATALOAD PUSH1 0xE0 DUP1 DUP5 ADD SWAP2 SWAP1 SWAP2 MSTORE DUP4 MLOAD DUP1 DUP5 SUB SWAP1 SWAP2 ADD DUP2 MSTORE PUSH2 0x100 SWAP1 SWAP3 ADD SWAP1 SWAP3 MSTORE DUP1 MLOAD SWAP2 ADD KECCAK256 PUSH32 0x19457468657265756D205369676E6564204D6573736167653A0A333200000000 PUSH0 SWAP1 DUP2 MSTORE PUSH1 0x1C DUP3 SWAP1 MSTORE PUSH1 0x3C DUP2 KECCAK256 SWAP1 POP PUSH0 PUSH2 0x2155 PUSH2 0x2144 PUSH1 0x20 DUP8 ADD DUP8 PUSH2 0x2F05 JUMP JUMPDEST DUP4 SWAP1 PUSH1 0x20 DUP9 ADD CALLDATALOAD PUSH1 0x40 DUP10 ADD CALLDATALOAD PUSH2 0x2806 JUMP JUMPDEST PUSH1 0x7 SLOAD SWAP1 SWAP2 POP PUSH1 0x1 PUSH1 0x1 PUSH1 0xA0 SHL SUB DUP1 DUP4 AND PUSH2 0x100 SWAP1 SWAP3 DIV AND EQ PUSH2 0x218B JUMPI PUSH1 0x40 MLOAD PUSH4 0xDC9796C9 PUSH1 0xE0 SHL DUP2 MSTORE PUSH1 0x4 ADD PUSH1 0x40 MLOAD DUP1 SWAP2 SUB SWAP1 REVERT JUMPDEST POP POP POP POP POP POP POP POP POP JUMP JUMPDEST PUSH1 0x40 MLOAD PUSH1 0x1 PUSH1 0x1 PUSH1 0xA0 SHL SUB DUP5 DUP2 AND PUSH1 0x24 DUP4 ADD MSTORE DUP4 DUP2 AND PUSH1 0x44 DUP4 ADD MSTORE PUSH1 0x64 DUP3 ADD DUP4 SWAP1 MSTORE PUSH2 0xAA5 SWAP2 DUP7 SWAP2 DUP3 AND SWAP1 PUSH4 0x23B872DD SWAP1 PUSH1 0x84 ADD PUSH2 0x1AC3 JUMP JUMPDEST PUSH1 0x1 PUSH1 0x1 PUSH1 0xA0 SHL SUB DUP3 AND PUSH2 0x21F8 JUMPI PUSH1 0x40 MLOAD PUSH4 0xEC442F05 PUSH1 0xE0 SHL DUP2 MSTORE PUSH0 PUSH1 0x4 DUP3 ADD MSTORE PUSH1 0x24 ADD PUSH2 0xF37 JUMP JUMPDEST PUSH2 0x2203 PUSH0 DUP4 DUP4 PUSH2 0x25C0 JUMP JUMPDEST POP POP JUMP JUMPDEST PUSH0 PUSH0 PUSH2 0x2212 DUP4 PUSH2 0xB25 JUMP JUMPDEST SWAP1 POP DUP1 DUP5 GT ISZERO PUSH2 0x223B JUMPI DUP3 DUP5 DUP3 PUSH1 0x40 MLOAD PUSH4 0x3C8097D9 PUSH1 0xE1 SHL DUP2 MSTORE PUSH1 0x4 ADD PUSH2 0xF37 SWAP4 SWAP3 SWAP2 SWAP1 PUSH2 0x2EB4 JUMP JUMPDEST PUSH0 PUSH2 0x2245 DUP6 PUSH2 0x174A JUMP JUMPDEST SWAP1 POP PUSH2 0x13B9 CALLER DUP6 DUP8 DUP5 PUSH2 0x2290 JUMP JUMPDEST PUSH2 0x225B PUSH2 0x1A68 JUMP JUMPDEST PUSH1 0x7 DUP1 SLOAD PUSH1 0xFF NOT AND PUSH1 0x1 OR SWAP1 SSTORE PUSH32 0x62E78CEA01BEE320CD4E420270B5EA74000D11B0C9F74754EBDBFC544B05A258 PUSH2 0x1CE6 CALLER SWAP1 JUMP JUMPDEST PUSH2 0x22BC PUSH32 0x0 DUP6 ADDRESS DUP6 PUSH2 0x2196 JUMP JUMPDEST PUSH2 0x22C6 DUP4 DUP3 PUSH2 0x21CF JUMP JUMPDEST DUP3 PUSH1 0x1 PUSH1 0x1 PUSH1 0xA0 SHL SUB AND DUP5 PUSH1 0x1 PUSH1 0x1 PUSH1 0xA0 SHL SUB AND PUSH32 0xDCBC1C05240F31FF3AD067EF1EE35CE4997762752E3A095284754544F4C709D7 DUP5 DUP5 PUSH1 0x40 MLOAD PUSH2 0x2314 SWAP3 SWAP2 SWAP1 SWAP2 DUP3 MSTORE PUSH1 0x20 DUP3 ADD MSTORE PUSH1 0x40 ADD SWAP1 JUMP JUMPDEST PUSH1 0x40 MLOAD DUP1 SWAP2 SUB SWAP1 LOG3 POP POP POP POP JUMP JUMPDEST PUSH0 PUSH0 PUSH2 0x232D DUP4 PUSH2 0x1842 JUMP JUMPDEST SWAP1 POP DUP1 DUP6 GT ISZERO PUSH2 0x2356 JUMPI DUP3 DUP6 DUP3 PUSH1 0x40 MLOAD PUSH4 0x3FA733BB PUSH1 0xE2 SHL DUP2 MSTORE PUSH1 0x4 ADD PUSH2 0xF37 SWAP4 SWAP3 SWAP2 SWAP1 PUSH2 0x2EB4 JUMP JUMPDEST PUSH0 PUSH2 0x2360 DUP7 PUSH2 0x941 JUMP JUMPDEST SWAP1 POP PUSH2 0x2071 CALLER DUP7 DUP7 DUP10 DUP6 PUSH2 0x2832 JUMP JUMPDEST PUSH0 PUSH0 PUSH2 0x237A DUP4 PUSH2 0x1888 JUMP JUMPDEST SWAP1 POP DUP1 DUP6 GT ISZERO PUSH2 0x23A3 JUMPI DUP3 DUP6 DUP3 PUSH1 0x40 MLOAD PUSH4 0x2E52AFBB PUSH1 0xE2 SHL DUP2 MSTORE PUSH1 0x4 ADD PUSH2 0xF37 SWAP4 SWAP3 SWAP2 SWAP1 PUSH2 0x2EB4 JUMP JUMPDEST PUSH0 PUSH2 0x23AD DUP7 PUSH2 0x91F JUMP JUMPDEST SWAP1 POP PUSH2 0x2071 CALLER DUP7 DUP7 DUP5 DUP11 PUSH2 0x2832 JUMP JUMPDEST PUSH1 0x1 PUSH1 0x1 PUSH1 0xA0 SHL SUB DUP3 AND PUSH0 SWAP1 DUP2 MSTORE PUSH1 0x17 PUSH1 0x20 MSTORE PUSH1 0x40 DUP2 KECCAK256 PUSH1 0x1 DUP2 ADD SLOAD DUP3 SUB PUSH2 0x23E7 JUMPI PUSH0 SWAP2 POP POP PUSH2 0x889 JUMP JUMPDEST PUSH0 DUP4 JUMPDEST PUSH1 0xB SLOAD PUSH4 0xFFFFFFFF SWAP1 DUP2 AND SWAP1 DUP3 AND GT PUSH2 0x244E JUMPI PUSH4 0xFFFFFFFF DUP2 AND PUSH0 SWAP1 DUP2 MSTORE PUSH1 0x16 PUSH1 0x20 MSTORE PUSH1 0x40 DUP2 KECCAK256 PUSH1 0x1 DUP6 ADD SLOAD DUP2 SLOAD SWAP2 SWAP3 PUSH2 0x242E SWAP3 SWAP1 PUSH8 0xDE0B6B3A7640000 SWAP1 PUSH2 0x202F JUMP JUMPDEST PUSH2 0x2438 SWAP1 DUP5 PUSH2 0x2EA1 JUMP JUMPDEST SWAP3 POP POP DUP1 DUP1 PUSH2 0x2446 SWAP1 PUSH2 0x2F25 JUMP JUMPDEST SWAP2 POP POP PUSH2 0x23EA JUMP JUMPDEST POP SWAP5 SWAP4 POP POP POP POP JUMP JUMPDEST PUSH1 0x1 PUSH1 0x1 PUSH1 0xA0 SHL SUB DUP5 AND PUSH2 0x2480 JUMPI PUSH1 0x40 MLOAD PUSH4 0xE602DF05 PUSH1 0xE0 SHL DUP2 MSTORE PUSH0 PUSH1 0x4 DUP3 ADD MSTORE PUSH1 0x24 ADD PUSH2 0xF37 JUMP JUMPDEST PUSH1 0x1 PUSH1 0x1 PUSH1 0xA0 SHL SUB DUP4 AND PUSH2 0x24A9 JUMPI PUSH1 0x40 MLOAD PUSH4 0x4A1406B1 PUSH1 0xE1 SHL DUP2 MSTORE PUSH0 PUSH1 0x4 DUP3 ADD MSTORE PUSH1 0x24 ADD PUSH2 0xF37 JUMP JUMPDEST PUSH1 0x1 PUSH1 0x1 PUSH1 0xA0 SHL SUB DUP1 DUP6 AND PUSH0 SWAP1 DUP2 MSTORE PUSH1 0x1 PUSH1 0x20 SWAP1 DUP2 MSTORE PUSH1 0x40 DUP1 DUP4 KECCAK256 SWAP4 DUP8 AND DUP4 MSTORE SWAP3 SWAP1 MSTORE KECCAK256 DUP3 SWAP1 SSTORE DUP1 ISZERO PUSH2 0xAA5 JUMPI DUP3 PUSH1 0x1 PUSH1 0x1 PUSH1 0xA0 SHL SUB AND DUP5 PUSH1 0x1 PUSH1 0x1 PUSH1 0xA0 SHL SUB AND PUSH32 0x8C5BE1E5EBEC7D5BD14F71427D1E84F3DD0314C0F7B2291E5B200AC8C7C3B925 DUP5 PUSH1 0x40 MLOAD PUSH2 0x2314 SWAP2 DUP2 MSTORE PUSH1 0x20 ADD SWAP1 JUMP JUMPDEST PUSH2 0x2525 DUP3 DUP3 PUSH2 0x1374 JUMP JUMPDEST PUSH2 0x2203 JUMPI PUSH1 0x40 MLOAD PUSH4 0xE2517D3F PUSH1 0xE0 SHL DUP2 MSTORE PUSH1 0x1 PUSH1 0x1 PUSH1 0xA0 SHL SUB DUP3 AND PUSH1 0x4 DUP3 ADD MSTORE PUSH1 0x24 DUP2 ADD DUP4 SWAP1 MSTORE PUSH1 0x44 ADD PUSH2 0xF37 JUMP JUMPDEST PUSH0 PUSH0 PUSH1 0x20 PUSH0 DUP5 MLOAD PUSH1 0x20 DUP7 ADD PUSH0 DUP9 GAS CALL DUP1 PUSH2 0x2573 JUMPI PUSH1 0x40 MLOAD RETURNDATASIZE PUSH0 DUP3 RETURNDATACOPY RETURNDATASIZE DUP2 REVERT JUMPDEST POP POP PUSH0 MLOAD RETURNDATASIZE SWAP2 POP DUP2 ISZERO PUSH2 0x258A JUMPI DUP1 PUSH1 0x1 EQ ISZERO PUSH2 0x2597 JUMP JUMPDEST PUSH1 0x1 PUSH1 0x1 PUSH1 0xA0 SHL SUB DUP5 AND EXTCODESIZE ISZERO JUMPDEST ISZERO PUSH2 0xAA5 JUMPI PUSH1 0x40 MLOAD PUSH4 0x5274AFE7 PUSH1 0xE0 SHL DUP2 MSTORE PUSH1 0x1 PUSH1 0x1 PUSH1 0xA0 SHL SUB DUP6 AND PUSH1 0x4 DUP3 ADD MSTORE PUSH1 0x24 ADD PUSH2 0xF37 JUMP JUMPDEST PUSH1 0x1 PUSH1 0x1 PUSH1 0xA0 SHL SUB DUP4 AND PUSH2 0x25EA JUMPI DUP1 PUSH1 0x2 PUSH0 DUP3 DUP3 SLOAD PUSH2 0x25DF SWAP2 SWAP1 PUSH2 0x2EA1 JUMP JUMPDEST SWAP1 SWAP2 SSTORE POP PUSH2 0x2647 SWAP1 POP JUMP JUMPDEST PUSH1 0x1 PUSH1 0x1 PUSH1 0xA0 SHL SUB DUP4 AND PUSH0 SWAP1 DUP2 MSTORE PUSH1 0x20 DUP2 SWAP1 MSTORE PUSH1 0x40 SWAP1 KECCAK256 SLOAD DUP2 DUP2 LT ISZERO PUSH2 0x2629 JUMPI DUP4 DUP2 DUP4 PUSH1 0x40 MLOAD PUSH4 0x391434E3 PUSH1 0xE2 SHL DUP2 MSTORE PUSH1 0x4 ADD PUSH2 0xF37 SWAP4 SWAP3 SWAP2 SWAP1 PUSH2 0x2EB4 JUMP JUMPDEST PUSH1 0x1 PUSH1 0x1 PUSH1 0xA0 SHL SUB DUP5 AND PUSH0 SWAP1 DUP2 MSTORE PUSH1 0x20 DUP2 SWAP1 MSTORE PUSH1 0x40 SWAP1 KECCAK256 SWAP1 DUP3 SWAP1 SUB SWAP1 SSTORE JUMPDEST PUSH1 0x1 PUSH1 0x1 PUSH1 0xA0 SHL SUB DUP3 AND PUSH2 0x2663 JUMPI PUSH1 0x2 DUP1 SLOAD DUP3 SWAP1 SUB SWAP1 SSTORE PUSH2 0x2681 JUMP JUMPDEST PUSH1 0x1 PUSH1 0x1 PUSH1 0xA0 SHL SUB DUP3 AND PUSH0 SWAP1 DUP2 MSTORE PUSH1 0x20 DUP2 SWAP1 MSTORE PUSH1 0x40 SWAP1 KECCAK256 DUP1 SLOAD DUP3 ADD SWAP1 SSTORE JUMPDEST DUP2 PUSH1 0x1 PUSH1 0x1 PUSH1 0xA0 SHL SUB AND DUP4 PUSH1 0x1 PUSH1 0x1 PUSH1 0xA0 SHL SUB AND PUSH32 0xDDF252AD1BE2C89B69C2B068FC378DAA952BA7F163C4A11628F55A4DF523B3EF DUP4 PUSH1 0x40 MLOAD PUSH2 0x26C6 SWAP2 DUP2 MSTORE PUSH1 0x20 ADD SWAP1 JUMP JUMPDEST PUSH1 0x40 MLOAD DUP1 SWAP2 SUB SWAP1 LOG3 POP POP POP JUMP JUMPDEST PUSH1 0x7 SLOAD PUSH1 0xFF AND PUSH2 0xC7D JUMPI PUSH1 0x40 MLOAD PUSH4 0x8DFC202B PUSH1 0xE0 SHL DUP2 MSTORE PUSH1 0x4 ADD PUSH1 0x40 MLOAD DUP1 SWAP2 SUB SWAP1 REVERT JUMPDEST PUSH1 0x1 PUSH1 0x1 PUSH1 0xA0 SHL SUB DUP3 AND PUSH2 0x271F JUMPI PUSH1 0x40 MLOAD PUSH4 0x4B637E8F PUSH1 0xE1 SHL DUP2 MSTORE PUSH0 PUSH1 0x4 DUP3 ADD MSTORE PUSH1 0x24 ADD PUSH2 0xF37 JUMP JUMPDEST PUSH2 0x2203 DUP3 PUSH0 DUP4 PUSH2 0x25C0 JUMP JUMPDEST PUSH0 PUSH1 0x2 DUP3 PUSH1 0x3 DUP2 GT ISZERO PUSH2 0x273F JUMPI PUSH2 0x273F PUSH2 0x2C90 JUMP JUMPDEST PUSH2 0x2749 SWAP2 SWAP1 PUSH2 0x2F49 JUMP JUMPDEST PUSH1 0xFF AND PUSH1 0x1 EQ SWAP1 POP SWAP2 SWAP1 POP JUMP JUMPDEST PUSH0 PUSH0 PUSH0 PUSH2 0x2763 DUP7 DUP7 PUSH2 0x29C9 JUMP JUMPDEST SWAP2 POP SWAP2 POP DUP2 PUSH0 SUB PUSH2 0x2787 JUMPI DUP4 DUP2 DUP2 PUSH2 0x277D JUMPI PUSH2 0x277D PUSH2 0x2EF1 JUMP JUMPDEST DIV SWAP3 POP POP POP PUSH2 0xA7A JUMP JUMPDEST DUP2 DUP5 GT PUSH2 0x279E JUMPI PUSH2 0x279E PUSH1 0x3 DUP6 ISZERO MUL PUSH1 0x11 XOR PUSH2 0x29E5 JUMP JUMPDEST PUSH0 DUP5 DUP7 DUP9 MULMOD PUSH0 DUP7 DUP2 SUB DUP8 AND SWAP7 DUP8 SWAP1 DIV SWAP7 PUSH1 0x2 PUSH1 0x3 DUP10 MUL DUP2 XOR DUP1 DUP11 MUL DUP3 SUB MUL DUP1 DUP11 MUL DUP3 SUB MUL DUP1 DUP11 MUL DUP3 SUB MUL DUP1 DUP11 MUL DUP3 SUB MUL DUP1 DUP11 MUL DUP3 SUB MUL DUP1 DUP11 MUL SWAP1 SWAP2 SUB MUL SWAP2 DUP2 SWAP1 SUB DUP2 SWAP1 DIV PUSH1 0x1 ADD DUP6 DUP5 GT SWAP1 SWAP7 SUB SWAP6 SWAP1 SWAP6 MUL SWAP2 SWAP1 SWAP4 SUB SWAP4 SWAP1 SWAP4 DIV SWAP3 SWAP1 SWAP3 OR MUL SWAP2 POP POP SWAP4 SWAP3 POP POP POP JUMP JUMPDEST PUSH0 PUSH0 PUSH0 PUSH0 PUSH2 0x2816 DUP9 DUP9 DUP9 DUP9 PUSH2 0x29F6 JUMP JUMPDEST SWAP3 POP SWAP3 POP SWAP3 POP PUSH2 0x2826 DUP3 DUP3 PUSH2 0x2ABE JUMP JUMPDEST POP SWAP1 SWAP7 SWAP6 POP POP POP POP POP POP JUMP JUMPDEST DUP3 PUSH1 0x1 PUSH1 0x1 PUSH1 0xA0 SHL SUB AND DUP6 PUSH1 0x1 PUSH1 0x1 PUSH1 0xA0 SHL SUB AND EQ PUSH2 0x2856 JUMPI PUSH2 0x2856 DUP4 DUP7 DUP4 PUSH2 0x1AF5 JUMP JUMPDEST PUSH1 0x1 PUSH1 0x1 PUSH1 0xA0 SHL SUB DUP4 AND PUSH0 SWAP1 DUP2 MSTORE PUSH1 0x17 PUSH1 0x20 MSTORE PUSH1 0x40 SWAP1 KECCAK256 PUSH1 0x1 ADD SLOAD DUP2 GT ISZERO PUSH2 0x2880 JUMPI PUSH2 0x2880 PUSH2 0x2F76 JUMP JUMPDEST PUSH1 0x1 PUSH1 0x1 PUSH1 0xA0 SHL SUB DUP4 AND PUSH0 SWAP1 DUP2 MSTORE PUSH1 0x17 PUSH1 0x20 MSTORE PUSH1 0x40 DUP2 KECCAK256 PUSH1 0x1 ADD DUP1 SLOAD DUP4 SWAP3 SWAP1 PUSH2 0x28AA SWAP1 DUP5 SWAP1 PUSH2 0x2E3D JUMP JUMPDEST SWAP1 SWAP2 SSTORE POP PUSH2 0x28BA SWAP1 POP DUP4 DUP3 PUSH2 0x26F6 JUMP JUMPDEST PUSH0 PUSH2 0x28CB DUP4 PUSH1 0x13 SLOAD PUSH2 0x2710 PUSH0 PUSH2 0x202F JUMP JUMPDEST SWAP1 POP PUSH0 PUSH2 0x28D8 DUP3 DUP6 PUSH2 0x2E3D JUMP JUMPDEST SWAP1 POP PUSH0 DUP3 GT DUP1 ISZERO PUSH2 0x28F3 JUMPI POP PUSH1 0xD SLOAD PUSH1 0x1 PUSH1 0x1 PUSH1 0xA0 SHL SUB AND ISZERO ISZERO JUMPDEST ISZERO PUSH2 0x292F JUMPI PUSH1 0xD SLOAD PUSH2 0x292F SWAP1 PUSH1 0x1 PUSH1 0x1 PUSH1 0xA0 SHL SUB AND DUP4 PUSH32 0x0 PUSH2 0xA14 JUMP JUMPDEST DUP1 ISZERO PUSH2 0x2960 JUMPI PUSH2 0x2960 DUP7 DUP3 PUSH32 0x0 PUSH2 0xA14 JUMP JUMPDEST DUP5 PUSH1 0x1 PUSH1 0x1 PUSH1 0xA0 SHL SUB AND DUP7 PUSH1 0x1 PUSH1 0x1 PUSH1 0xA0 SHL SUB AND DUP9 PUSH1 0x1 PUSH1 0x1 PUSH1 0xA0 SHL SUB AND PUSH32 0xFBDE797D201C681B91056529119E0B02407C7BB96A4A2C75C01FC9667232C8DB DUP8 DUP8 PUSH1 0x40 MLOAD PUSH2 0x29B8 SWAP3 SWAP2 SWAP1 SWAP2 DUP3 MSTORE PUSH1 0x20 DUP3 ADD MSTORE PUSH1 0x40 ADD SWAP1 JUMP JUMPDEST PUSH1 0x40 MLOAD DUP1 SWAP2 SUB SWAP1 LOG4 POP POP POP POP POP POP POP JUMP JUMPDEST PUSH0 DUP1 PUSH0 NOT DUP4 DUP6 MULMOD SWAP4 SWAP1 SWAP3 MUL DUP1 DUP5 LT SWAP4 DUP2 SWAP1 SUB SWAP4 SWAP1 SWAP4 SUB SWAP4 SWAP2 POP POP JUMP JUMPDEST PUSH4 0x4E487B71 PUSH0 MSTORE DUP1 PUSH1 0x20 MSTORE PUSH1 0x24 PUSH1 0x1C REVERT JUMPDEST PUSH0 DUP1 DUP1 PUSH32 0x7FFFFFFFFFFFFFFFFFFFFFFFFFFFFFFF5D576E7357A4501DDFE92F46681B20A0 DUP5 GT ISZERO PUSH2 0x2A2F JUMPI POP PUSH0 SWAP2 POP PUSH1 0x3 SWAP1 POP DUP3 PUSH2 0x2AB4 JUMP JUMPDEST PUSH1 0x40 DUP1 MLOAD PUSH0 DUP1 DUP3 MSTORE PUSH1 0x20 DUP3 ADD DUP1 DUP5 MSTORE DUP11 SWAP1 MSTORE PUSH1 0xFF DUP10 AND SWAP3 DUP3 ADD SWAP3 SWAP1 SWAP3 MSTORE PUSH1 0x60 DUP2 ADD DUP8 SWAP1 MSTORE PUSH1 0x80 DUP2 ADD DUP7 SWAP1 MSTORE PUSH1 0x1 SWAP1 PUSH1 0xA0 ADD PUSH1 0x20 PUSH1 0x40 MLOAD PUSH1 0x20 DUP2 SUB SWAP1 DUP1 DUP5 SUB SWAP1 DUP6 GAS STATICCALL ISZERO DUP1 ISZERO PUSH2 0x2A80 JUMPI RETURNDATASIZE PUSH0 PUSH0 RETURNDATACOPY RETURNDATASIZE PUSH0 REVERT JUMPDEST POP POP PUSH1 0x40 MLOAD PUSH1 0x1F NOT ADD MLOAD SWAP2 POP POP PUSH1 0x1 PUSH1 0x1 PUSH1 0xA0 SHL SUB DUP2 AND PUSH2 0x2AAB JUMPI POP PUSH0 SWAP3 POP PUSH1 0x1 SWAP2 POP DUP3 SWAP1 POP PUSH2 0x2AB4 JUMP JUMPDEST SWAP3 POP PUSH0 SWAP2 POP DUP2 SWAP1 POP JUMPDEST SWAP5 POP SWAP5 POP SWAP5 SWAP2 POP POP JUMP JUMPDEST PUSH0 DUP3 PUSH1 0x3 DUP2 GT ISZERO PUSH2 0x2AD1 JUMPI PUSH2 0x2AD1 PUSH2 0x2C90 JUMP JUMPDEST SUB PUSH2 0x2ADA JUMPI POP POP JUMP JUMPDEST PUSH1 0x1 DUP3 PUSH1 0x3 DUP2 GT ISZERO PUSH2 0x2AEE JUMPI PUSH2 0x2AEE PUSH2 0x2C90 JUMP JUMPDEST SUB PUSH2 0x2B0C JUMPI PUSH1 0x40 MLOAD PUSH4 0xF645EEDF PUSH1 0xE0 SHL DUP2 MSTORE PUSH1 0x4 ADD PUSH1 0x40 MLOAD DUP1 SWAP2 SUB SWAP1 REVERT JUMPDEST PUSH1 0x2 DUP3 PUSH1 0x3 DUP2 GT ISZERO PUSH2 0x2B20 JUMPI PUSH2 0x2B20 PUSH2 0x2C90 JUMP JUMPDEST SUB PUSH2 0x2B41 JUMPI PUSH1 0x40 MLOAD PUSH4 0xFCE698F7 PUSH1 0xE0 SHL DUP2 MSTORE PUSH1 0x4 DUP2 ADD DUP3 SWAP1 MSTORE PUSH1 0x24 ADD PUSH2 0xF37 JUMP JUMPDEST PUSH1 0x3 DUP3 PUSH1 0x3 DUP2 GT ISZERO PUSH2 0x2B55 JUMPI PUSH2 0x2B55 PUSH2 0x2C90 JUMP JUMPDEST SUB PUSH2 0x2203 JUMPI PUSH1 0x40 MLOAD PUSH4 0x35E2F383 PUSH1 0xE2 SHL DUP2 MSTORE PUSH1 0x4 DUP2 ADD DUP3 SWAP1 MSTORE PUSH1 0x24 ADD PUSH2 0xF37 JUMP JUMPDEST PUSH0 PUSH1 0x20 DUP3 DUP5 SUB SLT ISZERO PUSH2 0x2B86 JUMPI PUSH0 PUSH0 REVERT JUMPDEST DUP2 CALLDATALOAD PUSH1 0x1 PUSH1 0x1 PUSH1 0xE0 SHL SUB NOT DUP2 AND DUP2 EQ PUSH2 0xA7A JUMPI PUSH0 PUSH0 REVERT JUMPDEST PUSH1 0x20 DUP2 MSTORE PUSH0 DUP3 MLOAD DUP1 PUSH1 0x20 DUP5 ADD MSTORE DUP1 PUSH1 0x20 DUP6 ADD PUSH1 0x40 DUP6 ADD MCOPY PUSH0 PUSH1 0x40 DUP3 DUP6 ADD ADD MSTORE PUSH1 0x40 PUSH1 0x1F NOT PUSH1 0x1F DUP4 ADD AND DUP5 ADD ADD SWAP2 POP POP SWAP3 SWAP2 POP POP JUMP JUMPDEST PUSH0 PUSH1 0x20 DUP3 DUP5 SUB SLT ISZERO PUSH2 0x2BE2 JUMPI PUSH0 PUSH0 REVERT JUMPDEST POP CALLDATALOAD SWAP2 SWAP1 POP JUMP JUMPDEST DUP1 CALLDATALOAD PUSH1 0x1 PUSH1 0x1 PUSH1 0xA0 SHL SUB DUP2 AND DUP2 EQ PUSH2 0x2BFF JUMPI PUSH0 PUSH0 REVERT JUMPDEST SWAP2 SWAP1 POP JUMP JUMPDEST PUSH0 PUSH0 PUSH1 0x40 DUP4 DUP6 SUB SLT ISZERO PUSH2 0x2C15 JUMPI PUSH0 PUSH0 REVERT JUMPDEST PUSH2 0x2C1E DUP4 PUSH2 0x2BE9 JUMP JUMPDEST SWAP5 PUSH1 0x20 SWAP4 SWAP1 SWAP4 ADD CALLDATALOAD SWAP4 POP POP POP JUMP JUMPDEST PUSH0 PUSH0 PUSH0 PUSH1 0x60 DUP5 DUP7 SUB SLT ISZERO PUSH2 0x2C3E JUMPI PUSH0 PUSH0 REVERT JUMPDEST PUSH2 0x2C47 DUP5 PUSH2 0x2BE9 JUMP JUMPDEST SWAP3 POP PUSH2 0x2C55 PUSH1 0x20 DUP6 ADD PUSH2 0x2BE9 JUMP JUMPDEST SWAP3 SWAP6 SWAP3 SWAP5 POP POP POP PUSH1 0x40 SWAP2 SWAP1 SWAP2 ADD CALLDATALOAD SWAP1 JUMP JUMPDEST PUSH0 PUSH0 PUSH1 0x40 DUP4 DUP6 SUB SLT ISZERO PUSH2 0x2C77 JUMPI PUSH0 PUSH0 REVERT JUMPDEST DUP3 CALLDATALOAD SWAP2 POP PUSH2 0x2C87 PUSH1 0x20 DUP5 ADD PUSH2 0x2BE9 JUMP JUMPDEST SWAP1 POP SWAP3 POP SWAP3 SWAP1 POP JUMP JUMPDEST PUSH4 0x4E487B71 PUSH1 0xE0 SHL PUSH0 MSTORE PUSH1 0x21 PUSH1 0x4 MSTORE PUSH1 0x24 PUSH0 REVERT JUMPDEST PUSH1 0x20 DUP2 ADD PUSH1 0x3 DUP4 LT PUSH2 0x2CC4 JUMPI PUSH4 0x4E487B71 PUSH1 0xE0 SHL PUSH0 MSTORE PUSH1 0x21 PUSH1 0x4 MSTORE PUSH1 0x24 PUSH0 REVERT JUMPDEST SWAP2 SWAP1 MSTORE SWAP1 JUMP JUMPDEST PUSH0 PUSH1 0x20 DUP3 DUP5 SUB SLT ISZERO PUSH2 0x2CDA JUMPI PUSH0 PUSH0 REVERT JUMPDEST PUSH2 0xA7A DUP3 PUSH2 0x2BE9 JUMP JUMPDEST PUSH0 PUSH0 DUP3 DUP5 SUB PUSH1 0xC0 DUP2 SLT ISZERO PUSH2 0x2CF5 JUMPI PUSH0 PUSH0 REVERT JUMPDEST DUP4 CALLDATALOAD SWAP3 POP PUSH1 0xA0 PUSH1 0x1F NOT DUP3 ADD SLT ISZERO PUSH2 0x2D0A JUMPI PUSH0 PUSH0 REVERT JUMPDEST POP PUSH1 0x20 DUP4 ADD SWAP1 POP SWAP3 POP SWAP3 SWAP1 POP JUMP JUMPDEST PUSH0 PUSH0 PUSH0 PUSH1 0x60 DUP5 DUP7 SUB SLT ISZERO PUSH2 0x2D2A JUMPI PUSH0 PUSH0 REVERT JUMPDEST DUP4 CALLDATALOAD SWAP3 POP PUSH2 0x2D3A PUSH1 0x20 DUP6 ADD PUSH2 0x2BE9 JUMP JUMPDEST SWAP2 POP PUSH2 0x2D48 PUSH1 0x40 DUP6 ADD PUSH2 0x2BE9 JUMP JUMPDEST SWAP1 POP SWAP3 POP SWAP3 POP SWAP3 JUMP JUMPDEST PUSH1 0x20 DUP1 DUP3 MSTORE DUP3 MLOAD PUSH1 0x80 DUP4 DUP4 ADD MSTORE DUP1 MLOAD PUSH1 0xA0 DUP5 ADD DUP2 SWAP1 MSTORE PUSH0 SWAP3 SWAP2 SWAP1 SWAP2 ADD SWAP1 DUP3 SWAP1 PUSH1 0xC0 DUP6 ADD SWAP1 JUMPDEST DUP1 DUP4 LT ISZERO PUSH2 0x2DB0 JUMPI DUP4 MLOAD DUP1 MLOAD DUP4 MSTORE PUSH1 0x20 DUP2 ADD MLOAD PUSH1 0x20 DUP5 ADD MSTORE PUSH1 0x40 DUP2 ADD MLOAD PUSH1 0x40 DUP5 ADD MSTORE POP PUSH1 0x60 DUP3 ADD SWAP2 POP PUSH1 0x20 DUP5 ADD SWAP4 POP PUSH1 0x1 DUP4 ADD SWAP3 POP PUSH2 0x2D76 JUMP JUMPDEST POP PUSH1 0x20 DUP7 ADD MLOAD PUSH1 0x40 DUP7 ADD MSTORE PUSH1 0x40 DUP7 ADD MLOAD SWAP3 POP PUSH2 0x2DD4 PUSH1 0x60 DUP7 ADD DUP5 PUSH4 0xFFFFFFFF AND SWAP1 MSTORE JUMP JUMPDEST PUSH1 0x60 DUP7 ADD MLOAD PUSH1 0x80 DUP7 ADD MSTORE DUP1 SWAP4 POP POP POP POP SWAP3 SWAP2 POP POP JUMP JUMPDEST PUSH0 PUSH0 PUSH1 0x40 DUP4 DUP6 SUB SLT ISZERO PUSH2 0x2DFB JUMPI PUSH0 PUSH0 REVERT JUMPDEST PUSH2 0x2E04 DUP4 PUSH2 0x2BE9 JUMP JUMPDEST SWAP2 POP PUSH2 0x2C87 PUSH1 0x20 DUP5 ADD PUSH2 0x2BE9 JUMP JUMPDEST PUSH0 PUSH1 0x20 DUP3 DUP5 SUB SLT ISZERO PUSH2 0x2E22 JUMPI PUSH0 PUSH0 REVERT JUMPDEST POP MLOAD SWAP2 SWAP1 POP JUMP JUMPDEST PUSH4 0x4E487B71 PUSH1 0xE0 SHL PUSH0 MSTORE PUSH1 0x11 PUSH1 0x4 MSTORE PUSH1 0x24 PUSH0 REVERT JUMPDEST DUP2 DUP2 SUB DUP2 DUP2 GT ISZERO PUSH2 0x889 JUMPI PUSH2 0x889 PUSH2 0x2E29 JUMP JUMPDEST PUSH1 0x1 DUP2 DUP2 SHR SWAP1 DUP3 AND DUP1 PUSH2 0x2E64 JUMPI PUSH1 0x7F DUP3 AND SWAP2 POP JUMPDEST PUSH1 0x20 DUP3 LT DUP2 SUB PUSH2 0x2E82 JUMPI PUSH4 0x4E487B71 PUSH1 0xE0 SHL PUSH0 MSTORE PUSH1 0x22 PUSH1 0x4 MSTORE PUSH1 0x24 PUSH0 REVERT JUMPDEST POP SWAP2 SWAP1 POP JUMP JUMPDEST PUSH1 0xFF DUP2 DUP2 AND DUP4 DUP3 AND ADD SWAP1 DUP2 GT ISZERO PUSH2 0x889 JUMPI PUSH2 0x889 PUSH2 0x2E29 JUMP JUMPDEST DUP1 DUP3 ADD DUP1 DUP3 GT ISZERO PUSH2 0x889 JUMPI PUSH2 0x889 PUSH2 0x2E29 JUMP JUMPDEST PUSH1 0x1 PUSH1 0x1 PUSH1 0xA0 SHL SUB SWAP4 SWAP1 SWAP4 AND DUP4 MSTORE PUSH1 0x20 DUP4 ADD SWAP2 SWAP1 SWAP2 MSTORE PUSH1 0x40 DUP3 ADD MSTORE PUSH1 0x60 ADD SWAP1 JUMP JUMPDEST PUSH4 0xFFFFFFFF DUP2 DUP2 AND DUP4 DUP3 AND ADD SWAP1 DUP2 GT ISZERO PUSH2 0x889 JUMPI PUSH2 0x889 PUSH2 0x2E29 JUMP JUMPDEST PUSH4 0x4E487B71 PUSH1 0xE0 SHL PUSH0 MSTORE PUSH1 0x12 PUSH1 0x4 MSTORE PUSH1 0x24 PUSH0 REVERT JUMPDEST PUSH0 PUSH1 0x20 DUP3 DUP5 SUB SLT ISZERO PUSH2 0x2F15 JUMPI PUSH0 PUSH0 REVERT JUMPDEST DUP2 CALLDATALOAD PUSH1 0xFF DUP2 AND DUP2 EQ PUSH2 0xA7A JUMPI PUSH0 PUSH0 REVERT JUMPDEST PUSH0 PUSH4 0xFFFFFFFF DUP3 AND PUSH4 0xFFFFFFFF DUP2 SUB PUSH2 0x2F40 JUMPI PUSH2 0x2F40 PUSH2 0x2E29 JUMP JUMPDEST PUSH1 0x1 ADD SWAP3 SWAP2 POP POP JUMP JUMPDEST PUSH0 PUSH1 0xFF DUP4 AND DUP1 PUSH2 0x2F67 JUMPI PUSH4 0x4E487B71 PUSH1 0xE0 SHL PUSH0 MSTORE PUSH1 0x12 PUSH1 0x4 MSTORE PUSH1 0x24 PUSH0 REVERT JUMPDEST DUP1 PUSH1 0xFF DUP5 AND MOD SWAP2 POP POP SWAP3 SWAP2 POP POP JUMP JUMPDEST PUSH4 0x4E487B71 PUSH1 0xE0 SHL PUSH0 MSTORE PUSH1 0x1 PUSH1 0x4 MSTORE PUSH1 0x24 PUSH0 REVERT INVALID LOG2 PUSH5 0x6970667358 0x22 SLT KECCAK256 DUPN 0xD8 0xB0 0xAB EXP 0x27 0xD8 SDIV DUP14 ORIGIN 0x2B 0x2F 0xEB ORIGIN SSTORE 0xB3 CODESIZE DUP14 0xC8 0xC2 0xED 0x21 OR PUSH31 0x3A63E5C6D49037C264736F6C634300081E0033000000000000000000000000 "},"methodIdentifiers":{"DEFAULT_ADMIN_ROLE()":"a217fddf","DEPOSIT_FEE_PERMILE()":"571e1c68","ENDTIME()":"850d9afb","FUNDING_CAP()":"3bc64d2b","MATURITY_INTEREST_PERMILE()":"33acd652","MATURITY_TIME()":"e3275eb0","MAX_DEPOSIT()":"dd5967c3","MIN_DEPOSIT()":"e1e158a5","PAYOUT_TYPE()":"3c37475e","STARTTIME()":"cfd7ab91","TOKEN_PRICE()":"d2d8cb67","TOTAL_INVESTMENTS()":"428a8bad","WITHDRAW_FEE_PERMILE()":"98b78a4b","admin()":"f851a440","allowance(address,address)":"dd62ed3e","approve(address,uint256)":"095ea7b3","asset()":"38d52e0f","balanceOf(address)":"70a08231","claim()":"4e71d92d","convertToAssets(uint256)":"07a2d13a","convertToShares(uint256)":"c6e6f592","decimals()":"313ce567","deposit(uint256,address)":"6e553f65","depositWithSign(uint256,(uint8,bytes32,bytes32,uint256,uint256))":"5f04c5e4","feedFunds(uint256,address)":"b422271f","getROI(address)":"ed9dbced","getRoleAdmin(bytes32)":"248a9ca3","getUserDetails(address)":"cc3d967b","getmaturityROI(address)":"4bd0c2d8","grantRole(bytes32,address)":"2f2ff15d","hasRole(bytes32,address)":"91d14854","maxDeposit(address)":"402d267d","maxMint(address)":"c63d75b6","maxRedeem(address)":"d905777e","maxWithdraw(address)":"ce96cb77","mint(uint256,address)":"94bf804d","name()":"06fdde03","pause()":"8456cb59","paused()":"5c975abb","previewDeposit(uint256)":"ef8b30f7","previewMint(uint256)":"b3d7f6b9","previewRedeem(uint256)":"4cdad506","previewWithdraw(uint256)":"0a28a477","redeem(uint256,address,address)":"ba087652","renounceRole(bytes32,address)":"36568abe","rescueTokens(address,uint256)":"57376198","revokeRole(bytes32,address)":"d547741f","signAuthority()":"19dcd884","supportsInterface(bytes4)":"01ffc9a7","symbol()":"95d89b41","totalAssets()":"01e1d114","totalSupply()":"18160ddd","transfer(address,uint256)":"a9059cbb","transferFrom(address,address,uint256)":"23b872dd","transferOwnership(address)":"f2fde38b","unpause()":"3f4ba83a","withdraw(uint256,address,address)":"b460af94","withdrawFunds(uint256)":"155dd5ee"}}}}}