{"project/contracts/upgradable/campaignVaultImp.sol":{"CampaignVault":{"abi":[{"inputs":[],"stateMutability":"nonpayable","type":"constructor"},{"inputs":[],"name":"ALREADYADMIN","type":"error"},{"inputs":[],"name":"AccessControlBadConfirmation","type":"error"},{"inputs":[{"internalType":"address","name":"account","type":"address"},{"internalType":"bytes32","name":"neededRole","type":"bytes32"}],"name":"AccessControlUnauthorizedAccount","type":"error"},{"inputs":[],"name":"CANNOTRESCUEUNDERLYING","type":"error"},{"inputs":[],"name":"CAPEXCEEDED","type":"error"},{"inputs":[],"name":"CLAIMNOTAVAILABLE","type":"error"},{"inputs":[],"name":"ECDSAInvalidSignature","type":"error"},{"inputs":[{"internalType":"uint256","name":"length","type":"uint256"}],"name":"ECDSAInvalidSignatureLength","type":"error"},{"inputs":[{"internalType":"bytes32","name":"s","type":"bytes32"}],"name":"ECDSAInvalidSignatureS","type":"error"},{"inputs":[{"internalType":"address","name":"spender","type":"address"},{"internalType":"uint256","name":"allowance","type":"uint256"},{"internalType":"uint256","name":"needed","type":"uint256"}],"name":"ERC20InsufficientAllowance","type":"error"},{"inputs":[{"internalType":"address","name":"sender","type":"address"},{"internalType":"uint256","name":"balance","type":"uint256"},{"internalType":"uint256","name":"needed","type":"uint256"}],"name":"ERC20InsufficientBalance","type":"error"},{"inputs":[{"internalType":"address","name":"approver","type":"address"}],"name":"ERC20InvalidApprover","type":"error"},{"inputs":[{"internalType":"address","name":"receiver","type":"address"}],"name":"ERC20InvalidReceiver","type":"error"},{"inputs":[{"internalType":"address","name":"sender","type":"address"}],"name":"ERC20InvalidSender","type":"error"},{"inputs":[{"internalType":"address","name":"spender","type":"address"}],"name":"ERC20InvalidSpender","type":"error"},{"inputs":[{"internalType":"address","name":"receiver","type":"address"},{"internalType":"uint256","name":"assets","type":"uint256"},{"internalType":"uint256","name":"max","type":"uint256"}],"name":"ERC4626ExceededMaxDeposit","type":"error"},{"inputs":[{"internalType":"address","name":"receiver","type":"address"},{"internalType":"uint256","name":"shares","type":"uint256"},{"internalType":"uint256","name":"max","type":"uint256"}],"name":"ERC4626ExceededMaxMint","type":"error"},{"inputs":[{"internalType":"address","name":"owner","type":"address"},{"internalType":"uint256","name":"shares","type":"uint256"},{"internalType":"uint256","name":"max","type":"uint256"}],"name":"ERC4626ExceededMaxRedeem","type":"error"},{"inputs":[{"internalType":"address","name":"owner","type":"address"},{"internalType":"uint256","name":"assets","type":"uint256"},{"internalType":"uint256","name":"max","type":"uint256"}],"name":"ERC4626ExceededMaxWithdraw","type":"error"},{"inputs":[{"internalType":"uint256","name":"time","type":"uint256"}],"name":"EXPIRED","type":"error"},{"inputs":[],"name":"EnforcedPause","type":"error"},{"inputs":[],"name":"ExpectedPause","type":"error"},{"inputs":[],"name":"FEEDCOUNTOVERFLOW","type":"error"},{"inputs":[],"name":"INSUFFICIENTDIVIDENDFUNDS","type":"error"},{"inputs":[],"name":"INSUFFICIENTFUNDS","type":"error"},{"inputs":[],"name":"INSUFFICIENTSHARES","type":"error"},{"inputs":[],"name":"INVALIDRECEIVER","type":"error"},{"inputs":[],"name":"INVALIDSIGNATURE","type":"error"},{"inputs":[],"name":"INVALIDTIMERANGE","type":"error"},{"inputs":[],"name":"INVWINDOWNOTCLOSED","type":"error"},{"inputs":[],"name":"INVWINDOWNOTOPEN","type":"error"},{"inputs":[],"name":"InvalidInitialization","type":"error"},{"inputs":[],"name":"MATURITYBEFOREEND","type":"error"},{"inputs":[],"name":"MAXLESSTHANMIN","type":"error"},{"inputs":[],"name":"MINIMUMDEPOSITREQUIRED","type":"error"},{"inputs":[],"name":"NOCLAIMABLEAMOUNT","type":"error"},{"inputs":[],"name":"NONCEALREADYUSED","type":"error"},{"inputs":[],"name":"NOROIAVAILABLE","type":"error"},{"inputs":[],"name":"NOROIDEPOSITAVAILABLE","type":"error"},{"inputs":[],"name":"NOSHARESMINTED","type":"error"},{"inputs":[],"name":"NotInitializing","type":"error"},{"inputs":[{"internalType":"uint256","name":"maxCount","type":"uint256"},{"internalType":"uint256","name":"currentCount","type":"uint256"}],"name":"PAYOUTDEPOSITCOUNTEXCEEDED","type":"error"},{"inputs":[],"name":"ReentrancyGuardReentrantCall","type":"error"},{"inputs":[{"internalType":"address","name":"token","type":"address"}],"name":"SafeERC20FailedOperation","type":"error"},{"inputs":[],"name":"ZEROADDRESS","type":"error"},{"inputs":[],"name":"ZEROAMOUNT","type":"error"},{"inputs":[],"name":"ZEROGOAL","type":"error"},{"inputs":[],"name":"ZEROMININVESTMENT","type":"error"},{"inputs":[],"name":"ZEROTOKENPRICE","type":"error"},{"anonymous":false,"inputs":[{"indexed":true,"internalType":"address","name":"owner","type":"address"},{"indexed":true,"internalType":"address","name":"spender","type":"address"},{"indexed":false,"internalType":"uint256","name":"value","type":"uint256"}],"name":"Approval","type":"event"},{"anonymous":false,"inputs":[{"indexed":true,"internalType":"address","name":"sender","type":"address"},{"indexed":true,"internalType":"address","name":"owner","type":"address"},{"indexed":false,"internalType":"uint256","name":"assets","type":"uint256"},{"indexed":false,"internalType":"uint256","name":"shares","type":"uint256"}],"name":"Deposit","type":"event"},{"anonymous":false,"inputs":[{"indexed":false,"internalType":"uint256","name":"amount","type":"uint256"},{"indexed":false,"internalType":"uint256","name":"index","type":"uint256"},{"indexed":false,"internalType":"uint256","name":"time","type":"uint256"}],"name":"FUNDSAdded","type":"event"},{"anonymous":false,"inputs":[{"indexed":false,"internalType":"uint64","name":"version","type":"uint64"}],"name":"Initialized","type":"event"},{"anonymous":false,"inputs":[{"indexed":false,"internalType":"address","name":"prevAdmin","type":"address"},{"indexed":false,"internalType":"address","name":"newUser","type":"address"}],"name":"OwnerChanged","type":"event"},{"anonymous":false,"inputs":[{"indexed":false,"internalType":"address","name":"account","type":"address"}],"name":"Paused","type":"event"},{"anonymous":false,"inputs":[{"indexed":true,"internalType":"bytes32","name":"role","type":"bytes32"},{"indexed":true,"internalType":"bytes32","name":"previousAdminRole","type":"bytes32"},{"indexed":true,"internalType":"bytes32","name":"newAdminRole","type":"bytes32"}],"name":"RoleAdminChanged","type":"event"},{"anonymous":false,"inputs":[{"indexed":true,"internalType":"bytes32","name":"role","type":"bytes32"},{"indexed":true,"internalType":"address","name":"account","type":"address"},{"indexed":true,"internalType":"address","name":"sender","type":"address"}],"name":"RoleGranted","type":"event"},{"anonymous":false,"inputs":[{"indexed":true,"internalType":"bytes32","name":"role","type":"bytes32"},{"indexed":true,"internalType":"address","name":"account","type":"address"},{"indexed":true,"internalType":"address","name":"sender","type":"address"}],"name":"RoleRevoked","type":"event"},{"anonymous":false,"inputs":[{"indexed":true,"internalType":"address","name":"from","type":"address"},{"indexed":true,"internalType":"address","name":"to","type":"address"},{"indexed":false,"internalType":"uint256","name":"value","type":"uint256"}],"name":"Transfer","type":"event"},{"anonymous":false,"inputs":[{"indexed":false,"internalType":"address","name":"account","type":"address"}],"name":"Unpaused","type":"event"},{"anonymous":false,"inputs":[{"indexed":true,"internalType":"address","name":"sender","type":"address"},{"indexed":true,"internalType":"address","name":"receiver","type":"address"},{"indexed":true,"internalType":"address","name":"owner","type":"address"},{"indexed":false,"internalType":"uint256","name":"assets","type":"uint256"},{"indexed":false,"internalType":"uint256","name":"shares","type":"uint256"}],"name":"Withdraw","type":"event"},{"anonymous":false,"inputs":[{"indexed":true,"internalType":"uint256","name":"amount","type":"uint256"}],"name":"withdrawnFunds","type":"event"},{"inputs":[],"name":"DEFAULT_ADMIN_ROLE","outputs":[{"internalType":"bytes32","name":"","type":"bytes32"}],"stateMutability":"view","type":"function"},{"inputs":[],"name":"DEPOSIT_FEE_PERMILE","outputs":[{"internalType":"uint256","name":"","type":"uint256"}],"stateMutability":"view","type":"function"},{"inputs":[],"name":"ENDTIME","outputs":[{"internalType":"uint256","name":"","type":"uint256"}],"stateMutability":"view","type":"function"},{"inputs":[],"name":"FUNDING_CAP","outputs":[{"internalType":"uint256","name":"","type":"uint256"}],"stateMutability":"view","type":"function"},{"inputs":[],"name":"MATURITY_INTEREST_PERMILE","outputs":[{"internalType":"uint256","name":"","type":"uint256"}],"stateMutability":"view","type":"function"},{"inputs":[],"name":"MATURITY_TIME","outputs":[{"internalType":"uint256","name":"","type":"uint256"}],"stateMutability":"view","type":"function"},{"inputs":[],"name":"MAX_DEPOSIT","outputs":[{"internalType":"uint256","name":"","type":"uint256"}],"stateMutability":"view","type":"function"},{"inputs":[],"name":"MIN_DEPOSIT","outputs":[{"internalType":"uint256","name":"","type":"uint256"}],"stateMutability":"view","type":"function"},{"inputs":[],"name":"PAYOUT_TYPE","outputs":[{"internalType":"enum Structs.PayoutType","name":"","type":"uint8"}],"stateMutability":"view","type":"function"},{"inputs":[],"name":"STARTTIME","outputs":[{"internalType":"uint256","name":"","type":"uint256"}],"stateMutability":"view","type":"function"},{"inputs":[],"name":"TOKEN_PRICE","outputs":[{"internalType":"uint256","name":"","type":"uint256"}],"stateMutability":"view","type":"function"},{"inputs":[],"name":"TOTAL_INVESTMENTS","outputs":[{"internalType":"uint256","name":"","type":"uint256"}],"stateMutability":"view","type":"function"},{"inputs":[],"name":"TOTAL_PAYOUTS","outputs":[{"internalType":"uint256","name":"","type":"uint256"}],"stateMutability":"view","type":"function"},{"inputs":[],"name":"WITHDRAW_FEE_PERMILE","outputs":[{"internalType":"uint256","name":"","type":"uint256"}],"stateMutability":"view","type":"function"},{"inputs":[],"name":"admin","outputs":[{"internalType":"address","name":"","type":"address"}],"stateMutability":"view","type":"function"},{"inputs":[{"internalType":"address","name":"owner","type":"address"},{"internalType":"address","name":"spender","type":"address"}],"name":"allowance","outputs":[{"internalType":"uint256","name":"","type":"uint256"}],"stateMutability":"view","type":"function"},{"inputs":[{"internalType":"address","name":"spender","type":"address"},{"internalType":"uint256","name":"value","type":"uint256"}],"name":"approve","outputs":[{"internalType":"bool","name":"","type":"bool"}],"stateMutability":"nonpayable","type":"function"},{"inputs":[],"name":"asset","outputs":[{"internalType":"address","name":"","type":"address"}],"stateMutability":"view","type":"function"},{"inputs":[{"internalType":"address","name":"account","type":"address"}],"name":"balanceOf","outputs":[{"internalType":"uint256","name":"","type":"uint256"}],"stateMutability":"view","type":"function"},{"inputs":[],"name":"claim","outputs":[],"stateMutability":"nonpayable","type":"function"},{"inputs":[{"internalType":"uint256","name":"shares","type":"uint256"}],"name":"convertToAssets","outputs":[{"internalType":"uint256","name":"","type":"uint256"}],"stateMutability":"view","type":"function"},{"inputs":[{"internalType":"uint256","name":"assets","type":"uint256"}],"name":"convertToShares","outputs":[{"internalType":"uint256","name":"","type":"uint256"}],"stateMutability":"view","type":"function"},{"inputs":[],"name":"decimals","outputs":[{"internalType":"uint8","name":"","type":"uint8"}],"stateMutability":"view","type":"function"},{"inputs":[{"internalType":"uint256","name":"assets","type":"uint256"},{"internalType":"address","name":"receiver","type":"address"}],"name":"deposit","outputs":[{"internalType":"uint256","name":"shares","type":"uint256"}],"stateMutability":"nonpayable","type":"function"},{"inputs":[{"internalType":"uint256","name":"assets","type":"uint256"},{"components":[{"internalType":"uint8","name":"v","type":"uint8"},{"internalType":"bytes32","name":"r","type":"bytes32"},{"internalType":"bytes32","name":"s","type":"bytes32"},{"internalType":"uint256","name":"nonce","type":"uint256"},{"internalType":"uint256","name":"deadline","type":"uint256"}],"internalType":"struct CampaignVault.Sign","name":"sign","type":"tuple"}],"name":"depositWithSign","outputs":[{"internalType":"uint256","name":"shares","type":"uint256"}],"stateMutability":"nonpayable","type":"function"},{"inputs":[{"internalType":"uint256","name":"_amount","type":"uint256"},{"internalType":"address","name":"_from","type":"address"}],"name":"feedFunds","outputs":[{"internalType":"bool","name":"","type":"bool"}],"stateMutability":"nonpayable","type":"function"},{"inputs":[{"internalType":"address","name":"user","type":"address"}],"name":"getROI","outputs":[{"internalType":"uint256","name":"","type":"uint256"}],"stateMutability":"view","type":"function"},{"inputs":[{"internalType":"bytes32","name":"role","type":"bytes32"}],"name":"getRoleAdmin","outputs":[{"internalType":"bytes32","name":"","type":"bytes32"}],"stateMutability":"view","type":"function"},{"inputs":[{"internalType":"address","name":"user","type":"address"}],"name":"getUserDetails","outputs":[{"components":[{"components":[{"internalType":"uint256","name":"amount","type":"uint256"},{"internalType":"uint256","name":"allocatedShares","type":"uint256"},{"internalType":"uint256","name":"timeStamp","type":"uint256"}],"internalType":"struct CampaignVault.investmentDetail[]","name":"investments","type":"tuple[]"},{"internalType":"uint256","name":"totalAllocatedShares","type":"uint256"},{"internalType":"uint32","name":"lastclaimedIndex","type":"uint32"},{"internalType":"uint256","name":"lastclaimTimestamp","type":"uint256"}],"internalType":"struct CampaignVault.userDetail","name":"","type":"tuple"}],"stateMutability":"view","type":"function"},{"inputs":[{"internalType":"address","name":"user","type":"address"}],"name":"getmaturityROI","outputs":[{"internalType":"uint256","name":"","type":"uint256"}],"stateMutability":"view","type":"function"},{"inputs":[{"internalType":"bytes32","name":"role","type":"bytes32"},{"internalType":"address","name":"account","type":"address"}],"name":"grantRole","outputs":[],"stateMutability":"nonpayable","type":"function"},{"inputs":[{"internalType":"bytes32","name":"role","type":"bytes32"},{"internalType":"address","name":"account","type":"address"}],"name":"hasRole","outputs":[{"internalType":"bool","name":"","type":"bool"}],"stateMutability":"view","type":"function"},{"inputs":[{"components":[{"internalType":"address","name":"admin","type":"address"},{"internalType":"address","name":"signer","type":"address"},{"internalType":"string","name":"_name","type":"string"},{"internalType":"string","name":"_symbol","type":"string"},{"internalType":"contract IERC20","name":"asset","type":"address"},{"internalType":"uint256","name":"goal","type":"uint256"},{"internalType":"uint256","name":"_minInvestment","type":"uint256"},{"internalType":"uint256","name":"_maxInvestment","type":"uint256"},{"internalType":"uint256","name":"_startTime","type":"uint256"},{"internalType":"uint256","name":"_endTime","type":"uint256"},{"internalType":"uint256","name":"_tokenPrice","type":"uint256"},{"internalType":"enum Structs.PayoutType","name":"_payoutType","type":"uint8"},{"internalType":"uint256","name":"maturityTime","type":"uint256"},{"internalType":"uint256","name":"capitalAppreciationPermile","type":"uint256"},{"internalType":"uint256","name":"maxDividendsCount","type":"uint256"}],"internalType":"struct Structs.deployParams","name":"params","type":"tuple"}],"name":"initialize","outputs":[],"stateMutability":"nonpayable","type":"function"},{"inputs":[{"internalType":"address","name":"","type":"address"}],"name":"maxDeposit","outputs":[{"internalType":"uint256","name":"","type":"uint256"}],"stateMutability":"view","type":"function"},{"inputs":[{"internalType":"address","name":"","type":"address"}],"name":"maxMint","outputs":[{"internalType":"uint256","name":"","type":"uint256"}],"stateMutability":"view","type":"function"},{"inputs":[{"internalType":"address","name":"owner","type":"address"}],"name":"maxRedeem","outputs":[{"internalType":"uint256","name":"","type":"uint256"}],"stateMutability":"view","type":"function"},{"inputs":[{"internalType":"address","name":"owner","type":"address"}],"name":"maxWithdraw","outputs":[{"internalType":"uint256","name":"","type":"uint256"}],"stateMutability":"view","type":"function"},{"inputs":[{"internalType":"uint256","name":"shares","type":"uint256"},{"internalType":"address","name":"receiver","type":"address"}],"name":"mint","outputs":[{"internalType":"uint256","name":"","type":"uint256"}],"stateMutability":"nonpayable","type":"function"},{"inputs":[],"name":"name","outputs":[{"internalType":"string","name":"","type":"string"}],"stateMutability":"view","type":"function"},{"inputs":[],"name":"pause","outputs":[],"stateMutability":"nonpayable","type":"function"},{"inputs":[],"name":"paused","outputs":[{"internalType":"bool","name":"","type":"bool"}],"stateMutability":"view","type":"function"},{"inputs":[{"internalType":"uint256","name":"assets","type":"uint256"}],"name":"previewDeposit","outputs":[{"internalType":"uint256","name":"","type":"uint256"}],"stateMutability":"view","type":"function"},{"inputs":[{"internalType":"uint256","name":"shares","type":"uint256"}],"name":"previewMint","outputs":[{"internalType":"uint256","name":"","type":"uint256"}],"stateMutability":"view","type":"function"},{"inputs":[{"internalType":"uint256","name":"shares","type":"uint256"}],"name":"previewRedeem","outputs":[{"internalType":"uint256","name":"","type":"uint256"}],"stateMutability":"view","type":"function"},{"inputs":[{"internalType":"uint256","name":"assets","type":"uint256"}],"name":"previewWithdraw","outputs":[{"internalType":"uint256","name":"","type":"uint256"}],"stateMutability":"view","type":"function"},{"inputs":[{"internalType":"uint256","name":"shares","type":"uint256"},{"internalType":"address","name":"receiver","type":"address"},{"internalType":"address","name":"owner","type":"address"}],"name":"redeem","outputs":[{"internalType":"uint256","name":"assets","type":"uint256"}],"stateMutability":"nonpayable","type":"function"},{"inputs":[{"internalType":"bytes32","name":"role","type":"bytes32"},{"internalType":"address","name":"callerConfirmation","type":"address"}],"name":"renounceRole","outputs":[],"stateMutability":"nonpayable","type":"function"},{"inputs":[{"internalType":"address","name":"token","type":"address"},{"internalType":"uint256","name":"amount","type":"uint256"}],"name":"rescueTokens","outputs":[],"stateMutability":"nonpayable","type":"function"},{"inputs":[{"internalType":"bytes32","name":"role","type":"bytes32"},{"internalType":"address","name":"account","type":"address"}],"name":"revokeRole","outputs":[],"stateMutability":"nonpayable","type":"function"},{"inputs":[],"name":"signAuthority","outputs":[{"internalType":"address","name":"","type":"address"}],"stateMutability":"view","type":"function"},{"inputs":[{"internalType":"bytes4","name":"interfaceId","type":"bytes4"}],"name":"supportsInterface","outputs":[{"internalType":"bool","name":"","type":"bool"}],"stateMutability":"view","type":"function"},{"inputs":[],"name":"symbol","outputs":[{"internalType":"string","name":"","type":"string"}],"stateMutability":"view","type":"function"},{"inputs":[],"name":"totalAssets","outputs":[{"internalType":"uint256","name":"","type":"uint256"}],"stateMutability":"view","type":"function"},{"inputs":[],"name":"totalSupply","outputs":[{"internalType":"uint256","name":"","type":"uint256"}],"stateMutability":"view","type":"function"},{"inputs":[{"internalType":"address","name":"to","type":"address"},{"internalType":"uint256","name":"value","type":"uint256"}],"name":"transfer","outputs":[{"internalType":"bool","name":"","type":"bool"}],"stateMutability":"nonpayable","type":"function"},{"inputs":[{"internalType":"address","name":"from","type":"address"},{"internalType":"address","name":"to","type":"address"},{"internalType":"uint256","name":"value","type":"uint256"}],"name":"transferFrom","outputs":[{"internalType":"bool","name":"","type":"bool"}],"stateMutability":"nonpayable","type":"function"},{"inputs":[{"internalType":"address","name":"newUser","type":"address"}],"name":"transferOwnership","outputs":[],"stateMutability":"nonpayable","type":"function"},{"inputs":[],"name":"unpause","outputs":[],"stateMutability":"nonpayable","type":"function"},{"inputs":[{"internalType":"uint256","name":"assets","type":"uint256"},{"internalType":"address","name":"receiver","type":"address"},{"internalType":"address","name":"owner","type":"address"}],"name":"withdraw","outputs":[{"internalType":"uint256","name":"shares","type":"uint256"}],"stateMutability":"nonpayable","type":"function"},{"inputs":[{"internalType":"uint256","name":"amount","type":"uint256"}],"name":"withdrawFunds","outputs":[],"stateMutability":"nonpayable","type":"function"}],"evm":{"bytecode":{"linkReferences":{},"object":"60806040526004805463ffffffff1916905560fa600b819055600c555f600d553480156029575f5ffd5b5060306034565b60e4565b7ff0c57e16840df040f15088dc2f81fe391c3923bec73e23a9662efc9c229c6a00805468010000000000000000900460ff161560835760405163f92ee8a960e01b815260040160405180910390fd5b80546001600160401b039081161460e15780546001600160401b0319166001600160401b0390811782556040519081527fc7f505b2f371ae2175ee4913f4499e1f2633a7b5936321eed1cdaeb6115181d29060200160405180910390a15b50565b61395a806100f15f395ff3fe608060405234801561000f575f5ffd5b5060043610610393575f3560e01c80636e553f65116101df578063c6e6f59211610109578063dd5967c3116100a9578063ed9dbced11610079578063ed9dbced14610760578063ef8b30f7146106b4578063f2fde38b14610773578063f851a44014610786575f5ffd5b8063dd5967c314610732578063dd62ed3e1461073b578063e1e158a51461074e578063e3275eb014610757575f5ffd5b8063cfd7ab91116100e4578063cfd7ab91146106fa578063d2d8cb6714610703578063d547741f1461070c578063d905777e1461071f575f5ffd5b8063c6e6f592146106b4578063cc3d967b146106c7578063ce96cb77146106e7575f5ffd5b806398b78a4b1161017f578063b422271f1161014f578063b422271f14610667578063b460af941461067a578063ba0876521461068d578063c63d75b6146106a0575f5ffd5b806398b78a4b14610631578063a217fddf1461063a578063a9059cbb14610641578063b3d7f6b914610654575f5ffd5b8063850d9afb116101ba578063850d9afb146105fa57806391d148541461060357806394bf804d1461061657806395d89b4114610629575f5ffd5b80636e553f65146105cc57806370a08231146105df5780638456cb59146105f2575f5ffd5b806336568abe116102c05780634bd0c2d8116102605780635737619811610230578063573761981461057c5780635c975abb1461058f5780635f04c5e4146105a65780636549c503146105b9575f5ffd5b80634bd0c2d8146105585780634cdad506146103ea5780634e71d92d1461056b578063571e1c6814610573575f5ffd5b80633c37475e1161029b5780633c37475e146105125780633f4ba83a14610534578063402d267d1461053c578063428a8bad1461054f575f5ffd5b806336568abe146104ee57806338d52e0f146105015780633bc64d2b14610509575f5ffd5b806318160ddd116103365780632688ead8116103065780632688ead8146104af5780632f2ff15d146104b8578063313ce567146104cb57806333acd652146104e5575f5ffd5b806318160ddd1461043857806319dcd8841461045f57806323b872dd14610489578063248a9ca31461049c575f5ffd5b806307a2d13a1161037157806307a2d13a146103ea578063095ea7b3146103fd5780630a28a47714610410578063155dd5ee14610423575f5ffd5b806301e1d1141461039757806301ffc9a7146103b257806306fdde03146103d5575b5f5ffd5b61039f610799565b6040519081526020015b60405180910390f35b6103c56103c0366004613145565b610830565b60405190151581526020016103a9565b6103dd610866565b6040516103a9919061316c565b61039f6103f83660046131a1565b610926565b6103c561040b3660046131dc565b610931565b61039f61041e3660046131a1565b610948565b6104366104313660046131a1565b610954565b005b7f52c63247e1f47db19d5ce0460030c497f067ca4cebf71ba98eeadabe20bace025461039f565b5f54610471906001600160a01b031681565b6040516001600160a01b0390911681526020016103a9565b6103c5610497366004613206565b610a55565b61039f6104aa3660046131a1565b610a7a565b61039f600f5481565b6104366104c6366004613244565b610a9a565b6104d3610abc565b60405160ff90911681526020016103a9565b61039f600a5481565b6104366104fc366004613244565b610af8565b610471610b30565b61039f60015481565b60045461052790640100000000900460ff1681565b6040516103a99190613286565b610436610b5e565b61039f61054a3660046132ac565b610b70565b61039f600d5481565b61039f6105663660046132ac565b610bc4565b610436610bce565b61039f600b5481565b61043661058a3660046131dc565b610cd6565b5f5160206138e55f395f51905f525460ff166103c5565b61039f6105b43660046132c7565b610dfb565b6104366105c73660046133d3565b61108f565b61039f6105da366004613244565b6113b7565b61039f6105ed3660046132ac565b611624565b61043661164a565b61039f60085481565b6103c5610611366004613244565b61165c565b61039f610624366004613244565b611692565b6103dd6116b5565b61039f600c5481565b61039f5f81565b6103c561064f3660046131dc565b6116f3565b61039f6106623660046131a1565b611700565b6103c5610675366004613244565b61170c565b61039f610688366004613513565b61194a565b61039f61069b366004613513565b611a36565b61039f6106ae3660046132ac565b505f1990565b61039f6106c23660046131a1565b611af4565b6106da6106d53660046132ac565b611aff565b6040516103a99190613552565b61039f6106f53660046132ac565b611bec565b61039f60075481565b61039f60055481565b61043661071a366004613244565b611bff565b61039f61072d3660046132ac565b611c1b565b61039f60035481565b61039f6107493660046135eb565b611c25565b61039f60025481565b61039f60095481565b61039f61076e3660046132ac565b611c6e565b6104366107813660046132ac565b611ca8565b600654610471906001600160a01b031681565b5f5f6107a3610b30565b6040516370a0823160e01b81523060048201526001600160a01b0391909116906370a0823190602401602060405180830381865afa1580156107e7573d5f5f3e3d5ffd5b505050506040513d601f19601f8201168201806040525081019061080b9190613617565b9050600e54811161081d575f91505090565b600e5461082a9082613642565b91505090565b5f6001600160e01b03198216637965db0b60e01b148061086057506301ffc9a760e01b6001600160e01b03198316145b92915050565b7f52c63247e1f47db19d5ce0460030c497f067ca4cebf71ba98eeadabe20bace0380546060915f5160206138a55f395f51905f52916108a490613655565b80601f01602080910402602001604051908101604052809291908181526020018280546108d090613655565b801561091b5780601f106108f25761010080835404028352916020019161091b565b820191905f5260205f20905b8154815290600101906020018083116108fe57829003601f168201915b505050505091505090565b5f610860825f611dd8565b5f3361093e818585611def565b5060019392505050565b5f610860826001611dfc565b61095c611e13565b610964611e4a565b5f61096e81611e7a565b600854421080156109825750600154600d54105b156109a057604051630ac3270f60e41b815260040160405180910390fd5b815f036109c0576040516326753bb560e11b815260040160405180910390fd5b6109c8610799565b8211156109e857604051635462f71f60e01b815260040160405180910390fd5b600654610a11906001600160a01b031683610a01610b30565b6001600160a01b03169190611e84565b60405182907f5fafc30b7c5090dc417458251e397ac4cfa3c5be8195e2312894b18b125e1fc3905f90a250610a5260015f5160206139055f395f51905f5255565b50565b5f33610a62858285611ef6565b610a6d858585611f41565b60019150505b9392505050565b5f9081525f5160206138c55f395f51905f52602052604090206001015490565b610aa382610a7a565b610aac81611e7a565b610ab68383611f9e565b50505050565b5f807f0773e532dfede91f04b12a73d3d2acd361424f41f76b4fb79f090161e36b4e0090505f815461082a9190600160a01b900460ff1661368d565b6001600160a01b0381163314610b215760405163334bd91960e11b815260040160405180910390fd5b610b2b828261203f565b505050565b7f0773e532dfede91f04b12a73d3d2acd361424f41f76b4fb79f090161e36b4e00546001600160a01b031690565b5f610b6881611e7a565b610a526120b8565b5f600754421080610b82575060085442115b15610b8e57505f919050565b600154600d5410610ba057505f919050565b5f600d54600154610bb19190613642565b9050600354811061086057600354610a73565b5f61086082612117565b610bd6611e13565b610bde611e4a565b60085442108015610bf25750600154600d54105b15610c1057604051630ac3270f60e41b815260040160405180910390fd5b5f600454640100000000900460ff166002811115610c3057610c30613272565b148015610c3f57506009544210155b15610c5157610c4c612155565b610cbe565b6001600454640100000000900460ff166002811115610c7257610c72613272565b03610c7f57610c4c61229a565b6002600454640100000000900460ff166002811115610ca057610ca0613272565b03610cbe576009544210610cb657610c4c612155565b610cbe61229a565b610cd460015f5160206139055f395f51905f5255565b565b5f610ce081611e7a565b6001600160a01b038316610d07576040516314f5977360e11b815260040160405180910390fd5b610d0f610b30565b6001600160a01b0316836001600160a01b031603610d40576040516316abf95d60e31b815260040160405180910390fd5b815f03610d60576040516326753bb560e11b815260040160405180910390fd5b6040516370a0823160e01b815230600482015282906001600160a01b038516906370a0823190602401602060405180830381865afa158015610da4573d5f5f3e3d5ffd5b505050506040513d601f19601f82011682018060405250810190610dc89190613617565b1015610de757604051635462f71f60e01b815260040160405180910390fd5b610b2b6001600160a01b0384163384611e84565b5f610e04611e13565b610e0c611e4a565b600754421080610e1d575060085442115b80610e2c5750600154600d5410155b15610e4a57604051633e8502df60e01b815260040160405180910390fd5b825f03610e6a576040516326753bb560e11b815260040160405180910390fd5b5f3390505f610e7f85600b546127105f6123cb565b90505f610e8c8287613642565b9050610ea2610e99610b30565b83888689612416565b60608501355f9081526012602052604090205460ff1615610ed6576040516331537f5560e21b815260040160405180910390fd5b600254811015610ef95760405163ac1e14e560e01b815260040160405180910390fd5b60015481600d54610f0a91906136a6565b1115610f29576040516317c0604960e31b815260040160405180910390fd5b5f610f3384610b70565b905080821115610f6557838282604051633c8097d960e11b8152600401610f5c939291906136b9565b60405180910390fd5b5f610f70835f611dfc565b9050610f7c858261252c565b60608701355f908152601260205260408120805460ff19166001179055600d8054859290610fab9084906136a6565b90915550506001600160a01b0385165f81815260116020818152604080842081516060810183528981528084018881524293820193845282546001818101855584895286892093516003909202909301908155905181830155925160029093019290925594845291905290910180548392906110289084906136a6565b909155505060408051848152602081018390526001600160a01b0387169182917fdcbc1c05240f31ff3ad067ef1ee35ce4997762752e3a095284754544f4c709d7910160405180910390a394505050505061086060015f5160206139055f395f51905f5255565b5f611098612564565b805490915060ff600160401b820416159067ffffffffffffffff165f811580156110bf5750825b90505f8267ffffffffffffffff1660011480156110db5750303b155b9050811580156110e9575080155b156111075760405163f92ee8a960e01b815260040160405180910390fd5b845467ffffffffffffffff19166001178555831561113157845460ff60401b1916600160401b1785555b61113e866080015161258c565b6111508660400151876060015161259d565b6111586125af565b6111606125bf565b6111686125bf565b85516001600160a01b0316611190576040516314f5977360e11b815260040160405180910390fd5b60208601516001600160a01b03166111bb576040516314f5977360e11b815260040160405180910390fd5b856101200151866101000151106111e5576040516329c6f4c160e01b815260040160405180910390fd5b8561018001518661012001511061120f57604051630389bd8f60e41b815260040160405180910390fd5b8560c001515f03611233576040516347f46f0160e11b815260040160405180910390fd5b8560c001518660e00151101561125c5760405163084068b160e31b815260040160405180910390fd5b8560a001515f0361128057604051636e29d8a560e11b815260040160405180910390fd5b8561014001515f036112a55760405163614fe19960e11b815260040160405180910390fd5b85516112b2905f90611f9e565b508551600680546001600160a01b039283166001600160a01b03199182161790915560208801515f805491909316911617905560a086015160015560c0860151600290815560e08701516003556101408701516005556101008701516007556101208701516008556101808701516009556101a0870151600a55610160870151600480549192909164ff0000000019169064010000000090849081111561135b5761135b613272565b02179055506101c0860151600f5583156113af57845460ff60401b19168555604051600181527fc7f505b2f371ae2175ee4913f4499e1f2633a7b5936321eed1cdaeb6115181d29060200160405180910390a15b505050505050565b5f6113c0611e13565b6113c8611e4a565b6007544210806113d9575060085442115b806113e85750600154600d5410155b1561140657604051633e8502df60e01b815260040160405180910390fd5b825f03611426576040516326753bb560e11b815260040160405180910390fd5b6001600160a01b038216331461144f5760405163162692a760e01b815260040160405180910390fd5b5f61146084600b546127105f6123cb565b90505f61146d8286613642565b90506002548110156114a85760015481600d5461148a91906136a6565b146114a85760405163ac1e14e560e01b815260040160405180910390fd5b60015481600d546114b991906136a6565b11156114d8576040516317c0604960e31b815260040160405180910390fd5b5f821180156114f157506006546001600160a01b031615155b15611522576006546115229033906001600160a01b031684611511610b30565b6001600160a01b03169291906125c7565b61152c8185612600565b6001600160a01b0385165f818152601160208181526040808420815160608101835288815280840188815242938201938452825460018181018555848952868920935160039092029093019081559051818301559251600290930192909255948452919052909101805492955085929091906115a99084906136a6565b9250508190555080600d5f8282546115c191906136a6565b909155505060408051828152602081018590526001600160a01b0386169182917fdcbc1c05240f31ff3ad067ef1ee35ce4997762752e3a095284754544f4c709d7910160405180910390a3505061086060015f5160206139055f395f51905f5255565b6001600160a01b03165f9081525f5160206138a55f395f51905f52602052604090205490565b5f61165481611e7a565b610a5261264c565b5f9182525f5160206138c55f395f51905f52602090815260408084206001600160a01b0393909316845291905290205460ff1690565b5f5f195f61169f85611700565b90506116ad33858388612694565b949350505050565b7f52c63247e1f47db19d5ce0460030c497f067ca4cebf71ba98eeadabe20bace0480546060915f5160206138a55f395f51905f52916108a490613655565b5f3361093e818585611f41565b5f610860826001611dd8565b5f611715611e13565b61171d611e4a565b5f61172781611e7a565b835f03611747576040516326753bb560e11b815260040160405180910390fd5b6001600160a01b03831661176e576040516314f5977360e11b815260040160405180910390fd5b5f6117977f52c63247e1f47db19d5ce0460030c497f067ca4cebf71ba98eeadabe20bace025490565b9050805f036117b95760405163c450ddf160e01b815260040160405180910390fd5b60045463ffffffff908116106117e257604051632e6b161360e01b815260040160405180910390fd5b600f546004546117f99063ffffffff1660016136da565b63ffffffff16111561184457600f5460045461181c9063ffffffff1660016136da565b60405163ecdbf90760e01b8152600481019290925263ffffffff166024820152604401610f5c565b611852843087611511610b30565b6004546118669063ffffffff1660016136da565b6004805463ffffffff191663ffffffff929092169190911790555f61189586670de0b6b3a764000084846123cb565b60408051808201825282815242602080830191825260045463ffffffff165f90815260109091529283209151825551600190910155600e805492935088929091906118e19084906136a6565b90915550506004546040805188815263ffffffff90921660208301524282820152517f6f030ba6d582d7a59edc355267529fa420bb4a982750488913f3ee91645e3aeb9181900360600190a16001935050505061086060015f5160206139055f395f51905f5255565b5f611953611e13565b61195b611e4a565b835f0361197b576040516326753bb560e11b815260040160405180910390fd5b5f61199a85612710600c546127106119939190613642565b60016123cb565b90506119a581610948565b6001600160a01b0384165f908152601160205260409020600101549092508211156119e25760405162c5644d60e71b815260040160405180910390fd5b6001600160a01b0383165f9081526011602052604081206001018054849290611a0c908490613642565b90915550611a1d905081858561270d565b915050610a7360015f5160206139055f395f51905f5255565b5f611a3f611e13565b611a47611e4a565b835f03611a67576040516326753bb560e11b815260040160405180910390fd5b6001600160a01b0382165f90815260116020526040902060010154841115611aa15760405162c5644d60e71b815260040160405180910390fd5b6001600160a01b0382165f9081526011602052604081206001018054869290611acb908490613642565b90915550611adc905084848461275a565b9050610a7360015f5160206139055f395f51905f5255565b5f610860825f611dfc565b611b2d6040518060800160405280606081526020015f81526020015f63ffffffff1681526020015f81525090565b6001600160a01b0382165f9081526011602090815260408083208151815460a09481028201850190935260808101838152909491938593919285929185015b82821015611bb9578382905f5260205f2090600302016040518060600160405290815f82015481526020016001820154815260200160028201548152505081526020019060010190611b6c565b5050509082525060018201546020820152600282015463ffffffff16604082015260039091015460609091015292915050565b5f610860611bf983611624565b5f611dd8565b611c0882610a7a565b611c1181611e7a565b610ab6838361203f565b5f61086082611624565b6001600160a01b039182165f9081527f52c63247e1f47db19d5ce0460030c497f067ca4cebf71ba98eeadabe20bace016020908152604080832093909416825291909152205490565b6001600160a01b0381165f908152601160205260408120600201548190611c9c9063ffffffff1660016136da565b9050610a7383826127a7565b611cb0611e13565b611cb8611e4a565b5f611cc281611e7a565b6001600160a01b038216611ce9576040516314f5977360e11b815260040160405180910390fd5b6006546001600160a01b0390811690831603611d185760405163ce3b397b60e01b815260040160405180910390fd5b611d225f8361165c565b15611d405760405163ce3b397b60e01b815260040160405180910390fd5b6006546001600160a01b0316611d565f8261203f565b50600680546001600160a01b0319166001600160a01b038516179055611d7c5f84611f9e565b50604080516001600160a01b038084168252851660208201527fb532073b38c83145e3e5135377a08bf9aab55bc0fd7c1179cd4fb995d2a5159c910160405180910390a15050610a5260015f5160206139055f395f51905f5255565b5f610a7383600554670de0b6b3a7640000856123cb565b610b2b8383836001612842565b5f610a7383670de0b6b3a7640000600554856123cb565b5f5160206139055f395f51905f52805460011901611e4457604051633ee5aeb560e01b815260040160405180910390fd5b60029055565b5f5160206138e55f395f51905f525460ff1615610cd45760405163d93c066560e01b815260040160405180910390fd5b610a528133612926565b6040516001600160a01b03838116602483015260448201839052610b2b91859182169063a9059cbb906064015b604051602081830303815290604052915060e01b6020820180516001600160e01b03838183161783525050505061295f565b60015f5160206139055f395f51905f5255565b5f611f018484611c25565b90505f19811015610ab65781811015611f3357828183604051637dc7a0d960e11b8152600401610f5c939291906136b9565b610ab684848484035f612842565b6001600160a01b038316611f6a57604051634b637e8f60e11b81525f6004820152602401610f5c565b6001600160a01b038216611f935760405163ec442f0560e01b81525f6004820152602401610f5c565b610b2b8383836129cb565b5f5f5160206138c55f395f51905f52611fb7848461165c565b612036575f848152602082815260408083206001600160a01b03871684529091529020805460ff19166001179055611fec3390565b6001600160a01b0316836001600160a01b0316857f2f8788117e7eff1d82e926ec794901d17c78024a50270940304540a733656f0d60405160405180910390a46001915050610860565b5f915050610860565b5f5f5160206138c55f395f51905f52612058848461165c565b15612036575f848152602082815260408083206001600160a01b0387168085529252808320805460ff1916905551339287917ff6391f5c32d9c69d2a47ea670b442974b53935d1edc7fd64eb21e047a839171b9190a46001915050610860565b6120c0612ae3565b5f5160206138e55f395f51905f52805460ff191681557f5db9ee0a495bf2e6ff9c91a7834c1ba4fdd244a5e8aa4e537bd38aeae4b073aa335b6040516001600160a01b03909116815260200160405180910390a150565b6001600160a01b0381165f9081526011602052604081206001810154820361214157505f92915050565b610a738160010154600a546127105f6123cb565b335f61216082612117565b6001600160a01b0383165f908152601160205260409020600101549091508115801561218a575080155b156121a8576040516344388c2b60e01b815260040160405180910390fd5b5f6121b3825f611dd8565b6001600160a01b0385165f908152601160205260408120600101559050811561224d576121e08483612b12565b5f6121f182600c546127105f6123cb565b90505f6121fe8284613642565b90505f8211801561221957506006546001600160a01b031615155b1561223757600654612237906001600160a01b031683610a01610b30565b801561224a5761224a8682610a01610b30565b50505b8215610ab65782600e54101561227657604051637521b38f60e11b815260040160405180910390fd5b82600e5f8282546122879190613642565b90915550610ab690508484610a01610b30565b60045463ffffffff165f036122c2576040516328bf11b960e11b815260040160405180910390fd5b335f818152601160205260408120600201546122e59063ffffffff1660016136da565b60045490915063ffffffff908116908216111561231557604051631114dc6360e01b815260040160405180910390fd5b5f61232083836127a7565b9050805f036123425760405163e7f2f92f60e01b815260040160405180910390fd5b6004546001600160a01b0384165f90815260116020526040902060028101805463ffffffff191663ffffffff9093169290921790915542600390910155600e548111156123a257604051637521b38f60e11b815260040160405180910390fd5b80600e5f8282546123b39190613642565b90915550508015610b2b57610b2b8382610a01610b30565b5f6123f86123d883612b46565b80156123f357505f84806123ee576123ee6136f6565b868809115b151590565b612403868686612b72565b61240d91906136a6565b95945050505050565b80608001358042111561243f5760405163a53b254560e01b815260048101829052602401610f5c565b60408051306020808301919091526001600160a01b038681168385015289166060808401919091526080830188905260a083018990524660c084015285013560e0808401919091528351808403909101815261010090920190925280519101207f19457468657265756d205369676e6564204d6573736167653a0a3332000000005f908152601c829052603c812090505f6124f16124e0602087018761370a565b839060208801356040890135612c22565b5f549091506001600160a01b038083169116146125215760405163dc9796c960e01b815260040160405180910390fd5b505050505050505050565b6001600160a01b0382166125555760405163ec442f0560e01b81525f6004820152602401610f5c565b6125605f83836129cb565b5050565b5f807ff0c57e16840df040f15088dc2f81fe391c3923bec73e23a9662efc9c229c6a00610860565b612594612c4e565b610a5281612c73565b6125a5612c4e565b6125608282612cf6565b6125b7612c4e565b610cd4612d46565b610cd4612c4e565b6040516001600160a01b038481166024830152838116604483015260648201839052610ab69186918216906323b872dd90608401611eb1565b5f5f61260b83610b70565b90508084111561263457828482604051633c8097d960e11b8152600401610f5c939291906136b9565b5f61263e85611af4565b90506116ad33858784612694565b612654611e4a565b5f5160206138e55f395f51905f52805460ff191660011781557f62e78cea01bee320cd4e420270b5ea74000d11b0c9f74754ebdbfc544b05a258336120f9565b6126a761269f610b30565b8530856125c7565b6126b1838261252c565b826001600160a01b0316846001600160a01b03167fdcbc1c05240f31ff3ad067ef1ee35ce4997762752e3a095284754544f4c709d784846040516126ff929190918252602082015260400190565b60405180910390a350505050565b5f5f61271883611bec565b90508085111561274157828582604051633fa733bb60e21b8152600401610f5c939291906136b9565b5f61274b86610948565b905061240d3386868985612d4e565b5f5f61276583611c1b565b90508085111561278e57828582604051632e52afbb60e21b8152600401610f5c939291906136b9565b5f61279886610926565b905061240d338686848a612d4e565b6001600160a01b0382165f908152601160205260408120600181015482036127d2575f915050610860565b5f835b60045463ffffffff908116908216116128395763ffffffff81165f9081526010602052604081206001850154815491926128199290670de0b6b3a7640000906123cb565b61282390846136a6565b92505080806128319061372a565b9150506127d5565b50949350505050565b5f5160206138a55f395f51905f526001600160a01b0385166128795760405163e602df0560e01b81525f6004820152602401610f5c565b6001600160a01b0384166128a257604051634a1406b160e11b81525f6004820152602401610f5c565b6001600160a01b038086165f9081526001830160209081526040808320938816835292905220839055811561291f57836001600160a01b0316856001600160a01b03167f8c5be1e5ebec7d5bd14f71427d1e84f3dd0314c0f7b2291e5b200ac8c7c3b9258560405161291691815260200190565b60405180910390a35b5050505050565b612930828261165c565b6125605760405163e2517d3f60e01b81526001600160a01b038216600482015260248101839052604401610f5c565b5f5f60205f8451602086015f885af18061297e576040513d5f823e3d81fd5b50505f513d915081156129955780600114156129a2565b6001600160a01b0384163b155b15610ab657604051635274afe760e01b81526001600160a01b0385166004820152602401610f5c565b5f5160206138a55f395f51905f526001600160a01b038416612a055781816002015f8282546129fa91906136a6565b90915550612a629050565b6001600160a01b0384165f9081526020829052604090205482811015612a445784818460405163391434e360e21b8152600401610f5c939291906136b9565b6001600160a01b0385165f9081526020839052604090209083900390555b6001600160a01b038316612a80576002810180548390039055612a9e565b6001600160a01b0383165f9081526020829052604090208054830190555b826001600160a01b0316846001600160a01b03167fddf252ad1be2c89b69c2b068fc378daa952ba7f163c4a11628f55a4df523b3ef846040516126ff91815260200190565b5f5160206138e55f395f51905f525460ff16610cd457604051638dfc202b60e01b815260040160405180910390fd5b6001600160a01b038216612b3b57604051634b637e8f60e11b81525f6004820152602401610f5c565b612560825f836129cb565b5f6002826003811115612b5b57612b5b613272565b612b65919061374e565b60ff166001149050919050565b5f5f5f612b7f8686612ea9565b91509150815f03612ba357838181612b9957612b996136f6565b0492505050610a73565b818411612bba57612bba6003851502601118612ec5565b5f848688095f868103871696879004966002600389028118808a02820302808a02820302808a02820302808a02820302808a02820302808a02909103029181900381900460010185841190960395909502919093039390930492909217029150509392505050565b5f5f5f5f612c3288888888612ed6565b925092509250612c428282612f9e565b50909695505050505050565b612c56613056565b610cd457604051631afcd79f60e31b815260040160405180910390fd5b612c7b612c4e565b7f0773e532dfede91f04b12a73d3d2acd361424f41f76b4fb79f090161e36b4e005f80612ca78461306f565b9150915081612cb7576012612cb9565b805b83546001600160a81b031916600160a01b60ff92909216919091026001600160a01b031916176001600160a01b0394909416939093179091555050565b612cfe612c4e565b5f5160206138a55f395f51905f527f52c63247e1f47db19d5ce0460030c497f067ca4cebf71ba98eeadabe20bace03612d3784826137bf565b5060048101610ab683826137bf565b611ee3612c4e565b826001600160a01b0316856001600160a01b031614612d7257612d72838683611ef6565b6001600160a01b0383165f90815260116020526040902060010154811115612d9c57612d9c61387a565b6001600160a01b0383165f9081526011602052604081206001018054839290612dc6908490613642565b90915550612dd690508382612b12565b5f612de783600c546127105f6123cb565b90505f612df48285613642565b90505f82118015612e0f57506006546001600160a01b031615155b15612e2d57600654612e2d906001600160a01b031683610a01610b30565b8015612e4057612e408682610a01610b30565b846001600160a01b0316866001600160a01b0316886001600160a01b03167ffbde797d201c681b91056529119e0b02407c7bb96a4a2c75c01fc9667232c8db8787604051612e98929190918252602082015260400190565b60405180910390a450505050505050565b5f805f1983850993909202808410938190039390930393915050565b634e487b715f52806020526024601cfd5b5f80807f7fffffffffffffffffffffffffffffff5d576e7357a4501ddfe92f46681b20a0841115612f0f57505f91506003905082612f94565b604080515f808252602082018084528a905260ff891692820192909252606081018790526080810186905260019060a0016020604051602081039080840390855afa158015612f60573d5f5f3e3d5ffd5b5050604051601f1901519150506001600160a01b038116612f8b57505f925060019150829050612f94565b92505f91508190505b9450945094915050565b5f826003811115612fb157612fb1613272565b03612fba575050565b6001826003811115612fce57612fce613272565b03612fec5760405163f645eedf60e01b815260040160405180910390fd5b600282600381111561300057613000613272565b036130215760405163fce698f760e01b815260048101829052602401610f5c565b600382600381111561303557613035613272565b03612560576040516335e2f38360e21b815260048101829052602401610f5c565b5f61305f612564565b54600160401b900460ff16919050565b60408051600481526024810182526020810180516001600160e01b031663313ce56760e01b17905290515f918291829182916001600160a01b038716916130b59161388e565b5f60405180830381855afa9150503d805f81146130ed576040519150601f19603f3d011682016040523d82523d5f602084013e6130f2565b606091505b509150915081801561310657506020815110155b15613139575f818060200190518101906131209190613617565b905060ff8111613137576001969095509350505050565b505b505f9485945092505050565b5f60208284031215613155575f5ffd5b81356001600160e01b031981168114610a73575f5ffd5b602081525f82518060208401528060208501604085015e5f604082850101526040601f19601f83011684010191505092915050565b5f602082840312156131b1575f5ffd5b5035919050565b6001600160a01b0381168114610a52575f5ffd5b80356131d7816131b8565b919050565b5f5f604083850312156131ed575f5ffd5b82356131f8816131b8565b946020939093013593505050565b5f5f5f60608486031215613218575f5ffd5b8335613223816131b8565b92506020840135613233816131b8565b929592945050506040919091013590565b5f5f60408385031215613255575f5ffd5b823591506020830135613267816131b8565b809150509250929050565b634e487b7160e01b5f52602160045260245ffd5b60208101600383106132a657634e487b7160e01b5f52602160045260245ffd5b91905290565b5f602082840312156132bc575f5ffd5b8135610a73816131b8565b5f5f82840360c08112156132d9575f5ffd5b8335925060a0601f19820112156132ee575f5ffd5b506020830190509250929050565b634e487b7160e01b5f52604160045260245ffd5b6040516101e0810167ffffffffffffffff81118282101715613334576133346132fc565b60405290565b5f82601f830112613349575f5ffd5b813567ffffffffffffffff811115613363576133636132fc565b604051601f8201601f19908116603f0116810167ffffffffffffffff81118282101715613392576133926132fc565b6040528181528382016020018510156133a9575f5ffd5b816020850160208301375f918101602001919091529392505050565b8035600381106131d7575f5ffd5b5f602082840312156133e3575f5ffd5b813567ffffffffffffffff8111156133f9575f5ffd5b82016101e0818503121561340b575f5ffd5b613413613310565b61341c826131cc565b815261342a602083016131cc565b6020820152604082013567ffffffffffffffff811115613448575f5ffd5b6134548682850161333a565b604083015250606082013567ffffffffffffffff811115613473575f5ffd5b61347f8682850161333a565b606083015250613491608083016131cc565b608082015260a0828101359082015260c0808301359082015260e080830135908201526101008083013590820152610120808301359082015261014080830135908201526134e261016083016133c5565b61016082015261018082810135908201526101a080830135908201526101c091820135918101919091529392505050565b5f5f5f60608486031215613525575f5ffd5b833592506020840135613537816131b8565b91506040840135613547816131b8565b809150509250925092565b60208082528251608083830152805160a084018190525f929190910190829060c08501905b808310156135b157835180518352602081015160208401526040810151604084015250606082019150602084019350600183019250613577565b5060208601516040860152604086015192506135d5606086018463ffffffff169052565b6060860151608086015280935050505092915050565b5f5f604083850312156135fc575f5ffd5b8235613607816131b8565b91506020830135613267816131b8565b5f60208284031215613627575f5ffd5b5051919050565b634e487b7160e01b5f52601160045260245ffd5b818103818111156108605761086061362e565b600181811c9082168061366957607f821691505b60208210810361368757634e487b7160e01b5f52602260045260245ffd5b50919050565b60ff81811683821601908111156108605761086061362e565b808201808211156108605761086061362e565b6001600160a01b039390931683526020830191909152604082015260600190565b63ffffffff81811683821601908111156108605761086061362e565b634e487b7160e01b5f52601260045260245ffd5b5f6020828403121561371a575f5ffd5b813560ff81168114610a73575f5ffd5b5f63ffffffff821663ffffffff81036137455761374561362e565b60010192915050565b5f60ff83168061376c57634e487b7160e01b5f52601260045260245ffd5b8060ff84160691505092915050565b601f821115610b2b57805f5260205f20601f840160051c810160208510156137a05750805b601f840160051c820191505b8181101561291f575f81556001016137ac565b815167ffffffffffffffff8111156137d9576137d96132fc565b6137ed816137e78454613655565b8461377b565b6020601f82116001811461381f575f83156138085750848201515b5f19600385901b1c1916600184901b17845561291f565b5f84815260208120601f198516915b8281101561384e578785015182556020948501946001909201910161382e565b508482101561386b57868401515f19600387901b60f8161c191681555b50505050600190811b01905550565b634e487b7160e01b5f52600160045260245ffd5b5f82518060208501845e5f92019182525091905056fe52c63247e1f47db19d5ce0460030c497f067ca4cebf71ba98eeadabe20bace0002dd7bc7dec4dceedda775e58dd541e08a116c6c53815c0bd028192f7b626800cd5ed15c6e187e77e9aee88184c21f4f2182ab5827cb3b7e07fbedcd63f033009b779b17422d0df92223018b32b4d1fa46e071723d6817e2486d003becc55f00a26469706673582212202047fafaf99daf967b5876e5cc9fa8f1049dcc917ef810837327eca6079529b764736f6c634300081e0033","opcodes":"PUSH1 0x80 PUSH1 0x40 MSTORE PUSH1 0x4 DUP1 SLOAD PUSH4 0xFFFFFFFF NOT AND SWAP1 SSTORE PUSH1 0xFA PUSH1 0xB DUP2 SWAP1 SSTORE PUSH1 0xC SSTORE PUSH0 PUSH1 0xD SSTORE CALLVALUE DUP1 ISZERO PUSH1 0x29 JUMPI PUSH0 PUSH0 REVERT JUMPDEST POP PUSH1 0x30 PUSH1 0x34 JUMP JUMPDEST PUSH1 0xE4 JUMP JUMPDEST PUSH32 0xF0C57E16840DF040F15088DC2F81FE391C3923BEC73E23A9662EFC9C229C6A00 DUP1 SLOAD PUSH9 0x10000000000000000 SWAP1 DIV PUSH1 0xFF AND ISZERO PUSH1 0x83 JUMPI PUSH1 0x40 MLOAD PUSH4 0xF92EE8A9 PUSH1 0xE0 SHL DUP2 MSTORE PUSH1 0x4 ADD PUSH1 0x40 MLOAD DUP1 SWAP2 SUB SWAP1 REVERT JUMPDEST DUP1 SLOAD PUSH1 0x1 PUSH1 0x1 PUSH1 0x40 SHL SUB SWAP1 DUP2 AND EQ PUSH1 0xE1 JUMPI DUP1 SLOAD PUSH1 0x1 PUSH1 0x1 PUSH1 0x40 SHL SUB NOT AND PUSH1 0x1 PUSH1 0x1 PUSH1 0x40 SHL SUB SWAP1 DUP2 OR DUP3 SSTORE PUSH1 0x40 MLOAD SWAP1 DUP2 MSTORE PUSH32 0xC7F505B2F371AE2175EE4913F4499E1F2633A7B5936321EED1CDAEB6115181D2 SWAP1 PUSH1 0x20 ADD PUSH1 0x40 MLOAD DUP1 SWAP2 SUB SWAP1 LOG1 JUMPDEST POP JUMP JUMPDEST PUSH2 0x395A DUP1 PUSH2 0xF1 PUSH0 CODECOPY PUSH0 RETURN INVALID PUSH1 0x80 PUSH1 0x40 MSTORE CALLVALUE DUP1 ISZERO PUSH2 0xF JUMPI PUSH0 PUSH0 REVERT JUMPDEST POP PUSH1 0x4 CALLDATASIZE LT PUSH2 0x393 JUMPI PUSH0 CALLDATALOAD PUSH1 0xE0 SHR DUP1 PUSH4 0x6E553F65 GT PUSH2 0x1DF JUMPI DUP1 PUSH4 0xC6E6F592 GT PUSH2 0x109 JUMPI DUP1 PUSH4 0xDD5967C3 GT PUSH2 0xA9 JUMPI DUP1 PUSH4 0xED9DBCED GT PUSH2 0x79 JUMPI DUP1 PUSH4 0xED9DBCED EQ PUSH2 0x760 JUMPI DUP1 PUSH4 0xEF8B30F7 EQ PUSH2 0x6B4 JUMPI DUP1 PUSH4 0xF2FDE38B EQ PUSH2 0x773 JUMPI DUP1 PUSH4 0xF851A440 EQ PUSH2 0x786 JUMPI PUSH0 PUSH0 REVERT JUMPDEST DUP1 PUSH4 0xDD5967C3 EQ PUSH2 0x732 JUMPI DUP1 PUSH4 0xDD62ED3E EQ PUSH2 0x73B JUMPI DUP1 PUSH4 0xE1E158A5 EQ PUSH2 0x74E JUMPI DUP1 PUSH4 0xE3275EB0 EQ PUSH2 0x757 JUMPI PUSH0 PUSH0 REVERT JUMPDEST DUP1 PUSH4 0xCFD7AB91 GT PUSH2 0xE4 JUMPI DUP1 PUSH4 0xCFD7AB91 EQ PUSH2 0x6FA JUMPI DUP1 PUSH4 0xD2D8CB67 EQ PUSH2 0x703 JUMPI DUP1 PUSH4 0xD547741F EQ PUSH2 0x70C JUMPI DUP1 PUSH4 0xD905777E EQ PUSH2 0x71F JUMPI PUSH0 PUSH0 REVERT JUMPDEST DUP1 PUSH4 0xC6E6F592 EQ PUSH2 0x6B4 JUMPI DUP1 PUSH4 0xCC3D967B EQ PUSH2 0x6C7 JUMPI DUP1 PUSH4 0xCE96CB77 EQ PUSH2 0x6E7 JUMPI PUSH0 PUSH0 REVERT JUMPDEST DUP1 PUSH4 0x98B78A4B GT PUSH2 0x17F JUMPI DUP1 PUSH4 0xB422271F GT PUSH2 0x14F JUMPI DUP1 PUSH4 0xB422271F EQ PUSH2 0x667 JUMPI DUP1 PUSH4 0xB460AF94 EQ PUSH2 0x67A JUMPI DUP1 PUSH4 0xBA087652 EQ PUSH2 0x68D JUMPI DUP1 PUSH4 0xC63D75B6 EQ PUSH2 0x6A0 JUMPI PUSH0 PUSH0 REVERT JUMPDEST DUP1 PUSH4 0x98B78A4B EQ PUSH2 0x631 JUMPI DUP1 PUSH4 0xA217FDDF EQ PUSH2 0x63A JUMPI DUP1 PUSH4 0xA9059CBB EQ PUSH2 0x641 JUMPI DUP1 PUSH4 0xB3D7F6B9 EQ PUSH2 0x654 JUMPI PUSH0 PUSH0 REVERT JUMPDEST DUP1 PUSH4 0x850D9AFB GT PUSH2 0x1BA JUMPI DUP1 PUSH4 0x850D9AFB EQ PUSH2 0x5FA JUMPI DUP1 PUSH4 0x91D14854 EQ PUSH2 0x603 JUMPI DUP1 PUSH4 0x94BF804D EQ PUSH2 0x616 JUMPI DUP1 PUSH4 0x95D89B41 EQ PUSH2 0x629 JUMPI PUSH0 PUSH0 REVERT JUMPDEST DUP1 PUSH4 0x6E553F65 EQ PUSH2 0x5CC JUMPI DUP1 PUSH4 0x70A08231 EQ PUSH2 0x5DF JUMPI DUP1 PUSH4 0x8456CB59 EQ PUSH2 0x5F2 JUMPI PUSH0 PUSH0 REVERT JUMPDEST DUP1 PUSH4 0x36568ABE GT PUSH2 0x2C0 JUMPI DUP1 PUSH4 0x4BD0C2D8 GT PUSH2 0x260 JUMPI DUP1 PUSH4 0x57376198 GT PUSH2 0x230 JUMPI DUP1 PUSH4 0x57376198 EQ PUSH2 0x57C JUMPI DUP1 PUSH4 0x5C975ABB EQ PUSH2 0x58F JUMPI DUP1 PUSH4 0x5F04C5E4 EQ PUSH2 0x5A6 JUMPI DUP1 PUSH4 0x6549C503 EQ PUSH2 0x5B9 JUMPI PUSH0 PUSH0 REVERT JUMPDEST DUP1 PUSH4 0x4BD0C2D8 EQ PUSH2 0x558 JUMPI DUP1 PUSH4 0x4CDAD506 EQ PUSH2 0x3EA JUMPI DUP1 PUSH4 0x4E71D92D EQ PUSH2 0x56B JUMPI DUP1 PUSH4 0x571E1C68 EQ PUSH2 0x573 JUMPI PUSH0 PUSH0 REVERT JUMPDEST DUP1 PUSH4 0x3C37475E GT PUSH2 0x29B JUMPI DUP1 PUSH4 0x3C37475E EQ PUSH2 0x512 JUMPI DUP1 PUSH4 0x3F4BA83A EQ PUSH2 0x534 JUMPI DUP1 PUSH4 0x402D267D EQ PUSH2 0x53C JUMPI DUP1 PUSH4 0x428A8BAD EQ PUSH2 0x54F JUMPI PUSH0 PUSH0 REVERT JUMPDEST DUP1 PUSH4 0x36568ABE EQ PUSH2 0x4EE JUMPI DUP1 PUSH4 0x38D52E0F EQ PUSH2 0x501 JUMPI DUP1 PUSH4 0x3BC64D2B EQ PUSH2 0x509 JUMPI PUSH0 PUSH0 REVERT JUMPDEST DUP1 PUSH4 0x18160DDD GT PUSH2 0x336 JUMPI DUP1 PUSH4 0x2688EAD8 GT PUSH2 0x306 JUMPI DUP1 PUSH4 0x2688EAD8 EQ PUSH2 0x4AF JUMPI DUP1 PUSH4 0x2F2FF15D EQ PUSH2 0x4B8 JUMPI DUP1 PUSH4 0x313CE567 EQ PUSH2 0x4CB JUMPI DUP1 PUSH4 0x33ACD652 EQ PUSH2 0x4E5 JUMPI PUSH0 PUSH0 REVERT JUMPDEST DUP1 PUSH4 0x18160DDD EQ PUSH2 0x438 JUMPI DUP1 PUSH4 0x19DCD884 EQ PUSH2 0x45F JUMPI DUP1 PUSH4 0x23B872DD EQ PUSH2 0x489 JUMPI DUP1 PUSH4 0x248A9CA3 EQ PUSH2 0x49C JUMPI PUSH0 PUSH0 REVERT JUMPDEST DUP1 PUSH4 0x7A2D13A GT PUSH2 0x371 JUMPI DUP1 PUSH4 0x7A2D13A EQ PUSH2 0x3EA JUMPI DUP1 PUSH4 0x95EA7B3 EQ PUSH2 0x3FD JUMPI DUP1 PUSH4 0xA28A477 EQ PUSH2 0x410 JUMPI DUP1 PUSH4 0x155DD5EE EQ PUSH2 0x423 JUMPI PUSH0 PUSH0 REVERT JUMPDEST DUP1 PUSH4 0x1E1D114 EQ PUSH2 0x397 JUMPI DUP1 PUSH4 0x1FFC9A7 EQ PUSH2 0x3B2 JUMPI DUP1 PUSH4 0x6FDDE03 EQ PUSH2 0x3D5 JUMPI JUMPDEST PUSH0 PUSH0 REVERT JUMPDEST PUSH2 0x39F PUSH2 0x799 JUMP JUMPDEST PUSH1 0x40 MLOAD SWAP1 DUP2 MSTORE PUSH1 0x20 ADD JUMPDEST PUSH1 0x40 MLOAD DUP1 SWAP2 SUB SWAP1 RETURN JUMPDEST PUSH2 0x3C5 PUSH2 0x3C0 CALLDATASIZE PUSH1 0x4 PUSH2 0x3145 JUMP JUMPDEST PUSH2 0x830 JUMP JUMPDEST PUSH1 0x40 MLOAD SWAP1 ISZERO ISZERO DUP2 MSTORE PUSH1 0x20 ADD PUSH2 0x3A9 JUMP JUMPDEST PUSH2 0x3DD PUSH2 0x866 JUMP JUMPDEST PUSH1 0x40 MLOAD PUSH2 0x3A9 SWAP2 SWAP1 PUSH2 0x316C JUMP JUMPDEST PUSH2 0x39F PUSH2 0x3F8 CALLDATASIZE PUSH1 0x4 PUSH2 0x31A1 JUMP JUMPDEST PUSH2 0x926 JUMP JUMPDEST PUSH2 0x3C5 PUSH2 0x40B CALLDATASIZE PUSH1 0x4 PUSH2 0x31DC JUMP JUMPDEST PUSH2 0x931 JUMP JUMPDEST PUSH2 0x39F PUSH2 0x41E CALLDATASIZE PUSH1 0x4 PUSH2 0x31A1 JUMP JUMPDEST PUSH2 0x948 JUMP JUMPDEST PUSH2 0x436 PUSH2 0x431 CALLDATASIZE PUSH1 0x4 PUSH2 0x31A1 JUMP JUMPDEST PUSH2 0x954 JUMP JUMPDEST STOP JUMPDEST PUSH32 0x52C63247E1F47DB19D5CE0460030C497F067CA4CEBF71BA98EEADABE20BACE02 SLOAD PUSH2 0x39F JUMP JUMPDEST PUSH0 SLOAD PUSH2 0x471 SWAP1 PUSH1 0x1 PUSH1 0x1 PUSH1 0xA0 SHL SUB AND DUP2 JUMP JUMPDEST PUSH1 0x40 MLOAD PUSH1 0x1 PUSH1 0x1 PUSH1 0xA0 SHL SUB SWAP1 SWAP2 AND DUP2 MSTORE PUSH1 0x20 ADD PUSH2 0x3A9 JUMP JUMPDEST PUSH2 0x3C5 PUSH2 0x497 CALLDATASIZE PUSH1 0x4 PUSH2 0x3206 JUMP JUMPDEST PUSH2 0xA55 JUMP JUMPDEST PUSH2 0x39F PUSH2 0x4AA CALLDATASIZE PUSH1 0x4 PUSH2 0x31A1 JUMP JUMPDEST PUSH2 0xA7A JUMP JUMPDEST PUSH2 0x39F PUSH1 0xF SLOAD DUP2 JUMP JUMPDEST PUSH2 0x436 PUSH2 0x4C6 CALLDATASIZE PUSH1 0x4 PUSH2 0x3244 JUMP JUMPDEST PUSH2 0xA9A JUMP JUMPDEST PUSH2 0x4D3 PUSH2 0xABC JUMP JUMPDEST PUSH1 0x40 MLOAD PUSH1 0xFF SWAP1 SWAP2 AND DUP2 MSTORE PUSH1 0x20 ADD PUSH2 0x3A9 JUMP JUMPDEST PUSH2 0x39F PUSH1 0xA SLOAD DUP2 JUMP JUMPDEST PUSH2 0x436 PUSH2 0x4FC CALLDATASIZE PUSH1 0x4 PUSH2 0x3244 JUMP JUMPDEST PUSH2 0xAF8 JUMP JUMPDEST PUSH2 0x471 PUSH2 0xB30 JUMP JUMPDEST PUSH2 0x39F PUSH1 0x1 SLOAD DUP2 JUMP JUMPDEST PUSH1 0x4 SLOAD PUSH2 0x527 SWAP1 PUSH5 0x100000000 SWAP1 DIV PUSH1 0xFF AND DUP2 JUMP JUMPDEST PUSH1 0x40 MLOAD PUSH2 0x3A9 SWAP2 SWAP1 PUSH2 0x3286 JUMP JUMPDEST PUSH2 0x436 PUSH2 0xB5E JUMP JUMPDEST PUSH2 0x39F PUSH2 0x54A CALLDATASIZE PUSH1 0x4 PUSH2 0x32AC JUMP JUMPDEST PUSH2 0xB70 JUMP JUMPDEST PUSH2 0x39F PUSH1 0xD SLOAD DUP2 JUMP JUMPDEST PUSH2 0x39F PUSH2 0x566 CALLDATASIZE PUSH1 0x4 PUSH2 0x32AC JUMP JUMPDEST PUSH2 0xBC4 JUMP JUMPDEST PUSH2 0x436 PUSH2 0xBCE JUMP JUMPDEST PUSH2 0x39F PUSH1 0xB SLOAD DUP2 JUMP JUMPDEST PUSH2 0x436 PUSH2 0x58A CALLDATASIZE PUSH1 0x4 PUSH2 0x31DC JUMP JUMPDEST PUSH2 0xCD6 JUMP JUMPDEST PUSH0 MLOAD PUSH1 0x20 PUSH2 0x38E5 PUSH0 CODECOPY PUSH0 MLOAD SWAP1 PUSH0 MSTORE SLOAD PUSH1 0xFF AND PUSH2 0x3C5 JUMP JUMPDEST PUSH2 0x39F PUSH2 0x5B4 CALLDATASIZE PUSH1 0x4 PUSH2 0x32C7 JUMP JUMPDEST PUSH2 0xDFB JUMP JUMPDEST PUSH2 0x436 PUSH2 0x5C7 CALLDATASIZE PUSH1 0x4 PUSH2 0x33D3 JUMP JUMPDEST PUSH2 0x108F JUMP JUMPDEST PUSH2 0x39F PUSH2 0x5DA CALLDATASIZE PUSH1 0x4 PUSH2 0x3244 JUMP JUMPDEST PUSH2 0x13B7 JUMP JUMPDEST PUSH2 0x39F PUSH2 0x5ED CALLDATASIZE PUSH1 0x4 PUSH2 0x32AC JUMP JUMPDEST PUSH2 0x1624 JUMP JUMPDEST PUSH2 0x436 PUSH2 0x164A JUMP JUMPDEST PUSH2 0x39F PUSH1 0x8 SLOAD DUP2 JUMP JUMPDEST PUSH2 0x3C5 PUSH2 0x611 CALLDATASIZE PUSH1 0x4 PUSH2 0x3244 JUMP JUMPDEST PUSH2 0x165C JUMP JUMPDEST PUSH2 0x39F PUSH2 0x624 CALLDATASIZE PUSH1 0x4 PUSH2 0x3244 JUMP JUMPDEST PUSH2 0x1692 JUMP JUMPDEST PUSH2 0x3DD PUSH2 0x16B5 JUMP JUMPDEST PUSH2 0x39F PUSH1 0xC SLOAD DUP2 JUMP JUMPDEST PUSH2 0x39F PUSH0 DUP2 JUMP JUMPDEST PUSH2 0x3C5 PUSH2 0x64F CALLDATASIZE PUSH1 0x4 PUSH2 0x31DC JUMP JUMPDEST PUSH2 0x16F3 JUMP JUMPDEST PUSH2 0x39F PUSH2 0x662 CALLDATASIZE PUSH1 0x4 PUSH2 0x31A1 JUMP JUMPDEST PUSH2 0x1700 JUMP JUMPDEST PUSH2 0x3C5 PUSH2 0x675 CALLDATASIZE PUSH1 0x4 PUSH2 0x3244 JUMP JUMPDEST PUSH2 0x170C JUMP JUMPDEST PUSH2 0x39F PUSH2 0x688 CALLDATASIZE PUSH1 0x4 PUSH2 0x3513 JUMP JUMPDEST PUSH2 0x194A JUMP JUMPDEST PUSH2 0x39F PUSH2 0x69B CALLDATASIZE PUSH1 0x4 PUSH2 0x3513 JUMP JUMPDEST PUSH2 0x1A36 JUMP JUMPDEST PUSH2 0x39F PUSH2 0x6AE CALLDATASIZE PUSH1 0x4 PUSH2 0x32AC JUMP JUMPDEST POP PUSH0 NOT SWAP1 JUMP JUMPDEST PUSH2 0x39F PUSH2 0x6C2 CALLDATASIZE PUSH1 0x4 PUSH2 0x31A1 JUMP JUMPDEST PUSH2 0x1AF4 JUMP JUMPDEST PUSH2 0x6DA PUSH2 0x6D5 CALLDATASIZE PUSH1 0x4 PUSH2 0x32AC JUMP JUMPDEST PUSH2 0x1AFF JUMP JUMPDEST PUSH1 0x40 MLOAD PUSH2 0x3A9 SWAP2 SWAP1 PUSH2 0x3552 JUMP JUMPDEST PUSH2 0x39F PUSH2 0x6F5 CALLDATASIZE PUSH1 0x4 PUSH2 0x32AC JUMP JUMPDEST PUSH2 0x1BEC JUMP JUMPDEST PUSH2 0x39F PUSH1 0x7 SLOAD DUP2 JUMP JUMPDEST PUSH2 0x39F PUSH1 0x5 SLOAD DUP2 JUMP JUMPDEST PUSH2 0x436 PUSH2 0x71A CALLDATASIZE PUSH1 0x4 PUSH2 0x3244 JUMP JUMPDEST PUSH2 0x1BFF JUMP JUMPDEST PUSH2 0x39F PUSH2 0x72D CALLDATASIZE PUSH1 0x4 PUSH2 0x32AC JUMP JUMPDEST PUSH2 0x1C1B JUMP JUMPDEST PUSH2 0x39F PUSH1 0x3 SLOAD DUP2 JUMP JUMPDEST PUSH2 0x39F PUSH2 0x749 CALLDATASIZE PUSH1 0x4 PUSH2 0x35EB JUMP JUMPDEST PUSH2 0x1C25 JUMP JUMPDEST PUSH2 0x39F PUSH1 0x2 SLOAD DUP2 JUMP JUMPDEST PUSH2 0x39F PUSH1 0x9 SLOAD DUP2 JUMP JUMPDEST PUSH2 0x39F PUSH2 0x76E CALLDATASIZE PUSH1 0x4 PUSH2 0x32AC JUMP JUMPDEST PUSH2 0x1C6E JUMP JUMPDEST PUSH2 0x436 PUSH2 0x781 CALLDATASIZE PUSH1 0x4 PUSH2 0x32AC JUMP JUMPDEST PUSH2 0x1CA8 JUMP JUMPDEST PUSH1 0x6 SLOAD PUSH2 0x471 SWAP1 PUSH1 0x1 PUSH1 0x1 PUSH1 0xA0 SHL SUB AND DUP2 JUMP JUMPDEST PUSH0 PUSH0 PUSH2 0x7A3 PUSH2 0xB30 JUMP JUMPDEST PUSH1 0x40 MLOAD PUSH4 0x70A08231 PUSH1 0xE0 SHL DUP2 MSTORE ADDRESS PUSH1 0x4 DUP3 ADD MSTORE PUSH1 0x1 PUSH1 0x1 PUSH1 0xA0 SHL SUB SWAP2 SWAP1 SWAP2 AND SWAP1 PUSH4 0x70A08231 SWAP1 PUSH1 0x24 ADD PUSH1 0x20 PUSH1 0x40 MLOAD DUP1 DUP4 SUB DUP2 DUP7 GAS STATICCALL ISZERO DUP1 ISZERO PUSH2 0x7E7 JUMPI RETURNDATASIZE PUSH0 PUSH0 RETURNDATACOPY RETURNDATASIZE PUSH0 REVERT JUMPDEST POP POP POP POP PUSH1 0x40 MLOAD RETURNDATASIZE PUSH1 0x1F NOT PUSH1 0x1F DUP3 ADD AND DUP3 ADD DUP1 PUSH1 0x40 MSTORE POP DUP2 ADD SWAP1 PUSH2 0x80B SWAP2 SWAP1 PUSH2 0x3617 JUMP JUMPDEST SWAP1 POP PUSH1 0xE SLOAD DUP2 GT PUSH2 0x81D JUMPI PUSH0 SWAP2 POP POP SWAP1 JUMP JUMPDEST PUSH1 0xE SLOAD PUSH2 0x82A SWAP1 DUP3 PUSH2 0x3642 JUMP JUMPDEST SWAP2 POP POP SWAP1 JUMP JUMPDEST PUSH0 PUSH1 0x1 PUSH1 0x1 PUSH1 0xE0 SHL SUB NOT DUP3 AND PUSH4 0x7965DB0B PUSH1 0xE0 SHL EQ DUP1 PUSH2 0x860 JUMPI POP PUSH4 0x1FFC9A7 PUSH1 0xE0 SHL PUSH1 0x1 PUSH1 0x1 PUSH1 0xE0 SHL SUB NOT DUP4 AND EQ JUMPDEST SWAP3 SWAP2 POP POP JUMP JUMPDEST PUSH32 0x52C63247E1F47DB19D5CE0460030C497F067CA4CEBF71BA98EEADABE20BACE03 DUP1 SLOAD PUSH1 0x60 SWAP2 PUSH0 MLOAD PUSH1 0x20 PUSH2 0x38A5 PUSH0 CODECOPY PUSH0 MLOAD SWAP1 PUSH0 MSTORE SWAP2 PUSH2 0x8A4 SWAP1 PUSH2 0x3655 JUMP JUMPDEST DUP1 PUSH1 0x1F ADD PUSH1 0x20 DUP1 SWAP2 DIV MUL PUSH1 0x20 ADD PUSH1 0x40 MLOAD SWAP1 DUP2 ADD PUSH1 0x40 MSTORE DUP1 SWAP3 SWAP2 SWAP1 DUP2 DUP2 MSTORE PUSH1 0x20 ADD DUP3 DUP1 SLOAD PUSH2 0x8D0 SWAP1 PUSH2 0x3655 JUMP JUMPDEST DUP1 ISZERO PUSH2 0x91B JUMPI DUP1 PUSH1 0x1F LT PUSH2 0x8F2 JUMPI PUSH2 0x100 DUP1 DUP4 SLOAD DIV MUL DUP4 MSTORE SWAP2 PUSH1 0x20 ADD SWAP2 PUSH2 0x91B JUMP JUMPDEST DUP3 ADD SWAP2 SWAP1 PUSH0 MSTORE PUSH1 0x20 PUSH0 KECCAK256 SWAP1 JUMPDEST DUP2 SLOAD DUP2 MSTORE SWAP1 PUSH1 0x1 ADD SWAP1 PUSH1 0x20 ADD DUP1 DUP4 GT PUSH2 0x8FE JUMPI DUP3 SWAP1 SUB PUSH1 0x1F AND DUP3 ADD SWAP2 JUMPDEST POP POP POP POP POP SWAP2 POP POP SWAP1 JUMP JUMPDEST PUSH0 PUSH2 0x860 DUP3 PUSH0 PUSH2 0x1DD8 JUMP JUMPDEST PUSH0 CALLER PUSH2 0x93E DUP2 DUP6 DUP6 PUSH2 0x1DEF JUMP JUMPDEST POP PUSH1 0x1 SWAP4 SWAP3 POP POP POP JUMP JUMPDEST PUSH0 PUSH2 0x860 DUP3 PUSH1 0x1 PUSH2 0x1DFC JUMP JUMPDEST PUSH2 0x95C PUSH2 0x1E13 JUMP JUMPDEST PUSH2 0x964 PUSH2 0x1E4A JUMP JUMPDEST PUSH0 PUSH2 0x96E DUP2 PUSH2 0x1E7A JUMP JUMPDEST PUSH1 0x8 SLOAD TIMESTAMP LT DUP1 ISZERO PUSH2 0x982 JUMPI POP PUSH1 0x1 SLOAD PUSH1 0xD SLOAD LT JUMPDEST ISZERO PUSH2 0x9A0 JUMPI PUSH1 0x40 MLOAD PUSH4 0xAC3270F PUSH1 0xE4 SHL DUP2 MSTORE PUSH1 0x4 ADD PUSH1 0x40 MLOAD DUP1 SWAP2 SUB SWAP1 REVERT JUMPDEST DUP2 PUSH0 SUB PUSH2 0x9C0 JUMPI PUSH1 0x40 MLOAD PUSH4 0x26753BB5 PUSH1 0xE1 SHL DUP2 MSTORE PUSH1 0x4 ADD PUSH1 0x40 MLOAD DUP1 SWAP2 SUB SWAP1 REVERT JUMPDEST PUSH2 0x9C8 PUSH2 0x799 JUMP JUMPDEST DUP3 GT ISZERO PUSH2 0x9E8 JUMPI PUSH1 0x40 MLOAD PUSH4 0x5462F71F PUSH1 0xE0 SHL DUP2 MSTORE PUSH1 0x4 ADD PUSH1 0x40 MLOAD DUP1 SWAP2 SUB SWAP1 REVERT JUMPDEST PUSH1 0x6 SLOAD PUSH2 0xA11 SWAP1 PUSH1 0x1 PUSH1 0x1 PUSH1 0xA0 SHL SUB AND DUP4 PUSH2 0xA01 PUSH2 0xB30 JUMP JUMPDEST PUSH1 0x1 PUSH1 0x1 PUSH1 0xA0 SHL SUB AND SWAP2 SWAP1 PUSH2 0x1E84 JUMP JUMPDEST PUSH1 0x40 MLOAD DUP3 SWAP1 PUSH32 0x5FAFC30B7C5090DC417458251E397AC4CFA3C5BE8195E2312894B18B125E1FC3 SWAP1 PUSH0 SWAP1 LOG2 POP PUSH2 0xA52 PUSH1 0x1 PUSH0 MLOAD PUSH1 0x20 PUSH2 0x3905 PUSH0 CODECOPY PUSH0 MLOAD SWAP1 PUSH0 MSTORE SSTORE JUMP JUMPDEST POP JUMP JUMPDEST PUSH0 CALLER PUSH2 0xA62 DUP6 DUP3 DUP6 PUSH2 0x1EF6 JUMP JUMPDEST PUSH2 0xA6D DUP6 DUP6 DUP6 PUSH2 0x1F41 JUMP JUMPDEST PUSH1 0x1 SWAP2 POP POP JUMPDEST SWAP4 SWAP3 POP POP POP JUMP JUMPDEST PUSH0 SWAP1 DUP2 MSTORE PUSH0 MLOAD PUSH1 0x20 PUSH2 0x38C5 PUSH0 CODECOPY PUSH0 MLOAD SWAP1 PUSH0 MSTORE PUSH1 0x20 MSTORE PUSH1 0x40 SWAP1 KECCAK256 PUSH1 0x1 ADD SLOAD SWAP1 JUMP JUMPDEST PUSH2 0xAA3 DUP3 PUSH2 0xA7A JUMP JUMPDEST PUSH2 0xAAC DUP2 PUSH2 0x1E7A JUMP JUMPDEST PUSH2 0xAB6 DUP4 DUP4 PUSH2 0x1F9E JUMP JUMPDEST POP POP POP POP JUMP JUMPDEST PUSH0 DUP1 PUSH32 0x773E532DFEDE91F04B12A73D3D2ACD361424F41F76B4FB79F090161E36B4E00 SWAP1 POP PUSH0 DUP2 SLOAD PUSH2 0x82A SWAP2 SWAP1 PUSH1 0x1 PUSH1 0xA0 SHL SWAP1 DIV PUSH1 0xFF AND PUSH2 0x368D JUMP JUMPDEST PUSH1 0x1 PUSH1 0x1 PUSH1 0xA0 SHL SUB DUP2 AND CALLER EQ PUSH2 0xB21 JUMPI PUSH1 0x40 MLOAD PUSH4 0x334BD919 PUSH1 0xE1 SHL DUP2 MSTORE PUSH1 0x4 ADD PUSH1 0x40 MLOAD DUP1 SWAP2 SUB SWAP1 REVERT JUMPDEST PUSH2 0xB2B DUP3 DUP3 PUSH2 0x203F JUMP JUMPDEST POP POP POP JUMP JUMPDEST PUSH32 0x773E532DFEDE91F04B12A73D3D2ACD361424F41F76B4FB79F090161E36B4E00 SLOAD PUSH1 0x1 PUSH1 0x1 PUSH1 0xA0 SHL SUB AND SWAP1 JUMP JUMPDEST PUSH0 PUSH2 0xB68 DUP2 PUSH2 0x1E7A JUMP JUMPDEST PUSH2 0xA52 PUSH2 0x20B8 JUMP JUMPDEST PUSH0 PUSH1 0x7 SLOAD TIMESTAMP LT DUP1 PUSH2 0xB82 JUMPI POP PUSH1 0x8 SLOAD TIMESTAMP GT JUMPDEST ISZERO PUSH2 0xB8E JUMPI POP PUSH0 SWAP2 SWAP1 POP JUMP JUMPDEST PUSH1 0x1 SLOAD PUSH1 0xD SLOAD LT PUSH2 0xBA0 JUMPI POP PUSH0 SWAP2 SWAP1 POP JUMP JUMPDEST PUSH0 PUSH1 0xD SLOAD PUSH1 0x1 SLOAD PUSH2 0xBB1 SWAP2 SWAP1 PUSH2 0x3642 JUMP JUMPDEST SWAP1 POP PUSH1 0x3 SLOAD DUP2 LT PUSH2 0x860 JUMPI PUSH1 0x3 SLOAD PUSH2 0xA73 JUMP JUMPDEST PUSH0 PUSH2 0x860 DUP3 PUSH2 0x2117 JUMP JUMPDEST PUSH2 0xBD6 PUSH2 0x1E13 JUMP JUMPDEST PUSH2 0xBDE PUSH2 0x1E4A JUMP JUMPDEST PUSH1 0x8 SLOAD TIMESTAMP LT DUP1 ISZERO PUSH2 0xBF2 JUMPI POP PUSH1 0x1 SLOAD PUSH1 0xD SLOAD LT JUMPDEST ISZERO PUSH2 0xC10 JUMPI PUSH1 0x40 MLOAD PUSH4 0xAC3270F PUSH1 0xE4 SHL DUP2 MSTORE PUSH1 0x4 ADD PUSH1 0x40 MLOAD DUP1 SWAP2 SUB SWAP1 REVERT JUMPDEST PUSH0 PUSH1 0x4 SLOAD PUSH5 0x100000000 SWAP1 DIV PUSH1 0xFF AND PUSH1 0x2 DUP2 GT ISZERO PUSH2 0xC30 JUMPI PUSH2 0xC30 PUSH2 0x3272 JUMP JUMPDEST EQ DUP1 ISZERO PUSH2 0xC3F JUMPI POP PUSH1 0x9 SLOAD TIMESTAMP LT ISZERO JUMPDEST ISZERO PUSH2 0xC51 JUMPI PUSH2 0xC4C PUSH2 0x2155 JUMP JUMPDEST PUSH2 0xCBE JUMP JUMPDEST PUSH1 0x1 PUSH1 0x4 SLOAD PUSH5 0x100000000 SWAP1 DIV PUSH1 0xFF AND PUSH1 0x2 DUP2 GT ISZERO PUSH2 0xC72 JUMPI PUSH2 0xC72 PUSH2 0x3272 JUMP JUMPDEST SUB PUSH2 0xC7F JUMPI PUSH2 0xC4C PUSH2 0x229A JUMP JUMPDEST PUSH1 0x2 PUSH1 0x4 SLOAD PUSH5 0x100000000 SWAP1 DIV PUSH1 0xFF AND PUSH1 0x2 DUP2 GT ISZERO PUSH2 0xCA0 JUMPI PUSH2 0xCA0 PUSH2 0x3272 JUMP JUMPDEST SUB PUSH2 0xCBE JUMPI PUSH1 0x9 SLOAD TIMESTAMP LT PUSH2 0xCB6 JUMPI PUSH2 0xC4C PUSH2 0x2155 JUMP JUMPDEST PUSH2 0xCBE PUSH2 0x229A JUMP JUMPDEST PUSH2 0xCD4 PUSH1 0x1 PUSH0 MLOAD PUSH1 0x20 PUSH2 0x3905 PUSH0 CODECOPY PUSH0 MLOAD SWAP1 PUSH0 MSTORE SSTORE JUMP JUMPDEST JUMP JUMPDEST PUSH0 PUSH2 0xCE0 DUP2 PUSH2 0x1E7A JUMP JUMPDEST PUSH1 0x1 PUSH1 0x1 PUSH1 0xA0 SHL SUB DUP4 AND PUSH2 0xD07 JUMPI PUSH1 0x40 MLOAD PUSH4 0x14F59773 PUSH1 0xE1 SHL DUP2 MSTORE PUSH1 0x4 ADD PUSH1 0x40 MLOAD DUP1 SWAP2 SUB SWAP1 REVERT JUMPDEST PUSH2 0xD0F PUSH2 0xB30 JUMP JUMPDEST PUSH1 0x1 PUSH1 0x1 PUSH1 0xA0 SHL SUB AND DUP4 PUSH1 0x1 PUSH1 0x1 PUSH1 0xA0 SHL SUB AND SUB PUSH2 0xD40 JUMPI PUSH1 0x40 MLOAD PUSH4 0x16ABF95D PUSH1 0xE3 SHL DUP2 MSTORE PUSH1 0x4 ADD PUSH1 0x40 MLOAD DUP1 SWAP2 SUB SWAP1 REVERT JUMPDEST DUP2 PUSH0 SUB PUSH2 0xD60 JUMPI PUSH1 0x40 MLOAD PUSH4 0x26753BB5 PUSH1 0xE1 SHL DUP2 MSTORE PUSH1 0x4 ADD PUSH1 0x40 MLOAD DUP1 SWAP2 SUB SWAP1 REVERT JUMPDEST PUSH1 0x40 MLOAD PUSH4 0x70A08231 PUSH1 0xE0 SHL DUP2 MSTORE ADDRESS PUSH1 0x4 DUP3 ADD MSTORE DUP3 SWAP1 PUSH1 0x1 PUSH1 0x1 PUSH1 0xA0 SHL SUB DUP6 AND SWAP1 PUSH4 0x70A08231 SWAP1 PUSH1 0x24 ADD PUSH1 0x20 PUSH1 0x40 MLOAD DUP1 DUP4 SUB DUP2 DUP7 GAS STATICCALL ISZERO DUP1 ISZERO PUSH2 0xDA4 JUMPI RETURNDATASIZE PUSH0 PUSH0 RETURNDATACOPY RETURNDATASIZE PUSH0 REVERT JUMPDEST POP POP POP POP PUSH1 0x40 MLOAD RETURNDATASIZE PUSH1 0x1F NOT PUSH1 0x1F DUP3 ADD AND DUP3 ADD DUP1 PUSH1 0x40 MSTORE POP DUP2 ADD SWAP1 PUSH2 0xDC8 SWAP2 SWAP1 PUSH2 0x3617 JUMP JUMPDEST LT ISZERO PUSH2 0xDE7 JUMPI PUSH1 0x40 MLOAD PUSH4 0x5462F71F PUSH1 0xE0 SHL DUP2 MSTORE PUSH1 0x4 ADD PUSH1 0x40 MLOAD DUP1 SWAP2 SUB SWAP1 REVERT JUMPDEST PUSH2 0xB2B PUSH1 0x1 PUSH1 0x1 PUSH1 0xA0 SHL SUB DUP5 AND CALLER DUP5 PUSH2 0x1E84 JUMP JUMPDEST PUSH0 PUSH2 0xE04 PUSH2 0x1E13 JUMP JUMPDEST PUSH2 0xE0C PUSH2 0x1E4A JUMP JUMPDEST PUSH1 0x7 SLOAD TIMESTAMP LT DUP1 PUSH2 0xE1D JUMPI POP PUSH1 0x8 SLOAD TIMESTAMP GT JUMPDEST DUP1 PUSH2 0xE2C JUMPI POP PUSH1 0x1 SLOAD PUSH1 0xD SLOAD LT ISZERO JUMPDEST ISZERO PUSH2 0xE4A JUMPI PUSH1 0x40 MLOAD PUSH4 0x3E8502DF PUSH1 0xE0 SHL DUP2 MSTORE PUSH1 0x4 ADD PUSH1 0x40 MLOAD DUP1 SWAP2 SUB SWAP1 REVERT JUMPDEST DUP3 PUSH0 SUB PUSH2 0xE6A JUMPI PUSH1 0x40 MLOAD PUSH4 0x26753BB5 PUSH1 0xE1 SHL DUP2 MSTORE PUSH1 0x4 ADD PUSH1 0x40 MLOAD DUP1 SWAP2 SUB SWAP1 REVERT JUMPDEST PUSH0 CALLER SWAP1 POP PUSH0 PUSH2 0xE7F DUP6 PUSH1 0xB SLOAD PUSH2 0x2710 PUSH0 PUSH2 0x23CB JUMP JUMPDEST SWAP1 POP PUSH0 PUSH2 0xE8C DUP3 DUP8 PUSH2 0x3642 JUMP JUMPDEST SWAP1 POP PUSH2 0xEA2 PUSH2 0xE99 PUSH2 0xB30 JUMP JUMPDEST DUP4 DUP9 DUP7 DUP10 PUSH2 0x2416 JUMP JUMPDEST PUSH1 0x60 DUP6 ADD CALLDATALOAD PUSH0 SWAP1 DUP2 MSTORE PUSH1 0x12 PUSH1 0x20 MSTORE PUSH1 0x40 SWAP1 KECCAK256 SLOAD PUSH1 0xFF AND ISZERO PUSH2 0xED6 JUMPI PUSH1 0x40 MLOAD PUSH4 0x31537F55 PUSH1 0xE2 SHL DUP2 MSTORE PUSH1 0x4 ADD PUSH1 0x40 MLOAD DUP1 SWAP2 SUB SWAP1 REVERT JUMPDEST PUSH1 0x2 SLOAD DUP2 LT ISZERO PUSH2 0xEF9 JUMPI PUSH1 0x40 MLOAD PUSH4 0xAC1E14E5 PUSH1 0xE0 SHL DUP2 MSTORE PUSH1 0x4 ADD PUSH1 0x40 MLOAD DUP1 SWAP2 SUB SWAP1 REVERT JUMPDEST PUSH1 0x1 SLOAD DUP2 PUSH1 0xD SLOAD PUSH2 0xF0A SWAP2 SWAP1 PUSH2 0x36A6 JUMP JUMPDEST GT ISZERO PUSH2 0xF29 JUMPI PUSH1 0x40 MLOAD PUSH4 0x17C06049 PUSH1 0xE3 SHL DUP2 MSTORE PUSH1 0x4 ADD PUSH1 0x40 MLOAD DUP1 SWAP2 SUB SWAP1 REVERT JUMPDEST PUSH0 PUSH2 0xF33 DUP5 PUSH2 0xB70 JUMP JUMPDEST SWAP1 POP DUP1 DUP3 GT ISZERO PUSH2 0xF65 JUMPI DUP4 DUP3 DUP3 PUSH1 0x40 MLOAD PUSH4 0x3C8097D9 PUSH1 0xE1 SHL DUP2 MSTORE PUSH1 0x4 ADD PUSH2 0xF5C SWAP4 SWAP3 SWAP2 SWAP1 PUSH2 0x36B9 JUMP JUMPDEST PUSH1 0x40 MLOAD DUP1 SWAP2 SUB SWAP1 REVERT JUMPDEST PUSH0 PUSH2 0xF70 DUP4 PUSH0 PUSH2 0x1DFC JUMP JUMPDEST SWAP1 POP PUSH2 0xF7C DUP6 DUP3 PUSH2 0x252C JUMP JUMPDEST PUSH1 0x60 DUP8 ADD CALLDATALOAD PUSH0 SWAP1 DUP2 MSTORE PUSH1 0x12 PUSH1 0x20 MSTORE PUSH1 0x40 DUP2 KECCAK256 DUP1 SLOAD PUSH1 0xFF NOT AND PUSH1 0x1 OR SWAP1 SSTORE PUSH1 0xD DUP1 SLOAD DUP6 SWAP3 SWAP1 PUSH2 0xFAB SWAP1 DUP5 SWAP1 PUSH2 0x36A6 JUMP JUMPDEST SWAP1 SWAP2 SSTORE POP POP PUSH1 0x1 PUSH1 0x1 PUSH1 0xA0 SHL SUB DUP6 AND PUSH0 DUP2 DUP2 MSTORE PUSH1 0x11 PUSH1 0x20 DUP2 DUP2 MSTORE PUSH1 0x40 DUP1 DUP5 KECCAK256 DUP2 MLOAD PUSH1 0x60 DUP2 ADD DUP4 MSTORE DUP10 DUP2 MSTORE DUP1 DUP5 ADD DUP9 DUP2 MSTORE TIMESTAMP SWAP4 DUP3 ADD SWAP4 DUP5 MSTORE DUP3 SLOAD PUSH1 0x1 DUP2 DUP2 ADD DUP6 SSTORE DUP5 DUP10 MSTORE DUP7 DUP10 KECCAK256 SWAP4 MLOAD PUSH1 0x3 SWAP1 SWAP3 MUL SWAP1 SWAP4 ADD SWAP1 DUP2 SSTORE SWAP1 MLOAD DUP2 DUP4 ADD SSTORE SWAP3 MLOAD PUSH1 0x2 SWAP1 SWAP4 ADD SWAP3 SWAP1 SWAP3 SSTORE SWAP5 DUP5 MSTORE SWAP2 SWAP1 MSTORE SWAP1 SWAP2 ADD DUP1 SLOAD DUP4 SWAP3 SWAP1 PUSH2 0x1028 SWAP1 DUP5 SWAP1 PUSH2 0x36A6 JUMP JUMPDEST SWAP1 SWAP2 SSTORE POP POP PUSH1 0x40 DUP1 MLOAD DUP5 DUP2 MSTORE PUSH1 0x20 DUP2 ADD DUP4 SWAP1 MSTORE PUSH1 0x1 PUSH1 0x1 PUSH1 0xA0 SHL SUB DUP8 AND SWAP2 DUP3 SWAP2 PUSH32 0xDCBC1C05240F31FF3AD067EF1EE35CE4997762752E3A095284754544F4C709D7 SWAP2 ADD PUSH1 0x40 MLOAD DUP1 SWAP2 SUB SWAP1 LOG3 SWAP5 POP POP POP POP POP PUSH2 0x860 PUSH1 0x1 PUSH0 MLOAD PUSH1 0x20 PUSH2 0x3905 PUSH0 CODECOPY PUSH0 MLOAD SWAP1 PUSH0 MSTORE SSTORE JUMP JUMPDEST PUSH0 PUSH2 0x1098 PUSH2 0x2564 JUMP JUMPDEST DUP1 SLOAD SWAP1 SWAP2 POP PUSH1 0xFF PUSH1 0x1 PUSH1 0x40 SHL DUP3 DIV AND ISZERO SWAP1 PUSH8 0xFFFFFFFFFFFFFFFF AND PUSH0 DUP2 ISZERO DUP1 ISZERO PUSH2 0x10BF JUMPI POP DUP3 JUMPDEST SWAP1 POP PUSH0 DUP3 PUSH8 0xFFFFFFFFFFFFFFFF AND PUSH1 0x1 EQ DUP1 ISZERO PUSH2 0x10DB JUMPI POP ADDRESS EXTCODESIZE ISZERO JUMPDEST SWAP1 POP DUP2 ISZERO DUP1 ISZERO PUSH2 0x10E9 JUMPI POP DUP1 ISZERO JUMPDEST ISZERO PUSH2 0x1107 JUMPI PUSH1 0x40 MLOAD PUSH4 0xF92EE8A9 PUSH1 0xE0 SHL DUP2 MSTORE PUSH1 0x4 ADD PUSH1 0x40 MLOAD DUP1 SWAP2 SUB SWAP1 REVERT JUMPDEST DUP5 SLOAD PUSH8 0xFFFFFFFFFFFFFFFF NOT AND PUSH1 0x1 OR DUP6 SSTORE DUP4 ISZERO PUSH2 0x1131 JUMPI DUP5 SLOAD PUSH1 0xFF PUSH1 0x40 SHL NOT AND PUSH1 0x1 PUSH1 0x40 SHL OR DUP6 SSTORE JUMPDEST PUSH2 0x113E DUP7 PUSH1 0x80 ADD MLOAD PUSH2 0x258C JUMP JUMPDEST PUSH2 0x1150 DUP7 PUSH1 0x40 ADD MLOAD DUP8 PUSH1 0x60 ADD MLOAD PUSH2 0x259D JUMP JUMPDEST PUSH2 0x1158 PUSH2 0x25AF JUMP JUMPDEST PUSH2 0x1160 PUSH2 0x25BF JUMP JUMPDEST PUSH2 0x1168 PUSH2 0x25BF JUMP JUMPDEST DUP6 MLOAD PUSH1 0x1 PUSH1 0x1 PUSH1 0xA0 SHL SUB AND PUSH2 0x1190 JUMPI PUSH1 0x40 MLOAD PUSH4 0x14F59773 PUSH1 0xE1 SHL DUP2 MSTORE PUSH1 0x4 ADD PUSH1 0x40 MLOAD DUP1 SWAP2 SUB SWAP1 REVERT JUMPDEST PUSH1 0x20 DUP7 ADD MLOAD PUSH1 0x1 PUSH1 0x1 PUSH1 0xA0 SHL SUB AND PUSH2 0x11BB JUMPI PUSH1 0x40 MLOAD PUSH4 0x14F59773 PUSH1 0xE1 SHL DUP2 MSTORE PUSH1 0x4 ADD PUSH1 0x40 MLOAD DUP1 SWAP2 SUB SWAP1 REVERT JUMPDEST DUP6 PUSH2 0x120 ADD MLOAD DUP7 PUSH2 0x100 ADD MLOAD LT PUSH2 0x11E5 JUMPI PUSH1 0x40 MLOAD PUSH4 0x29C6F4C1 PUSH1 0xE0 SHL DUP2 MSTORE PUSH1 0x4 ADD PUSH1 0x40 MLOAD DUP1 SWAP2 SUB SWAP1 REVERT JUMPDEST DUP6 PUSH2 0x180 ADD MLOAD DUP7 PUSH2 0x120 ADD MLOAD LT PUSH2 0x120F JUMPI PUSH1 0x40 MLOAD PUSH4 0x389BD8F PUSH1 0xE4 SHL DUP2 MSTORE PUSH1 0x4 ADD PUSH1 0x40 MLOAD DUP1 SWAP2 SUB SWAP1 REVERT JUMPDEST DUP6 PUSH1 0xC0 ADD MLOAD PUSH0 SUB PUSH2 0x1233 JUMPI PUSH1 0x40 MLOAD PUSH4 0x47F46F01 PUSH1 0xE1 SHL DUP2 MSTORE PUSH1 0x4 ADD PUSH1 0x40 MLOAD DUP1 SWAP2 SUB SWAP1 REVERT JUMPDEST DUP6 PUSH1 0xC0 ADD MLOAD DUP7 PUSH1 0xE0 ADD MLOAD LT ISZERO PUSH2 0x125C JUMPI PUSH1 0x40 MLOAD PUSH4 0x84068B1 PUSH1 0xE3 SHL DUP2 MSTORE PUSH1 0x4 ADD PUSH1 0x40 MLOAD DUP1 SWAP2 SUB SWAP1 REVERT JUMPDEST DUP6 PUSH1 0xA0 ADD MLOAD PUSH0 SUB PUSH2 0x1280 JUMPI PUSH1 0x40 MLOAD PUSH4 0x6E29D8A5 PUSH1 0xE1 SHL DUP2 MSTORE PUSH1 0x4 ADD PUSH1 0x40 MLOAD DUP1 SWAP2 SUB SWAP1 REVERT JUMPDEST DUP6 PUSH2 0x140 ADD MLOAD PUSH0 SUB PUSH2 0x12A5 JUMPI PUSH1 0x40 MLOAD PUSH4 0x614FE199 PUSH1 0xE1 SHL DUP2 MSTORE PUSH1 0x4 ADD PUSH1 0x40 MLOAD DUP1 SWAP2 SUB SWAP1 REVERT JUMPDEST DUP6 MLOAD PUSH2 0x12B2 SWAP1 PUSH0 SWAP1 PUSH2 0x1F9E JUMP JUMPDEST POP DUP6 MLOAD PUSH1 0x6 DUP1 SLOAD PUSH1 0x1 PUSH1 0x1 PUSH1 0xA0 SHL SUB SWAP3 DUP4 AND PUSH1 0x1 PUSH1 0x1 PUSH1 0xA0 SHL SUB NOT SWAP2 DUP3 AND OR SWAP1 SWAP2 SSTORE PUSH1 0x20 DUP9 ADD MLOAD PUSH0 DUP1 SLOAD SWAP2 SWAP1 SWAP4 AND SWAP2 AND OR SWAP1 SSTORE PUSH1 0xA0 DUP7 ADD MLOAD PUSH1 0x1 SSTORE PUSH1 0xC0 DUP7 ADD MLOAD PUSH1 0x2 SWAP1 DUP2 SSTORE PUSH1 0xE0 DUP8 ADD MLOAD PUSH1 0x3 SSTORE PUSH2 0x140 DUP8 ADD MLOAD PUSH1 0x5 SSTORE PUSH2 0x100 DUP8 ADD MLOAD PUSH1 0x7 SSTORE PUSH2 0x120 DUP8 ADD MLOAD PUSH1 0x8 SSTORE PUSH2 0x180 DUP8 ADD MLOAD PUSH1 0x9 SSTORE PUSH2 0x1A0 DUP8 ADD MLOAD PUSH1 0xA SSTORE PUSH2 0x160 DUP8 ADD MLOAD PUSH1 0x4 DUP1 SLOAD SWAP2 SWAP3 SWAP1 SWAP2 PUSH5 0xFF00000000 NOT AND SWAP1 PUSH5 0x100000000 SWAP1 DUP5 SWAP1 DUP2 GT ISZERO PUSH2 0x135B JUMPI PUSH2 0x135B PUSH2 0x3272 JUMP JUMPDEST MUL OR SWAP1 SSTORE POP PUSH2 0x1C0 DUP7 ADD MLOAD PUSH1 0xF SSTORE DUP4 ISZERO PUSH2 0x13AF JUMPI DUP5 SLOAD PUSH1 0xFF PUSH1 0x40 SHL NOT AND DUP6 SSTORE PUSH1 0x40 MLOAD PUSH1 0x1 DUP2 MSTORE PUSH32 0xC7F505B2F371AE2175EE4913F4499E1F2633A7B5936321EED1CDAEB6115181D2 SWAP1 PUSH1 0x20 ADD PUSH1 0x40 MLOAD DUP1 SWAP2 SUB SWAP1 LOG1 JUMPDEST POP POP POP POP POP POP JUMP JUMPDEST PUSH0 PUSH2 0x13C0 PUSH2 0x1E13 JUMP JUMPDEST PUSH2 0x13C8 PUSH2 0x1E4A JUMP JUMPDEST PUSH1 0x7 SLOAD TIMESTAMP LT DUP1 PUSH2 0x13D9 JUMPI POP PUSH1 0x8 SLOAD TIMESTAMP GT JUMPDEST DUP1 PUSH2 0x13E8 JUMPI POP PUSH1 0x1 SLOAD PUSH1 0xD SLOAD LT ISZERO JUMPDEST ISZERO PUSH2 0x1406 JUMPI PUSH1 0x40 MLOAD PUSH4 0x3E8502DF PUSH1 0xE0 SHL DUP2 MSTORE PUSH1 0x4 ADD PUSH1 0x40 MLOAD DUP1 SWAP2 SUB SWAP1 REVERT JUMPDEST DUP3 PUSH0 SUB PUSH2 0x1426 JUMPI PUSH1 0x40 MLOAD PUSH4 0x26753BB5 PUSH1 0xE1 SHL DUP2 MSTORE PUSH1 0x4 ADD PUSH1 0x40 MLOAD DUP1 SWAP2 SUB SWAP1 REVERT JUMPDEST PUSH1 0x1 PUSH1 0x1 PUSH1 0xA0 SHL SUB DUP3 AND CALLER EQ PUSH2 0x144F JUMPI PUSH1 0x40 MLOAD PUSH4 0x162692A7 PUSH1 0xE0 SHL DUP2 MSTORE PUSH1 0x4 ADD PUSH1 0x40 MLOAD DUP1 SWAP2 SUB SWAP1 REVERT JUMPDEST PUSH0 PUSH2 0x1460 DUP5 PUSH1 0xB SLOAD PUSH2 0x2710 PUSH0 PUSH2 0x23CB JUMP JUMPDEST SWAP1 POP PUSH0 PUSH2 0x146D DUP3 DUP7 PUSH2 0x3642 JUMP JUMPDEST SWAP1 POP PUSH1 0x2 SLOAD DUP2 LT ISZERO PUSH2 0x14A8 JUMPI PUSH1 0x1 SLOAD DUP2 PUSH1 0xD SLOAD PUSH2 0x148A SWAP2 SWAP1 PUSH2 0x36A6 JUMP JUMPDEST EQ PUSH2 0x14A8 JUMPI PUSH1 0x40 MLOAD PUSH4 0xAC1E14E5 PUSH1 0xE0 SHL DUP2 MSTORE PUSH1 0x4 ADD PUSH1 0x40 MLOAD DUP1 SWAP2 SUB SWAP1 REVERT JUMPDEST PUSH1 0x1 SLOAD DUP2 PUSH1 0xD SLOAD PUSH2 0x14B9 SWAP2 SWAP1 PUSH2 0x36A6 JUMP JUMPDEST GT ISZERO PUSH2 0x14D8 JUMPI PUSH1 0x40 MLOAD PUSH4 0x17C06049 PUSH1 0xE3 SHL DUP2 MSTORE PUSH1 0x4 ADD PUSH1 0x40 MLOAD DUP1 SWAP2 SUB SWAP1 REVERT JUMPDEST PUSH0 DUP3 GT DUP1 ISZERO PUSH2 0x14F1 JUMPI POP PUSH1 0x6 SLOAD PUSH1 0x1 PUSH1 0x1 PUSH1 0xA0 SHL SUB AND ISZERO ISZERO JUMPDEST ISZERO PUSH2 0x1522 JUMPI PUSH1 0x6 SLOAD PUSH2 0x1522 SWAP1 CALLER SWAP1 PUSH1 0x1 PUSH1 0x1 PUSH1 0xA0 SHL SUB AND DUP5 PUSH2 0x1511 PUSH2 0xB30 JUMP JUMPDEST PUSH1 0x1 PUSH1 0x1 PUSH1 0xA0 SHL SUB AND SWAP3 SWAP2 SWAP1 PUSH2 0x25C7 JUMP JUMPDEST PUSH2 0x152C DUP2 DUP6 PUSH2 0x2600 JUMP JUMPDEST PUSH1 0x1 PUSH1 0x1 PUSH1 0xA0 SHL SUB DUP6 AND PUSH0 DUP2 DUP2 MSTORE PUSH1 0x11 PUSH1 0x20 DUP2 DUP2 MSTORE PUSH1 0x40 DUP1 DUP5 KECCAK256 DUP2 MLOAD PUSH1 0x60 DUP2 ADD DUP4 MSTORE DUP9 DUP2 MSTORE DUP1 DUP5 ADD DUP9 DUP2 MSTORE TIMESTAMP SWAP4 DUP3 ADD SWAP4 DUP5 MSTORE DUP3 SLOAD PUSH1 0x1 DUP2 DUP2 ADD DUP6 SSTORE DUP5 DUP10 MSTORE DUP7 DUP10 KECCAK256 SWAP4 MLOAD PUSH1 0x3 SWAP1 SWAP3 MUL SWAP1 SWAP4 ADD SWAP1 DUP2 SSTORE SWAP1 MLOAD DUP2 DUP4 ADD SSTORE SWAP3 MLOAD PUSH1 0x2 SWAP1 SWAP4 ADD SWAP3 SWAP1 SWAP3 SSTORE SWAP5 DUP5 MSTORE SWAP2 SWAP1 MSTORE SWAP1 SWAP2 ADD DUP1 SLOAD SWAP3 SWAP6 POP DUP6 SWAP3 SWAP1 SWAP2 SWAP1 PUSH2 0x15A9 SWAP1 DUP5 SWAP1 PUSH2 0x36A6 JUMP JUMPDEST SWAP3 POP POP DUP2 SWAP1 SSTORE POP DUP1 PUSH1 0xD PUSH0 DUP3 DUP3 SLOAD PUSH2 0x15C1 SWAP2 SWAP1 PUSH2 0x36A6 JUMP JUMPDEST SWAP1 SWAP2 SSTORE POP POP PUSH1 0x40 DUP1 MLOAD DUP3 DUP2 MSTORE PUSH1 0x20 DUP2 ADD DUP6 SWAP1 MSTORE PUSH1 0x1 PUSH1 0x1 PUSH1 0xA0 SHL SUB DUP7 AND SWAP2 DUP3 SWAP2 PUSH32 0xDCBC1C05240F31FF3AD067EF1EE35CE4997762752E3A095284754544F4C709D7 SWAP2 ADD PUSH1 0x40 MLOAD DUP1 SWAP2 SUB SWAP1 LOG3 POP POP PUSH2 0x860 PUSH1 0x1 PUSH0 MLOAD PUSH1 0x20 PUSH2 0x3905 PUSH0 CODECOPY PUSH0 MLOAD SWAP1 PUSH0 MSTORE SSTORE JUMP JUMPDEST PUSH1 0x1 PUSH1 0x1 PUSH1 0xA0 SHL SUB AND PUSH0 SWAP1 DUP2 MSTORE PUSH0 MLOAD PUSH1 0x20 PUSH2 0x38A5 PUSH0 CODECOPY PUSH0 MLOAD SWAP1 PUSH0 MSTORE PUSH1 0x20 MSTORE PUSH1 0x40 SWAP1 KECCAK256 SLOAD SWAP1 JUMP JUMPDEST PUSH0 PUSH2 0x1654 DUP2 PUSH2 0x1E7A JUMP JUMPDEST PUSH2 0xA52 PUSH2 0x264C JUMP JUMPDEST PUSH0 SWAP2 DUP3 MSTORE PUSH0 MLOAD PUSH1 0x20 PUSH2 0x38C5 PUSH0 CODECOPY PUSH0 MLOAD SWAP1 PUSH0 MSTORE PUSH1 0x20 SWAP1 DUP2 MSTORE PUSH1 0x40 DUP1 DUP5 KECCAK256 PUSH1 0x1 PUSH1 0x1 PUSH1 0xA0 SHL SUB SWAP4 SWAP1 SWAP4 AND DUP5 MSTORE SWAP2 SWAP1 MSTORE SWAP1 KECCAK256 SLOAD PUSH1 0xFF AND SWAP1 JUMP JUMPDEST PUSH0 PUSH0 NOT PUSH0 PUSH2 0x169F DUP6 PUSH2 0x1700 JUMP JUMPDEST SWAP1 POP PUSH2 0x16AD CALLER DUP6 DUP4 DUP9 PUSH2 0x2694 JUMP JUMPDEST SWAP5 SWAP4 POP POP POP POP JUMP JUMPDEST PUSH32 0x52C63247E1F47DB19D5CE0460030C497F067CA4CEBF71BA98EEADABE20BACE04 DUP1 SLOAD PUSH1 0x60 SWAP2 PUSH0 MLOAD PUSH1 0x20 PUSH2 0x38A5 PUSH0 CODECOPY PUSH0 MLOAD SWAP1 PUSH0 MSTORE SWAP2 PUSH2 0x8A4 SWAP1 PUSH2 0x3655 JUMP JUMPDEST PUSH0 CALLER PUSH2 0x93E DUP2 DUP6 DUP6 PUSH2 0x1F41 JUMP JUMPDEST PUSH0 PUSH2 0x860 DUP3 PUSH1 0x1 PUSH2 0x1DD8 JUMP JUMPDEST PUSH0 PUSH2 0x1715 PUSH2 0x1E13 JUMP JUMPDEST PUSH2 0x171D PUSH2 0x1E4A JUMP JUMPDEST PUSH0 PUSH2 0x1727 DUP2 PUSH2 0x1E7A JUMP JUMPDEST DUP4 PUSH0 SUB PUSH2 0x1747 JUMPI PUSH1 0x40 MLOAD PUSH4 0x26753BB5 PUSH1 0xE1 SHL DUP2 MSTORE PUSH1 0x4 ADD PUSH1 0x40 MLOAD DUP1 SWAP2 SUB SWAP1 REVERT JUMPDEST PUSH1 0x1 PUSH1 0x1 PUSH1 0xA0 SHL SUB DUP4 AND PUSH2 0x176E JUMPI PUSH1 0x40 MLOAD PUSH4 0x14F59773 PUSH1 0xE1 SHL DUP2 MSTORE PUSH1 0x4 ADD PUSH1 0x40 MLOAD DUP1 SWAP2 SUB SWAP1 REVERT JUMPDEST PUSH0 PUSH2 0x1797 PUSH32 0x52C63247E1F47DB19D5CE0460030C497F067CA4CEBF71BA98EEADABE20BACE02 SLOAD SWAP1 JUMP JUMPDEST SWAP1 POP DUP1 PUSH0 SUB PUSH2 0x17B9 JUMPI PUSH1 0x40 MLOAD PUSH4 0xC450DDF1 PUSH1 0xE0 SHL DUP2 MSTORE PUSH1 0x4 ADD PUSH1 0x40 MLOAD DUP1 SWAP2 SUB SWAP1 REVERT JUMPDEST PUSH1 0x4 SLOAD PUSH4 0xFFFFFFFF SWAP1 DUP2 AND LT PUSH2 0x17E2 JUMPI PUSH1 0x40 MLOAD PUSH4 0x2E6B1613 PUSH1 0xE0 SHL DUP2 MSTORE PUSH1 0x4 ADD PUSH1 0x40 MLOAD DUP1 SWAP2 SUB SWAP1 REVERT JUMPDEST PUSH1 0xF SLOAD PUSH1 0x4 SLOAD PUSH2 0x17F9 SWAP1 PUSH4 0xFFFFFFFF AND PUSH1 0x1 PUSH2 0x36DA JUMP JUMPDEST PUSH4 0xFFFFFFFF AND GT ISZERO PUSH2 0x1844 JUMPI PUSH1 0xF SLOAD PUSH1 0x4 SLOAD PUSH2 0x181C SWAP1 PUSH4 0xFFFFFFFF AND PUSH1 0x1 PUSH2 0x36DA JUMP JUMPDEST PUSH1 0x40 MLOAD PUSH4 0xECDBF907 PUSH1 0xE0 SHL DUP2 MSTORE PUSH1 0x4 DUP2 ADD SWAP3 SWAP1 SWAP3 MSTORE PUSH4 0xFFFFFFFF AND PUSH1 0x24 DUP3 ADD MSTORE PUSH1 0x44 ADD PUSH2 0xF5C JUMP JUMPDEST PUSH2 0x1852 DUP5 ADDRESS DUP8 PUSH2 0x1511 PUSH2 0xB30 JUMP JUMPDEST PUSH1 0x4 SLOAD PUSH2 0x1866 SWAP1 PUSH4 0xFFFFFFFF AND PUSH1 0x1 PUSH2 0x36DA JUMP JUMPDEST PUSH1 0x4 DUP1 SLOAD PUSH4 0xFFFFFFFF NOT AND PUSH4 0xFFFFFFFF SWAP3 SWAP1 SWAP3 AND SWAP2 SWAP1 SWAP2 OR SWAP1 SSTORE PUSH0 PUSH2 0x1895 DUP7 PUSH8 0xDE0B6B3A7640000 DUP5 DUP5 PUSH2 0x23CB JUMP JUMPDEST PUSH1 0x40 DUP1 MLOAD DUP1 DUP3 ADD DUP3 MSTORE DUP3 DUP2 MSTORE TIMESTAMP PUSH1 0x20 DUP1 DUP4 ADD SWAP2 DUP3 MSTORE PUSH1 0x4 SLOAD PUSH4 0xFFFFFFFF AND PUSH0 SWAP1 DUP2 MSTORE PUSH1 0x10 SWAP1 SWAP2 MSTORE SWAP3 DUP4 KECCAK256 SWAP2 MLOAD DUP3 SSTORE MLOAD PUSH1 0x1 SWAP1 SWAP2 ADD SSTORE PUSH1 0xE DUP1 SLOAD SWAP3 SWAP4 POP DUP9 SWAP3 SWAP1 SWAP2 SWAP1 PUSH2 0x18E1 SWAP1 DUP5 SWAP1 PUSH2 0x36A6 JUMP JUMPDEST SWAP1 SWAP2 SSTORE POP POP PUSH1 0x4 SLOAD PUSH1 0x40 DUP1 MLOAD DUP9 DUP2 MSTORE PUSH4 0xFFFFFFFF SWAP1 SWAP3 AND PUSH1 0x20 DUP4 ADD MSTORE TIMESTAMP DUP3 DUP3 ADD MSTORE MLOAD PUSH32 0x6F030BA6D582D7A59EDC355267529FA420BB4A982750488913F3EE91645E3AEB SWAP2 DUP2 SWAP1 SUB PUSH1 0x60 ADD SWAP1 LOG1 PUSH1 0x1 SWAP4 POP POP POP POP PUSH2 0x860 PUSH1 0x1 PUSH0 MLOAD PUSH1 0x20 PUSH2 0x3905 PUSH0 CODECOPY PUSH0 MLOAD SWAP1 PUSH0 MSTORE SSTORE JUMP JUMPDEST PUSH0 PUSH2 0x1953 PUSH2 0x1E13 JUMP JUMPDEST PUSH2 0x195B PUSH2 0x1E4A JUMP JUMPDEST DUP4 PUSH0 SUB PUSH2 0x197B JUMPI PUSH1 0x40 MLOAD PUSH4 0x26753BB5 PUSH1 0xE1 SHL DUP2 MSTORE PUSH1 0x4 ADD PUSH1 0x40 MLOAD DUP1 SWAP2 SUB SWAP1 REVERT JUMPDEST PUSH0 PUSH2 0x199A DUP6 PUSH2 0x2710 PUSH1 0xC SLOAD PUSH2 0x2710 PUSH2 0x1993 SWAP2 SWAP1 PUSH2 0x3642 JUMP JUMPDEST PUSH1 0x1 PUSH2 0x23CB JUMP JUMPDEST SWAP1 POP PUSH2 0x19A5 DUP2 PUSH2 0x948 JUMP JUMPDEST PUSH1 0x1 PUSH1 0x1 PUSH1 0xA0 SHL SUB DUP5 AND PUSH0 SWAP1 DUP2 MSTORE PUSH1 0x11 PUSH1 0x20 MSTORE PUSH1 0x40 SWAP1 KECCAK256 PUSH1 0x1 ADD SLOAD SWAP1 SWAP3 POP DUP3 GT ISZERO PUSH2 0x19E2 JUMPI PUSH1 0x40 MLOAD PUSH3 0xC5644D PUSH1 0xE7 SHL DUP2 MSTORE PUSH1 0x4 ADD PUSH1 0x40 MLOAD DUP1 SWAP2 SUB SWAP1 REVERT JUMPDEST PUSH1 0x1 PUSH1 0x1 PUSH1 0xA0 SHL SUB DUP4 AND PUSH0 SWAP1 DUP2 MSTORE PUSH1 0x11 PUSH1 0x20 MSTORE PUSH1 0x40 DUP2 KECCAK256 PUSH1 0x1 ADD DUP1 SLOAD DUP5 SWAP3 SWAP1 PUSH2 0x1A0C SWAP1 DUP5 SWAP1 PUSH2 0x3642 JUMP JUMPDEST SWAP1 SWAP2 SSTORE POP PUSH2 0x1A1D SWAP1 POP DUP2 DUP6 DUP6 PUSH2 0x270D JUMP JUMPDEST SWAP2 POP POP PUSH2 0xA73 PUSH1 0x1 PUSH0 MLOAD PUSH1 0x20 PUSH2 0x3905 PUSH0 CODECOPY PUSH0 MLOAD SWAP1 PUSH0 MSTORE SSTORE JUMP JUMPDEST PUSH0 PUSH2 0x1A3F PUSH2 0x1E13 JUMP JUMPDEST PUSH2 0x1A47 PUSH2 0x1E4A JUMP JUMPDEST DUP4 PUSH0 SUB PUSH2 0x1A67 JUMPI PUSH1 0x40 MLOAD PUSH4 0x26753BB5 PUSH1 0xE1 SHL DUP2 MSTORE PUSH1 0x4 ADD PUSH1 0x40 MLOAD DUP1 SWAP2 SUB SWAP1 REVERT JUMPDEST PUSH1 0x1 PUSH1 0x1 PUSH1 0xA0 SHL SUB DUP3 AND PUSH0 SWAP1 DUP2 MSTORE PUSH1 0x11 PUSH1 0x20 MSTORE PUSH1 0x40 SWAP1 KECCAK256 PUSH1 0x1 ADD SLOAD DUP5 GT ISZERO PUSH2 0x1AA1 JUMPI PUSH1 0x40 MLOAD PUSH3 0xC5644D PUSH1 0xE7 SHL DUP2 MSTORE PUSH1 0x4 ADD PUSH1 0x40 MLOAD DUP1 SWAP2 SUB SWAP1 REVERT JUMPDEST PUSH1 0x1 PUSH1 0x1 PUSH1 0xA0 SHL SUB DUP3 AND PUSH0 SWAP1 DUP2 MSTORE PUSH1 0x11 PUSH1 0x20 MSTORE PUSH1 0x40 DUP2 KECCAK256 PUSH1 0x1 ADD DUP1 SLOAD DUP7 SWAP3 SWAP1 PUSH2 0x1ACB SWAP1 DUP5 SWAP1 PUSH2 0x3642 JUMP JUMPDEST SWAP1 SWAP2 SSTORE POP PUSH2 0x1ADC SWAP1 POP DUP5 DUP5 DUP5 PUSH2 0x275A JUMP JUMPDEST SWAP1 POP PUSH2 0xA73 PUSH1 0x1 PUSH0 MLOAD PUSH1 0x20 PUSH2 0x3905 PUSH0 CODECOPY PUSH0 MLOAD SWAP1 PUSH0 MSTORE SSTORE JUMP JUMPDEST PUSH0 PUSH2 0x860 DUP3 PUSH0 PUSH2 0x1DFC JUMP JUMPDEST PUSH2 0x1B2D PUSH1 0x40 MLOAD DUP1 PUSH1 0x80 ADD PUSH1 0x40 MSTORE DUP1 PUSH1 0x60 DUP2 MSTORE PUSH1 0x20 ADD PUSH0 DUP2 MSTORE PUSH1 0x20 ADD PUSH0 PUSH4 0xFFFFFFFF AND DUP2 MSTORE PUSH1 0x20 ADD PUSH0 DUP2 MSTORE POP SWAP1 JUMP JUMPDEST PUSH1 0x1 PUSH1 0x1 PUSH1 0xA0 SHL SUB DUP3 AND PUSH0 SWAP1 DUP2 MSTORE PUSH1 0x11 PUSH1 0x20 SWAP1 DUP2 MSTORE PUSH1 0x40 DUP1 DUP4 KECCAK256 DUP2 MLOAD DUP2 SLOAD PUSH1 0xA0 SWAP5 DUP2 MUL DUP3 ADD DUP6 ADD SWAP1 SWAP4 MSTORE PUSH1 0x80 DUP2 ADD DUP4 DUP2 MSTORE SWAP1 SWAP5 SWAP2 SWAP4 DUP6 SWAP4 SWAP2 SWAP3 DUP6 SWAP3 SWAP2 DUP6 ADD JUMPDEST DUP3 DUP3 LT ISZERO PUSH2 0x1BB9 JUMPI DUP4 DUP3 SWAP1 PUSH0 MSTORE PUSH1 0x20 PUSH0 KECCAK256 SWAP1 PUSH1 0x3 MUL ADD PUSH1 0x40 MLOAD DUP1 PUSH1 0x60 ADD PUSH1 0x40 MSTORE SWAP1 DUP2 PUSH0 DUP3 ADD SLOAD DUP2 MSTORE PUSH1 0x20 ADD PUSH1 0x1 DUP3 ADD SLOAD DUP2 MSTORE PUSH1 0x20 ADD PUSH1 0x2 DUP3 ADD SLOAD DUP2 MSTORE POP POP DUP2 MSTORE PUSH1 0x20 ADD SWAP1 PUSH1 0x1 ADD SWAP1 PUSH2 0x1B6C JUMP JUMPDEST POP POP POP SWAP1 DUP3 MSTORE POP PUSH1 0x1 DUP3 ADD SLOAD PUSH1 0x20 DUP3 ADD MSTORE PUSH1 0x2 DUP3 ADD SLOAD PUSH4 0xFFFFFFFF AND PUSH1 0x40 DUP3 ADD MSTORE PUSH1 0x3 SWAP1 SWAP2 ADD SLOAD PUSH1 0x60 SWAP1 SWAP2 ADD MSTORE SWAP3 SWAP2 POP POP JUMP JUMPDEST PUSH0 PUSH2 0x860 PUSH2 0x1BF9 DUP4 PUSH2 0x1624 JUMP JUMPDEST PUSH0 PUSH2 0x1DD8 JUMP JUMPDEST PUSH2 0x1C08 DUP3 PUSH2 0xA7A JUMP JUMPDEST PUSH2 0x1C11 DUP2 PUSH2 0x1E7A JUMP JUMPDEST PUSH2 0xAB6 DUP4 DUP4 PUSH2 0x203F JUMP JUMPDEST PUSH0 PUSH2 0x860 DUP3 PUSH2 0x1624 JUMP JUMPDEST PUSH1 0x1 PUSH1 0x1 PUSH1 0xA0 SHL SUB SWAP2 DUP3 AND PUSH0 SWAP1 DUP2 MSTORE PUSH32 0x52C63247E1F47DB19D5CE0460030C497F067CA4CEBF71BA98EEADABE20BACE01 PUSH1 0x20 SWAP1 DUP2 MSTORE PUSH1 0x40 DUP1 DUP4 KECCAK256 SWAP4 SWAP1 SWAP5 AND DUP3 MSTORE SWAP2 SWAP1 SWAP2 MSTORE KECCAK256 SLOAD SWAP1 JUMP JUMPDEST PUSH1 0x1 PUSH1 0x1 PUSH1 0xA0 SHL SUB DUP2 AND PUSH0 SWAP1 DUP2 MSTORE PUSH1 0x11 PUSH1 0x20 MSTORE PUSH1 0x40 DUP2 KECCAK256 PUSH1 0x2 ADD SLOAD DUP2 SWAP1 PUSH2 0x1C9C SWAP1 PUSH4 0xFFFFFFFF AND PUSH1 0x1 PUSH2 0x36DA JUMP JUMPDEST SWAP1 POP PUSH2 0xA73 DUP4 DUP3 PUSH2 0x27A7 JUMP JUMPDEST PUSH2 0x1CB0 PUSH2 0x1E13 JUMP JUMPDEST PUSH2 0x1CB8 PUSH2 0x1E4A JUMP JUMPDEST PUSH0 PUSH2 0x1CC2 DUP2 PUSH2 0x1E7A JUMP JUMPDEST PUSH1 0x1 PUSH1 0x1 PUSH1 0xA0 SHL SUB DUP3 AND PUSH2 0x1CE9 JUMPI PUSH1 0x40 MLOAD PUSH4 0x14F59773 PUSH1 0xE1 SHL DUP2 MSTORE PUSH1 0x4 ADD PUSH1 0x40 MLOAD DUP1 SWAP2 SUB SWAP1 REVERT JUMPDEST PUSH1 0x6 SLOAD PUSH1 0x1 PUSH1 0x1 PUSH1 0xA0 SHL SUB SWAP1 DUP2 AND SWAP1 DUP4 AND SUB PUSH2 0x1D18 JUMPI PUSH1 0x40 MLOAD PUSH4 0xCE3B397B PUSH1 0xE0 SHL DUP2 MSTORE PUSH1 0x4 ADD PUSH1 0x40 MLOAD DUP1 SWAP2 SUB SWAP1 REVERT JUMPDEST PUSH2 0x1D22 PUSH0 DUP4 PUSH2 0x165C JUMP JUMPDEST ISZERO PUSH2 0x1D40 JUMPI PUSH1 0x40 MLOAD PUSH4 0xCE3B397B PUSH1 0xE0 SHL DUP2 MSTORE PUSH1 0x4 ADD PUSH1 0x40 MLOAD DUP1 SWAP2 SUB SWAP1 REVERT JUMPDEST PUSH1 0x6 SLOAD PUSH1 0x1 PUSH1 0x1 PUSH1 0xA0 SHL SUB AND PUSH2 0x1D56 PUSH0 DUP3 PUSH2 0x203F JUMP JUMPDEST POP PUSH1 0x6 DUP1 SLOAD PUSH1 0x1 PUSH1 0x1 PUSH1 0xA0 SHL SUB NOT AND PUSH1 0x1 PUSH1 0x1 PUSH1 0xA0 SHL SUB DUP6 AND OR SWAP1 SSTORE PUSH2 0x1D7C PUSH0 DUP5 PUSH2 0x1F9E JUMP JUMPDEST POP PUSH1 0x40 DUP1 MLOAD PUSH1 0x1 PUSH1 0x1 PUSH1 0xA0 SHL SUB DUP1 DUP5 AND DUP3 MSTORE DUP6 AND PUSH1 0x20 DUP3 ADD MSTORE PUSH32 0xB532073B38C83145E3E5135377A08BF9AAB55BC0FD7C1179CD4FB995D2A5159C SWAP2 ADD PUSH1 0x40 MLOAD DUP1 SWAP2 SUB SWAP1 LOG1 POP POP PUSH2 0xA52 PUSH1 0x1 PUSH0 MLOAD PUSH1 0x20 PUSH2 0x3905 PUSH0 CODECOPY PUSH0 MLOAD SWAP1 PUSH0 MSTORE SSTORE JUMP JUMPDEST PUSH0 PUSH2 0xA73 DUP4 PUSH1 0x5 SLOAD PUSH8 0xDE0B6B3A7640000 DUP6 PUSH2 0x23CB JUMP JUMPDEST PUSH2 0xB2B DUP4 DUP4 DUP4 PUSH1 0x1 PUSH2 0x2842 JUMP JUMPDEST PUSH0 PUSH2 0xA73 DUP4 PUSH8 0xDE0B6B3A7640000 PUSH1 0x5 SLOAD DUP6 PUSH2 0x23CB JUMP JUMPDEST PUSH0 MLOAD PUSH1 0x20 PUSH2 0x3905 PUSH0 CODECOPY PUSH0 MLOAD SWAP1 PUSH0 MSTORE DUP1 SLOAD PUSH1 0x1 NOT ADD PUSH2 0x1E44 JUMPI PUSH1 0x40 MLOAD PUSH4 0x3EE5AEB5 PUSH1 0xE0 SHL DUP2 MSTORE PUSH1 0x4 ADD PUSH1 0x40 MLOAD DUP1 SWAP2 SUB SWAP1 REVERT JUMPDEST PUSH1 0x2 SWAP1 SSTORE JUMP JUMPDEST PUSH0 MLOAD PUSH1 0x20 PUSH2 0x38E5 PUSH0 CODECOPY PUSH0 MLOAD SWAP1 PUSH0 MSTORE SLOAD PUSH1 0xFF AND ISZERO PUSH2 0xCD4 JUMPI PUSH1 0x40 MLOAD PUSH4 0xD93C0665 PUSH1 0xE0 SHL DUP2 MSTORE PUSH1 0x4 ADD PUSH1 0x40 MLOAD DUP1 SWAP2 SUB SWAP1 REVERT JUMPDEST PUSH2 0xA52 DUP2 CALLER PUSH2 0x2926 JUMP JUMPDEST PUSH1 0x40 MLOAD PUSH1 0x1 PUSH1 0x1 PUSH1 0xA0 SHL SUB DUP4 DUP2 AND PUSH1 0x24 DUP4 ADD MSTORE PUSH1 0x44 DUP3 ADD DUP4 SWAP1 MSTORE PUSH2 0xB2B SWAP2 DUP6 SWAP2 DUP3 AND SWAP1 PUSH4 0xA9059CBB SWAP1 PUSH1 0x64 ADD JUMPDEST PUSH1 0x40 MLOAD PUSH1 0x20 DUP2 DUP4 SUB SUB DUP2 MSTORE SWAP1 PUSH1 0x40 MSTORE SWAP2 POP PUSH1 0xE0 SHL PUSH1 0x20 DUP3 ADD DUP1 MLOAD PUSH1 0x1 PUSH1 0x1 PUSH1 0xE0 SHL SUB DUP4 DUP2 DUP4 AND OR DUP4 MSTORE POP POP POP POP PUSH2 0x295F JUMP JUMPDEST PUSH1 0x1 PUSH0 MLOAD PUSH1 0x20 PUSH2 0x3905 PUSH0 CODECOPY PUSH0 MLOAD SWAP1 PUSH0 MSTORE SSTORE JUMP JUMPDEST PUSH0 PUSH2 0x1F01 DUP5 DUP5 PUSH2 0x1C25 JUMP JUMPDEST SWAP1 POP PUSH0 NOT DUP2 LT ISZERO PUSH2 0xAB6 JUMPI DUP2 DUP2 LT ISZERO PUSH2 0x1F33 JUMPI DUP3 DUP2 DUP4 PUSH1 0x40 MLOAD PUSH4 0x7DC7A0D9 PUSH1 0xE1 SHL DUP2 MSTORE PUSH1 0x4 ADD PUSH2 0xF5C SWAP4 SWAP3 SWAP2 SWAP1 PUSH2 0x36B9 JUMP JUMPDEST PUSH2 0xAB6 DUP5 DUP5 DUP5 DUP5 SUB PUSH0 PUSH2 0x2842 JUMP JUMPDEST PUSH1 0x1 PUSH1 0x1 PUSH1 0xA0 SHL SUB DUP4 AND PUSH2 0x1F6A JUMPI PUSH1 0x40 MLOAD PUSH4 0x4B637E8F PUSH1 0xE1 SHL DUP2 MSTORE PUSH0 PUSH1 0x4 DUP3 ADD MSTORE PUSH1 0x24 ADD PUSH2 0xF5C JUMP JUMPDEST PUSH1 0x1 PUSH1 0x1 PUSH1 0xA0 SHL SUB DUP3 AND PUSH2 0x1F93 JUMPI PUSH1 0x40 MLOAD PUSH4 0xEC442F05 PUSH1 0xE0 SHL DUP2 MSTORE PUSH0 PUSH1 0x4 DUP3 ADD MSTORE PUSH1 0x24 ADD PUSH2 0xF5C JUMP JUMPDEST PUSH2 0xB2B DUP4 DUP4 DUP4 PUSH2 0x29CB JUMP JUMPDEST PUSH0 PUSH0 MLOAD PUSH1 0x20 PUSH2 0x38C5 PUSH0 CODECOPY PUSH0 MLOAD SWAP1 PUSH0 MSTORE PUSH2 0x1FB7 DUP5 DUP5 PUSH2 0x165C JUMP JUMPDEST PUSH2 0x2036 JUMPI PUSH0 DUP5 DUP2 MSTORE PUSH1 0x20 DUP3 DUP2 MSTORE PUSH1 0x40 DUP1 DUP4 KECCAK256 PUSH1 0x1 PUSH1 0x1 PUSH1 0xA0 SHL SUB DUP8 AND DUP5 MSTORE SWAP1 SWAP2 MSTORE SWAP1 KECCAK256 DUP1 SLOAD PUSH1 0xFF NOT AND PUSH1 0x1 OR SWAP1 SSTORE PUSH2 0x1FEC CALLER SWAP1 JUMP JUMPDEST PUSH1 0x1 PUSH1 0x1 PUSH1 0xA0 SHL SUB AND DUP4 PUSH1 0x1 PUSH1 0x1 PUSH1 0xA0 SHL SUB AND DUP6 PUSH32 0x2F8788117E7EFF1D82E926EC794901D17C78024A50270940304540A733656F0D PUSH1 0x40 MLOAD PUSH1 0x40 MLOAD DUP1 SWAP2 SUB SWAP1 LOG4 PUSH1 0x1 SWAP2 POP POP PUSH2 0x860 JUMP JUMPDEST PUSH0 SWAP2 POP POP PUSH2 0x860 JUMP JUMPDEST PUSH0 PUSH0 MLOAD PUSH1 0x20 PUSH2 0x38C5 PUSH0 CODECOPY PUSH0 MLOAD SWAP1 PUSH0 MSTORE PUSH2 0x2058 DUP5 DUP5 PUSH2 0x165C JUMP JUMPDEST ISZERO PUSH2 0x2036 JUMPI PUSH0 DUP5 DUP2 MSTORE PUSH1 0x20 DUP3 DUP2 MSTORE PUSH1 0x40 DUP1 DUP4 KECCAK256 PUSH1 0x1 PUSH1 0x1 PUSH1 0xA0 SHL SUB DUP8 AND DUP1 DUP6 MSTORE SWAP3 MSTORE DUP1 DUP4 KECCAK256 DUP1 SLOAD PUSH1 0xFF NOT AND SWAP1 SSTORE MLOAD CALLER SWAP3 DUP8 SWAP2 PUSH32 0xF6391F5C32D9C69D2A47EA670B442974B53935D1EDC7FD64EB21E047A839171B SWAP2 SWAP1 LOG4 PUSH1 0x1 SWAP2 POP POP PUSH2 0x860 JUMP JUMPDEST PUSH2 0x20C0 PUSH2 0x2AE3 JUMP JUMPDEST PUSH0 MLOAD PUSH1 0x20 PUSH2 0x38E5 PUSH0 CODECOPY PUSH0 MLOAD SWAP1 PUSH0 MSTORE DUP1 SLOAD PUSH1 0xFF NOT AND DUP2 SSTORE PUSH32 0x5DB9EE0A495BF2E6FF9C91A7834C1BA4FDD244A5E8AA4E537BD38AEAE4B073AA CALLER JUMPDEST PUSH1 0x40 MLOAD PUSH1 0x1 PUSH1 0x1 PUSH1 0xA0 SHL SUB SWAP1 SWAP2 AND DUP2 MSTORE PUSH1 0x20 ADD PUSH1 0x40 MLOAD DUP1 SWAP2 SUB SWAP1 LOG1 POP JUMP JUMPDEST PUSH1 0x1 PUSH1 0x1 PUSH1 0xA0 SHL SUB DUP2 AND PUSH0 SWAP1 DUP2 MSTORE PUSH1 0x11 PUSH1 0x20 MSTORE PUSH1 0x40 DUP2 KECCAK256 PUSH1 0x1 DUP2 ADD SLOAD DUP3 SUB PUSH2 0x2141 JUMPI POP PUSH0 SWAP3 SWAP2 POP POP JUMP JUMPDEST PUSH2 0xA73 DUP2 PUSH1 0x1 ADD SLOAD PUSH1 0xA SLOAD PUSH2 0x2710 PUSH0 PUSH2 0x23CB JUMP JUMPDEST CALLER PUSH0 PUSH2 0x2160 DUP3 PUSH2 0x2117 JUMP JUMPDEST PUSH1 0x1 PUSH1 0x1 PUSH1 0xA0 SHL SUB DUP4 AND PUSH0 SWAP1 DUP2 MSTORE PUSH1 0x11 PUSH1 0x20 MSTORE PUSH1 0x40 SWAP1 KECCAK256 PUSH1 0x1 ADD SLOAD SWAP1 SWAP2 POP DUP2 ISZERO DUP1 ISZERO PUSH2 0x218A JUMPI POP DUP1 ISZERO JUMPDEST ISZERO PUSH2 0x21A8 JUMPI PUSH1 0x40 MLOAD PUSH4 0x44388C2B PUSH1 0xE0 SHL DUP2 MSTORE PUSH1 0x4 ADD PUSH1 0x40 MLOAD DUP1 SWAP2 SUB SWAP1 REVERT JUMPDEST PUSH0 PUSH2 0x21B3 DUP3 PUSH0 PUSH2 0x1DD8 JUMP JUMPDEST PUSH1 0x1 PUSH1 0x1 PUSH1 0xA0 SHL SUB DUP6 AND PUSH0 SWAP1 DUP2 MSTORE PUSH1 0x11 PUSH1 0x20 MSTORE PUSH1 0x40 DUP2 KECCAK256 PUSH1 0x1 ADD SSTORE SWAP1 POP DUP2 ISZERO PUSH2 0x224D JUMPI PUSH2 0x21E0 DUP5 DUP4 PUSH2 0x2B12 JUMP JUMPDEST PUSH0 PUSH2 0x21F1 DUP3 PUSH1 0xC SLOAD PUSH2 0x2710 PUSH0 PUSH2 0x23CB JUMP JUMPDEST SWAP1 POP PUSH0 PUSH2 0x21FE DUP3 DUP5 PUSH2 0x3642 JUMP JUMPDEST SWAP1 POP PUSH0 DUP3 GT DUP1 ISZERO PUSH2 0x2219 JUMPI POP PUSH1 0x6 SLOAD PUSH1 0x1 PUSH1 0x1 PUSH1 0xA0 SHL SUB AND ISZERO ISZERO JUMPDEST ISZERO PUSH2 0x2237 JUMPI PUSH1 0x6 SLOAD PUSH2 0x2237 SWAP1 PUSH1 0x1 PUSH1 0x1 PUSH1 0xA0 SHL SUB AND DUP4 PUSH2 0xA01 PUSH2 0xB30 JUMP JUMPDEST DUP1 ISZERO PUSH2 0x224A JUMPI PUSH2 0x224A DUP7 DUP3 PUSH2 0xA01 PUSH2 0xB30 JUMP JUMPDEST POP POP JUMPDEST DUP3 ISZERO PUSH2 0xAB6 JUMPI DUP3 PUSH1 0xE SLOAD LT ISZERO PUSH2 0x2276 JUMPI PUSH1 0x40 MLOAD PUSH4 0x7521B38F PUSH1 0xE1 SHL DUP2 MSTORE PUSH1 0x4 ADD PUSH1 0x40 MLOAD DUP1 SWAP2 SUB SWAP1 REVERT JUMPDEST DUP3 PUSH1 0xE PUSH0 DUP3 DUP3 SLOAD PUSH2 0x2287 SWAP2 SWAP1 PUSH2 0x3642 JUMP JUMPDEST SWAP1 SWAP2 SSTORE POP PUSH2 0xAB6 SWAP1 POP DUP5 DUP5 PUSH2 0xA01 PUSH2 0xB30 JUMP JUMPDEST PUSH1 0x4 SLOAD PUSH4 0xFFFFFFFF AND PUSH0 SUB PUSH2 0x22C2 JUMPI PUSH1 0x40 MLOAD PUSH4 0x28BF11B9 PUSH1 0xE1 SHL DUP2 MSTORE PUSH1 0x4 ADD PUSH1 0x40 MLOAD DUP1 SWAP2 SUB SWAP1 REVERT JUMPDEST CALLER PUSH0 DUP2 DUP2 MSTORE PUSH1 0x11 PUSH1 0x20 MSTORE PUSH1 0x40 DUP2 KECCAK256 PUSH1 0x2 ADD SLOAD PUSH2 0x22E5 SWAP1 PUSH4 0xFFFFFFFF AND PUSH1 0x1 PUSH2 0x36DA JUMP JUMPDEST PUSH1 0x4 SLOAD SWAP1 SWAP2 POP PUSH4 0xFFFFFFFF SWAP1 DUP2 AND SWAP1 DUP3 AND GT ISZERO PUSH2 0x2315 JUMPI PUSH1 0x40 MLOAD PUSH4 0x1114DC63 PUSH1 0xE0 SHL DUP2 MSTORE PUSH1 0x4 ADD PUSH1 0x40 MLOAD DUP1 SWAP2 SUB SWAP1 REVERT JUMPDEST PUSH0 PUSH2 0x2320 DUP4 DUP4 PUSH2 0x27A7 JUMP JUMPDEST SWAP1 POP DUP1 PUSH0 SUB PUSH2 0x2342 JUMPI PUSH1 0x40 MLOAD PUSH4 0xE7F2F92F PUSH1 0xE0 SHL DUP2 MSTORE PUSH1 0x4 ADD PUSH1 0x40 MLOAD DUP1 SWAP2 SUB SWAP1 REVERT JUMPDEST PUSH1 0x4 SLOAD PUSH1 0x1 PUSH1 0x1 PUSH1 0xA0 SHL SUB DUP5 AND PUSH0 SWAP1 DUP2 MSTORE PUSH1 0x11 PUSH1 0x20 MSTORE PUSH1 0x40 SWAP1 KECCAK256 PUSH1 0x2 DUP2 ADD DUP1 SLOAD PUSH4 0xFFFFFFFF NOT AND PUSH4 0xFFFFFFFF SWAP1 SWAP4 AND SWAP3 SWAP1 SWAP3 OR SWAP1 SWAP2 SSTORE TIMESTAMP PUSH1 0x3 SWAP1 SWAP2 ADD SSTORE PUSH1 0xE SLOAD DUP2 GT ISZERO PUSH2 0x23A2 JUMPI PUSH1 0x40 MLOAD PUSH4 0x7521B38F PUSH1 0xE1 SHL DUP2 MSTORE PUSH1 0x4 ADD PUSH1 0x40 MLOAD DUP1 SWAP2 SUB SWAP1 REVERT JUMPDEST DUP1 PUSH1 0xE PUSH0 DUP3 DUP3 SLOAD PUSH2 0x23B3 SWAP2 SWAP1 PUSH2 0x3642 JUMP JUMPDEST SWAP1 SWAP2 SSTORE POP POP DUP1 ISZERO PUSH2 0xB2B JUMPI PUSH2 0xB2B DUP4 DUP3 PUSH2 0xA01 PUSH2 0xB30 JUMP JUMPDEST PUSH0 PUSH2 0x23F8 PUSH2 0x23D8 DUP4 PUSH2 0x2B46 JUMP JUMPDEST DUP1 ISZERO PUSH2 0x23F3 JUMPI POP PUSH0 DUP5 DUP1 PUSH2 0x23EE JUMPI PUSH2 0x23EE PUSH2 0x36F6 JUMP JUMPDEST DUP7 DUP9 MULMOD GT JUMPDEST ISZERO ISZERO SWAP1 JUMP JUMPDEST PUSH2 0x2403 DUP7 DUP7 DUP7 PUSH2 0x2B72 JUMP JUMPDEST PUSH2 0x240D SWAP2 SWAP1 PUSH2 0x36A6 JUMP JUMPDEST SWAP6 SWAP5 POP POP POP POP POP JUMP JUMPDEST DUP1 PUSH1 0x80 ADD CALLDATALOAD DUP1 TIMESTAMP GT ISZERO PUSH2 0x243F JUMPI PUSH1 0x40 MLOAD PUSH4 0xA53B2545 PUSH1 0xE0 SHL DUP2 MSTORE PUSH1 0x4 DUP2 ADD DUP3 SWAP1 MSTORE PUSH1 0x24 ADD PUSH2 0xF5C JUMP JUMPDEST PUSH1 0x40 DUP1 MLOAD ADDRESS PUSH1 0x20 DUP1 DUP4 ADD SWAP2 SWAP1 SWAP2 MSTORE PUSH1 0x1 PUSH1 0x1 PUSH1 0xA0 SHL SUB DUP7 DUP2 AND DUP4 DUP6 ADD MSTORE DUP10 AND PUSH1 0x60 DUP1 DUP5 ADD SWAP2 SWAP1 SWAP2 MSTORE PUSH1 0x80 DUP4 ADD DUP9 SWAP1 MSTORE PUSH1 0xA0 DUP4 ADD DUP10 SWAP1 MSTORE CHAINID PUSH1 0xC0 DUP5 ADD MSTORE DUP6 ADD CALLDATALOAD PUSH1 0xE0 DUP1 DUP5 ADD SWAP2 SWAP1 SWAP2 MSTORE DUP4 MLOAD DUP1 DUP5 SUB SWAP1 SWAP2 ADD DUP2 MSTORE PUSH2 0x100 SWAP1 SWAP3 ADD SWAP1 SWAP3 MSTORE DUP1 MLOAD SWAP2 ADD KECCAK256 PUSH32 0x19457468657265756D205369676E6564204D6573736167653A0A333200000000 PUSH0 SWAP1 DUP2 MSTORE PUSH1 0x1C DUP3 SWAP1 MSTORE PUSH1 0x3C DUP2 KECCAK256 SWAP1 POP PUSH0 PUSH2 0x24F1 PUSH2 0x24E0 PUSH1 0x20 DUP8 ADD DUP8 PUSH2 0x370A JUMP JUMPDEST DUP4 SWAP1 PUSH1 0x20 DUP9 ADD CALLDATALOAD PUSH1 0x40 DUP10 ADD CALLDATALOAD PUSH2 0x2C22 JUMP JUMPDEST PUSH0 SLOAD SWAP1 SWAP2 POP PUSH1 0x1 PUSH1 0x1 PUSH1 0xA0 SHL SUB DUP1 DUP4 AND SWAP2 AND EQ PUSH2 0x2521 JUMPI PUSH1 0x40 MLOAD PUSH4 0xDC9796C9 PUSH1 0xE0 SHL DUP2 MSTORE PUSH1 0x4 ADD PUSH1 0x40 MLOAD DUP1 SWAP2 SUB SWAP1 REVERT JUMPDEST POP POP POP POP POP POP POP POP POP JUMP JUMPDEST PUSH1 0x1 PUSH1 0x1 PUSH1 0xA0 SHL SUB DUP3 AND PUSH2 0x2555 JUMPI PUSH1 0x40 MLOAD PUSH4 0xEC442F05 PUSH1 0xE0 SHL DUP2 MSTORE PUSH0 PUSH1 0x4 DUP3 ADD MSTORE PUSH1 0x24 ADD PUSH2 0xF5C JUMP JUMPDEST PUSH2 0x2560 PUSH0 DUP4 DUP4 PUSH2 0x29CB JUMP JUMPDEST POP POP JUMP JUMPDEST PUSH0 DUP1 PUSH32 0xF0C57E16840DF040F15088DC2F81FE391C3923BEC73E23A9662EFC9C229C6A00 PUSH2 0x860 JUMP JUMPDEST PUSH2 0x2594 PUSH2 0x2C4E JUMP JUMPDEST PUSH2 0xA52 DUP2 PUSH2 0x2C73 JUMP JUMPDEST PUSH2 0x25A5 PUSH2 0x2C4E JUMP JUMPDEST PUSH2 0x2560 DUP3 DUP3 PUSH2 0x2CF6 JUMP JUMPDEST PUSH2 0x25B7 PUSH2 0x2C4E JUMP JUMPDEST PUSH2 0xCD4 PUSH2 0x2D46 JUMP JUMPDEST PUSH2 0xCD4 PUSH2 0x2C4E JUMP JUMPDEST PUSH1 0x40 MLOAD PUSH1 0x1 PUSH1 0x1 PUSH1 0xA0 SHL SUB DUP5 DUP2 AND PUSH1 0x24 DUP4 ADD MSTORE DUP4 DUP2 AND PUSH1 0x44 DUP4 ADD MSTORE PUSH1 0x64 DUP3 ADD DUP4 SWAP1 MSTORE PUSH2 0xAB6 SWAP2 DUP7 SWAP2 DUP3 AND SWAP1 PUSH4 0x23B872DD SWAP1 PUSH1 0x84 ADD PUSH2 0x1EB1 JUMP JUMPDEST PUSH0 PUSH0 PUSH2 0x260B DUP4 PUSH2 0xB70 JUMP JUMPDEST SWAP1 POP DUP1 DUP5 GT ISZERO PUSH2 0x2634 JUMPI DUP3 DUP5 DUP3 PUSH1 0x40 MLOAD PUSH4 0x3C8097D9 PUSH1 0xE1 SHL DUP2 MSTORE PUSH1 0x4 ADD PUSH2 0xF5C SWAP4 SWAP3 SWAP2 SWAP1 PUSH2 0x36B9 JUMP JUMPDEST PUSH0 PUSH2 0x263E DUP6 PUSH2 0x1AF4 JUMP JUMPDEST SWAP1 POP PUSH2 0x16AD CALLER DUP6 DUP8 DUP5 PUSH2 0x2694 JUMP JUMPDEST PUSH2 0x2654 PUSH2 0x1E4A JUMP JUMPDEST PUSH0 MLOAD PUSH1 0x20 PUSH2 0x38E5 PUSH0 CODECOPY PUSH0 MLOAD SWAP1 PUSH0 MSTORE DUP1 SLOAD PUSH1 0xFF NOT AND PUSH1 0x1 OR DUP2 SSTORE PUSH32 0x62E78CEA01BEE320CD4E420270B5EA74000D11B0C9F74754EBDBFC544B05A258 CALLER PUSH2 0x20F9 JUMP JUMPDEST PUSH2 0x26A7 PUSH2 0x269F PUSH2 0xB30 JUMP JUMPDEST DUP6 ADDRESS DUP6 PUSH2 0x25C7 JUMP JUMPDEST PUSH2 0x26B1 DUP4 DUP3 PUSH2 0x252C JUMP JUMPDEST DUP3 PUSH1 0x1 PUSH1 0x1 PUSH1 0xA0 SHL SUB AND DUP5 PUSH1 0x1 PUSH1 0x1 PUSH1 0xA0 SHL SUB AND PUSH32 0xDCBC1C05240F31FF3AD067EF1EE35CE4997762752E3A095284754544F4C709D7 DUP5 DUP5 PUSH1 0x40 MLOAD PUSH2 0x26FF SWAP3 SWAP2 SWAP1 SWAP2 DUP3 MSTORE PUSH1 0x20 DUP3 ADD MSTORE PUSH1 0x40 ADD SWAP1 JUMP JUMPDEST PUSH1 0x40 MLOAD DUP1 SWAP2 SUB SWAP1 LOG3 POP POP POP POP JUMP JUMPDEST PUSH0 PUSH0 PUSH2 0x2718 DUP4 PUSH2 0x1BEC JUMP JUMPDEST SWAP1 POP DUP1 DUP6 GT ISZERO PUSH2 0x2741 JUMPI DUP3 DUP6 DUP3 PUSH1 0x40 MLOAD PUSH4 0x3FA733BB PUSH1 0xE2 SHL DUP2 MSTORE PUSH1 0x4 ADD PUSH2 0xF5C SWAP4 SWAP3 SWAP2 SWAP1 PUSH2 0x36B9 JUMP JUMPDEST PUSH0 PUSH2 0x274B DUP7 PUSH2 0x948 JUMP JUMPDEST SWAP1 POP PUSH2 0x240D CALLER DUP7 DUP7 DUP10 DUP6 PUSH2 0x2D4E JUMP JUMPDEST PUSH0 PUSH0 PUSH2 0x2765 DUP4 PUSH2 0x1C1B JUMP JUMPDEST SWAP1 POP DUP1 DUP6 GT ISZERO PUSH2 0x278E JUMPI DUP3 DUP6 DUP3 PUSH1 0x40 MLOAD PUSH4 0x2E52AFBB PUSH1 0xE2 SHL DUP2 MSTORE PUSH1 0x4 ADD PUSH2 0xF5C SWAP4 SWAP3 SWAP2 SWAP1 PUSH2 0x36B9 JUMP JUMPDEST PUSH0 PUSH2 0x2798 DUP7 PUSH2 0x926 JUMP JUMPDEST SWAP1 POP PUSH2 0x240D CALLER DUP7 DUP7 DUP5 DUP11 PUSH2 0x2D4E JUMP JUMPDEST PUSH1 0x1 PUSH1 0x1 PUSH1 0xA0 SHL SUB DUP3 AND PUSH0 SWAP1 DUP2 MSTORE PUSH1 0x11 PUSH1 0x20 MSTORE PUSH1 0x40 DUP2 KECCAK256 PUSH1 0x1 DUP2 ADD SLOAD DUP3 SUB PUSH2 0x27D2 JUMPI PUSH0 SWAP2 POP POP PUSH2 0x860 JUMP JUMPDEST PUSH0 DUP4 JUMPDEST PUSH1 0x4 SLOAD PUSH4 0xFFFFFFFF SWAP1 DUP2 AND SWAP1 DUP3 AND GT PUSH2 0x2839 JUMPI PUSH4 0xFFFFFFFF DUP2 AND PUSH0 SWAP1 DUP2 MSTORE PUSH1 0x10 PUSH1 0x20 MSTORE PUSH1 0x40 DUP2 KECCAK256 PUSH1 0x1 DUP6 ADD SLOAD DUP2 SLOAD SWAP2 SWAP3 PUSH2 0x2819 SWAP3 SWAP1 PUSH8 0xDE0B6B3A7640000 SWAP1 PUSH2 0x23CB JUMP JUMPDEST PUSH2 0x2823 SWAP1 DUP5 PUSH2 0x36A6 JUMP JUMPDEST SWAP3 POP POP DUP1 DUP1 PUSH2 0x2831 SWAP1 PUSH2 0x372A JUMP JUMPDEST SWAP2 POP POP PUSH2 0x27D5 JUMP JUMPDEST POP SWAP5 SWAP4 POP POP POP POP JUMP JUMPDEST PUSH0 MLOAD PUSH1 0x20 PUSH2 0x38A5 PUSH0 CODECOPY PUSH0 MLOAD SWAP1 PUSH0 MSTORE PUSH1 0x1 PUSH1 0x1 PUSH1 0xA0 SHL SUB DUP6 AND PUSH2 0x2879 JUMPI PUSH1 0x40 MLOAD PUSH4 0xE602DF05 PUSH1 0xE0 SHL DUP2 MSTORE PUSH0 PUSH1 0x4 DUP3 ADD MSTORE PUSH1 0x24 ADD PUSH2 0xF5C JUMP JUMPDEST PUSH1 0x1 PUSH1 0x1 PUSH1 0xA0 SHL SUB DUP5 AND PUSH2 0x28A2 JUMPI PUSH1 0x40 MLOAD PUSH4 0x4A1406B1 PUSH1 0xE1 SHL DUP2 MSTORE PUSH0 PUSH1 0x4 DUP3 ADD MSTORE PUSH1 0x24 ADD PUSH2 0xF5C JUMP JUMPDEST PUSH1 0x1 PUSH1 0x1 PUSH1 0xA0 SHL SUB DUP1 DUP7 AND PUSH0 SWAP1 DUP2 MSTORE PUSH1 0x1 DUP4 ADD PUSH1 0x20 SWAP1 DUP2 MSTORE PUSH1 0x40 DUP1 DUP4 KECCAK256 SWAP4 DUP9 AND DUP4 MSTORE SWAP3 SWAP1 MSTORE KECCAK256 DUP4 SWAP1 SSTORE DUP2 ISZERO PUSH2 0x291F JUMPI DUP4 PUSH1 0x1 PUSH1 0x1 PUSH1 0xA0 SHL SUB AND DUP6 PUSH1 0x1 PUSH1 0x1 PUSH1 0xA0 SHL SUB AND PUSH32 0x8C5BE1E5EBEC7D5BD14F71427D1E84F3DD0314C0F7B2291E5B200AC8C7C3B925 DUP6 PUSH1 0x40 MLOAD PUSH2 0x2916 SWAP2 DUP2 MSTORE PUSH1 0x20 ADD SWAP1 JUMP JUMPDEST PUSH1 0x40 MLOAD DUP1 SWAP2 SUB SWAP1 LOG3 JUMPDEST POP POP POP POP POP JUMP JUMPDEST PUSH2 0x2930 DUP3 DUP3 PUSH2 0x165C JUMP JUMPDEST PUSH2 0x2560 JUMPI PUSH1 0x40 MLOAD PUSH4 0xE2517D3F PUSH1 0xE0 SHL DUP2 MSTORE PUSH1 0x1 PUSH1 0x1 PUSH1 0xA0 SHL SUB DUP3 AND PUSH1 0x4 DUP3 ADD MSTORE PUSH1 0x24 DUP2 ADD DUP4 SWAP1 MSTORE PUSH1 0x44 ADD PUSH2 0xF5C JUMP JUMPDEST PUSH0 PUSH0 PUSH1 0x20 PUSH0 DUP5 MLOAD PUSH1 0x20 DUP7 ADD PUSH0 DUP9 GAS CALL DUP1 PUSH2 0x297E JUMPI PUSH1 0x40 MLOAD RETURNDATASIZE PUSH0 DUP3 RETURNDATACOPY RETURNDATASIZE DUP2 REVERT JUMPDEST POP POP PUSH0 MLOAD RETURNDATASIZE SWAP2 POP DUP2 ISZERO PUSH2 0x2995 JUMPI DUP1 PUSH1 0x1 EQ ISZERO PUSH2 0x29A2 JUMP JUMPDEST PUSH1 0x1 PUSH1 0x1 PUSH1 0xA0 SHL SUB DUP5 AND EXTCODESIZE ISZERO JUMPDEST ISZERO PUSH2 0xAB6 JUMPI PUSH1 0x40 MLOAD PUSH4 0x5274AFE7 PUSH1 0xE0 SHL DUP2 MSTORE PUSH1 0x1 PUSH1 0x1 PUSH1 0xA0 SHL SUB DUP6 AND PUSH1 0x4 DUP3 ADD MSTORE PUSH1 0x24 ADD PUSH2 0xF5C JUMP JUMPDEST PUSH0 MLOAD PUSH1 0x20 PUSH2 0x38A5 PUSH0 CODECOPY PUSH0 MLOAD SWAP1 PUSH0 MSTORE PUSH1 0x1 PUSH1 0x1 PUSH1 0xA0 SHL SUB DUP5 AND PUSH2 0x2A05 JUMPI DUP2 DUP2 PUSH1 0x2 ADD PUSH0 DUP3 DUP3 SLOAD PUSH2 0x29FA SWAP2 SWAP1 PUSH2 0x36A6 JUMP JUMPDEST SWAP1 SWAP2 SSTORE POP PUSH2 0x2A62 SWAP1 POP JUMP JUMPDEST PUSH1 0x1 PUSH1 0x1 PUSH1 0xA0 SHL SUB DUP5 AND PUSH0 SWAP1 DUP2 MSTORE PUSH1 0x20 DUP3 SWAP1 MSTORE PUSH1 0x40 SWAP1 KECCAK256 SLOAD DUP3 DUP2 LT ISZERO PUSH2 0x2A44 JUMPI DUP5 DUP2 DUP5 PUSH1 0x40 MLOAD PUSH4 0x391434E3 PUSH1 0xE2 SHL DUP2 MSTORE PUSH1 0x4 ADD PUSH2 0xF5C SWAP4 SWAP3 SWAP2 SWAP1 PUSH2 0x36B9 JUMP JUMPDEST PUSH1 0x1 PUSH1 0x1 PUSH1 0xA0 SHL SUB DUP6 AND PUSH0 SWAP1 DUP2 MSTORE PUSH1 0x20 DUP4 SWAP1 MSTORE PUSH1 0x40 SWAP1 KECCAK256 SWAP1 DUP4 SWAP1 SUB SWAP1 SSTORE JUMPDEST PUSH1 0x1 PUSH1 0x1 PUSH1 0xA0 SHL SUB DUP4 AND PUSH2 0x2A80 JUMPI PUSH1 0x2 DUP2 ADD DUP1 SLOAD DUP4 SWAP1 SUB SWAP1 SSTORE PUSH2 0x2A9E JUMP JUMPDEST PUSH1 0x1 PUSH1 0x1 PUSH1 0xA0 SHL SUB DUP4 AND PUSH0 SWAP1 DUP2 MSTORE PUSH1 0x20 DUP3 SWAP1 MSTORE PUSH1 0x40 SWAP1 KECCAK256 DUP1 SLOAD DUP4 ADD SWAP1 SSTORE JUMPDEST DUP3 PUSH1 0x1 PUSH1 0x1 PUSH1 0xA0 SHL SUB AND DUP5 PUSH1 0x1 PUSH1 0x1 PUSH1 0xA0 SHL SUB AND PUSH32 0xDDF252AD1BE2C89B69C2B068FC378DAA952BA7F163C4A11628F55A4DF523B3EF DUP5 PUSH1 0x40 MLOAD PUSH2 0x26FF SWAP2 DUP2 MSTORE PUSH1 0x20 ADD SWAP1 JUMP JUMPDEST PUSH0 MLOAD PUSH1 0x20 PUSH2 0x38E5 PUSH0 CODECOPY PUSH0 MLOAD SWAP1 PUSH0 MSTORE SLOAD PUSH1 0xFF AND PUSH2 0xCD4 JUMPI PUSH1 0x40 MLOAD PUSH4 0x8DFC202B PUSH1 0xE0 SHL DUP2 MSTORE PUSH1 0x4 ADD PUSH1 0x40 MLOAD DUP1 SWAP2 SUB SWAP1 REVERT JUMPDEST PUSH1 0x1 PUSH1 0x1 PUSH1 0xA0 SHL SUB DUP3 AND PUSH2 0x2B3B JUMPI PUSH1 0x40 MLOAD PUSH4 0x4B637E8F PUSH1 0xE1 SHL DUP2 MSTORE PUSH0 PUSH1 0x4 DUP3 ADD MSTORE PUSH1 0x24 ADD PUSH2 0xF5C JUMP JUMPDEST PUSH2 0x2560 DUP3 PUSH0 DUP4 PUSH2 0x29CB JUMP JUMPDEST PUSH0 PUSH1 0x2 DUP3 PUSH1 0x3 DUP2 GT ISZERO PUSH2 0x2B5B JUMPI PUSH2 0x2B5B PUSH2 0x3272 JUMP JUMPDEST PUSH2 0x2B65 SWAP2 SWAP1 PUSH2 0x374E JUMP JUMPDEST PUSH1 0xFF AND PUSH1 0x1 EQ SWAP1 POP SWAP2 SWAP1 POP JUMP JUMPDEST PUSH0 PUSH0 PUSH0 PUSH2 0x2B7F DUP7 DUP7 PUSH2 0x2EA9 JUMP JUMPDEST SWAP2 POP SWAP2 POP DUP2 PUSH0 SUB PUSH2 0x2BA3 JUMPI DUP4 DUP2 DUP2 PUSH2 0x2B99 JUMPI PUSH2 0x2B99 PUSH2 0x36F6 JUMP JUMPDEST DIV SWAP3 POP POP POP PUSH2 0xA73 JUMP JUMPDEST DUP2 DUP5 GT PUSH2 0x2BBA JUMPI PUSH2 0x2BBA PUSH1 0x3 DUP6 ISZERO MUL PUSH1 0x11 XOR PUSH2 0x2EC5 JUMP JUMPDEST PUSH0 DUP5 DUP7 DUP9 MULMOD PUSH0 DUP7 DUP2 SUB DUP8 AND SWAP7 DUP8 SWAP1 DIV SWAP7 PUSH1 0x2 PUSH1 0x3 DUP10 MUL DUP2 XOR DUP1 DUP11 MUL DUP3 SUB MUL DUP1 DUP11 MUL DUP3 SUB MUL DUP1 DUP11 MUL DUP3 SUB MUL DUP1 DUP11 MUL DUP3 SUB MUL DUP1 DUP11 MUL DUP3 SUB MUL DUP1 DUP11 MUL SWAP1 SWAP2 SUB MUL SWAP2 DUP2 SWAP1 SUB DUP2 SWAP1 DIV PUSH1 0x1 ADD DUP6 DUP5 GT SWAP1 SWAP7 SUB SWAP6 SWAP1 SWAP6 MUL SWAP2 SWAP1 SWAP4 SUB SWAP4 SWAP1 SWAP4 DIV SWAP3 SWAP1 SWAP3 OR MUL SWAP2 POP POP SWAP4 SWAP3 POP POP POP JUMP JUMPDEST PUSH0 PUSH0 PUSH0 PUSH0 PUSH2 0x2C32 DUP9 DUP9 DUP9 DUP9 PUSH2 0x2ED6 JUMP JUMPDEST SWAP3 POP SWAP3 POP SWAP3 POP PUSH2 0x2C42 DUP3 DUP3 PUSH2 0x2F9E JUMP JUMPDEST POP SWAP1 SWAP7 SWAP6 POP POP POP POP POP POP JUMP JUMPDEST PUSH2 0x2C56 PUSH2 0x3056 JUMP JUMPDEST PUSH2 0xCD4 JUMPI PUSH1 0x40 MLOAD PUSH4 0x1AFCD79F PUSH1 0xE3 SHL DUP2 MSTORE PUSH1 0x4 ADD PUSH1 0x40 MLOAD DUP1 SWAP2 SUB SWAP1 REVERT JUMPDEST PUSH2 0x2C7B PUSH2 0x2C4E JUMP JUMPDEST PUSH32 0x773E532DFEDE91F04B12A73D3D2ACD361424F41F76B4FB79F090161E36B4E00 PUSH0 DUP1 PUSH2 0x2CA7 DUP5 PUSH2 0x306F JUMP JUMPDEST SWAP2 POP SWAP2 POP DUP2 PUSH2 0x2CB7 JUMPI PUSH1 0x12 PUSH2 0x2CB9 JUMP JUMPDEST DUP1 JUMPDEST DUP4 SLOAD PUSH1 0x1 PUSH1 0x1 PUSH1 0xA8 SHL SUB NOT AND PUSH1 0x1 PUSH1 0xA0 SHL PUSH1 0xFF SWAP3 SWAP1 SWAP3 AND SWAP2 SWAP1 SWAP2 MUL PUSH1 0x1 PUSH1 0x1 PUSH1 0xA0 SHL SUB NOT AND OR PUSH1 0x1 PUSH1 0x1 PUSH1 0xA0 SHL SUB SWAP5 SWAP1 SWAP5 AND SWAP4 SWAP1 SWAP4 OR SWAP1 SWAP2 SSTORE POP POP JUMP JUMPDEST PUSH2 0x2CFE PUSH2 0x2C4E JUMP JUMPDEST PUSH0 MLOAD PUSH1 0x20 PUSH2 0x38A5 PUSH0 CODECOPY PUSH0 MLOAD SWAP1 PUSH0 MSTORE PUSH32 0x52C63247E1F47DB19D5CE0460030C497F067CA4CEBF71BA98EEADABE20BACE03 PUSH2 0x2D37 DUP5 DUP3 PUSH2 0x37BF JUMP JUMPDEST POP PUSH1 0x4 DUP2 ADD PUSH2 0xAB6 DUP4 DUP3 PUSH2 0x37BF JUMP JUMPDEST PUSH2 0x1EE3 PUSH2 0x2C4E JUMP JUMPDEST DUP3 PUSH1 0x1 PUSH1 0x1 PUSH1 0xA0 SHL SUB AND DUP6 PUSH1 0x1 PUSH1 0x1 PUSH1 0xA0 SHL SUB AND EQ PUSH2 0x2D72 JUMPI PUSH2 0x2D72 DUP4 DUP7 DUP4 PUSH2 0x1EF6 JUMP JUMPDEST PUSH1 0x1 PUSH1 0x1 PUSH1 0xA0 SHL SUB DUP4 AND PUSH0 SWAP1 DUP2 MSTORE PUSH1 0x11 PUSH1 0x20 MSTORE PUSH1 0x40 SWAP1 KECCAK256 PUSH1 0x1 ADD SLOAD DUP2 GT ISZERO PUSH2 0x2D9C JUMPI PUSH2 0x2D9C PUSH2 0x387A JUMP JUMPDEST PUSH1 0x1 PUSH1 0x1 PUSH1 0xA0 SHL SUB DUP4 AND PUSH0 SWAP1 DUP2 MSTORE PUSH1 0x11 PUSH1 0x20 MSTORE PUSH1 0x40 DUP2 KECCAK256 PUSH1 0x1 ADD DUP1 SLOAD DUP4 SWAP3 SWAP1 PUSH2 0x2DC6 SWAP1 DUP5 SWAP1 PUSH2 0x3642 JUMP JUMPDEST SWAP1 SWAP2 SSTORE POP PUSH2 0x2DD6 SWAP1 POP DUP4 DUP3 PUSH2 0x2B12 JUMP JUMPDEST PUSH0 PUSH2 0x2DE7 DUP4 PUSH1 0xC SLOAD PUSH2 0x2710 PUSH0 PUSH2 0x23CB JUMP JUMPDEST SWAP1 POP PUSH0 PUSH2 0x2DF4 DUP3 DUP6 PUSH2 0x3642 JUMP JUMPDEST SWAP1 POP PUSH0 DUP3 GT DUP1 ISZERO PUSH2 0x2E0F JUMPI POP PUSH1 0x6 SLOAD PUSH1 0x1 PUSH1 0x1 PUSH1 0xA0 SHL SUB AND ISZERO ISZERO JUMPDEST ISZERO PUSH2 0x2E2D JUMPI PUSH1 0x6 SLOAD PUSH2 0x2E2D SWAP1 PUSH1 0x1 PUSH1 0x1 PUSH1 0xA0 SHL SUB AND DUP4 PUSH2 0xA01 PUSH2 0xB30 JUMP JUMPDEST DUP1 ISZERO PUSH2 0x2E40 JUMPI PUSH2 0x2E40 DUP7 DUP3 PUSH2 0xA01 PUSH2 0xB30 JUMP JUMPDEST DUP5 PUSH1 0x1 PUSH1 0x1 PUSH1 0xA0 SHL SUB AND DUP7 PUSH1 0x1 PUSH1 0x1 PUSH1 0xA0 SHL SUB AND DUP9 PUSH1 0x1 PUSH1 0x1 PUSH1 0xA0 SHL SUB AND PUSH32 0xFBDE797D201C681B91056529119E0B02407C7BB96A4A2C75C01FC9667232C8DB DUP8 DUP8 PUSH1 0x40 MLOAD PUSH2 0x2E98 SWAP3 SWAP2 SWAP1 SWAP2 DUP3 MSTORE PUSH1 0x20 DUP3 ADD MSTORE PUSH1 0x40 ADD SWAP1 JUMP JUMPDEST PUSH1 0x40 MLOAD DUP1 SWAP2 SUB SWAP1 LOG4 POP POP POP POP POP POP POP JUMP JUMPDEST PUSH0 DUP1 PUSH0 NOT DUP4 DUP6 MULMOD SWAP4 SWAP1 SWAP3 MUL DUP1 DUP5 LT SWAP4 DUP2 SWAP1 SUB SWAP4 SWAP1 SWAP4 SUB SWAP4 SWAP2 POP POP JUMP JUMPDEST PUSH4 0x4E487B71 PUSH0 MSTORE DUP1 PUSH1 0x20 MSTORE PUSH1 0x24 PUSH1 0x1C REVERT JUMPDEST PUSH0 DUP1 DUP1 PUSH32 0x7FFFFFFFFFFFFFFFFFFFFFFFFFFFFFFF5D576E7357A4501DDFE92F46681B20A0 DUP5 GT ISZERO PUSH2 0x2F0F JUMPI POP PUSH0 SWAP2 POP PUSH1 0x3 SWAP1 POP DUP3 PUSH2 0x2F94 JUMP JUMPDEST PUSH1 0x40 DUP1 MLOAD PUSH0 DUP1 DUP3 MSTORE PUSH1 0x20 DUP3 ADD DUP1 DUP5 MSTORE DUP11 SWAP1 MSTORE PUSH1 0xFF DUP10 AND SWAP3 DUP3 ADD SWAP3 SWAP1 SWAP3 MSTORE PUSH1 0x60 DUP2 ADD DUP8 SWAP1 MSTORE PUSH1 0x80 DUP2 ADD DUP7 SWAP1 MSTORE PUSH1 0x1 SWAP1 PUSH1 0xA0 ADD PUSH1 0x20 PUSH1 0x40 MLOAD PUSH1 0x20 DUP2 SUB SWAP1 DUP1 DUP5 SUB SWAP1 DUP6 GAS STATICCALL ISZERO DUP1 ISZERO PUSH2 0x2F60 JUMPI RETURNDATASIZE PUSH0 PUSH0 RETURNDATACOPY RETURNDATASIZE PUSH0 REVERT JUMPDEST POP POP PUSH1 0x40 MLOAD PUSH1 0x1F NOT ADD MLOAD SWAP2 POP POP PUSH1 0x1 PUSH1 0x1 PUSH1 0xA0 SHL SUB DUP2 AND PUSH2 0x2F8B JUMPI POP PUSH0 SWAP3 POP PUSH1 0x1 SWAP2 POP DUP3 SWAP1 POP PUSH2 0x2F94 JUMP JUMPDEST SWAP3 POP PUSH0 SWAP2 POP DUP2 SWAP1 POP JUMPDEST SWAP5 POP SWAP5 POP SWAP5 SWAP2 POP POP JUMP JUMPDEST PUSH0 DUP3 PUSH1 0x3 DUP2 GT ISZERO PUSH2 0x2FB1 JUMPI PUSH2 0x2FB1 PUSH2 0x3272 JUMP JUMPDEST SUB PUSH2 0x2FBA JUMPI POP POP JUMP JUMPDEST PUSH1 0x1 DUP3 PUSH1 0x3 DUP2 GT ISZERO PUSH2 0x2FCE JUMPI PUSH2 0x2FCE PUSH2 0x3272 JUMP JUMPDEST SUB PUSH2 0x2FEC JUMPI PUSH1 0x40 MLOAD PUSH4 0xF645EEDF PUSH1 0xE0 SHL DUP2 MSTORE PUSH1 0x4 ADD PUSH1 0x40 MLOAD DUP1 SWAP2 SUB SWAP1 REVERT JUMPDEST PUSH1 0x2 DUP3 PUSH1 0x3 DUP2 GT ISZERO PUSH2 0x3000 JUMPI PUSH2 0x3000 PUSH2 0x3272 JUMP JUMPDEST SUB PUSH2 0x3021 JUMPI PUSH1 0x40 MLOAD PUSH4 0xFCE698F7 PUSH1 0xE0 SHL DUP2 MSTORE PUSH1 0x4 DUP2 ADD DUP3 SWAP1 MSTORE PUSH1 0x24 ADD PUSH2 0xF5C JUMP JUMPDEST PUSH1 0x3 DUP3 PUSH1 0x3 DUP2 GT ISZERO PUSH2 0x3035 JUMPI PUSH2 0x3035 PUSH2 0x3272 JUMP JUMPDEST SUB PUSH2 0x2560 JUMPI PUSH1 0x40 MLOAD PUSH4 0x35E2F383 PUSH1 0xE2 SHL DUP2 MSTORE PUSH1 0x4 DUP2 ADD DUP3 SWAP1 MSTORE PUSH1 0x24 ADD PUSH2 0xF5C JUMP JUMPDEST PUSH0 PUSH2 0x305F PUSH2 0x2564 JUMP JUMPDEST SLOAD PUSH1 0x1 PUSH1 0x40 SHL SWAP1 DIV PUSH1 0xFF AND SWAP2 SWAP1 POP JUMP JUMPDEST PUSH1 0x40 DUP1 MLOAD PUSH1 0x4 DUP2 MSTORE PUSH1 0x24 DUP2 ADD DUP3 MSTORE PUSH1 0x20 DUP2 ADD DUP1 MLOAD PUSH1 0x1 PUSH1 0x1 PUSH1 0xE0 SHL SUB AND PUSH4 0x313CE567 PUSH1 0xE0 SHL OR SWAP1 MSTORE SWAP1 MLOAD PUSH0 SWAP2 DUP3 SWAP2 DUP3 SWAP2 DUP3 SWAP2 PUSH1 0x1 PUSH1 0x1 PUSH1 0xA0 SHL SUB DUP8 AND SWAP2 PUSH2 0x30B5 SWAP2 PUSH2 0x388E JUMP JUMPDEST PUSH0 PUSH1 0x40 MLOAD DUP1 DUP4 SUB DUP2 DUP6 GAS STATICCALL SWAP2 POP POP RETURNDATASIZE DUP1 PUSH0 DUP2 EQ PUSH2 0x30ED JUMPI PUSH1 0x40 MLOAD SWAP2 POP PUSH1 0x1F NOT PUSH1 0x3F RETURNDATASIZE ADD AND DUP3 ADD PUSH1 0x40 MSTORE RETURNDATASIZE DUP3 MSTORE RETURNDATASIZE PUSH0 PUSH1 0x20 DUP5 ADD RETURNDATACOPY PUSH2 0x30F2 JUMP JUMPDEST PUSH1 0x60 SWAP2 POP JUMPDEST POP SWAP2 POP SWAP2 POP DUP2 DUP1 ISZERO PUSH2 0x3106 JUMPI POP PUSH1 0x20 DUP2 MLOAD LT ISZERO JUMPDEST ISZERO PUSH2 0x3139 JUMPI PUSH0 DUP2 DUP1 PUSH1 0x20 ADD SWAP1 MLOAD DUP2 ADD SWAP1 PUSH2 0x3120 SWAP2 SWAP1 PUSH2 0x3617 JUMP JUMPDEST SWAP1 POP PUSH1 0xFF DUP2 GT PUSH2 0x3137 JUMPI PUSH1 0x1 SWAP7 SWAP1 SWAP6 POP SWAP4 POP POP POP POP JUMP JUMPDEST POP JUMPDEST POP PUSH0 SWAP5 DUP6 SWAP5 POP SWAP3 POP POP POP JUMP JUMPDEST PUSH0 PUSH1 0x20 DUP3 DUP5 SUB SLT ISZERO PUSH2 0x3155 JUMPI PUSH0 PUSH0 REVERT JUMPDEST DUP2 CALLDATALOAD PUSH1 0x1 PUSH1 0x1 PUSH1 0xE0 SHL SUB NOT DUP2 AND DUP2 EQ PUSH2 0xA73 JUMPI PUSH0 PUSH0 REVERT JUMPDEST PUSH1 0x20 DUP2 MSTORE PUSH0 DUP3 MLOAD DUP1 PUSH1 0x20 DUP5 ADD MSTORE DUP1 PUSH1 0x20 DUP6 ADD PUSH1 0x40 DUP6 ADD MCOPY PUSH0 PUSH1 0x40 DUP3 DUP6 ADD ADD MSTORE PUSH1 0x40 PUSH1 0x1F NOT PUSH1 0x1F DUP4 ADD AND DUP5 ADD ADD SWAP2 POP POP SWAP3 SWAP2 POP POP JUMP JUMPDEST PUSH0 PUSH1 0x20 DUP3 DUP5 SUB SLT ISZERO PUSH2 0x31B1 JUMPI PUSH0 PUSH0 REVERT JUMPDEST POP CALLDATALOAD SWAP2 SWAP1 POP JUMP JUMPDEST PUSH1 0x1 PUSH1 0x1 PUSH1 0xA0 SHL SUB DUP2 AND DUP2 EQ PUSH2 0xA52 JUMPI PUSH0 PUSH0 REVERT JUMPDEST DUP1 CALLDATALOAD PUSH2 0x31D7 DUP2 PUSH2 0x31B8 JUMP JUMPDEST SWAP2 SWAP1 POP JUMP JUMPDEST PUSH0 PUSH0 PUSH1 0x40 DUP4 DUP6 SUB SLT ISZERO PUSH2 0x31ED JUMPI PUSH0 PUSH0 REVERT JUMPDEST DUP3 CALLDATALOAD PUSH2 0x31F8 DUP2 PUSH2 0x31B8 JUMP JUMPDEST SWAP5 PUSH1 0x20 SWAP4 SWAP1 SWAP4 ADD CALLDATALOAD SWAP4 POP POP POP JUMP JUMPDEST PUSH0 PUSH0 PUSH0 PUSH1 0x60 DUP5 DUP7 SUB SLT ISZERO PUSH2 0x3218 JUMPI PUSH0 PUSH0 REVERT JUMPDEST DUP4 CALLDATALOAD PUSH2 0x3223 DUP2 PUSH2 0x31B8 JUMP JUMPDEST SWAP3 POP PUSH1 0x20 DUP5 ADD CALLDATALOAD PUSH2 0x3233 DUP2 PUSH2 0x31B8 JUMP JUMPDEST SWAP3 SWAP6 SWAP3 SWAP5 POP POP POP PUSH1 0x40 SWAP2 SWAP1 SWAP2 ADD CALLDATALOAD SWAP1 JUMP JUMPDEST PUSH0 PUSH0 PUSH1 0x40 DUP4 DUP6 SUB SLT ISZERO PUSH2 0x3255 JUMPI PUSH0 PUSH0 REVERT JUMPDEST DUP3 CALLDATALOAD SWAP2 POP PUSH1 0x20 DUP4 ADD CALLDATALOAD PUSH2 0x3267 DUP2 PUSH2 0x31B8 JUMP JUMPDEST DUP1 SWAP2 POP POP SWAP3 POP SWAP3 SWAP1 POP JUMP JUMPDEST PUSH4 0x4E487B71 PUSH1 0xE0 SHL PUSH0 MSTORE PUSH1 0x21 PUSH1 0x4 MSTORE PUSH1 0x24 PUSH0 REVERT JUMPDEST PUSH1 0x20 DUP2 ADD PUSH1 0x3 DUP4 LT PUSH2 0x32A6 JUMPI PUSH4 0x4E487B71 PUSH1 0xE0 SHL PUSH0 MSTORE PUSH1 0x21 PUSH1 0x4 MSTORE PUSH1 0x24 PUSH0 REVERT JUMPDEST SWAP2 SWAP1 MSTORE SWAP1 JUMP JUMPDEST PUSH0 PUSH1 0x20 DUP3 DUP5 SUB SLT ISZERO PUSH2 0x32BC JUMPI PUSH0 PUSH0 REVERT JUMPDEST DUP2 CALLDATALOAD PUSH2 0xA73 DUP2 PUSH2 0x31B8 JUMP JUMPDEST PUSH0 PUSH0 DUP3 DUP5 SUB PUSH1 0xC0 DUP2 SLT ISZERO PUSH2 0x32D9 JUMPI PUSH0 PUSH0 REVERT JUMPDEST DUP4 CALLDATALOAD SWAP3 POP PUSH1 0xA0 PUSH1 0x1F NOT DUP3 ADD SLT ISZERO PUSH2 0x32EE JUMPI PUSH0 PUSH0 REVERT JUMPDEST POP PUSH1 0x20 DUP4 ADD SWAP1 POP SWAP3 POP SWAP3 SWAP1 POP JUMP JUMPDEST PUSH4 0x4E487B71 PUSH1 0xE0 SHL PUSH0 MSTORE PUSH1 0x41 PUSH1 0x4 MSTORE PUSH1 0x24 PUSH0 REVERT JUMPDEST PUSH1 0x40 MLOAD PUSH2 0x1E0 DUP2 ADD PUSH8 0xFFFFFFFFFFFFFFFF DUP2 GT DUP3 DUP3 LT OR ISZERO PUSH2 0x3334 JUMPI PUSH2 0x3334 PUSH2 0x32FC JUMP JUMPDEST PUSH1 0x40 MSTORE SWAP1 JUMP JUMPDEST PUSH0 DUP3 PUSH1 0x1F DUP4 ADD SLT PUSH2 0x3349 JUMPI PUSH0 PUSH0 REVERT JUMPDEST DUP2 CALLDATALOAD PUSH8 0xFFFFFFFFFFFFFFFF DUP2 GT ISZERO PUSH2 0x3363 JUMPI PUSH2 0x3363 PUSH2 0x32FC JUMP JUMPDEST PUSH1 0x40 MLOAD PUSH1 0x1F DUP3 ADD PUSH1 0x1F NOT SWAP1 DUP2 AND PUSH1 0x3F ADD AND DUP2 ADD PUSH8 0xFFFFFFFFFFFFFFFF DUP2 GT DUP3 DUP3 LT OR ISZERO PUSH2 0x3392 JUMPI PUSH2 0x3392 PUSH2 0x32FC JUMP JUMPDEST PUSH1 0x40 MSTORE DUP2 DUP2 MSTORE DUP4 DUP3 ADD PUSH1 0x20 ADD DUP6 LT ISZERO PUSH2 0x33A9 JUMPI PUSH0 PUSH0 REVERT JUMPDEST DUP2 PUSH1 0x20 DUP6 ADD PUSH1 0x20 DUP4 ADD CALLDATACOPY PUSH0 SWAP2 DUP2 ADD PUSH1 0x20 ADD SWAP2 SWAP1 SWAP2 MSTORE SWAP4 SWAP3 POP POP POP JUMP JUMPDEST DUP1 CALLDATALOAD PUSH1 0x3 DUP2 LT PUSH2 0x31D7 JUMPI PUSH0 PUSH0 REVERT JUMPDEST PUSH0 PUSH1 0x20 DUP3 DUP5 SUB SLT ISZERO PUSH2 0x33E3 JUMPI PUSH0 PUSH0 REVERT JUMPDEST DUP2 CALLDATALOAD PUSH8 0xFFFFFFFFFFFFFFFF DUP2 GT ISZERO PUSH2 0x33F9 JUMPI PUSH0 PUSH0 REVERT JUMPDEST DUP3 ADD PUSH2 0x1E0 DUP2 DUP6 SUB SLT ISZERO PUSH2 0x340B JUMPI PUSH0 PUSH0 REVERT JUMPDEST PUSH2 0x3413 PUSH2 0x3310 JUMP JUMPDEST PUSH2 0x341C DUP3 PUSH2 0x31CC JUMP JUMPDEST DUP2 MSTORE PUSH2 0x342A PUSH1 0x20 DUP4 ADD PUSH2 0x31CC JUMP JUMPDEST PUSH1 0x20 DUP3 ADD MSTORE PUSH1 0x40 DUP3 ADD CALLDATALOAD PUSH8 0xFFFFFFFFFFFFFFFF DUP2 GT ISZERO PUSH2 0x3448 JUMPI PUSH0 PUSH0 REVERT JUMPDEST PUSH2 0x3454 DUP7 DUP3 DUP6 ADD PUSH2 0x333A JUMP JUMPDEST PUSH1 0x40 DUP4 ADD MSTORE POP PUSH1 0x60 DUP3 ADD CALLDATALOAD PUSH8 0xFFFFFFFFFFFFFFFF DUP2 GT ISZERO PUSH2 0x3473 JUMPI PUSH0 PUSH0 REVERT JUMPDEST PUSH2 0x347F DUP7 DUP3 DUP6 ADD PUSH2 0x333A JUMP JUMPDEST PUSH1 0x60 DUP4 ADD MSTORE POP PUSH2 0x3491 PUSH1 0x80 DUP4 ADD PUSH2 0x31CC JUMP JUMPDEST PUSH1 0x80 DUP3 ADD MSTORE PUSH1 0xA0 DUP3 DUP2 ADD CALLDATALOAD SWAP1 DUP3 ADD MSTORE PUSH1 0xC0 DUP1 DUP4 ADD CALLDATALOAD SWAP1 DUP3 ADD MSTORE PUSH1 0xE0 DUP1 DUP4 ADD CALLDATALOAD SWAP1 DUP3 ADD MSTORE PUSH2 0x100 DUP1 DUP4 ADD CALLDATALOAD SWAP1 DUP3 ADD MSTORE PUSH2 0x120 DUP1 DUP4 ADD CALLDATALOAD SWAP1 DUP3 ADD MSTORE PUSH2 0x140 DUP1 DUP4 ADD CALLDATALOAD SWAP1 DUP3 ADD MSTORE PUSH2 0x34E2 PUSH2 0x160 DUP4 ADD PUSH2 0x33C5 JUMP JUMPDEST PUSH2 0x160 DUP3 ADD MSTORE PUSH2 0x180 DUP3 DUP2 ADD CALLDATALOAD SWAP1 DUP3 ADD MSTORE PUSH2 0x1A0 DUP1 DUP4 ADD CALLDATALOAD SWAP1 DUP3 ADD MSTORE PUSH2 0x1C0 SWAP2 DUP3 ADD CALLDATALOAD SWAP2 DUP2 ADD SWAP2 SWAP1 SWAP2 MSTORE SWAP4 SWAP3 POP POP POP JUMP JUMPDEST PUSH0 PUSH0 PUSH0 PUSH1 0x60 DUP5 DUP7 SUB SLT ISZERO PUSH2 0x3525 JUMPI PUSH0 PUSH0 REVERT JUMPDEST DUP4 CALLDATALOAD SWAP3 POP PUSH1 0x20 DUP5 ADD CALLDATALOAD PUSH2 0x3537 DUP2 PUSH2 0x31B8 JUMP JUMPDEST SWAP2 POP PUSH1 0x40 DUP5 ADD CALLDATALOAD PUSH2 0x3547 DUP2 PUSH2 0x31B8 JUMP JUMPDEST DUP1 SWAP2 POP POP SWAP3 POP SWAP3 POP SWAP3 JUMP JUMPDEST PUSH1 0x20 DUP1 DUP3 MSTORE DUP3 MLOAD PUSH1 0x80 DUP4 DUP4 ADD MSTORE DUP1 MLOAD PUSH1 0xA0 DUP5 ADD DUP2 SWAP1 MSTORE PUSH0 SWAP3 SWAP2 SWAP1 SWAP2 ADD SWAP1 DUP3 SWAP1 PUSH1 0xC0 DUP6 ADD SWAP1 JUMPDEST DUP1 DUP4 LT ISZERO PUSH2 0x35B1 JUMPI DUP4 MLOAD DUP1 MLOAD DUP4 MSTORE PUSH1 0x20 DUP2 ADD MLOAD PUSH1 0x20 DUP5 ADD MSTORE PUSH1 0x40 DUP2 ADD MLOAD PUSH1 0x40 DUP5 ADD MSTORE POP PUSH1 0x60 DUP3 ADD SWAP2 POP PUSH1 0x20 DUP5 ADD SWAP4 POP PUSH1 0x1 DUP4 ADD SWAP3 POP PUSH2 0x3577 JUMP JUMPDEST POP PUSH1 0x20 DUP7 ADD MLOAD PUSH1 0x40 DUP7 ADD MSTORE PUSH1 0x40 DUP7 ADD MLOAD SWAP3 POP PUSH2 0x35D5 PUSH1 0x60 DUP7 ADD DUP5 PUSH4 0xFFFFFFFF AND SWAP1 MSTORE JUMP JUMPDEST PUSH1 0x60 DUP7 ADD MLOAD PUSH1 0x80 DUP7 ADD MSTORE DUP1 SWAP4 POP POP POP POP SWAP3 SWAP2 POP POP JUMP JUMPDEST PUSH0 PUSH0 PUSH1 0x40 DUP4 DUP6 SUB SLT ISZERO PUSH2 0x35FC JUMPI PUSH0 PUSH0 REVERT JUMPDEST DUP3 CALLDATALOAD PUSH2 0x3607 DUP2 PUSH2 0x31B8 JUMP JUMPDEST SWAP2 POP PUSH1 0x20 DUP4 ADD CALLDATALOAD PUSH2 0x3267 DUP2 PUSH2 0x31B8 JUMP JUMPDEST PUSH0 PUSH1 0x20 DUP3 DUP5 SUB SLT ISZERO PUSH2 0x3627 JUMPI PUSH0 PUSH0 REVERT JUMPDEST POP MLOAD SWAP2 SWAP1 POP JUMP JUMPDEST PUSH4 0x4E487B71 PUSH1 0xE0 SHL PUSH0 MSTORE PUSH1 0x11 PUSH1 0x4 MSTORE PUSH1 0x24 PUSH0 REVERT JUMPDEST DUP2 DUP2 SUB DUP2 DUP2 GT ISZERO PUSH2 0x860 JUMPI PUSH2 0x860 PUSH2 0x362E JUMP JUMPDEST PUSH1 0x1 DUP2 DUP2 SHR SWAP1 DUP3 AND DUP1 PUSH2 0x3669 JUMPI PUSH1 0x7F DUP3 AND SWAP2 POP JUMPDEST PUSH1 0x20 DUP3 LT DUP2 SUB PUSH2 0x3687 JUMPI PUSH4 0x4E487B71 PUSH1 0xE0 SHL PUSH0 MSTORE PUSH1 0x22 PUSH1 0x4 MSTORE PUSH1 0x24 PUSH0 REVERT JUMPDEST POP SWAP2 SWAP1 POP JUMP JUMPDEST PUSH1 0xFF DUP2 DUP2 AND DUP4 DUP3 AND ADD SWAP1 DUP2 GT ISZERO PUSH2 0x860 JUMPI PUSH2 0x860 PUSH2 0x362E JUMP JUMPDEST DUP1 DUP3 ADD DUP1 DUP3 GT ISZERO PUSH2 0x860 JUMPI PUSH2 0x860 PUSH2 0x362E JUMP JUMPDEST PUSH1 0x1 PUSH1 0x1 PUSH1 0xA0 SHL SUB SWAP4 SWAP1 SWAP4 AND DUP4 MSTORE PUSH1 0x20 DUP4 ADD SWAP2 SWAP1 SWAP2 MSTORE PUSH1 0x40 DUP3 ADD MSTORE PUSH1 0x60 ADD SWAP1 JUMP JUMPDEST PUSH4 0xFFFFFFFF DUP2 DUP2 AND DUP4 DUP3 AND ADD SWAP1 DUP2 GT ISZERO PUSH2 0x860 JUMPI PUSH2 0x860 PUSH2 0x362E JUMP JUMPDEST PUSH4 0x4E487B71 PUSH1 0xE0 SHL PUSH0 MSTORE PUSH1 0x12 PUSH1 0x4 MSTORE PUSH1 0x24 PUSH0 REVERT JUMPDEST PUSH0 PUSH1 0x20 DUP3 DUP5 SUB SLT ISZERO PUSH2 0x371A JUMPI PUSH0 PUSH0 REVERT JUMPDEST DUP2 CALLDATALOAD PUSH1 0xFF DUP2 AND DUP2 EQ PUSH2 0xA73 JUMPI PUSH0 PUSH0 REVERT JUMPDEST PUSH0 PUSH4 0xFFFFFFFF DUP3 AND PUSH4 0xFFFFFFFF DUP2 SUB PUSH2 0x3745 JUMPI PUSH2 0x3745 PUSH2 0x362E JUMP JUMPDEST PUSH1 0x1 ADD SWAP3 SWAP2 POP POP JUMP JUMPDEST PUSH0 PUSH1 0xFF DUP4 AND DUP1 PUSH2 0x376C JUMPI PUSH4 0x4E487B71 PUSH1 0xE0 SHL PUSH0 MSTORE PUSH1 0x12 PUSH1 0x4 MSTORE PUSH1 0x24 PUSH0 REVERT JUMPDEST DUP1 PUSH1 0xFF DUP5 AND MOD SWAP2 POP POP SWAP3 SWAP2 POP POP JUMP JUMPDEST PUSH1 0x1F DUP3 GT ISZERO PUSH2 0xB2B JUMPI DUP1 PUSH0 MSTORE PUSH1 0x20 PUSH0 KECCAK256 PUSH1 0x1F DUP5 ADD PUSH1 0x5 SHR DUP2 ADD PUSH1 0x20 DUP6 LT ISZERO PUSH2 0x37A0 JUMPI POP DUP1 JUMPDEST PUSH1 0x1F DUP5 ADD PUSH1 0x5 SHR DUP3 ADD SWAP2 POP JUMPDEST DUP2 DUP2 LT ISZERO PUSH2 0x291F JUMPI PUSH0 DUP2 SSTORE PUSH1 0x1 ADD PUSH2 0x37AC JUMP JUMPDEST DUP2 MLOAD PUSH8 0xFFFFFFFFFFFFFFFF DUP2 GT ISZERO PUSH2 0x37D9 JUMPI PUSH2 0x37D9 PUSH2 0x32FC JUMP JUMPDEST PUSH2 0x37ED DUP2 PUSH2 0x37E7 DUP5 SLOAD PUSH2 0x3655 JUMP JUMPDEST DUP5 PUSH2 0x377B JUMP JUMPDEST PUSH1 0x20 PUSH1 0x1F DUP3 GT PUSH1 0x1 DUP2 EQ PUSH2 0x381F JUMPI PUSH0 DUP4 ISZERO PUSH2 0x3808 JUMPI POP DUP5 DUP3 ADD MLOAD JUMPDEST PUSH0 NOT PUSH1 0x3 DUP6 SWAP1 SHL SHR NOT AND PUSH1 0x1 DUP5 SWAP1 SHL OR DUP5 SSTORE PUSH2 0x291F JUMP JUMPDEST PUSH0 DUP5 DUP2 MSTORE PUSH1 0x20 DUP2 KECCAK256 PUSH1 0x1F NOT DUP6 AND SWAP2 JUMPDEST DUP3 DUP2 LT ISZERO PUSH2 0x384E JUMPI DUP8 DUP6 ADD MLOAD DUP3 SSTORE PUSH1 0x20 SWAP5 DUP6 ADD SWAP5 PUSH1 0x1 SWAP1 SWAP3 ADD SWAP2 ADD PUSH2 0x382E JUMP JUMPDEST POP DUP5 DUP3 LT ISZERO PUSH2 0x386B JUMPI DUP7 DUP5 ADD MLOAD PUSH0 NOT PUSH1 0x3 DUP8 SWAP1 SHL PUSH1 0xF8 AND SHR NOT AND DUP2 SSTORE JUMPDEST POP POP POP POP PUSH1 0x1 SWAP1 DUP2 SHL ADD SWAP1 SSTORE POP JUMP JUMPDEST PUSH4 0x4E487B71 PUSH1 0xE0 SHL PUSH0 MSTORE PUSH1 0x1 PUSH1 0x4 MSTORE PUSH1 0x24 PUSH0 REVERT JUMPDEST PUSH0 DUP3 MLOAD DUP1 PUSH1 0x20 DUP6 ADD DUP5 MCOPY PUSH0 SWAP3 ADD SWAP2 DUP3 MSTORE POP SWAP2 SWAP1 POP JUMP INVALID MSTORE 0xC6 ORIGIN SELFBALANCE RJUMPI 0xF47D 0xB1 SWAP14 TLOAD RJUMP 0x4600 ADDRESS 0xC4 SWAP8 CREATE PUSH8 0xCA4CEBF71BA98EEA 0xDA 0xBE KECCAK256 0xBA 0xCE STOP MUL 0xDD PUSH28 0xC7DEC4DCEEDDA775E58DD541E08A116C6C53815C0BD028192F7B6268 STOP 0xCD MCOPY DATALOADN 0x5C6E XOR PUSH31 0x77E9AEE88184C21F4F2182AB5827CB3B7E07FBEDCD63F033009B779B17422D 0xD EXTDELEGATECALL 0x22 0x23 ADD DUP12 ORIGIN 0xB4 DATALOADN 0xFA46 RJUMP 0x7172 RETURNDATASIZE PUSH9 0x17E2486D003BECC55F STOP LOG2 PUSH5 0x6970667358 0x22 SLT KECCAK256 KECCAK256 SELFBALANCE STATICCALL STATICCALL EXTDELEGATECALL SWAP14 0xAF SWAP7 PUSH28 0x5876E5CC9FA8F1049DCC917EF810837327ECA6079529B764736F6C63 NUMBER STOP ADDMOD 0x1E STOP CALLER "},"methodIdentifiers":{"DEFAULT_ADMIN_ROLE()":"a217fddf","DEPOSIT_FEE_PERMILE()":"571e1c68","ENDTIME()":"850d9afb","FUNDING_CAP()":"3bc64d2b","MATURITY_INTEREST_PERMILE()":"33acd652","MATURITY_TIME()":"e3275eb0","MAX_DEPOSIT()":"dd5967c3","MIN_DEPOSIT()":"e1e158a5","PAYOUT_TYPE()":"3c37475e","STARTTIME()":"cfd7ab91","TOKEN_PRICE()":"d2d8cb67","TOTAL_INVESTMENTS()":"428a8bad","TOTAL_PAYOUTS()":"2688ead8","WITHDRAW_FEE_PERMILE()":"98b78a4b","admin()":"f851a440","allowance(address,address)":"dd62ed3e","approve(address,uint256)":"095ea7b3","asset()":"38d52e0f","balanceOf(address)":"70a08231","claim()":"4e71d92d","convertToAssets(uint256)":"07a2d13a","convertToShares(uint256)":"c6e6f592","decimals()":"313ce567","deposit(uint256,address)":"6e553f65","depositWithSign(uint256,(uint8,bytes32,bytes32,uint256,uint256))":"5f04c5e4","feedFunds(uint256,address)":"b422271f","getROI(address)":"ed9dbced","getRoleAdmin(bytes32)":"248a9ca3","getUserDetails(address)":"cc3d967b","getmaturityROI(address)":"4bd0c2d8","grantRole(bytes32,address)":"2f2ff15d","hasRole(bytes32,address)":"91d14854","initialize((address,address,string,string,address,uint256,uint256,uint256,uint256,uint256,uint256,uint8,uint256,uint256,uint256))":"6549c503","maxDeposit(address)":"402d267d","maxMint(address)":"c63d75b6","maxRedeem(address)":"d905777e","maxWithdraw(address)":"ce96cb77","mint(uint256,address)":"94bf804d","name()":"06fdde03","pause()":"8456cb59","paused()":"5c975abb","previewDeposit(uint256)":"ef8b30f7","previewMint(uint256)":"b3d7f6b9","previewRedeem(uint256)":"4cdad506","previewWithdraw(uint256)":"0a28a477","redeem(uint256,address,address)":"ba087652","renounceRole(bytes32,address)":"36568abe","rescueTokens(address,uint256)":"57376198","revokeRole(bytes32,address)":"d547741f","signAuthority()":"19dcd884","supportsInterface(bytes4)":"01ffc9a7","symbol()":"95d89b41","totalAssets()":"01e1d114","totalSupply()":"18160ddd","transfer(address,uint256)":"a9059cbb","transferFrom(address,address,uint256)":"23b872dd","transferOwnership(address)":"f2fde38b","unpause()":"3f4ba83a","withdraw(uint256,address,address)":"b460af94","withdrawFunds(uint256)":"155dd5ee"}}}}}