{
  "_format": "hh3-artifact-1",
  "contractName": "AumFinBEPToken",
  "sourceName": "contracts/AumFinToken.sol",
  "abi": [
    {
      "inputs": [
        {
          "internalType": "string",
          "name": "name_",
          "type": "string"
        },
        {
          "internalType": "string",
          "name": "symbol_",
          "type": "string"
        },
        {
          "internalType": "address",
          "name": "admin",
          "type": "address"
        }
      ],
      "stateMutability": "nonpayable",
      "type": "constructor"
    },
    {
      "inputs": [],
      "name": "AccessControlBadConfirmation",
      "type": "error"
    },
    {
      "inputs": [
        {
          "internalType": "address",
          "name": "account",
          "type": "address"
        },
        {
          "internalType": "bytes32",
          "name": "neededRole",
          "type": "bytes32"
        }
      ],
      "name": "AccessControlUnauthorizedAccount",
      "type": "error"
    },
    {
      "inputs": [
        {
          "internalType": "address",
          "name": "spender",
          "type": "address"
        },
        {
          "internalType": "uint256",
          "name": "allowance",
          "type": "uint256"
        },
        {
          "internalType": "uint256",
          "name": "needed",
          "type": "uint256"
        }
      ],
      "name": "ERC20InsufficientAllowance",
      "type": "error"
    },
    {
      "inputs": [
        {
          "internalType": "address",
          "name": "sender",
          "type": "address"
        },
        {
          "internalType": "uint256",
          "name": "balance",
          "type": "uint256"
        },
        {
          "internalType": "uint256",
          "name": "needed",
          "type": "uint256"
        }
      ],
      "name": "ERC20InsufficientBalance",
      "type": "error"
    },
    {
      "inputs": [
        {
          "internalType": "address",
          "name": "approver",
          "type": "address"
        }
      ],
      "name": "ERC20InvalidApprover",
      "type": "error"
    },
    {
      "inputs": [
        {
          "internalType": "address",
          "name": "receiver",
          "type": "address"
        }
      ],
      "name": "ERC20InvalidReceiver",
      "type": "error"
    },
    {
      "inputs": [
        {
          "internalType": "address",
          "name": "sender",
          "type": "address"
        }
      ],
      "name": "ERC20InvalidSender",
      "type": "error"
    },
    {
      "inputs": [
        {
          "internalType": "address",
          "name": "spender",
          "type": "address"
        }
      ],
      "name": "ERC20InvalidSpender",
      "type": "error"
    },
    {
      "anonymous": false,
      "inputs": [
        {
          "indexed": true,
          "internalType": "address",
          "name": "owner",
          "type": "address"
        },
        {
          "indexed": true,
          "internalType": "address",
          "name": "spender",
          "type": "address"
        },
        {
          "indexed": false,
          "internalType": "uint256",
          "name": "value",
          "type": "uint256"
        }
      ],
      "name": "Approval",
      "type": "event"
    },
    {
      "anonymous": false,
      "inputs": [
        {
          "indexed": true,
          "internalType": "bytes32",
          "name": "role",
          "type": "bytes32"
        },
        {
          "indexed": true,
          "internalType": "bytes32",
          "name": "previousAdminRole",
          "type": "bytes32"
        },
        {
          "indexed": true,
          "internalType": "bytes32",
          "name": "newAdminRole",
          "type": "bytes32"
        }
      ],
      "name": "RoleAdminChanged",
      "type": "event"
    },
    {
      "anonymous": false,
      "inputs": [
        {
          "indexed": true,
          "internalType": "bytes32",
          "name": "role",
          "type": "bytes32"
        },
        {
          "indexed": true,
          "internalType": "address",
          "name": "account",
          "type": "address"
        },
        {
          "indexed": true,
          "internalType": "address",
          "name": "sender",
          "type": "address"
        }
      ],
      "name": "RoleGranted",
      "type": "event"
    },
    {
      "anonymous": false,
      "inputs": [
        {
          "indexed": true,
          "internalType": "bytes32",
          "name": "role",
          "type": "bytes32"
        },
        {
          "indexed": true,
          "internalType": "address",
          "name": "account",
          "type": "address"
        },
        {
          "indexed": true,
          "internalType": "address",
          "name": "sender",
          "type": "address"
        }
      ],
      "name": "RoleRevoked",
      "type": "event"
    },
    {
      "anonymous": false,
      "inputs": [
        {
          "indexed": true,
          "internalType": "address",
          "name": "from",
          "type": "address"
        },
        {
          "indexed": true,
          "internalType": "address",
          "name": "to",
          "type": "address"
        },
        {
          "indexed": false,
          "internalType": "uint256",
          "name": "value",
          "type": "uint256"
        }
      ],
      "name": "Transfer",
      "type": "event"
    },
    {
      "inputs": [],
      "name": "DEFAULT_ADMIN_ROLE",
      "outputs": [
        {
          "internalType": "bytes32",
          "name": "",
          "type": "bytes32"
        }
      ],
      "stateMutability": "view",
      "type": "function"
    },
    {
      "inputs": [],
      "name": "MINTER_ROLE",
      "outputs": [
        {
          "internalType": "bytes32",
          "name": "",
          "type": "bytes32"
        }
      ],
      "stateMutability": "view",
      "type": "function"
    },
    {
      "inputs": [
        {
          "internalType": "address",
          "name": "owner",
          "type": "address"
        },
        {
          "internalType": "address",
          "name": "spender",
          "type": "address"
        }
      ],
      "name": "allowance",
      "outputs": [
        {
          "internalType": "uint256",
          "name": "",
          "type": "uint256"
        }
      ],
      "stateMutability": "view",
      "type": "function"
    },
    {
      "inputs": [
        {
          "internalType": "address",
          "name": "spender",
          "type": "address"
        },
        {
          "internalType": "uint256",
          "name": "value",
          "type": "uint256"
        }
      ],
      "name": "approve",
      "outputs": [
        {
          "internalType": "bool",
          "name": "",
          "type": "bool"
        }
      ],
      "stateMutability": "nonpayable",
      "type": "function"
    },
    {
      "inputs": [
        {
          "internalType": "address",
          "name": "account",
          "type": "address"
        }
      ],
      "name": "balanceOf",
      "outputs": [
        {
          "internalType": "uint256",
          "name": "",
          "type": "uint256"
        }
      ],
      "stateMutability": "view",
      "type": "function"
    },
    {
      "inputs": [],
      "name": "decimals",
      "outputs": [
        {
          "internalType": "uint8",
          "name": "",
          "type": "uint8"
        }
      ],
      "stateMutability": "view",
      "type": "function"
    },
    {
      "inputs": [
        {
          "internalType": "bytes32",
          "name": "role",
          "type": "bytes32"
        }
      ],
      "name": "getRoleAdmin",
      "outputs": [
        {
          "internalType": "bytes32",
          "name": "",
          "type": "bytes32"
        }
      ],
      "stateMutability": "view",
      "type": "function"
    },
    {
      "inputs": [
        {
          "internalType": "bytes32",
          "name": "role",
          "type": "bytes32"
        },
        {
          "internalType": "address",
          "name": "account",
          "type": "address"
        }
      ],
      "name": "grantRole",
      "outputs": [],
      "stateMutability": "nonpayable",
      "type": "function"
    },
    {
      "inputs": [
        {
          "internalType": "bytes32",
          "name": "role",
          "type": "bytes32"
        },
        {
          "internalType": "address",
          "name": "account",
          "type": "address"
        }
      ],
      "name": "hasRole",
      "outputs": [
        {
          "internalType": "bool",
          "name": "",
          "type": "bool"
        }
      ],
      "stateMutability": "view",
      "type": "function"
    },
    {
      "inputs": [
        {
          "internalType": "address",
          "name": "to",
          "type": "address"
        },
        {
          "internalType": "uint256",
          "name": "amount",
          "type": "uint256"
        }
      ],
      "name": "mint",
      "outputs": [],
      "stateMutability": "nonpayable",
      "type": "function"
    },
    {
      "inputs": [],
      "name": "name",
      "outputs": [
        {
          "internalType": "string",
          "name": "",
          "type": "string"
        }
      ],
      "stateMutability": "view",
      "type": "function"
    },
    {
      "inputs": [
        {
          "internalType": "bytes32",
          "name": "role",
          "type": "bytes32"
        },
        {
          "internalType": "address",
          "name": "callerConfirmation",
          "type": "address"
        }
      ],
      "name": "renounceRole",
      "outputs": [],
      "stateMutability": "nonpayable",
      "type": "function"
    },
    {
      "inputs": [
        {
          "internalType": "bytes32",
          "name": "role",
          "type": "bytes32"
        },
        {
          "internalType": "address",
          "name": "account",
          "type": "address"
        }
      ],
      "name": "revokeRole",
      "outputs": [],
      "stateMutability": "nonpayable",
      "type": "function"
    },
    {
      "inputs": [
        {
          "internalType": "bytes4",
          "name": "interfaceId",
          "type": "bytes4"
        }
      ],
      "name": "supportsInterface",
      "outputs": [
        {
          "internalType": "bool",
          "name": "",
          "type": "bool"
        }
      ],
      "stateMutability": "view",
      "type": "function"
    },
    {
      "inputs": [],
      "name": "symbol",
      "outputs": [
        {
          "internalType": "string",
          "name": "",
          "type": "string"
        }
      ],
      "stateMutability": "view",
      "type": "function"
    },
    {
      "inputs": [],
      "name": "totalSupply",
      "outputs": [
        {
          "internalType": "uint256",
          "name": "",
          "type": "uint256"
        }
      ],
      "stateMutability": "view",
      "type": "function"
    },
    {
      "inputs": [
        {
          "internalType": "address",
          "name": "to",
          "type": "address"
        },
        {
          "internalType": "uint256",
          "name": "value",
          "type": "uint256"
        }
      ],
      "name": "transfer",
      "outputs": [
        {
          "internalType": "bool",
          "name": "",
          "type": "bool"
        }
      ],
      "stateMutability": "nonpayable",
      "type": "function"
    },
    {
      "inputs": [
        {
          "internalType": "address",
          "name": "from",
          "type": "address"
        },
        {
          "internalType": "address",
          "name": "to",
          "type": "address"
        },
        {
          "internalType": "uint256",
          "name": "value",
          "type": "uint256"
        }
      ],
      "name": "transferFrom",
      "outputs": [
        {
          "internalType": "bool",
          "name": "",
          "type": "bool"
        }
      ],
      "stateMutability": "nonpayable",
      "type": "function"
    }
  ],
  "bytecode": "0x608060405234801561000f575f5ffd5b5060405161236638038061236683398181016040528101906100319190610658565b8282816003908161004291906108f0565b50806004908161005291906108f0565b5050506100675f5f1b826100aa60201b60201c565b506100a28161007a6101a060201b60201c565b600a6100869190610b27565b6509184e72a0006100979190610b71565b6101a860201b60201c565b505050610c6a565b5f6100bb838361022d60201b60201c565b61019657600160055f8581526020019081526020015f205f015f8473ffffffffffffffffffffffffffffffffffffffff1673ffffffffffffffffffffffffffffffffffffffff1681526020019081526020015f205f6101000a81548160ff02191690831515021790555061013361029160201b60201c565b73ffffffffffffffffffffffffffffffffffffffff168273ffffffffffffffffffffffffffffffffffffffff16847f2f8788117e7eff1d82e926ec794901d17c78024a50270940304540a733656f0d60405160405180910390a46001905061019a565b5f90505b92915050565b5f6012905090565b5f73ffffffffffffffffffffffffffffffffffffffff168273ffffffffffffffffffffffffffffffffffffffff1603610218575f6040517fec442f0500000000000000000000000000000000000000000000000000000000815260040161020f9190610bc1565b60405180910390fd5b6102295f838361029860201b60201c565b5050565b5f60055f8481526020019081526020015f205f015f8373ffffffffffffffffffffffffffffffffffffffff1673ffffffffffffffffffffffffffffffffffffffff1681526020019081526020015f205f9054906101000a900460ff16905092915050565b5f33905090565b5f73ffffffffffffffffffffffffffffffffffffffff168373ffffffffffffffffffffffffffffffffffffffff16036102e8578060025f8282546102dc9190610bda565b925050819055506103b6565b5f5f5f8573ffffffffffffffffffffffffffffffffffffffff1673ffffffffffffffffffffffffffffffffffffffff1681526020019081526020015f2054905081811015610371578381836040517fe450d38c00000000000000000000000000000000000000000000000000000000815260040161036893929190610c1c565b60405180910390fd5b8181035f5f8673ffffffffffffffffffffffffffffffffffffffff1673ffffffffffffffffffffffffffffffffffffffff1681526020019081526020015f2081905550505b5f73ffffffffffffffffffffffffffffffffffffffff168273ffffffffffffffffffffffffffffffffffffffff16036103fd578060025f8282540392505081905550610447565b805f5f8473ffffffffffffffffffffffffffffffffffffffff1673ffffffffffffffffffffffffffffffffffffffff1681526020019081526020015f205f82825401925050819055505b8173ffffffffffffffffffffffffffffffffffffffff168373ffffffffffffffffffffffffffffffffffffffff167fddf252ad1be2c89b69c2b068fc378daa952ba7f163c4a11628f55a4df523b3ef836040516104a49190610c51565b60405180910390a3505050565b5f604051905090565b5f5ffd5b5f5ffd5b5f5ffd5b5f5ffd5b5f601f19601f8301169050919050565b7f4e487b71000000000000000000000000000000000000000000000000000000005f52604160045260245ffd5b610510826104ca565b810181811067ffffffffffffffff8211171561052f5761052e6104da565b5b80604052505050565b5f6105416104b1565b905061054d8282610507565b919050565b5f67ffffffffffffffff82111561056c5761056b6104da565b5b610575826104ca565b9050602081019050919050565b8281835e5f83830152505050565b5f6105a261059d84610552565b610538565b9050828152602081018484840111156105be576105bd6104c6565b5b6105c9848285610582565b509392505050565b5f82601f8301126105e5576105e46104c2565b5b81516105f5848260208601610590565b91505092915050565b5f73ffffffffffffffffffffffffffffffffffffffff82169050919050565b5f610627826105fe565b9050919050565b6106378161061d565b8114610641575f5ffd5b50565b5f815190506106528161062e565b92915050565b5f5f5f6060848603121561066f5761066e6104ba565b5b5f84015167ffffffffffffffff81111561068c5761068b6104be565b5b610698868287016105d1565b935050602084015167ffffffffffffffff8111156106b9576106b86104be565b5b6106c5868287016105d1565b92505060406106d686828701610644565b9150509250925092565b5f81519050919050565b7f4e487b71000000000000000000000000000000000000000000000000000000005f52602260045260245ffd5b5f600282049050600182168061072e57607f821691505b602082108103610741576107406106ea565b5b50919050565b5f819050815f5260205f209050919050565b5f6020601f8301049050919050565b5f82821b905092915050565b5f600883026107a37fffffffffffffffffffffffffffffffffffffffffffffffffffffffffffffffff82610768565b6107ad8683610768565b95508019841693508086168417925050509392505050565b5f819050919050565b5f819050919050565b5f6107f16107ec6107e7846107c5565b6107ce565b6107c5565b9050919050565b5f819050919050565b61080a836107d7565b61081e610816826107f8565b848454610774565b825550505050565b5f5f905090565b610835610826565b610840818484610801565b505050565b5b81811015610863576108585f8261082d565b600181019050610846565b5050565b601f8211156108a85761087981610747565b61088284610759565b81016020851015610891578190505b6108a561089d85610759565b830182610845565b50505b505050565b5f82821c905092915050565b5f6108c85f19846008026108ad565b1980831691505092915050565b5f6108e083836108b9565b9150826002028217905092915050565b6108f9826106e0565b67ffffffffffffffff811115610912576109116104da565b5b61091c8254610717565b610927828285610867565b5f60209050601f831160018114610958575f8415610946578287015190505b61095085826108d5565b8655506109b7565b601f19841661096686610747565b5f5b8281101561098d57848901518255600182019150602085019450602081019050610968565b868310156109aa57848901516109a6601f8916826108b9565b8355505b6001600288020188555050505b505050505050565b7f4e487b71000000000000000000000000000000000000000000000000000000005f52601160045260245ffd5b5f8160011c9050919050565b5f5f8291508390505b6001851115610a4157808604811115610a1d57610a1c6109bf565b5b6001851615610a2c5780820291505b8081029050610a3a856109ec565b9450610a01565b94509492505050565b5f82610a595760019050610b14565b81610a66575f9050610b14565b8160018114610a7c5760028114610a8657610ab5565b6001915050610b14565b60ff841115610a9857610a976109bf565b5b8360020a915084821115610aaf57610aae6109bf565b5b50610b14565b5060208310610133831016604e8410600b8410161715610aea5782820a905083811115610ae557610ae46109bf565b5b610b14565b610af784848460016109f8565b92509050818404811115610b0e57610b0d6109bf565b5b81810290505b9392505050565b5f60ff82169050919050565b5f610b31826107c5565b9150610b3c83610b1b565b9250610b697fffffffffffffffffffffffffffffffffffffffffffffffffffffffffffffffff8484610a4a565b905092915050565b5f610b7b826107c5565b9150610b86836107c5565b9250828202610b94816107c5565b91508282048414831517610bab57610baa6109bf565b5b5092915050565b610bbb8161061d565b82525050565b5f602082019050610bd45f830184610bb2565b92915050565b5f610be4826107c5565b9150610bef836107c5565b9250828201905080821115610c0757610c066109bf565b5b92915050565b610c16816107c5565b82525050565b5f606082019050610c2f5f830186610bb2565b610c3c6020830185610c0d565b610c496040830184610c0d565b949350505050565b5f602082019050610c645f830184610c0d565b92915050565b6116ef80610c775f395ff3fe608060405234801561000f575f5ffd5b5060043610610114575f3560e01c806340c10f19116100a0578063a217fddf1161006f578063a217fddf14610304578063a9059cbb14610322578063d539139314610352578063d547741f14610370578063dd62ed3e1461038c57610114565b806340c10f191461026a57806370a082311461028657806391d14854146102b657806395d89b41146102e657610114565b806323b872dd116100e757806323b872dd146101b4578063248a9ca3146101e45780632f2ff15d14610214578063313ce5671461023057806336568abe1461024e57610114565b806301ffc9a71461011857806306fdde0314610148578063095ea7b31461016657806318160ddd14610196575b5f5ffd5b610132600480360381019061012d919061117e565b6103bc565b60405161013f91906111c3565b60405180910390f35b610150610435565b60405161015d919061124c565b60405180910390f35b610180600480360381019061017b91906112f9565b6104c5565b60405161018d91906111c3565b60405180910390f35b61019e6104e7565b6040516101ab9190611346565b60405180910390f35b6101ce60048036038101906101c9919061135f565b6104f0565b6040516101db91906111c3565b60405180910390f35b6101fe60048036038101906101f991906113e2565b61051e565b60405161020b919061141c565b60405180910390f35b61022e60048036038101906102299190611435565b61053b565b005b61023861055d565b604051610245919061148e565b60405180910390f35b61026860048036038101906102639190611435565b610565565b005b610284600480360381019061027f91906112f9565b6105e0565b005b6102a0600480360381019061029b91906114a7565b610657565b6040516102ad9190611346565b60405180910390f35b6102d060048036038101906102cb9190611435565b61069c565b6040516102dd91906111c3565b60405180910390f35b6102ee610700565b6040516102fb919061124c565b60405180910390f35b61030c610790565b604051610319919061141c565b60405180910390f35b61033c600480360381019061033791906112f9565b610796565b60405161034991906111c3565b60405180910390f35b61035a6107b8565b604051610367919061141c565b60405180910390f35b61038a60048036038101906103859190611435565b6107dc565b005b6103a660048036038101906103a191906114d2565b6107fe565b6040516103b39190611346565b60405180910390f35b5f7f7965db0b000000000000000000000000000000000000000000000000000000007bffffffffffffffffffffffffffffffffffffffffffffffffffffffff1916827bffffffffffffffffffffffffffffffffffffffffffffffffffffffff1916148061042e575061042d82610880565b5b9050919050565b6060600380546104449061153d565b80601f01602080910402602001604051908101604052809291908181526020018280546104709061153d565b80156104bb5780601f10610492576101008083540402835291602001916104bb565b820191905f5260205f20905b81548152906001019060200180831161049e57829003601f168201915b5050505050905090565b5f5f6104cf6108e9565b90506104dc8185856108f0565b600191505092915050565b5f600254905090565b5f5f6104fa6108e9565b9050610507858285610902565b610512858585610995565b60019150509392505050565b5f60055f8381526020019081526020015f20600101549050919050565b6105448261051e565b61054d81610a85565b6105578383610a99565b50505050565b5f6012905090565b61056d6108e9565b73ffffffffffffffffffffffffffffffffffffffff168173ffffffffffffffffffffffffffffffffffffffff16146105d1576040517f6697b23200000000000000000000000000000000000000000000000000000000815260040160405180910390fd5b6105db8282610b83565b505050565b61060a7f9f2df0fed2c77648de5860a4cc508cd0818c85b8b8a1ab4ceeef8d981c8956a63361069c565b610649576040517f08c379a0000000000000000000000000000000000000000000000000000000008152600401610640906115b7565b60405180910390fd5b6106538282610c6d565b5050565b5f5f5f8373ffffffffffffffffffffffffffffffffffffffff1673ffffffffffffffffffffffffffffffffffffffff1681526020019081526020015f20549050919050565b5f60055f8481526020019081526020015f205f015f8373ffffffffffffffffffffffffffffffffffffffff1673ffffffffffffffffffffffffffffffffffffffff1681526020019081526020015f205f9054906101000a900460ff16905092915050565b60606004805461070f9061153d565b80601f016020809104026020016040519081016040528092919081815260200182805461073b9061153d565b80156107865780601f1061075d57610100808354040283529160200191610786565b820191905f5260205f20905b81548152906001019060200180831161076957829003601f168201915b5050505050905090565b5f5f1b81565b5f5f6107a06108e9565b90506107ad818585610995565b600191505092915050565b7f9f2df0fed2c77648de5860a4cc508cd0818c85b8b8a1ab4ceeef8d981c8956a681565b6107e58261051e565b6107ee81610a85565b6107f88383610b83565b50505050565b5f60015f8473ffffffffffffffffffffffffffffffffffffffff1673ffffffffffffffffffffffffffffffffffffffff1681526020019081526020015f205f8373ffffffffffffffffffffffffffffffffffffffff1673ffffffffffffffffffffffffffffffffffffffff1681526020019081526020015f2054905092915050565b5f7f01ffc9a7000000000000000000000000000000000000000000000000000000007bffffffffffffffffffffffffffffffffffffffffffffffffffffffff1916827bffffffffffffffffffffffffffffffffffffffffffffffffffffffff1916149050919050565b5f33905090565b6108fd8383836001610cec565b505050565b5f61090d84846107fe565b90507fffffffffffffffffffffffffffffffffffffffffffffffffffffffffffffffff81101561098f5781811015610980578281836040517ffb8f41b2000000000000000000000000000000000000000000000000000000008152600401610977939291906115e4565b60405180910390fd5b61098e84848484035f610cec565b5b50505050565b5f73ffffffffffffffffffffffffffffffffffffffff168373ffffffffffffffffffffffffffffffffffffffff1603610a05575f6040517f96c6fd1e0000000000000000000000000000000000000000000000000000000081526004016109fc9190611619565b60405180910390fd5b5f73ffffffffffffffffffffffffffffffffffffffff168273ffffffffffffffffffffffffffffffffffffffff1603610a75575f6040517fec442f05000000000000000000000000000000000000000000000000000000008152600401610a6c9190611619565b60405180910390fd5b610a80838383610ebb565b505050565b610a9681610a916108e9565b6110d4565b50565b5f610aa4838361069c565b610b7957600160055f8581526020019081526020015f205f015f8473ffffffffffffffffffffffffffffffffffffffff1673ffffffffffffffffffffffffffffffffffffffff1681526020019081526020015f205f6101000a81548160ff021916908315150217905550610b166108e9565b73ffffffffffffffffffffffffffffffffffffffff168273ffffffffffffffffffffffffffffffffffffffff16847f2f8788117e7eff1d82e926ec794901d17c78024a50270940304540a733656f0d60405160405180910390a460019050610b7d565b5f90505b92915050565b5f610b8e838361069c565b15610c63575f60055f8581526020019081526020015f205f015f8473ffffffffffffffffffffffffffffffffffffffff1673ffffffffffffffffffffffffffffffffffffffff1681526020019081526020015f205f6101000a81548160ff021916908315150217905550610c006108e9565b73ffffffffffffffffffffffffffffffffffffffff168273ffffffffffffffffffffffffffffffffffffffff16847ff6391f5c32d9c69d2a47ea670b442974b53935d1edc7fd64eb21e047a839171b60405160405180910390a460019050610c67565b5f90505b92915050565b5f73ffffffffffffffffffffffffffffffffffffffff168273ffffffffffffffffffffffffffffffffffffffff1603610cdd575f6040517fec442f05000000000000000000000000000000000000000000000000000000008152600401610cd49190611619565b60405180910390fd5b610ce85f8383610ebb565b5050565b5f73ffffffffffffffffffffffffffffffffffffffff168473ffffffffffffffffffffffffffffffffffffffff1603610d5c575f6040517fe602df05000000000000000000000000000000000000000000000000000000008152600401610d539190611619565b60405180910390fd5b5f73ffffffffffffffffffffffffffffffffffffffff168373ffffffffffffffffffffffffffffffffffffffff1603610dcc575f6040517f94280d62000000000000000000000000000000000000000000000000000000008152600401610dc39190611619565b60405180910390fd5b8160015f8673ffffffffffffffffffffffffffffffffffffffff1673ffffffffffffffffffffffffffffffffffffffff1681526020019081526020015f205f8573ffffffffffffffffffffffffffffffffffffffff1673ffffffffffffffffffffffffffffffffffffffff1681526020019081526020015f20819055508015610eb5578273ffffffffffffffffffffffffffffffffffffffff168473ffffffffffffffffffffffffffffffffffffffff167f8c5be1e5ebec7d5bd14f71427d1e84f3dd0314c0f7b2291e5b200ac8c7c3b92584604051610eac9190611346565b60405180910390a35b50505050565b5f73ffffffffffffffffffffffffffffffffffffffff168373ffffffffffffffffffffffffffffffffffffffff1603610f0b578060025f828254610eff919061165f565b92505081905550610fd9565b5f5f5f8573ffffffffffffffffffffffffffffffffffffffff1673ffffffffffffffffffffffffffffffffffffffff1681526020019081526020015f2054905081811015610f94578381836040517fe450d38c000000000000000000000000000000000000000000000000000000008152600401610f8b939291906115e4565b60405180910390fd5b8181035f5f8673ffffffffffffffffffffffffffffffffffffffff1673ffffffffffffffffffffffffffffffffffffffff1681526020019081526020015f2081905550505b5f73ffffffffffffffffffffffffffffffffffffffff168273ffffffffffffffffffffffffffffffffffffffff1603611020578060025f828254039250508190555061106a565b805f5f8473ffffffffffffffffffffffffffffffffffffffff1673ffffffffffffffffffffffffffffffffffffffff1681526020019081526020015f205f82825401925050819055505b8173ffffffffffffffffffffffffffffffffffffffff168373ffffffffffffffffffffffffffffffffffffffff167fddf252ad1be2c89b69c2b068fc378daa952ba7f163c4a11628f55a4df523b3ef836040516110c79190611346565b60405180910390a3505050565b6110de828261069c565b6111215780826040517fe2517d3f000000000000000000000000000000000000000000000000000000008152600401611118929190611692565b60405180910390fd5b5050565b5f5ffd5b5f7fffffffff0000000000000000000000000000000000000000000000000000000082169050919050565b61115d81611129565b8114611167575f5ffd5b50565b5f8135905061117881611154565b92915050565b5f6020828403121561119357611192611125565b5b5f6111a08482850161116a565b91505092915050565b5f8115159050919050565b6111bd816111a9565b82525050565b5f6020820190506111d65f8301846111b4565b92915050565b5f81519050919050565b5f82825260208201905092915050565b8281835e5f83830152505050565b5f601f19601f8301169050919050565b5f61121e826111dc565b61122881856111e6565b93506112388185602086016111f6565b61124181611204565b840191505092915050565b5f6020820190508181035f8301526112648184611214565b905092915050565b5f73ffffffffffffffffffffffffffffffffffffffff82169050919050565b5f6112958261126c565b9050919050565b6112a58161128b565b81146112af575f5ffd5b50565b5f813590506112c08161129c565b92915050565b5f819050919050565b6112d8816112c6565b81146112e2575f5ffd5b50565b5f813590506112f3816112cf565b92915050565b5f5f6040838503121561130f5761130e611125565b5b5f61131c858286016112b2565b925050602061132d858286016112e5565b9150509250929050565b611340816112c6565b82525050565b5f6020820190506113595f830184611337565b92915050565b5f5f5f6060848603121561137657611375611125565b5b5f611383868287016112b2565b9350506020611394868287016112b2565b92505060406113a5868287016112e5565b9150509250925092565b5f819050919050565b6113c1816113af565b81146113cb575f5ffd5b50565b5f813590506113dc816113b8565b92915050565b5f602082840312156113f7576113f6611125565b5b5f611404848285016113ce565b91505092915050565b611416816113af565b82525050565b5f60208201905061142f5f83018461140d565b92915050565b5f5f6040838503121561144b5761144a611125565b5b5f611458858286016113ce565b9250506020611469858286016112b2565b9150509250929050565b5f60ff82169050919050565b61148881611473565b82525050565b5f6020820190506114a15f83018461147f565b92915050565b5f602082840312156114bc576114bb611125565b5b5f6114c9848285016112b2565b91505092915050565b5f5f604083850312156114e8576114e7611125565b5b5f6114f5858286016112b2565b9250506020611506858286016112b2565b9150509250929050565b7f4e487b71000000000000000000000000000000000000000000000000000000005f52602260045260245ffd5b5f600282049050600182168061155457607f821691505b60208210810361156757611566611510565b5b50919050565b7f50726f6a656374546f6b656e3a206e6f74206d696e74657200000000000000005f82015250565b5f6115a16018836111e6565b91506115ac8261156d565b602082019050919050565b5f6020820190508181035f8301526115ce81611595565b9050919050565b6115de8161128b565b82525050565b5f6060820190506115f75f8301866115d5565b6116046020830185611337565b6116116040830184611337565b949350505050565b5f60208201905061162c5f8301846115d5565b92915050565b7f4e487b71000000000000000000000000000000000000000000000000000000005f52601160045260245ffd5b5f611669826112c6565b9150611674836112c6565b925082820190508082111561168c5761168b611632565b5b92915050565b5f6040820190506116a55f8301856115d5565b6116b2602083018461140d565b939250505056fea2646970667358221220381129e34f35c1a5b2d93ca7c2f7df41a013e6a4235016646e2be23423ea71ac64736f6c634300081e0033",
  "linkReferences": {},
  "deployedLinkReferences": {},
  "immutableReferences": {},
  "inputSourceName": "project/contracts/AumFinToken.sol",
  "buildInfoId": "solc-0_8_30-19b881adaf0b50110b90813d84d01958b1657bc4"
}