{
  "_format": "hh3-artifact-1",
  "contractName": "BUSDMock",
  "sourceName": "contracts/AumFinToken.sol",
  "abi": [
    {
      "inputs": [
        {
          "internalType": "string",
          "name": "name_",
          "type": "string"
        },
        {
          "internalType": "string",
          "name": "symbol_",
          "type": "string"
        },
        {
          "internalType": "address",
          "name": "admin",
          "type": "address"
        }
      ],
      "stateMutability": "nonpayable",
      "type": "constructor"
    },
    {
      "inputs": [],
      "name": "AccessControlBadConfirmation",
      "type": "error"
    },
    {
      "inputs": [
        {
          "internalType": "address",
          "name": "account",
          "type": "address"
        },
        {
          "internalType": "bytes32",
          "name": "neededRole",
          "type": "bytes32"
        }
      ],
      "name": "AccessControlUnauthorizedAccount",
      "type": "error"
    },
    {
      "inputs": [
        {
          "internalType": "address",
          "name": "spender",
          "type": "address"
        },
        {
          "internalType": "uint256",
          "name": "allowance",
          "type": "uint256"
        },
        {
          "internalType": "uint256",
          "name": "needed",
          "type": "uint256"
        }
      ],
      "name": "ERC20InsufficientAllowance",
      "type": "error"
    },
    {
      "inputs": [
        {
          "internalType": "address",
          "name": "sender",
          "type": "address"
        },
        {
          "internalType": "uint256",
          "name": "balance",
          "type": "uint256"
        },
        {
          "internalType": "uint256",
          "name": "needed",
          "type": "uint256"
        }
      ],
      "name": "ERC20InsufficientBalance",
      "type": "error"
    },
    {
      "inputs": [
        {
          "internalType": "address",
          "name": "approver",
          "type": "address"
        }
      ],
      "name": "ERC20InvalidApprover",
      "type": "error"
    },
    {
      "inputs": [
        {
          "internalType": "address",
          "name": "receiver",
          "type": "address"
        }
      ],
      "name": "ERC20InvalidReceiver",
      "type": "error"
    },
    {
      "inputs": [
        {
          "internalType": "address",
          "name": "sender",
          "type": "address"
        }
      ],
      "name": "ERC20InvalidSender",
      "type": "error"
    },
    {
      "inputs": [
        {
          "internalType": "address",
          "name": "spender",
          "type": "address"
        }
      ],
      "name": "ERC20InvalidSpender",
      "type": "error"
    },
    {
      "anonymous": false,
      "inputs": [
        {
          "indexed": true,
          "internalType": "address",
          "name": "owner",
          "type": "address"
        },
        {
          "indexed": true,
          "internalType": "address",
          "name": "spender",
          "type": "address"
        },
        {
          "indexed": false,
          "internalType": "uint256",
          "name": "value",
          "type": "uint256"
        }
      ],
      "name": "Approval",
      "type": "event"
    },
    {
      "anonymous": false,
      "inputs": [
        {
          "indexed": true,
          "internalType": "bytes32",
          "name": "role",
          "type": "bytes32"
        },
        {
          "indexed": true,
          "internalType": "bytes32",
          "name": "previousAdminRole",
          "type": "bytes32"
        },
        {
          "indexed": true,
          "internalType": "bytes32",
          "name": "newAdminRole",
          "type": "bytes32"
        }
      ],
      "name": "RoleAdminChanged",
      "type": "event"
    },
    {
      "anonymous": false,
      "inputs": [
        {
          "indexed": true,
          "internalType": "bytes32",
          "name": "role",
          "type": "bytes32"
        },
        {
          "indexed": true,
          "internalType": "address",
          "name": "account",
          "type": "address"
        },
        {
          "indexed": true,
          "internalType": "address",
          "name": "sender",
          "type": "address"
        }
      ],
      "name": "RoleGranted",
      "type": "event"
    },
    {
      "anonymous": false,
      "inputs": [
        {
          "indexed": true,
          "internalType": "bytes32",
          "name": "role",
          "type": "bytes32"
        },
        {
          "indexed": true,
          "internalType": "address",
          "name": "account",
          "type": "address"
        },
        {
          "indexed": true,
          "internalType": "address",
          "name": "sender",
          "type": "address"
        }
      ],
      "name": "RoleRevoked",
      "type": "event"
    },
    {
      "anonymous": false,
      "inputs": [
        {
          "indexed": true,
          "internalType": "address",
          "name": "from",
          "type": "address"
        },
        {
          "indexed": true,
          "internalType": "address",
          "name": "to",
          "type": "address"
        },
        {
          "indexed": false,
          "internalType": "uint256",
          "name": "value",
          "type": "uint256"
        }
      ],
      "name": "Transfer",
      "type": "event"
    },
    {
      "inputs": [],
      "name": "DEFAULT_ADMIN_ROLE",
      "outputs": [
        {
          "internalType": "bytes32",
          "name": "",
          "type": "bytes32"
        }
      ],
      "stateMutability": "view",
      "type": "function"
    },
    {
      "inputs": [],
      "name": "MINTER_ROLE",
      "outputs": [
        {
          "internalType": "bytes32",
          "name": "",
          "type": "bytes32"
        }
      ],
      "stateMutability": "view",
      "type": "function"
    },
    {
      "inputs": [
        {
          "internalType": "address",
          "name": "owner",
          "type": "address"
        },
        {
          "internalType": "address",
          "name": "spender",
          "type": "address"
        }
      ],
      "name": "allowance",
      "outputs": [
        {
          "internalType": "uint256",
          "name": "",
          "type": "uint256"
        }
      ],
      "stateMutability": "view",
      "type": "function"
    },
    {
      "inputs": [
        {
          "internalType": "address",
          "name": "spender",
          "type": "address"
        },
        {
          "internalType": "uint256",
          "name": "value",
          "type": "uint256"
        }
      ],
      "name": "approve",
      "outputs": [
        {
          "internalType": "bool",
          "name": "",
          "type": "bool"
        }
      ],
      "stateMutability": "nonpayable",
      "type": "function"
    },
    {
      "inputs": [
        {
          "internalType": "address",
          "name": "account",
          "type": "address"
        }
      ],
      "name": "balanceOf",
      "outputs": [
        {
          "internalType": "uint256",
          "name": "",
          "type": "uint256"
        }
      ],
      "stateMutability": "view",
      "type": "function"
    },
    {
      "inputs": [],
      "name": "decimals",
      "outputs": [
        {
          "internalType": "uint8",
          "name": "",
          "type": "uint8"
        }
      ],
      "stateMutability": "view",
      "type": "function"
    },
    {
      "inputs": [
        {
          "internalType": "bytes32",
          "name": "role",
          "type": "bytes32"
        }
      ],
      "name": "getRoleAdmin",
      "outputs": [
        {
          "internalType": "bytes32",
          "name": "",
          "type": "bytes32"
        }
      ],
      "stateMutability": "view",
      "type": "function"
    },
    {
      "inputs": [
        {
          "internalType": "bytes32",
          "name": "role",
          "type": "bytes32"
        },
        {
          "internalType": "address",
          "name": "account",
          "type": "address"
        }
      ],
      "name": "grantRole",
      "outputs": [],
      "stateMutability": "nonpayable",
      "type": "function"
    },
    {
      "inputs": [
        {
          "internalType": "bytes32",
          "name": "role",
          "type": "bytes32"
        },
        {
          "internalType": "address",
          "name": "account",
          "type": "address"
        }
      ],
      "name": "hasRole",
      "outputs": [
        {
          "internalType": "bool",
          "name": "",
          "type": "bool"
        }
      ],
      "stateMutability": "view",
      "type": "function"
    },
    {
      "inputs": [],
      "name": "name",
      "outputs": [
        {
          "internalType": "string",
          "name": "",
          "type": "string"
        }
      ],
      "stateMutability": "view",
      "type": "function"
    },
    {
      "inputs": [
        {
          "internalType": "bytes32",
          "name": "role",
          "type": "bytes32"
        },
        {
          "internalType": "address",
          "name": "callerConfirmation",
          "type": "address"
        }
      ],
      "name": "renounceRole",
      "outputs": [],
      "stateMutability": "nonpayable",
      "type": "function"
    },
    {
      "inputs": [
        {
          "internalType": "bytes32",
          "name": "role",
          "type": "bytes32"
        },
        {
          "internalType": "address",
          "name": "account",
          "type": "address"
        }
      ],
      "name": "revokeRole",
      "outputs": [],
      "stateMutability": "nonpayable",
      "type": "function"
    },
    {
      "inputs": [
        {
          "internalType": "bytes4",
          "name": "interfaceId",
          "type": "bytes4"
        }
      ],
      "name": "supportsInterface",
      "outputs": [
        {
          "internalType": "bool",
          "name": "",
          "type": "bool"
        }
      ],
      "stateMutability": "view",
      "type": "function"
    },
    {
      "inputs": [],
      "name": "symbol",
      "outputs": [
        {
          "internalType": "string",
          "name": "",
          "type": "string"
        }
      ],
      "stateMutability": "view",
      "type": "function"
    },
    {
      "inputs": [],
      "name": "totalSupply",
      "outputs": [
        {
          "internalType": "uint256",
          "name": "",
          "type": "uint256"
        }
      ],
      "stateMutability": "view",
      "type": "function"
    },
    {
      "inputs": [
        {
          "internalType": "address",
          "name": "to",
          "type": "address"
        },
        {
          "internalType": "uint256",
          "name": "value",
          "type": "uint256"
        }
      ],
      "name": "transfer",
      "outputs": [
        {
          "internalType": "bool",
          "name": "",
          "type": "bool"
        }
      ],
      "stateMutability": "nonpayable",
      "type": "function"
    },
    {
      "inputs": [
        {
          "internalType": "address",
          "name": "from",
          "type": "address"
        },
        {
          "internalType": "address",
          "name": "to",
          "type": "address"
        },
        {
          "internalType": "uint256",
          "name": "value",
          "type": "uint256"
        }
      ],
      "name": "transferFrom",
      "outputs": [
        {
          "internalType": "bool",
          "name": "",
          "type": "bool"
        }
      ],
      "stateMutability": "nonpayable",
      "type": "function"
    }
  ],
  "bytecode": "0x608060405234801561000f575f5ffd5b506040516110c03803806110c083398101604081905261002e91610335565b8282600361003c838261043e565b506004610049828261043e565b5061005891505f905082610088565b50610080816100696012600a6105ef565b61007b9067016345785d8a0000610604565b610135565b50505061062e565b5f8281526005602090815260408083206001600160a01b038516845290915281205460ff1661012c575f8381526005602090815260408083206001600160a01b03861684529091529020805460ff191660011790556100e43390565b6001600160a01b0316826001600160a01b0316847f2f8788117e7eff1d82e926ec794901d17c78024a50270940304540a733656f0d60405160405180910390a450600161012f565b505f5b92915050565b6001600160a01b0382166101635760405163ec442f0560e01b81525f60048201526024015b60405180910390fd5b61016e5f8383610172565b5050565b6001600160a01b03831661019c578060025f828254610191919061061b565b9091555061020c9050565b6001600160a01b0383165f90815260208190526040902054818110156101ee5760405163391434e360e21b81526001600160a01b0385166004820152602481018290526044810183905260640161015a565b6001600160a01b0384165f9081526020819052604090209082900390555b6001600160a01b03821661022857600280548290039055610246565b6001600160a01b0382165f9081526020819052604090208054820190555b816001600160a01b0316836001600160a01b03167fddf252ad1be2c89b69c2b068fc378daa952ba7f163c4a11628f55a4df523b3ef8360405161028b91815260200190565b60405180910390a3505050565b634e487b7160e01b5f52604160045260245ffd5b5f82601f8301126102bb575f5ffd5b81516001600160401b038111156102d4576102d4610298565b604051601f8201601f19908116603f011681016001600160401b038111828210171561030257610302610298565b604052818152838201602001851015610319575f5ffd5b8160208501602083015e5f918101602001919091529392505050565b5f5f5f60608486031215610347575f5ffd5b83516001600160401b0381111561035c575f5ffd5b610368868287016102ac565b602086015190945090506001600160401b03811115610385575f5ffd5b610391868287016102ac565b604086015190935090506001600160a01b03811681146103af575f5ffd5b809150509250925092565b600181811c908216806103ce57607f821691505b6020821081036103ec57634e487b7160e01b5f52602260045260245ffd5b50919050565b601f82111561043957805f5260205f20601f840160051c810160208510156104175750805b601f840160051c820191505b81811015610436575f8155600101610423565b50505b505050565b81516001600160401b0381111561045757610457610298565b61046b8161046584546103ba565b846103f2565b6020601f82116001811461049d575f83156104865750848201515b5f19600385901b1c1916600184901b178455610436565b5f84815260208120601f198516915b828110156104cc57878501518255602094850194600190920191016104ac565b50848210156104e957868401515f19600387901b60f8161c191681555b50505050600190811b01905550565b634e487b7160e01b5f52601160045260245ffd5b6001815b60018411156105475780850481111561052b5761052b6104f8565b600184161561053957908102905b60019390931c928002610510565b935093915050565b5f8261055d5750600161012f565b8161056957505f61012f565b816001811461057f5760028114610589576105a5565b600191505061012f565b60ff84111561059a5761059a6104f8565b50506001821b61012f565b5060208310610133831016604e8410600b84101617156105c8575081810a61012f565b6105d45f19848461050c565b805f19048211156105e7576105e76104f8565b029392505050565b5f6105fd60ff84168361054f565b9392505050565b808202811582820484141761012f5761012f6104f8565b8082018082111561012f5761012f6104f8565b610a858061063b5f395ff3fe608060405234801561000f575f5ffd5b5060043610610106575f3560e01c806336568abe1161009e578063a217fddf1161006e578063a217fddf1461021b578063a9059cbb14610222578063d539139314610235578063d547741f1461025c578063dd62ed3e1461026f575f5ffd5b806336568abe146101c557806370a08231146101d857806391d148541461020057806395d89b4114610213575f5ffd5b806323b872dd116100d957806323b872dd1461016c578063248a9ca31461017f5780632f2ff15d146101a1578063313ce567146101b6575f5ffd5b806301ffc9a71461010a57806306fdde0314610132578063095ea7b31461014757806318160ddd1461015a575b5f5ffd5b61011d610118366004610896565b6102a7565b60405190151581526020015b60405180910390f35b61013a6102dd565b60405161012991906108c4565b61011d610155366004610914565b61036d565b6002545b604051908152602001610129565b61011d61017a36600461093c565b610384565b61015e61018d366004610976565b5f9081526005602052604090206001015490565b6101b46101af36600461098d565b6103a7565b005b60405160128152602001610129565b6101b46101d336600461098d565b6103d1565b61015e6101e63660046109b7565b6001600160a01b03165f9081526020819052604090205490565b61011d61020e36600461098d565b610409565b61013a610433565b61015e5f81565b61011d610230366004610914565b610442565b61015e7f9f2df0fed2c77648de5860a4cc508cd0818c85b8b8a1ab4ceeef8d981c8956a681565b6101b461026a36600461098d565b61044f565b61015e61027d3660046109d0565b6001600160a01b039182165f90815260016020908152604080832093909416825291909152205490565b5f6001600160e01b03198216637965db0b60e01b14806102d757506301ffc9a760e01b6001600160e01b03198316145b92915050565b6060600380546102ec906109f8565b80601f0160208091040260200160405190810160405280929190818152602001828054610318906109f8565b80156103635780601f1061033a57610100808354040283529160200191610363565b820191905f5260205f20905b81548152906001019060200180831161034657829003601f168201915b5050505050905090565b5f3361037a818585610473565b5060019392505050565b5f33610391858285610480565b61039c8585856104fb565b506001949350505050565b5f828152600560205260409020600101546103c181610558565b6103cb8383610565565b50505050565b6001600160a01b03811633146103fa5760405163334bd91960e11b815260040160405180910390fd5b61040482826105f6565b505050565b5f9182526005602090815260408084206001600160a01b0393909316845291905290205460ff1690565b6060600480546102ec906109f8565b5f3361037a8185856104fb565b5f8281526005602052604090206001015461046981610558565b6103cb83836105f6565b6104048383836001610661565b6001600160a01b038381165f908152600160209081526040808320938616835292905220545f198110156103cb57818110156104ed57604051637dc7a0d960e11b81526001600160a01b038416600482015260248101829052604481018390526064015b60405180910390fd5b6103cb84848484035f610661565b6001600160a01b03831661052457604051634b637e8f60e11b81525f60048201526024016104e4565b6001600160a01b03821661054d5760405163ec442f0560e01b81525f60048201526024016104e4565b610404838383610733565b6105628133610859565b50565b5f6105708383610409565b6105ef575f8381526005602090815260408083206001600160a01b03861684529091529020805460ff191660011790556105a73390565b6001600160a01b0316826001600160a01b0316847f2f8788117e7eff1d82e926ec794901d17c78024a50270940304540a733656f0d60405160405180910390a45060016102d7565b505f6102d7565b5f6106018383610409565b156105ef575f8381526005602090815260408083206001600160a01b0386168085529252808320805460ff1916905551339286917ff6391f5c32d9c69d2a47ea670b442974b53935d1edc7fd64eb21e047a839171b9190a45060016102d7565b6001600160a01b03841661068a5760405163e602df0560e01b81525f60048201526024016104e4565b6001600160a01b0383166106b357604051634a1406b160e11b81525f60048201526024016104e4565b6001600160a01b038085165f90815260016020908152604080832093871683529290522082905580156103cb57826001600160a01b0316846001600160a01b03167f8c5be1e5ebec7d5bd14f71427d1e84f3dd0314c0f7b2291e5b200ac8c7c3b9258460405161072591815260200190565b60405180910390a350505050565b6001600160a01b03831661075d578060025f8282546107529190610a30565b909155506107cd9050565b6001600160a01b0383165f90815260208190526040902054818110156107af5760405163391434e360e21b81526001600160a01b038516600482015260248101829052604481018390526064016104e4565b6001600160a01b0384165f9081526020819052604090209082900390555b6001600160a01b0382166107e957600280548290039055610807565b6001600160a01b0382165f9081526020819052604090208054820190555b816001600160a01b0316836001600160a01b03167fddf252ad1be2c89b69c2b068fc378daa952ba7f163c4a11628f55a4df523b3ef8360405161084c91815260200190565b60405180910390a3505050565b6108638282610409565b6108925760405163e2517d3f60e01b81526001600160a01b0382166004820152602481018390526044016104e4565b5050565b5f602082840312156108a6575f5ffd5b81356001600160e01b0319811681146108bd575f5ffd5b9392505050565b602081525f82518060208401528060208501604085015e5f604082850101526040601f19601f83011684010191505092915050565b80356001600160a01b038116811461090f575f5ffd5b919050565b5f5f60408385031215610925575f5ffd5b61092e836108f9565b946020939093013593505050565b5f5f5f6060848603121561094e575f5ffd5b610957846108f9565b9250610965602085016108f9565b929592945050506040919091013590565b5f60208284031215610986575f5ffd5b5035919050565b5f5f6040838503121561099e575f5ffd5b823591506109ae602084016108f9565b90509250929050565b5f602082840312156109c7575f5ffd5b6108bd826108f9565b5f5f604083850312156109e1575f5ffd5b6109ea836108f9565b91506109ae602084016108f9565b600181811c90821680610a0c57607f821691505b602082108103610a2a57634e487b7160e01b5f52602260045260245ffd5b50919050565b808201808211156102d757634e487b7160e01b5f52601160045260245ffdfea2646970667358221220fecee7d6dd1c13f5e310e5459580d451e4f8393d9ac5b03b0bbc53485983218a64736f6c634300081e0033",
  "linkReferences": {},
  "deployedLinkReferences": {},
  "immutableReferences": {},
  "inputSourceName": "project/contracts/AumFinToken.sol",
  "buildInfoId": "solc-0_8_30-cf948f53fc0e422918a9b9a9eb9ae1b8d531f34c"
}