{
  "_format": "hh-sol-artifact-1",
  "contractName": "ProjectToken",
  "sourceName": "contracts/AumFinToken.sol",
  "abi": [
    {
      "inputs": [
        {
          "internalType": "string",
          "name": "name_",
          "type": "string"
        },
        {
          "internalType": "string",
          "name": "symbol_",
          "type": "string"
        },
        {
          "internalType": "address",
          "name": "admin",
          "type": "address"
        }
      ],
      "stateMutability": "nonpayable",
      "type": "constructor"
    },
    {
      "inputs": [],
      "name": "AccessControlBadConfirmation",
      "type": "error"
    },
    {
      "inputs": [
        {
          "internalType": "address",
          "name": "account",
          "type": "address"
        },
        {
          "internalType": "bytes32",
          "name": "neededRole",
          "type": "bytes32"
        }
      ],
      "name": "AccessControlUnauthorizedAccount",
      "type": "error"
    },
    {
      "inputs": [
        {
          "internalType": "address",
          "name": "spender",
          "type": "address"
        },
        {
          "internalType": "uint256",
          "name": "allowance",
          "type": "uint256"
        },
        {
          "internalType": "uint256",
          "name": "needed",
          "type": "uint256"
        }
      ],
      "name": "ERC20InsufficientAllowance",
      "type": "error"
    },
    {
      "inputs": [
        {
          "internalType": "address",
          "name": "sender",
          "type": "address"
        },
        {
          "internalType": "uint256",
          "name": "balance",
          "type": "uint256"
        },
        {
          "internalType": "uint256",
          "name": "needed",
          "type": "uint256"
        }
      ],
      "name": "ERC20InsufficientBalance",
      "type": "error"
    },
    {
      "inputs": [
        {
          "internalType": "address",
          "name": "approver",
          "type": "address"
        }
      ],
      "name": "ERC20InvalidApprover",
      "type": "error"
    },
    {
      "inputs": [
        {
          "internalType": "address",
          "name": "receiver",
          "type": "address"
        }
      ],
      "name": "ERC20InvalidReceiver",
      "type": "error"
    },
    {
      "inputs": [
        {
          "internalType": "address",
          "name": "sender",
          "type": "address"
        }
      ],
      "name": "ERC20InvalidSender",
      "type": "error"
    },
    {
      "inputs": [
        {
          "internalType": "address",
          "name": "spender",
          "type": "address"
        }
      ],
      "name": "ERC20InvalidSpender",
      "type": "error"
    },
    {
      "anonymous": false,
      "inputs": [
        {
          "indexed": true,
          "internalType": "address",
          "name": "owner",
          "type": "address"
        },
        {
          "indexed": true,
          "internalType": "address",
          "name": "spender",
          "type": "address"
        },
        {
          "indexed": false,
          "internalType": "uint256",
          "name": "value",
          "type": "uint256"
        }
      ],
      "name": "Approval",
      "type": "event"
    },
    {
      "anonymous": false,
      "inputs": [
        {
          "indexed": true,
          "internalType": "bytes32",
          "name": "role",
          "type": "bytes32"
        },
        {
          "indexed": true,
          "internalType": "bytes32",
          "name": "previousAdminRole",
          "type": "bytes32"
        },
        {
          "indexed": true,
          "internalType": "bytes32",
          "name": "newAdminRole",
          "type": "bytes32"
        }
      ],
      "name": "RoleAdminChanged",
      "type": "event"
    },
    {
      "anonymous": false,
      "inputs": [
        {
          "indexed": true,
          "internalType": "bytes32",
          "name": "role",
          "type": "bytes32"
        },
        {
          "indexed": true,
          "internalType": "address",
          "name": "account",
          "type": "address"
        },
        {
          "indexed": true,
          "internalType": "address",
          "name": "sender",
          "type": "address"
        }
      ],
      "name": "RoleGranted",
      "type": "event"
    },
    {
      "anonymous": false,
      "inputs": [
        {
          "indexed": true,
          "internalType": "bytes32",
          "name": "role",
          "type": "bytes32"
        },
        {
          "indexed": true,
          "internalType": "address",
          "name": "account",
          "type": "address"
        },
        {
          "indexed": true,
          "internalType": "address",
          "name": "sender",
          "type": "address"
        }
      ],
      "name": "RoleRevoked",
      "type": "event"
    },
    {
      "anonymous": false,
      "inputs": [
        {
          "indexed": true,
          "internalType": "address",
          "name": "from",
          "type": "address"
        },
        {
          "indexed": true,
          "internalType": "address",
          "name": "to",
          "type": "address"
        },
        {
          "indexed": false,
          "internalType": "uint256",
          "name": "value",
          "type": "uint256"
        }
      ],
      "name": "Transfer",
      "type": "event"
    },
    {
      "inputs": [],
      "name": "DEFAULT_ADMIN_ROLE",
      "outputs": [
        {
          "internalType": "bytes32",
          "name": "",
          "type": "bytes32"
        }
      ],
      "stateMutability": "view",
      "type": "function"
    },
    {
      "inputs": [],
      "name": "MINTER_ROLE",
      "outputs": [
        {
          "internalType": "bytes32",
          "name": "",
          "type": "bytes32"
        }
      ],
      "stateMutability": "view",
      "type": "function"
    },
    {
      "inputs": [
        {
          "internalType": "address",
          "name": "owner",
          "type": "address"
        },
        {
          "internalType": "address",
          "name": "spender",
          "type": "address"
        }
      ],
      "name": "allowance",
      "outputs": [
        {
          "internalType": "uint256",
          "name": "",
          "type": "uint256"
        }
      ],
      "stateMutability": "view",
      "type": "function"
    },
    {
      "inputs": [
        {
          "internalType": "address",
          "name": "spender",
          "type": "address"
        },
        {
          "internalType": "uint256",
          "name": "value",
          "type": "uint256"
        }
      ],
      "name": "approve",
      "outputs": [
        {
          "internalType": "bool",
          "name": "",
          "type": "bool"
        }
      ],
      "stateMutability": "nonpayable",
      "type": "function"
    },
    {
      "inputs": [
        {
          "internalType": "address",
          "name": "account",
          "type": "address"
        }
      ],
      "name": "balanceOf",
      "outputs": [
        {
          "internalType": "uint256",
          "name": "",
          "type": "uint256"
        }
      ],
      "stateMutability": "view",
      "type": "function"
    },
    {
      "inputs": [],
      "name": "decimals",
      "outputs": [
        {
          "internalType": "uint8",
          "name": "",
          "type": "uint8"
        }
      ],
      "stateMutability": "view",
      "type": "function"
    },
    {
      "inputs": [
        {
          "internalType": "bytes32",
          "name": "role",
          "type": "bytes32"
        }
      ],
      "name": "getRoleAdmin",
      "outputs": [
        {
          "internalType": "bytes32",
          "name": "",
          "type": "bytes32"
        }
      ],
      "stateMutability": "view",
      "type": "function"
    },
    {
      "inputs": [
        {
          "internalType": "bytes32",
          "name": "role",
          "type": "bytes32"
        },
        {
          "internalType": "address",
          "name": "account",
          "type": "address"
        }
      ],
      "name": "grantRole",
      "outputs": [],
      "stateMutability": "nonpayable",
      "type": "function"
    },
    {
      "inputs": [
        {
          "internalType": "bytes32",
          "name": "role",
          "type": "bytes32"
        },
        {
          "internalType": "address",
          "name": "account",
          "type": "address"
        }
      ],
      "name": "hasRole",
      "outputs": [
        {
          "internalType": "bool",
          "name": "",
          "type": "bool"
        }
      ],
      "stateMutability": "view",
      "type": "function"
    },
    {
      "inputs": [
        {
          "internalType": "address",
          "name": "to",
          "type": "address"
        },
        {
          "internalType": "uint256",
          "name": "amount",
          "type": "uint256"
        }
      ],
      "name": "mint",
      "outputs": [],
      "stateMutability": "nonpayable",
      "type": "function"
    },
    {
      "inputs": [],
      "name": "name",
      "outputs": [
        {
          "internalType": "string",
          "name": "",
          "type": "string"
        }
      ],
      "stateMutability": "view",
      "type": "function"
    },
    {
      "inputs": [
        {
          "internalType": "bytes32",
          "name": "role",
          "type": "bytes32"
        },
        {
          "internalType": "address",
          "name": "callerConfirmation",
          "type": "address"
        }
      ],
      "name": "renounceRole",
      "outputs": [],
      "stateMutability": "nonpayable",
      "type": "function"
    },
    {
      "inputs": [
        {
          "internalType": "bytes32",
          "name": "role",
          "type": "bytes32"
        },
        {
          "internalType": "address",
          "name": "account",
          "type": "address"
        }
      ],
      "name": "revokeRole",
      "outputs": [],
      "stateMutability": "nonpayable",
      "type": "function"
    },
    {
      "inputs": [
        {
          "internalType": "bytes4",
          "name": "interfaceId",
          "type": "bytes4"
        }
      ],
      "name": "supportsInterface",
      "outputs": [
        {
          "internalType": "bool",
          "name": "",
          "type": "bool"
        }
      ],
      "stateMutability": "view",
      "type": "function"
    },
    {
      "inputs": [],
      "name": "symbol",
      "outputs": [
        {
          "internalType": "string",
          "name": "",
          "type": "string"
        }
      ],
      "stateMutability": "view",
      "type": "function"
    },
    {
      "inputs": [],
      "name": "totalSupply",
      "outputs": [
        {
          "internalType": "uint256",
          "name": "",
          "type": "uint256"
        }
      ],
      "stateMutability": "view",
      "type": "function"
    },
    {
      "inputs": [
        {
          "internalType": "address",
          "name": "to",
          "type": "address"
        },
        {
          "internalType": "uint256",
          "name": "value",
          "type": "uint256"
        }
      ],
      "name": "transfer",
      "outputs": [
        {
          "internalType": "bool",
          "name": "",
          "type": "bool"
        }
      ],
      "stateMutability": "nonpayable",
      "type": "function"
    },
    {
      "inputs": [
        {
          "internalType": "address",
          "name": "from",
          "type": "address"
        },
        {
          "internalType": "address",
          "name": "to",
          "type": "address"
        },
        {
          "internalType": "uint256",
          "name": "value",
          "type": "uint256"
        }
      ],
      "name": "transferFrom",
      "outputs": [
        {
          "internalType": "bool",
          "name": "",
          "type": "bool"
        }
      ],
      "stateMutability": "nonpayable",
      "type": "function"
    }
  ],
  "bytecode": "0x608060405234801561001057600080fd5b50604051610f58380380610f5883398101604081905261002f916101cc565b8282600361003d83826102e0565b50600461004a82826102e0565b5061005a91506000905082610063565b5050505061039e565b60008281526005602090815260408083206001600160a01b038516845290915281205460ff166101095760008381526005602090815260408083206001600160a01b03861684529091529020805460ff191660011790556100c13390565b6001600160a01b0316826001600160a01b0316847f2f8788117e7eff1d82e926ec794901d17c78024a50270940304540a733656f0d60405160405180910390a450600161010d565b5060005b92915050565b634e487b7160e01b600052604160045260246000fd5b600082601f83011261013a57600080fd5b81516001600160401b0381111561015357610153610113565b604051601f8201601f19908116603f011681016001600160401b038111828210171561018157610181610113565b60405281815283820160200185101561019957600080fd5b60005b828110156101b85760208186018101518383018201520161019c565b506000918101602001919091529392505050565b6000806000606084860312156101e157600080fd5b83516001600160401b038111156101f757600080fd5b61020386828701610129565b602086015190945090506001600160401b0381111561022157600080fd5b61022d86828701610129565b604086015190935090506001600160a01b038116811461024c57600080fd5b809150509250925092565b600181811c9082168061026b57607f821691505b60208210810361028b57634e487b7160e01b600052602260045260246000fd5b50919050565b601f8211156102db57806000526020600020601f840160051c810160208510156102b85750805b601f840160051c820191505b818110156102d857600081556001016102c4565b50505b505050565b81516001600160401b038111156102f9576102f9610113565b61030d816103078454610257565b84610291565b6020601f82116001811461034157600083156103295750848201515b600019600385901b1c1916600184901b1784556102d8565b600084815260208120601f198516915b828110156103715787850151825560209485019460019092019101610351565b508482101561038f5786840151600019600387901b60f8161c191681555b50505050600190811b01905550565b610bab806103ad6000396000f3fe608060405234801561001057600080fd5b50600436106101165760003560e01c806340c10f19116100a2578063a217fddf11610071578063a217fddf14610241578063a9059cbb14610249578063d53913931461025c578063d547741f14610283578063dd62ed3e1461029657600080fd5b806340c10f19146101ea57806370a08231146101fd57806391d148541461022657806395d89b411461023957600080fd5b806323b872dd116100e957806323b872dd1461017d578063248a9ca3146101905780632f2ff15d146101b3578063313ce567146101c857806336568abe146101d757600080fd5b806301ffc9a71461011b57806306fdde0314610143578063095ea7b31461015857806318160ddd1461016b575b600080fd5b61012e61012936600461098e565b6102cf565b60405190151581526020015b60405180910390f35b61014b610306565b60405161013a91906109bf565b61012e610166366004610a29565b610398565b6002545b60405190815260200161013a565b61012e61018b366004610a53565b6103b0565b61016f61019e366004610a90565b60009081526005602052604090206001015490565b6101c66101c1366004610aa9565b6103d4565b005b6040516012815260200161013a565b6101c66101e5366004610aa9565b6103ff565b6101c66101f8366004610a29565b610437565b61016f61020b366004610ad5565b6001600160a01b031660009081526020819052604090205490565b61012e610234366004610aa9565b6104c0565b61014b6104eb565b61016f600081565b61012e610257366004610a29565b6104fa565b61016f7f9f2df0fed2c77648de5860a4cc508cd0818c85b8b8a1ab4ceeef8d981c8956a681565b6101c6610291366004610aa9565b610508565b61016f6102a4366004610af0565b6001600160a01b03918216600090815260016020908152604080832093909416825291909152205490565b60006001600160e01b03198216637965db0b60e01b148061030057506301ffc9a760e01b6001600160e01b03198316145b92915050565b60606003805461031590610b1a565b80601f016020809104026020016040519081016040528092919081815260200182805461034190610b1a565b801561038e5780601f106103635761010080835404028352916020019161038e565b820191906000526020600020905b81548152906001019060200180831161037157829003601f168201915b5050505050905090565b6000336103a681858561052d565b5060019392505050565b6000336103be85828561053a565b6103c98585856105b3565b506001949350505050565b6000828152600560205260409020600101546103ef81610612565b6103f9838361061f565b50505050565b6001600160a01b03811633146104285760405163334bd91960e11b815260040160405180910390fd5b61043282826106b3565b505050565b6104617f9f2df0fed2c77648de5860a4cc508cd0818c85b8b8a1ab4ceeef8d981c8956a6336104c0565b6104b25760405162461bcd60e51b815260206004820152601860248201527f50726f6a656374546f6b656e3a206e6f74206d696e746572000000000000000060448201526064015b60405180910390fd5b6104bc8282610720565b5050565b60009182526005602090815260408084206001600160a01b0393909316845291905290205460ff1690565b60606004805461031590610b1a565b6000336103a68185856105b3565b60008281526005602052604090206001015461052381610612565b6103f983836106b3565b6104328383836001610756565b6001600160a01b038381166000908152600160209081526040808320938616835292905220546000198110156103f957818110156105a457604051637dc7a0d960e11b81526001600160a01b038416600482015260248101829052604481018390526064016104a9565b6103f984848484036000610756565b6001600160a01b0383166105dd57604051634b637e8f60e11b8152600060048201526024016104a9565b6001600160a01b0382166106075760405163ec442f0560e01b8152600060048201526024016104a9565b61043283838361082b565b61061c8133610955565b50565b600061062b83836104c0565b6106ab5760008381526005602090815260408083206001600160a01b03861684529091529020805460ff191660011790556106633390565b6001600160a01b0316826001600160a01b0316847f2f8788117e7eff1d82e926ec794901d17c78024a50270940304540a733656f0d60405160405180910390a4506001610300565b506000610300565b60006106bf83836104c0565b156106ab5760008381526005602090815260408083206001600160a01b0386168085529252808320805460ff1916905551339286917ff6391f5c32d9c69d2a47ea670b442974b53935d1edc7fd64eb21e047a839171b9190a4506001610300565b6001600160a01b03821661074a5760405163ec442f0560e01b8152600060048201526024016104a9565b6104bc6000838361082b565b6001600160a01b0384166107805760405163e602df0560e01b8152600060048201526024016104a9565b6001600160a01b0383166107aa57604051634a1406b160e11b8152600060048201526024016104a9565b6001600160a01b03808516600090815260016020908152604080832093871683529290522082905580156103f957826001600160a01b0316846001600160a01b03167f8c5be1e5ebec7d5bd14f71427d1e84f3dd0314c0f7b2291e5b200ac8c7c3b9258460405161081d91815260200190565b60405180910390a350505050565b6001600160a01b03831661085657806002600082825461084b9190610b54565b909155506108c89050565b6001600160a01b038316600090815260208190526040902054818110156108a95760405163391434e360e21b81526001600160a01b038516600482015260248101829052604481018390526064016104a9565b6001600160a01b03841660009081526020819052604090209082900390555b6001600160a01b0382166108e457600280548290039055610903565b6001600160a01b03821660009081526020819052604090208054820190555b816001600160a01b0316836001600160a01b03167fddf252ad1be2c89b69c2b068fc378daa952ba7f163c4a11628f55a4df523b3ef8360405161094891815260200190565b60405180910390a3505050565b61095f82826104c0565b6104bc5760405163e2517d3f60e01b81526001600160a01b0382166004820152602481018390526044016104a9565b6000602082840312156109a057600080fd5b81356001600160e01b0319811681146109b857600080fd5b9392505050565b602081526000825180602084015260005b818110156109ed57602081860181015160408684010152016109d0565b506000604082850101526040601f19601f83011684010191505092915050565b80356001600160a01b0381168114610a2457600080fd5b919050565b60008060408385031215610a3c57600080fd5b610a4583610a0d565b946020939093013593505050565b600080600060608486031215610a6857600080fd5b610a7184610a0d565b9250610a7f60208501610a0d565b929592945050506040919091013590565b600060208284031215610aa257600080fd5b5035919050565b60008060408385031215610abc57600080fd5b82359150610acc60208401610a0d565b90509250929050565b600060208284031215610ae757600080fd5b6109b882610a0d565b60008060408385031215610b0357600080fd5b610b0c83610a0d565b9150610acc60208401610a0d565b600181811c90821680610b2e57607f821691505b602082108103610b4e57634e487b7160e01b600052602260045260246000fd5b50919050565b8082018082111561030057634e487b7160e01b600052601160045260246000fdfea264697066735822122019b21cd8e7f0b99033d79581b86fb083ccf1bbf01a444bdeab852d5ef85d36ca64736f6c634300081d0033",
  "linkReferences": {},
  "deployedLinkReferences": {}
}