{
  "_format": "hh3-artifact-1",
  "contractName": "CampaignFactory",
  "sourceName": "contracts/campaignfactory.sol",
  "abi": [
    {
      "inputs": [
        {
          "internalType": "address",
          "name": "admin",
          "type": "address"
        }
      ],
      "stateMutability": "nonpayable",
      "type": "constructor"
    },
    {
      "inputs": [],
      "name": "AccessControlBadConfirmation",
      "type": "error"
    },
    {
      "inputs": [
        {
          "internalType": "address",
          "name": "account",
          "type": "address"
        },
        {
          "internalType": "bytes32",
          "name": "neededRole",
          "type": "bytes32"
        }
      ],
      "name": "AccessControlUnauthorizedAccount",
      "type": "error"
    },
    {
      "anonymous": false,
      "inputs": [
        {
          "indexed": true,
          "internalType": "uint256",
          "name": "campaignId",
          "type": "uint256"
        },
        {
          "indexed": true,
          "internalType": "address",
          "name": "campaignAddress",
          "type": "address"
        },
        {
          "indexed": true,
          "internalType": "address",
          "name": "creator",
          "type": "address"
        },
        {
          "indexed": false,
          "internalType": "uint256",
          "name": "createdAt",
          "type": "uint256"
        }
      ],
      "name": "CampaignCreated",
      "type": "event"
    },
    {
      "anonymous": false,
      "inputs": [
        {
          "indexed": false,
          "internalType": "address",
          "name": "prevAdmin",
          "type": "address"
        },
        {
          "indexed": false,
          "internalType": "address",
          "name": "newUser",
          "type": "address"
        }
      ],
      "name": "OwnerChanged",
      "type": "event"
    },
    {
      "anonymous": false,
      "inputs": [
        {
          "indexed": true,
          "internalType": "bytes32",
          "name": "role",
          "type": "bytes32"
        },
        {
          "indexed": true,
          "internalType": "bytes32",
          "name": "previousAdminRole",
          "type": "bytes32"
        },
        {
          "indexed": true,
          "internalType": "bytes32",
          "name": "newAdminRole",
          "type": "bytes32"
        }
      ],
      "name": "RoleAdminChanged",
      "type": "event"
    },
    {
      "anonymous": false,
      "inputs": [
        {
          "indexed": true,
          "internalType": "bytes32",
          "name": "role",
          "type": "bytes32"
        },
        {
          "indexed": true,
          "internalType": "address",
          "name": "account",
          "type": "address"
        },
        {
          "indexed": true,
          "internalType": "address",
          "name": "sender",
          "type": "address"
        }
      ],
      "name": "RoleGranted",
      "type": "event"
    },
    {
      "anonymous": false,
      "inputs": [
        {
          "indexed": true,
          "internalType": "bytes32",
          "name": "role",
          "type": "bytes32"
        },
        {
          "indexed": true,
          "internalType": "address",
          "name": "account",
          "type": "address"
        },
        {
          "indexed": true,
          "internalType": "address",
          "name": "sender",
          "type": "address"
        }
      ],
      "name": "RoleRevoked",
      "type": "event"
    },
    {
      "inputs": [],
      "name": "ADMIN_ROLE",
      "outputs": [
        {
          "internalType": "bytes32",
          "name": "",
          "type": "bytes32"
        }
      ],
      "stateMutability": "view",
      "type": "function"
    },
    {
      "inputs": [],
      "name": "Admin",
      "outputs": [
        {
          "internalType": "address",
          "name": "",
          "type": "address"
        }
      ],
      "stateMutability": "view",
      "type": "function"
    },
    {
      "inputs": [],
      "name": "DEFAULT_ADMIN_ROLE",
      "outputs": [
        {
          "internalType": "bytes32",
          "name": "",
          "type": "bytes32"
        }
      ],
      "stateMutability": "view",
      "type": "function"
    },
    {
      "inputs": [
        {
          "internalType": "uint256",
          "name": "",
          "type": "uint256"
        }
      ],
      "name": "allCampaigns",
      "outputs": [
        {
          "internalType": "address",
          "name": "",
          "type": "address"
        }
      ],
      "stateMutability": "view",
      "type": "function"
    },
    {
      "inputs": [
        {
          "internalType": "uint256",
          "name": "",
          "type": "uint256"
        }
      ],
      "name": "campaigns",
      "outputs": [
        {
          "internalType": "address",
          "name": "",
          "type": "address"
        }
      ],
      "stateMutability": "view",
      "type": "function"
    },
    {
      "inputs": [
        {
          "components": [
            {
              "internalType": "address",
              "name": "admin",
              "type": "address"
            },
            {
              "internalType": "address",
              "name": "signer",
              "type": "address"
            },
            {
              "internalType": "string",
              "name": "_name",
              "type": "string"
            },
            {
              "internalType": "string",
              "name": "_symbol",
              "type": "string"
            },
            {
              "internalType": "contract IERC20",
              "name": "asset",
              "type": "address"
            },
            {
              "internalType": "uint256",
              "name": "goal",
              "type": "uint256"
            },
            {
              "internalType": "uint256",
              "name": "_minInvestment",
              "type": "uint256"
            },
            {
              "internalType": "uint256",
              "name": "_maxInvestment",
              "type": "uint256"
            },
            {
              "internalType": "uint256",
              "name": "_startTime",
              "type": "uint256"
            },
            {
              "internalType": "uint256",
              "name": "_endTime",
              "type": "uint256"
            },
            {
              "internalType": "uint256",
              "name": "_tokenPrice",
              "type": "uint256"
            },
            {
              "internalType": "enum Structs.PayoutType",
              "name": "_payoutType",
              "type": "uint8"
            },
            {
              "internalType": "uint256",
              "name": "maturityTime",
              "type": "uint256"
            },
            {
              "internalType": "uint256",
              "name": "interestPermile",
              "type": "uint256"
            }
          ],
          "internalType": "struct Structs.deployParams",
          "name": "params",
          "type": "tuple"
        }
      ],
      "name": "createCampaign",
      "outputs": [
        {
          "internalType": "uint256",
          "name": "campaignId",
          "type": "uint256"
        },
        {
          "internalType": "address",
          "name": "campaignAddr",
          "type": "address"
        }
      ],
      "stateMutability": "nonpayable",
      "type": "function"
    },
    {
      "inputs": [
        {
          "internalType": "uint256",
          "name": "id",
          "type": "uint256"
        }
      ],
      "name": "getCampaignAddress",
      "outputs": [
        {
          "internalType": "address",
          "name": "",
          "type": "address"
        }
      ],
      "stateMutability": "view",
      "type": "function"
    },
    {
      "inputs": [
        {
          "internalType": "bytes32",
          "name": "role",
          "type": "bytes32"
        }
      ],
      "name": "getRoleAdmin",
      "outputs": [
        {
          "internalType": "bytes32",
          "name": "",
          "type": "bytes32"
        }
      ],
      "stateMutability": "view",
      "type": "function"
    },
    {
      "inputs": [
        {
          "internalType": "bytes32",
          "name": "role",
          "type": "bytes32"
        },
        {
          "internalType": "address",
          "name": "account",
          "type": "address"
        }
      ],
      "name": "grantRole",
      "outputs": [],
      "stateMutability": "nonpayable",
      "type": "function"
    },
    {
      "inputs": [
        {
          "internalType": "bytes32",
          "name": "role",
          "type": "bytes32"
        },
        {
          "internalType": "address",
          "name": "account",
          "type": "address"
        }
      ],
      "name": "hasRole",
      "outputs": [
        {
          "internalType": "bool",
          "name": "",
          "type": "bool"
        }
      ],
      "stateMutability": "view",
      "type": "function"
    },
    {
      "inputs": [],
      "name": "nextCampaignId",
      "outputs": [
        {
          "internalType": "uint256",
          "name": "",
          "type": "uint256"
        }
      ],
      "stateMutability": "view",
      "type": "function"
    },
    {
      "inputs": [
        {
          "internalType": "bytes32",
          "name": "role",
          "type": "bytes32"
        },
        {
          "internalType": "address",
          "name": "callerConfirmation",
          "type": "address"
        }
      ],
      "name": "renounceRole",
      "outputs": [],
      "stateMutability": "nonpayable",
      "type": "function"
    },
    {
      "inputs": [
        {
          "internalType": "bytes32",
          "name": "role",
          "type": "bytes32"
        },
        {
          "internalType": "address",
          "name": "account",
          "type": "address"
        }
      ],
      "name": "revokeRole",
      "outputs": [],
      "stateMutability": "nonpayable",
      "type": "function"
    },
    {
      "inputs": [
        {
          "internalType": "bytes4",
          "name": "interfaceId",
          "type": "bytes4"
        }
      ],
      "name": "supportsInterface",
      "outputs": [
        {
          "internalType": "bool",
          "name": "",
          "type": "bool"
        }
      ],
      "stateMutability": "view",
      "type": "function"
    },
    {
      "inputs": [],
      "name": "totalCampaigns",
      "outputs": [
        {
          "internalType": "uint256",
          "name": "",
          "type": "uint256"
        }
      ],
      "stateMutability": "view",
      "type": "function"
    },
    {
      "inputs": [
        {
          "internalType": "address",
          "name": "newUser",
          "type": "address"
        }
      ],
      "name": "transferOwnership",
      "outputs": [],
      "stateMutability": "nonpayable",
      "type": "function"
    }
  ],
  "bytecode": "0x608060405234801561000f575f5ffd5b5060405161460f38038061460f83398101604081905261002e9161017d565b6001600160a01b0381166100755760405162461bcd60e51b815260206004820152600a6024820152693d32b9379030b236b4b760b11b604482015260640160405180910390fd5b61007f5f826100d4565b506100aa7f334e4ff29b2b33ea01e68e72a933a3c413941d8539341b73a9bd86a2ae4d12f6826100d4565b5060018055600480546001600160a01b0319166001600160a01b03929092169190911790556101aa565b5f828152602081815260408083206001600160a01b038516845290915281205460ff16610174575f838152602081815260408083206001600160a01b03861684529091529020805460ff1916600117905561012c3390565b6001600160a01b0316826001600160a01b0316847f2f8788117e7eff1d82e926ec794901d17c78024a50270940304540a733656f0d60405160405180910390a4506001610177565b505f5b92915050565b5f6020828403121561018d575f5ffd5b81516001600160a01b03811681146101a3575f5ffd5b9392505050565b614458806101b75f395ff3fe608060405234801561000f575f5ffd5b50600436106100fb575f3560e01c80637903a75611610093578063d547741f11610063578063d547741f1461023d578063e1231ec514610250578063f2fde38b14610278578063ff1b636d1461028b575f5ffd5b80637903a7561461020757806391d1485414610210578063a217fddf14610223578063a509f4d11461022a575f5ffd5b80632f2ff15d116100ce5780632f2ff15d1461019b57806336568abe146101b05780634d3237ad146101c357806375b238fc146101f3575f5ffd5b806301ffc9a7146100ff57806302932f5614610127578063141961bc14610139578063248a9ca314610179575b5f5ffd5b61011261010d3660046107b2565b61029e565b60405190151581526020015b60405180910390f35b6003545b60405190815260200161011e565b6101616101473660046107e0565b60026020525f90815260409020546001600160a01b031681565b6040516001600160a01b03909116815260200161011e565b61012b6101873660046107e0565b5f9081526020819052604090206001015490565b6101ae6101a936600461081b565b6102d4565b005b6101ae6101be36600461081b565b6102fe565b6101d66101d1366004610920565b610336565b604080519283526001600160a01b0390911660208301520161011e565b61012b5f5160206144035f395f51905f5281565b61012b60015481565b61011261021e36600461081b565b610490565b61012b5f81565b6101616102383660046107e0565b6104b8565b6101ae61024b36600461081b565b6104e0565b61016161025e3660046107e0565b5f908152600260205260409020546001600160a01b031690565b6101ae610286366004610a55565b610504565b600454610161906001600160a01b031681565b5f6001600160e01b03198216637965db0b60e01b14806102ce57506301ffc9a760e01b6001600160e01b03198316145b92915050565b5f828152602081905260409020600101546102ee81610663565b6102f88383610670565b50505050565b6001600160a01b03811633146103275760405163334bd91960e11b815260040160405180910390fd5b61033182826106ff565b505050565b5f5f5f5160206144035f395f51905f5261034f81610663565b60808401516001600160a01b031661039b5760405162461bcd60e51b815260206004820152600a6024820152691e995c9bc8185cdcd95d60b21b60448201526064015b60405180910390fd5b5f846040516103a9906107a5565b6103b39190610abe565b604051809103905ff0801580156103cc573d5f5f3e3d5ffd5b50600180549194508492505f6103e183610bc4565b909155505f8181526002602052604080822080546001600160a01b0388166001600160a01b031991821681179092556003805460018101825594527fc2575a0e9e593c00f959f8c92f12db2869c3395a3b0502d05e2516446f71f85b9093018054909316811790925551919550339186907f57d8cc51cef40f8c9c48aef055b6159e7279eb7281514602c8fe98d49bb15aab906104819042815260200190565b60405180910390a45050915091565b5f918252602082815260408084206001600160a01b0393909316845291905290205460ff1690565b600381815481106104c7575f80fd5b5f918252602090912001546001600160a01b0316905081565b5f828152602081905260409020600101546104fa81610663565b6102f883836106ff565b5f61050e81610663565b6001600160a01b03821661055c5760405162461bcd60e51b8152602060048201526015602482015274496e76616c69642061646d696e206164647265737360581b6044820152606401610392565b6004546001600160a01b03908116908316036105ae5760405162461bcd60e51b815260206004820152601160248201527020b63932b0b23c903a34329030b236b4b760791b6044820152606401610392565b6004546001600160a01b03166105c45f826106ff565b506105dc5f5160206144035f395f51905f52826106ff565b50600480546001600160a01b0319166001600160a01b0385161790556106025f84610670565b5061061a5f5160206144035f395f51905f5284610670565b50604080516001600160a01b038084168252851660208201527fb532073b38c83145e3e5135377a08bf9aab55bc0fd7c1179cd4fb995d2a5159c910160405180910390a1505050565b61066d8133610768565b50565b5f61067b8383610490565b6106f8575f838152602081815260408083206001600160a01b03861684529091529020805460ff191660011790556106b03390565b6001600160a01b0316826001600160a01b0316847f2f8788117e7eff1d82e926ec794901d17c78024a50270940304540a733656f0d60405160405180910390a45060016102ce565b505f6102ce565b5f61070a8383610490565b156106f8575f838152602081815260408083206001600160a01b0386168085529252808320805460ff1916905551339286917ff6391f5c32d9c69d2a47ea670b442974b53935d1edc7fd64eb21e047a839171b9190a45060016102ce565b6107728282610490565b6107a15760405163e2517d3f60e01b81526001600160a01b038216600482015260248101839052604401610392565b5050565b61381a80610be983390190565b5f602082840312156107c2575f5ffd5b81356001600160e01b0319811681146107d9575f5ffd5b9392505050565b5f602082840312156107f0575f5ffd5b5035919050565b6001600160a01b038116811461066d575f5ffd5b8035610816816107f7565b919050565b5f5f6040838503121561082c575f5ffd5b82359150602083013561083e816107f7565b809150509250929050565b634e487b7160e01b5f52604160045260245ffd5b6040516101c0810167ffffffffffffffff8111828210171561088157610881610849565b60405290565b5f82601f830112610896575f5ffd5b813567ffffffffffffffff8111156108b0576108b0610849565b604051601f8201601f19908116603f0116810167ffffffffffffffff811182821017156108df576108df610849565b6040528181528382016020018510156108f6575f5ffd5b816020850160208301375f918101602001919091529392505050565b803560038110610816575f5ffd5b5f60208284031215610930575f5ffd5b813567ffffffffffffffff811115610946575f5ffd5b82016101c08185031215610958575f5ffd5b61096061085d565b6109698261080b565b81526109776020830161080b565b6020820152604082013567ffffffffffffffff811115610995575f5ffd5b6109a186828501610887565b604083015250606082013567ffffffffffffffff8111156109c0575f5ffd5b6109cc86828501610887565b6060830152506109de6080830161080b565b608082015260a0828101359082015260c0808301359082015260e08083013590820152610100808301359082015261012080830135908201526101408083013590820152610a2f6101608301610912565b61016082015261018082810135908201526101a091820135918101919091529392505050565b5f60208284031215610a65575f5ffd5b81356107d9816107f7565b5f81518084528060208401602086015e5f602082860101526020601f19601f83011685010191505092915050565b60038110610aba57634e487b7160e01b5f52602160045260245ffd5b9052565b60208152610ad86020820183516001600160a01b03169052565b5f6020830151610af360408401826001600160a01b03169052565b5060408301516101c06060840152610b0f6101e0840182610a70565b90506060840151601f19848303016080850152610b2c8282610a70565b9150506080840151610b4960a08501826001600160a01b03169052565b5060a084015160c084015260c084015160e084015260e0840151610100840152610100840151610120840152610120840151610140840152610140840151610160840152610160840151610ba1610180850182610a9e565b506101808401516101a08401526101a08401516101c08401528091505092915050565b5f60018201610be157634e487b7160e01b5f52601160045260245ffd5b506001019056fe60c0604052600b805463ffffffff1916905560fa60128190556013555f60145534801561002a575f5ffd5b5060405161381a38038061381a8339810160408190526100499161051f565b608081015160408201516060830151600361006483826106d5565b50600461007182826106d5565b5050505f5f610085836102ad60201b60201c565b9150915081610095576012610097565b805b60ff1660a05250506001600160a01b0390811660805260016006558151166100d2576040516314f5977360e11b815260040160405180910390fd5b60208101516001600160a01b03166100fd576040516314f5977360e11b815260040160405180910390fd5b80610120015181610100015110610127576040516329c6f4c160e01b815260040160405180910390fd5b8061018001518161012001511061015157604051630389bd8f60e41b815260040160405180910390fd5b8060c001515f03610175576040516347f46f0160e11b815260040160405180910390fd5b8060c001518160e00151101561019e5760405163084068b160e31b815260040160405180910390fd5b8060a001515f036101c257604051636e29d8a560e11b815260040160405180910390fd5b8061014001515f036101e75760405163614fe19960e11b815260040160405180910390fd5b80516101f4905f90610383565b508051600d80546001600160a01b0319166001600160a01b03928316179055602082015160078054610100600160a81b0319166101009290931682029290921790915560a082015160085560c082015160095560e0820151600a55610140820151600c55810151600e55610120810151600f556101808101516010556101a0810151601155610160810151600b805460ff60201b19166401000000008360028111156102a2576102a261078f565b0217905550506107d0565b60408051600481526024810182526020810180516001600160e01b031663313ce56760e01b17905290515f918291829182916001600160a01b038716916102f3916107a3565b5f60405180830381855afa9150503d805f811461032b576040519150601f19603f3d011682016040523d82523d5f602084013e610330565b606091505b509150915081801561034457506020815110155b15610377575f8180602001905181019061035e91906107b9565b905060ff8111610375576001969095509350505050565b505b505f9485945092505050565b5f8281526005602090815260408083206001600160a01b038516845290915281205460ff16610427575f8381526005602090815260408083206001600160a01b03861684529091529020805460ff191660011790556103df3390565b6001600160a01b0316826001600160a01b0316847f2f8788117e7eff1d82e926ec794901d17c78024a50270940304540a733656f0d60405160405180910390a450600161042a565b505f5b92915050565b634e487b7160e01b5f52604160045260245ffd5b6040516101c081016001600160401b038111828210171561046757610467610430565b60405290565b80516001600160a01b0381168114610483575f5ffd5b919050565b5f82601f830112610497575f5ffd5b81516001600160401b038111156104b0576104b0610430565b604051601f8201601f19908116603f011681016001600160401b03811182821017156104de576104de610430565b6040528181528382016020018510156104f5575f5ffd5b8160208501602083015e5f918101602001919091529392505050565b805160038110610483575f5ffd5b5f6020828403121561052f575f5ffd5b81516001600160401b03811115610544575f5ffd5b82016101c08185031215610556575f5ffd5b61055e610444565b6105678261046d565b81526105756020830161046d565b602082015260408201516001600160401b03811115610592575f5ffd5b61059e86828501610488565b60408301525060608201516001600160401b038111156105bc575f5ffd5b6105c886828501610488565b6060830152506105da6080830161046d565b608082015260a0828101519082015260c0808301519082015260e0808301519082015261010080830151908201526101208083015190820152610140808301519082015261062b6101608301610511565b61016082015261018082810151908201526101a091820151918101919091529392505050565b600181811c9082168061066557607f821691505b60208210810361068357634e487b7160e01b5f52602260045260245ffd5b50919050565b601f8211156106d057805f5260205f20601f840160051c810160208510156106ae5750805b601f840160051c820191505b818110156106cd575f81556001016106ba565b50505b505050565b81516001600160401b038111156106ee576106ee610430565b610702816106fc8454610651565b84610689565b6020601f821160018114610734575f831561071d5750848201515b5f19600385901b1c1916600184901b1784556106cd565b5f84815260208120601f198516915b828110156107635787850151825560209485019460019092019101610743565b508482101561078057868401515f19600387901b60f8161c191681555b50505050600190811b01905550565b634e487b7160e01b5f52602160045260245ffd5b5f82518060208501845e5f920191825250919050565b5f602082840312156107c9575f5ffd5b5051919050565b60805160a051612fc061085a5f395f610ab201525f81816104da015281816107ad015281816109f401528181610cb201528181610e5501528181610f5b01528181610fbf01528181611248015281816114a801528181611e1d01528181611e4e01528181611ebc0152818161200b015281816122950152818161290b015261293c0152612fc05ff3fe608060405234801561000f575f5ffd5b506004361061037d575f3560e01c806370a08231116101d4578063c6e6f59211610109578063dd5967c3116100a9578063ed9dbced11610079578063ed9dbced14610770578063ef8b30f71461069f578063f2fde38b14610783578063f851a44014610796575f5ffd5b8063dd5967c31461071d578063dd62ed3e14610726578063e1e158a51461075e578063e3275eb014610767575f5ffd5b8063cfd7ab91116100e4578063cfd7ab91146106e5578063d2d8cb67146106ee578063d547741f146106f7578063d905777e1461070a575f5ffd5b8063c6e6f5921461069f578063cc3d967b146106b2578063ce96cb77146106d2575f5ffd5b8063a217fddf11610174578063b422271f1161014f578063b422271f14610652578063b460af9414610665578063ba08765214610678578063c63d75b61461068b575f5ffd5b8063a217fddf14610625578063a9059cbb1461062c578063b3d7f6b91461063f575f5ffd5b806391d14854116101af57806391d14854146105ee57806394bf804d1461060157806395d89b411461061457806398b78a4b1461061c575f5ffd5b806370a08231146105b55780638456cb59146105dd578063850d9afb146105e5575f5ffd5b806336568abe116102b55780634bd0c2d811610255578063573761981161022557806357376198146105715780635c975abb146105845780635f04c5e41461058f5780636e553f65146105a2575f5ffd5b80634bd0c2d81461054d5780634cdad506146103d45780634e71d92d14610560578063571e1c6814610568575f5ffd5b80633c37475e116102905780633c37475e146105075780633f4ba83a14610529578063402d267d14610531578063428a8bad14610544575f5ffd5b806336568abe146104c557806338d52e0f146104d85780633bc64d2b146104fe575f5ffd5b806318160ddd11610320578063248a9ca3116102fb578063248a9ca31461046d5780632f2ff15d1461048f578063313ce567146104a257806333acd652146104bc575f5ffd5b806318160ddd1461042257806319dcd8841461042a57806323b872dd1461045a575f5ffd5b806307a2d13a1161035b57806307a2d13a146103d4578063095ea7b3146103e75780630a28a477146103fa578063155dd5ee1461040d575f5ffd5b806301e1d1141461038157806301ffc9a71461039c57806306fdde03146103bf575b5f5ffd5b6103896107a9565b6040519081526020015b60405180910390f35b6103af6103aa366004612b76565b610859565b6040519015158152602001610393565b6103c761088f565b6040516103939190612b9d565b6103896103e2366004612bd2565b61091f565b6103af6103f5366004612c04565b61092a565b610389610408366004612bd2565b610941565b61042061041b366004612bd2565b61094d565b005b600254610389565b6007546104429061010090046001600160a01b031681565b6040516001600160a01b039091168152602001610393565b6103af610468366004612c2c565b610a5c565b61038961047b366004612bd2565b5f9081526005602052604090206001015490565b61042061049d366004612c66565b610a81565b6104aa610aab565b60405160ff9091168152602001610393565b61038960115481565b6104206104d3366004612c66565b610adb565b7f0000000000000000000000000000000000000000000000000000000000000000610442565b61038960085481565b600b5461051c90640100000000900460ff1681565b6040516103939190612ca4565b610420610b13565b61038961053f366004612cca565b610b25565b61038960145481565b61038961055b366004612cca565b610b79565b610420610b83565b61038960125481565b61042061057f366004612c04565b610c7f565b60075460ff166103af565b61038961059d366004612ce3565b610dbd565b6103896105b0366004612c66565b6110f4565b6103896105c3366004612cca565b6001600160a01b03165f9081526020819052604090205490565b610420611362565b610389600f5481565b6103af6105fc366004612c66565b611374565b61038961060f366004612c66565b61139e565b6103c76113c1565b61038960135481565b6103895f81565b6103af61063a366004612c04565b6113d0565b61038961064d366004612bd2565b6113dd565b6103af610660366004612c66565b6113e9565b610389610673366004612d18565b6115b8565b610389610686366004612d18565b611698565b610389610699366004612cca565b505f1990565b6103896106ad366004612bd2565b61174a565b6106c56106c0366004612cca565b611755565b6040516103939190612d51565b6103896106e0366004612cca565b611842565b610389600e5481565b610389600c5481565b610420610705366004612c66565b611864565b610389610718366004612cca565b611888565b610389600a5481565b610389610734366004612dea565b6001600160a01b039182165f90815260016020908152604080832093909416825291909152205490565b61038960095481565b61038960105481565b61038961077e366004612cca565b6118a5565b610420610791366004612cca565b6118df565b600d54610442906001600160a01b031681565b5f807f00000000000000000000000000000000000000000000000000000000000000006040516370a0823160e01b81523060048201526001600160a01b0391909116906370a0823190602401602060405180830381865afa158015610810573d5f5f3e3d5ffd5b505050506040513d601f19601f820116820180604052508101906108349190612e12565b90506015548111610846575f91505090565b6015546108539082612e3d565b91505090565b5f6001600160e01b03198216637965db0b60e01b148061088957506301ffc9a760e01b6001600160e01b03198316145b92915050565b60606003805461089e90612e50565b80601f01602080910402602001604051908101604052809291908181526020018280546108ca90612e50565b80156109155780601f106108ec57610100808354040283529160200191610915565b820191905f5260205f20905b8154815290600101906020018083116108f857829003601f168201915b5050505050905090565b5f610889825f611a03565b5f33610937818585611a1a565b5060019392505050565b5f610889826001611a27565b610955611a3e565b61095d611a68565b5f61096781611a8c565b600f544210801561097b5750600854601454105b1561099957604051630ac3270f60e41b815260040160405180910390fd5b815f036109b9576040516326753bb560e11b815260040160405180910390fd5b6109c16107a9565b8211156109e157604051635462f71f60e01b815260040160405180910390fd5b600d54610a24906001600160a01b0316837f00000000000000000000000000000000000000000000000000000000000000005b6001600160a01b03169190611a96565b60405182907f5fafc30b7c5090dc417458251e397ac4cfa3c5be8195e2312894b18b125e1fc3905f90a250610a596001600655565b50565b5f33610a69858285611af5565b610a74858585611b58565b60019150505b9392505050565b5f82815260056020526040902060010154610a9b81611a8c565b610aa58383611bb5565b50505050565b5f610ad6817f0000000000000000000000000000000000000000000000000000000000000000612e88565b905090565b6001600160a01b0381163314610b045760405163334bd91960e11b815260040160405180910390fd5b610b0e8282611c46565b505050565b5f610b1d81611a8c565b610a59611cb1565b5f600e54421080610b375750600f5442115b15610b4357505f919050565b60085460145410610b5557505f919050565b5f601454600854610b669190612e3d565b9050600a54811061088957600a54610a7a565b5f61088982611d03565b610b8b611a3e565b610b93611a68565b600f5442108015610ba75750600854601454105b15610bc557604051630ac3270f60e41b815260040160405180910390fd5b5f600b54640100000000900460ff166002811115610be557610be5612c90565b148015610bf457506010544210155b15610c0657610c01611d41565b610c73565b6001600b54640100000000900460ff166002811115610c2757610c27612c90565b03610c3457610c01611ee0565b6002600b54640100000000900460ff166002811115610c5557610c55612c90565b03610c73576010544210610c6b57610c01611d41565b610c73611ee0565b610c7d6001600655565b565b5f610c8981611a8c565b6001600160a01b038316610cb0576040516314f5977360e11b815260040160405180910390fd5b7f00000000000000000000000000000000000000000000000000000000000000006001600160a01b0316836001600160a01b031603610d02576040516316abf95d60e31b815260040160405180910390fd5b815f03610d22576040516326753bb560e11b815260040160405180910390fd5b6040516370a0823160e01b815230600482015282906001600160a01b038516906370a0823190602401602060405180830381865afa158015610d66573d5f5f3e3d5ffd5b505050506040513d601f19601f82011682018060405250810190610d8a9190612e12565b1015610da957604051635462f71f60e01b815260040160405180910390fd5b610b0e6001600160a01b0384163384611a96565b5f610dc6611a3e565b610dce611a68565b600e54421080610ddf5750600f5442115b80610dee575060085460145410155b15610e0c57604051633e8502df60e01b815260040160405180910390fd5b825f03610e2c576040516326753bb560e11b815260040160405180910390fd5b5f3390505f610e41856012546127105f61202f565b90505f610e4e8287612e3d565b9050610e7d7f00000000000000000000000000000000000000000000000000000000000000008388868961207a565b60608501355f9081526018602052604090205460ff1615610eb1576040516331537f5560e21b815260040160405180910390fd5b600954811015610ed45760405163ac1e14e560e01b815260040160405180910390fd5b60085481601454610ee59190612ea1565b1115610f04576040516317c0604960e31b815260040160405180910390fd5b5f610f0e84610b25565b905080821115610f4057838282604051633c8097d960e11b8152600401610f3793929190612eb4565b60405180910390fd5b5f610f4b835f611a27565b90508215610f8c57610f8c8530857f00000000000000000000000000000000000000000000000000000000000000005b6001600160a01b0316929190612196565b5f84118015610fa55750600d546001600160a01b031615155b15610fe357600d54610fe39086906001600160a01b0316867f0000000000000000000000000000000000000000000000000000000000000000610f7b565b610fed85826121cf565b60608701355f908152601860205260408120805460ff191660011790556014805485929061101c908490612ea1565b90915550506001600160a01b0385165f8181526017602081815260408084208151606081018352898152808401888152429382019384528254600181810185558489528689209351600390920290930190815590518183015592516002909301929092559484529190529091018054839290611099908490612ea1565b909155505060408051848152602081018390526001600160a01b0387169182917fdcbc1c05240f31ff3ad067ef1ee35ce4997762752e3a095284754544f4c709d7910160405180910390a39450505050506108896001600655565b5f6110fd611a3e565b611105611a68565b600e544210806111165750600f5442115b80611125575060085460145410155b1561114357604051633e8502df60e01b815260040160405180910390fd5b825f03611163576040516326753bb560e11b815260040160405180910390fd5b6001600160a01b038216331461118c5760405163162692a760e01b815260040160405180910390fd5b5f61119d846012546127105f61202f565b90505f6111aa8286612e3d565b90506009548110156111e557600854816014546111c79190612ea1565b146111e55760405163ac1e14e560e01b815260040160405180910390fd5b600854816014546111f69190612ea1565b1115611215576040516317c0604960e31b815260040160405180910390fd5b5f8211801561122e5750600d546001600160a01b031615155b1561126c57600d5461126c9033906001600160a01b0316847f0000000000000000000000000000000000000000000000000000000000000000610f7b565b6112768185612207565b6001600160a01b0385165f818152601760208181526040808420815160608101835288815280840188815242938201938452825460018181018555848952868920935160039092029093019081559051818301559251600290930192909255948452919052909101805492955085929091906112f3908490612ea1565b925050819055508060145f82825461130b9190612ea1565b909155505060408051828152602081018590526001600160a01b0386169182917fdcbc1c05240f31ff3ad067ef1ee35ce4997762752e3a095284754544f4c709d7910160405180910390a350506108896001600655565b5f61136c81611a8c565b610a59612253565b5f9182526005602090815260408084206001600160a01b0393909316845291905290205460ff1690565b5f5f195f6113ab856113dd565b90506113b933858388612290565b949350505050565b60606004805461089e90612e50565b5f33610937818585611b58565b5f610889826001611a03565b5f6113f2611a3e565b6113fa611a68565b5f61140481611a8c565b835f03611424576040516326753bb560e11b815260040160405180910390fd5b6001600160a01b03831661144b576040516314f5977360e11b815260040160405180910390fd5b5f61145560025490565b9050805f036114775760405163c450ddf160e01b815260040160405180910390fd5b600b5463ffffffff908116106114a057604051632e6b161360e01b815260040160405180910390fd5b6114cc8430877f0000000000000000000000000000000000000000000000000000000000000000610f7b565b600b546114e09063ffffffff166001612ed5565b600b805463ffffffff191663ffffffff929092169190911790555f61150f86670de0b6b3a7640000848461202f565b604080518082018252828152426020808301918252600b5463ffffffff165f9081526016909152928320915182555160019091015560158054929350889290919061155b908490612ea1565b9091555050600b546040805188815263ffffffff90921660208301524282820152517f6f030ba6d582d7a59edc355267529fa420bb4a982750488913f3ee91645e3aeb9181900360600190a1600193505050506108896001600655565b5f6115c1611a3e565b6115c9611a68565b835f036115e9576040516326753bb560e11b815260040160405180910390fd5b5f611608856127106013546127106116019190612e3d565b600161202f565b905061161381610941565b6001600160a01b0384165f908152601760205260409020600101549092508211156116505760405162c5644d60e71b815260040160405180910390fd5b6001600160a01b0383165f908152601760205260408120600101805484929061167a908490612e3d565b9091555061168b9050818585612322565b915050610a7a6001600655565b5f6116a1611a3e565b6116a9611a68565b835f036116c9576040516326753bb560e11b815260040160405180910390fd5b6001600160a01b0382165f908152601760205260409020600101548411156117035760405162c5644d60e71b815260040160405180910390fd5b6001600160a01b0382165f908152601760205260408120600101805486929061172d908490612e3d565b9091555061173e905084848461236f565b9050610a7a6001600655565b5f610889825f611a27565b6117836040518060800160405280606081526020015f81526020015f63ffffffff1681526020015f81525090565b6001600160a01b0382165f9081526017602090815260408083208151815460a09481028201850190935260808101838152909491938593919285929185015b8282101561180f578382905f5260205f2090600302016040518060600160405290815f820154815260200160018201548152602001600282015481525050815260200190600101906117c2565b5050509082525060018201546020820152600282015463ffffffff16604082015260039091015460609091015292915050565b6001600160a01b0381165f90815260208190526040812054610889905f611a03565b5f8281526005602052604090206001015461187e81611a8c565b610aa58383611c46565b6001600160a01b0381165f90815260208190526040812054610889565b6001600160a01b0381165f9081526017602052604081206002015481906118d39063ffffffff166001612ed5565b9050610a7a83826123bc565b6118e7611a3e565b6118ef611a68565b5f6118f981611a8c565b6001600160a01b038216611920576040516314f5977360e11b815260040160405180910390fd5b600d546001600160a01b039081169083160361194f5760405163ce3b397b60e01b815260040160405180910390fd5b6119595f83611374565b156119775760405163ce3b397b60e01b815260040160405180910390fd5b600d546001600160a01b031661198d5f82611c46565b50600d80546001600160a01b0319166001600160a01b0385161790556119b35f84611bb5565b50604080516001600160a01b038084168252851660208201527fb532073b38c83145e3e5135377a08bf9aab55bc0fd7c1179cd4fb995d2a5159c910160405180910390a15050610a596001600655565b5f610a7a83600c54670de0b6b3a76400008561202f565b610b0e8383836001612457565b5f610a7a83670de0b6b3a7640000600c548561202f565b600260065403611a6157604051633ee5aeb560e01b815260040160405180910390fd5b6002600655565b60075460ff1615610c7d5760405163d93c066560e01b815260040160405180910390fd5b610a59813361251b565b6040516001600160a01b03838116602483015260448201839052610b0e91859182169063a9059cbb906064015b604051602081830303815290604052915060e01b6020820180516001600160e01b038381831617835250505050612554565b6001600160a01b038381165f908152600160209081526040808320938616835292905220545f19811015610aa55781811015611b4a57828183604051637dc7a0d960e11b8152600401610f3793929190612eb4565b610aa584848484035f612457565b6001600160a01b038316611b8157604051634b637e8f60e11b81525f6004820152602401610f37565b6001600160a01b038216611baa5760405163ec442f0560e01b81525f6004820152602401610f37565b610b0e8383836125c0565b5f611bc08383611374565b611c3f575f8381526005602090815260408083206001600160a01b03861684529091529020805460ff19166001179055611bf73390565b6001600160a01b0316826001600160a01b0316847f2f8788117e7eff1d82e926ec794901d17c78024a50270940304540a733656f0d60405160405180910390a4506001610889565b505f610889565b5f611c518383611374565b15611c3f575f8381526005602090815260408083206001600160a01b0386168085529252808320805460ff1916905551339286917ff6391f5c32d9c69d2a47ea670b442974b53935d1edc7fd64eb21e047a839171b9190a4506001610889565b611cb96126d3565b6007805460ff191690557f5db9ee0a495bf2e6ff9c91a7834c1ba4fdd244a5e8aa4e537bd38aeae4b073aa335b6040516001600160a01b03909116815260200160405180910390a1565b6001600160a01b0381165f90815260176020526040812060018101548203611d2d57505f92915050565b610a7a81600101546011546127105f61202f565b335f611d4c82611d03565b6001600160a01b0383165f9081526017602052604090206001015490915081158015611d76575080155b15611d94576040516344388c2b60e01b815260040160405180910390fd5b5f611d9f825f611a03565b6001600160a01b0385165f9081526017602052604081206001015590508115611e7557611dcc84836126f6565b5f611ddd826013546127105f61202f565b90505f611dea8284612e3d565b90505f82118015611e055750600d546001600160a01b031615155b15611e4157600d54611e41906001600160a01b0316837f0000000000000000000000000000000000000000000000000000000000000000610a14565b8015611e7257611e7286827f0000000000000000000000000000000000000000000000000000000000000000610a14565b50505b8215610aa557826015541015611e9e57604051637521b38f60e11b815260040160405180910390fd5b8260155f828254611eaf9190612e3d565b90915550610aa5905084847f0000000000000000000000000000000000000000000000000000000000000000610a14565b600b5463ffffffff165f03611f08576040516328bf11b960e11b815260040160405180910390fd5b335f81815260176020526040812060020154611f2b9063ffffffff166001612ed5565b600b5490915063ffffffff9081169082161115611f5b57604051631114dc6360e01b815260040160405180910390fd5b5f611f6683836123bc565b9050805f03611f885760405163e7f2f92f60e01b815260040160405180910390fd5b600b546001600160a01b0384165f90815260176020526040902060028101805463ffffffff191663ffffffff9093169290921790915542600390910155601554811115611fe857604051637521b38f60e11b815260040160405180910390fd5b8060155f828254611ff99190612e3d565b90915550508015610b0e57610b0e83827f0000000000000000000000000000000000000000000000000000000000000000610a14565b5f61205c61203c8361272a565b801561205757505f848061205257612052612ef1565b868809115b151590565b612067868686612756565b6120719190612ea1565b95945050505050565b8060800135804211156120a35760405163a53b254560e01b815260048101829052602401610f37565b60408051306020808301919091526001600160a01b038681168385015289166060808401919091526080830188905260a083018990524660c084015285013560e0808401919091528351808403909101815261010090920190925280519101207f19457468657265756d205369676e6564204d6573736167653a0a3332000000005f908152601c829052603c812090505f6121556121446020870187612f05565b839060208801356040890135612806565b6007549091506001600160a01b03808316610100909204161461218b5760405163dc9796c960e01b815260040160405180910390fd5b505050505050505050565b6040516001600160a01b038481166024830152838116604483015260648201839052610aa59186918216906323b872dd90608401611ac3565b6001600160a01b0382166121f85760405163ec442f0560e01b81525f6004820152602401610f37565b6122035f83836125c0565b5050565b5f5f61221283610b25565b90508084111561223b57828482604051633c8097d960e11b8152600401610f3793929190612eb4565b5f6122458561174a565b90506113b933858784612290565b61225b611a68565b6007805460ff191660011790557f62e78cea01bee320cd4e420270b5ea74000d11b0c9f74754ebdbfc544b05a258611ce63390565b6122bc7f0000000000000000000000000000000000000000000000000000000000000000853085612196565b6122c683826121cf565b826001600160a01b0316846001600160a01b03167fdcbc1c05240f31ff3ad067ef1ee35ce4997762752e3a095284754544f4c709d78484604051612314929190918252602082015260400190565b60405180910390a350505050565b5f5f61232d83611842565b90508085111561235657828582604051633fa733bb60e21b8152600401610f3793929190612eb4565b5f61236086610941565b90506120713386868985612832565b5f5f61237a83611888565b9050808511156123a357828582604051632e52afbb60e21b8152600401610f3793929190612eb4565b5f6123ad8661091f565b9050612071338686848a612832565b6001600160a01b0382165f908152601760205260408120600181015482036123e7575f915050610889565b5f835b600b5463ffffffff9081169082161161244e5763ffffffff81165f90815260166020526040812060018501548154919261242e9290670de0b6b3a76400009061202f565b6124389084612ea1565b925050808061244690612f25565b9150506123ea565b50949350505050565b6001600160a01b0384166124805760405163e602df0560e01b81525f6004820152602401610f37565b6001600160a01b0383166124a957604051634a1406b160e11b81525f6004820152602401610f37565b6001600160a01b038085165f9081526001602090815260408083209387168352929052208290558015610aa557826001600160a01b0316846001600160a01b03167f8c5be1e5ebec7d5bd14f71427d1e84f3dd0314c0f7b2291e5b200ac8c7c3b9258460405161231491815260200190565b6125258282611374565b6122035760405163e2517d3f60e01b81526001600160a01b038216600482015260248101839052604401610f37565b5f5f60205f8451602086015f885af180612573576040513d5f823e3d81fd5b50505f513d9150811561258a578060011415612597565b6001600160a01b0384163b155b15610aa557604051635274afe760e01b81526001600160a01b0385166004820152602401610f37565b6001600160a01b0383166125ea578060025f8282546125df9190612ea1565b909155506126479050565b6001600160a01b0383165f90815260208190526040902054818110156126295783818360405163391434e360e21b8152600401610f3793929190612eb4565b6001600160a01b0384165f9081526020819052604090209082900390555b6001600160a01b03821661266357600280548290039055612681565b6001600160a01b0382165f9081526020819052604090208054820190555b816001600160a01b0316836001600160a01b03167fddf252ad1be2c89b69c2b068fc378daa952ba7f163c4a11628f55a4df523b3ef836040516126c691815260200190565b60405180910390a3505050565b60075460ff16610c7d57604051638dfc202b60e01b815260040160405180910390fd5b6001600160a01b03821661271f57604051634b637e8f60e11b81525f6004820152602401610f37565b612203825f836125c0565b5f600282600381111561273f5761273f612c90565b6127499190612f49565b60ff166001149050919050565b5f5f5f61276386866129c9565b91509150815f036127875783818161277d5761277d612ef1565b0492505050610a7a565b81841161279e5761279e60038515026011186129e5565b5f848688095f868103871696879004966002600389028118808a02820302808a02820302808a02820302808a02820302808a02820302808a02909103029181900381900460010185841190960395909502919093039390930492909217029150509392505050565b5f5f5f5f612816888888886129f6565b9250925092506128268282612abe565b50909695505050505050565b826001600160a01b0316856001600160a01b03161461285657612856838683611af5565b6001600160a01b0383165f9081526017602052604090206001015481111561288057612880612f76565b6001600160a01b0383165f90815260176020526040812060010180548392906128aa908490612e3d565b909155506128ba905083826126f6565b5f6128cb836013546127105f61202f565b90505f6128d88285612e3d565b90505f821180156128f35750600d546001600160a01b031615155b1561292f57600d5461292f906001600160a01b0316837f0000000000000000000000000000000000000000000000000000000000000000610a14565b80156129605761296086827f0000000000000000000000000000000000000000000000000000000000000000610a14565b846001600160a01b0316866001600160a01b0316886001600160a01b03167ffbde797d201c681b91056529119e0b02407c7bb96a4a2c75c01fc9667232c8db87876040516129b8929190918252602082015260400190565b60405180910390a450505050505050565b5f805f1983850993909202808410938190039390930393915050565b634e487b715f52806020526024601cfd5b5f80807f7fffffffffffffffffffffffffffffff5d576e7357a4501ddfe92f46681b20a0841115612a2f57505f91506003905082612ab4565b604080515f808252602082018084528a905260ff891692820192909252606081018790526080810186905260019060a0016020604051602081039080840390855afa158015612a80573d5f5f3e3d5ffd5b5050604051601f1901519150506001600160a01b038116612aab57505f925060019150829050612ab4565b92505f91508190505b9450945094915050565b5f826003811115612ad157612ad1612c90565b03612ada575050565b6001826003811115612aee57612aee612c90565b03612b0c5760405163f645eedf60e01b815260040160405180910390fd5b6002826003811115612b2057612b20612c90565b03612b415760405163fce698f760e01b815260048101829052602401610f37565b6003826003811115612b5557612b55612c90565b03612203576040516335e2f38360e21b815260048101829052602401610f37565b5f60208284031215612b86575f5ffd5b81356001600160e01b031981168114610a7a575f5ffd5b602081525f82518060208401528060208501604085015e5f604082850101526040601f19601f83011684010191505092915050565b5f60208284031215612be2575f5ffd5b5035919050565b80356001600160a01b0381168114612bff575f5ffd5b919050565b5f5f60408385031215612c15575f5ffd5b612c1e83612be9565b946020939093013593505050565b5f5f5f60608486031215612c3e575f5ffd5b612c4784612be9565b9250612c5560208501612be9565b929592945050506040919091013590565b5f5f60408385031215612c77575f5ffd5b82359150612c8760208401612be9565b90509250929050565b634e487b7160e01b5f52602160045260245ffd5b6020810160038310612cc457634e487b7160e01b5f52602160045260245ffd5b91905290565b5f60208284031215612cda575f5ffd5b610a7a82612be9565b5f5f82840360c0811215612cf5575f5ffd5b8335925060a0601f1982011215612d0a575f5ffd5b506020830190509250929050565b5f5f5f60608486031215612d2a575f5ffd5b83359250612d3a60208501612be9565b9150612d4860408501612be9565b90509250925092565b60208082528251608083830152805160a084018190525f929190910190829060c08501905b80831015612db057835180518352602081015160208401526040810151604084015250606082019150602084019350600183019250612d76565b506020860151604086015260408601519250612dd4606086018463ffffffff169052565b6060860151608086015280935050505092915050565b5f5f60408385031215612dfb575f5ffd5b612e0483612be9565b9150612c8760208401612be9565b5f60208284031215612e22575f5ffd5b5051919050565b634e487b7160e01b5f52601160045260245ffd5b8181038181111561088957610889612e29565b600181811c90821680612e6457607f821691505b602082108103612e8257634e487b7160e01b5f52602260045260245ffd5b50919050565b60ff818116838216019081111561088957610889612e29565b8082018082111561088957610889612e29565b6001600160a01b039390931683526020830191909152604082015260600190565b63ffffffff818116838216019081111561088957610889612e29565b634e487b7160e01b5f52601260045260245ffd5b5f60208284031215612f15575f5ffd5b813560ff81168114610a7a575f5ffd5b5f63ffffffff821663ffffffff8103612f4057612f40612e29565b60010192915050565b5f60ff831680612f6757634e487b7160e01b5f52601260045260245ffd5b8060ff84160691505092915050565b634e487b7160e01b5f52600160045260245ffdfea2646970667358221220e6d8b0ab0a27d8058d322b2feb3255b3388dc8c2ed21177e3a63e5c6d49037c264736f6c634300081e0033334e4ff29b2b33ea01e68e72a933a3c413941d8539341b73a9bd86a2ae4d12f6a26469706673582212204824b900649e81ea926276cdcdfc409254c723bcffc3d68166e6f9521a8e56fd64736f6c634300081e0033",
  "linkReferences": {},
  "deployedLinkReferences": {},
  "immutableReferences": {},
  "inputSourceName": "project/contracts/campaignfactory.sol",
  "buildInfoId": "solc-0_8_30-cf948f53fc0e422918a9b9a9eb9ae1b8d531f34c"
}