{
  "_format": "hh3-artifact-1",
  "contractName": "CampaignVault",
  "sourceName": "contracts/campaign.sol",
  "abi": [
    {
      "inputs": [
        {
          "internalType": "contract IERC20",
          "name": "asset_",
          "type": "address"
        },
        {
          "internalType": "string",
          "name": "name_",
          "type": "string"
        },
        {
          "internalType": "string",
          "name": "symbol_",
          "type": "string"
        },
        {
          "internalType": "address",
          "name": "admin_",
          "type": "address"
        },
        {
          "internalType": "uint256",
          "name": "fundingCap_",
          "type": "uint256"
        },
        {
          "internalType": "uint256",
          "name": "minDeposit_",
          "type": "uint256"
        },
        {
          "internalType": "uint256",
          "name": "unlockTime_",
          "type": "uint256"
        }
      ],
      "stateMutability": "nonpayable",
      "type": "constructor"
    },
    {
      "inputs": [],
      "name": "AccessControlBadConfirmation",
      "type": "error"
    },
    {
      "inputs": [
        {
          "internalType": "address",
          "name": "account",
          "type": "address"
        },
        {
          "internalType": "bytes32",
          "name": "neededRole",
          "type": "bytes32"
        }
      ],
      "name": "AccessControlUnauthorizedAccount",
      "type": "error"
    },
    {
      "inputs": [
        {
          "internalType": "address",
          "name": "spender",
          "type": "address"
        },
        {
          "internalType": "uint256",
          "name": "allowance",
          "type": "uint256"
        },
        {
          "internalType": "uint256",
          "name": "needed",
          "type": "uint256"
        }
      ],
      "name": "ERC20InsufficientAllowance",
      "type": "error"
    },
    {
      "inputs": [
        {
          "internalType": "address",
          "name": "sender",
          "type": "address"
        },
        {
          "internalType": "uint256",
          "name": "balance",
          "type": "uint256"
        },
        {
          "internalType": "uint256",
          "name": "needed",
          "type": "uint256"
        }
      ],
      "name": "ERC20InsufficientBalance",
      "type": "error"
    },
    {
      "inputs": [
        {
          "internalType": "address",
          "name": "approver",
          "type": "address"
        }
      ],
      "name": "ERC20InvalidApprover",
      "type": "error"
    },
    {
      "inputs": [
        {
          "internalType": "address",
          "name": "receiver",
          "type": "address"
        }
      ],
      "name": "ERC20InvalidReceiver",
      "type": "error"
    },
    {
      "inputs": [
        {
          "internalType": "address",
          "name": "sender",
          "type": "address"
        }
      ],
      "name": "ERC20InvalidSender",
      "type": "error"
    },
    {
      "inputs": [
        {
          "internalType": "address",
          "name": "spender",
          "type": "address"
        }
      ],
      "name": "ERC20InvalidSpender",
      "type": "error"
    },
    {
      "inputs": [
        {
          "internalType": "address",
          "name": "receiver",
          "type": "address"
        },
        {
          "internalType": "uint256",
          "name": "assets",
          "type": "uint256"
        },
        {
          "internalType": "uint256",
          "name": "max",
          "type": "uint256"
        }
      ],
      "name": "ERC4626ExceededMaxDeposit",
      "type": "error"
    },
    {
      "inputs": [
        {
          "internalType": "address",
          "name": "receiver",
          "type": "address"
        },
        {
          "internalType": "uint256",
          "name": "shares",
          "type": "uint256"
        },
        {
          "internalType": "uint256",
          "name": "max",
          "type": "uint256"
        }
      ],
      "name": "ERC4626ExceededMaxMint",
      "type": "error"
    },
    {
      "inputs": [
        {
          "internalType": "address",
          "name": "owner",
          "type": "address"
        },
        {
          "internalType": "uint256",
          "name": "shares",
          "type": "uint256"
        },
        {
          "internalType": "uint256",
          "name": "max",
          "type": "uint256"
        }
      ],
      "name": "ERC4626ExceededMaxRedeem",
      "type": "error"
    },
    {
      "inputs": [
        {
          "internalType": "address",
          "name": "owner",
          "type": "address"
        },
        {
          "internalType": "uint256",
          "name": "assets",
          "type": "uint256"
        },
        {
          "internalType": "uint256",
          "name": "max",
          "type": "uint256"
        }
      ],
      "name": "ERC4626ExceededMaxWithdraw",
      "type": "error"
    },
    {
      "inputs": [],
      "name": "ReentrancyGuardReentrantCall",
      "type": "error"
    },
    {
      "inputs": [
        {
          "internalType": "address",
          "name": "token",
          "type": "address"
        }
      ],
      "name": "SafeERC20FailedOperation",
      "type": "error"
    },
    {
      "anonymous": false,
      "inputs": [
        {
          "indexed": true,
          "internalType": "address",
          "name": "owner",
          "type": "address"
        },
        {
          "indexed": true,
          "internalType": "address",
          "name": "spender",
          "type": "address"
        },
        {
          "indexed": false,
          "internalType": "uint256",
          "name": "value",
          "type": "uint256"
        }
      ],
      "name": "Approval",
      "type": "event"
    },
    {
      "anonymous": false,
      "inputs": [
        {
          "indexed": true,
          "internalType": "address",
          "name": "sender",
          "type": "address"
        },
        {
          "indexed": true,
          "internalType": "address",
          "name": "owner",
          "type": "address"
        },
        {
          "indexed": false,
          "internalType": "uint256",
          "name": "assets",
          "type": "uint256"
        },
        {
          "indexed": false,
          "internalType": "uint256",
          "name": "shares",
          "type": "uint256"
        }
      ],
      "name": "Deposit",
      "type": "event"
    },
    {
      "anonymous": false,
      "inputs": [
        {
          "indexed": true,
          "internalType": "bytes32",
          "name": "role",
          "type": "bytes32"
        },
        {
          "indexed": true,
          "internalType": "bytes32",
          "name": "previousAdminRole",
          "type": "bytes32"
        },
        {
          "indexed": true,
          "internalType": "bytes32",
          "name": "newAdminRole",
          "type": "bytes32"
        }
      ],
      "name": "RoleAdminChanged",
      "type": "event"
    },
    {
      "anonymous": false,
      "inputs": [
        {
          "indexed": true,
          "internalType": "bytes32",
          "name": "role",
          "type": "bytes32"
        },
        {
          "indexed": true,
          "internalType": "address",
          "name": "account",
          "type": "address"
        },
        {
          "indexed": true,
          "internalType": "address",
          "name": "sender",
          "type": "address"
        }
      ],
      "name": "RoleGranted",
      "type": "event"
    },
    {
      "anonymous": false,
      "inputs": [
        {
          "indexed": true,
          "internalType": "bytes32",
          "name": "role",
          "type": "bytes32"
        },
        {
          "indexed": true,
          "internalType": "address",
          "name": "account",
          "type": "address"
        },
        {
          "indexed": true,
          "internalType": "address",
          "name": "sender",
          "type": "address"
        }
      ],
      "name": "RoleRevoked",
      "type": "event"
    },
    {
      "anonymous": false,
      "inputs": [
        {
          "indexed": true,
          "internalType": "address",
          "name": "from",
          "type": "address"
        },
        {
          "indexed": true,
          "internalType": "address",
          "name": "to",
          "type": "address"
        },
        {
          "indexed": false,
          "internalType": "uint256",
          "name": "value",
          "type": "uint256"
        }
      ],
      "name": "Transfer",
      "type": "event"
    },
    {
      "anonymous": false,
      "inputs": [
        {
          "indexed": true,
          "internalType": "address",
          "name": "sender",
          "type": "address"
        },
        {
          "indexed": true,
          "internalType": "address",
          "name": "receiver",
          "type": "address"
        },
        {
          "indexed": true,
          "internalType": "address",
          "name": "owner",
          "type": "address"
        },
        {
          "indexed": false,
          "internalType": "uint256",
          "name": "assets",
          "type": "uint256"
        },
        {
          "indexed": false,
          "internalType": "uint256",
          "name": "shares",
          "type": "uint256"
        }
      ],
      "name": "Withdraw",
      "type": "event"
    },
    {
      "anonymous": false,
      "inputs": [
        {
          "indexed": false,
          "internalType": "uint256",
          "name": "amount",
          "type": "uint256"
        },
        {
          "indexed": false,
          "internalType": "uint256",
          "name": "timestamp",
          "type": "uint256"
        }
      ],
      "name": "YieldAdded",
      "type": "event"
    },
    {
      "inputs": [],
      "name": "ADMIN_ROLE",
      "outputs": [
        {
          "internalType": "bytes32",
          "name": "",
          "type": "bytes32"
        }
      ],
      "stateMutability": "view",
      "type": "function"
    },
    {
      "inputs": [],
      "name": "DEFAULT_ADMIN_ROLE",
      "outputs": [
        {
          "internalType": "bytes32",
          "name": "",
          "type": "bytes32"
        }
      ],
      "stateMutability": "view",
      "type": "function"
    },
    {
      "inputs": [
        {
          "internalType": "uint256",
          "name": "amount",
          "type": "uint256"
        }
      ],
      "name": "addYield",
      "outputs": [],
      "stateMutability": "nonpayable",
      "type": "function"
    },
    {
      "inputs": [
        {
          "internalType": "address",
          "name": "owner",
          "type": "address"
        },
        {
          "internalType": "address",
          "name": "spender",
          "type": "address"
        }
      ],
      "name": "allowance",
      "outputs": [
        {
          "internalType": "uint256",
          "name": "",
          "type": "uint256"
        }
      ],
      "stateMutability": "view",
      "type": "function"
    },
    {
      "inputs": [
        {
          "internalType": "address",
          "name": "spender",
          "type": "address"
        },
        {
          "internalType": "uint256",
          "name": "value",
          "type": "uint256"
        }
      ],
      "name": "approve",
      "outputs": [
        {
          "internalType": "bool",
          "name": "",
          "type": "bool"
        }
      ],
      "stateMutability": "nonpayable",
      "type": "function"
    },
    {
      "inputs": [],
      "name": "asset",
      "outputs": [
        {
          "internalType": "address",
          "name": "",
          "type": "address"
        }
      ],
      "stateMutability": "view",
      "type": "function"
    },
    {
      "inputs": [
        {
          "internalType": "address",
          "name": "account",
          "type": "address"
        }
      ],
      "name": "balanceOf",
      "outputs": [
        {
          "internalType": "uint256",
          "name": "",
          "type": "uint256"
        }
      ],
      "stateMutability": "view",
      "type": "function"
    },
    {
      "inputs": [
        {
          "internalType": "uint256",
          "name": "shares",
          "type": "uint256"
        }
      ],
      "name": "convertToAssets",
      "outputs": [
        {
          "internalType": "uint256",
          "name": "",
          "type": "uint256"
        }
      ],
      "stateMutability": "view",
      "type": "function"
    },
    {
      "inputs": [
        {
          "internalType": "uint256",
          "name": "assets",
          "type": "uint256"
        }
      ],
      "name": "convertToShares",
      "outputs": [
        {
          "internalType": "uint256",
          "name": "",
          "type": "uint256"
        }
      ],
      "stateMutability": "view",
      "type": "function"
    },
    {
      "inputs": [],
      "name": "decimals",
      "outputs": [
        {
          "internalType": "uint8",
          "name": "",
          "type": "uint8"
        }
      ],
      "stateMutability": "view",
      "type": "function"
    },
    {
      "inputs": [
        {
          "internalType": "uint256",
          "name": "assets",
          "type": "uint256"
        },
        {
          "internalType": "address",
          "name": "receiver",
          "type": "address"
        }
      ],
      "name": "deposit",
      "outputs": [
        {
          "internalType": "uint256",
          "name": "shares",
          "type": "uint256"
        }
      ],
      "stateMutability": "nonpayable",
      "type": "function"
    },
    {
      "inputs": [],
      "name": "escrowaddress",
      "outputs": [
        {
          "internalType": "address",
          "name": "",
          "type": "address"
        }
      ],
      "stateMutability": "view",
      "type": "function"
    },
    {
      "inputs": [],
      "name": "fundingCap",
      "outputs": [
        {
          "internalType": "uint256",
          "name": "",
          "type": "uint256"
        }
      ],
      "stateMutability": "view",
      "type": "function"
    },
    {
      "inputs": [
        {
          "internalType": "bytes32",
          "name": "role",
          "type": "bytes32"
        }
      ],
      "name": "getRoleAdmin",
      "outputs": [
        {
          "internalType": "bytes32",
          "name": "",
          "type": "bytes32"
        }
      ],
      "stateMutability": "view",
      "type": "function"
    },
    {
      "inputs": [
        {
          "internalType": "bytes32",
          "name": "role",
          "type": "bytes32"
        },
        {
          "internalType": "address",
          "name": "account",
          "type": "address"
        }
      ],
      "name": "grantRole",
      "outputs": [],
      "stateMutability": "nonpayable",
      "type": "function"
    },
    {
      "inputs": [
        {
          "internalType": "bytes32",
          "name": "role",
          "type": "bytes32"
        },
        {
          "internalType": "address",
          "name": "account",
          "type": "address"
        }
      ],
      "name": "hasRole",
      "outputs": [
        {
          "internalType": "bool",
          "name": "",
          "type": "bool"
        }
      ],
      "stateMutability": "view",
      "type": "function"
    },
    {
      "inputs": [
        {
          "internalType": "address",
          "name": "",
          "type": "address"
        }
      ],
      "name": "isKycVerified",
      "outputs": [
        {
          "internalType": "bool",
          "name": "",
          "type": "bool"
        }
      ],
      "stateMutability": "view",
      "type": "function"
    },
    {
      "inputs": [
        {
          "internalType": "address",
          "name": "",
          "type": "address"
        }
      ],
      "name": "maxDeposit",
      "outputs": [
        {
          "internalType": "uint256",
          "name": "",
          "type": "uint256"
        }
      ],
      "stateMutability": "view",
      "type": "function"
    },
    {
      "inputs": [
        {
          "internalType": "address",
          "name": "",
          "type": "address"
        }
      ],
      "name": "maxMint",
      "outputs": [
        {
          "internalType": "uint256",
          "name": "",
          "type": "uint256"
        }
      ],
      "stateMutability": "view",
      "type": "function"
    },
    {
      "inputs": [
        {
          "internalType": "address",
          "name": "owner",
          "type": "address"
        }
      ],
      "name": "maxRedeem",
      "outputs": [
        {
          "internalType": "uint256",
          "name": "",
          "type": "uint256"
        }
      ],
      "stateMutability": "view",
      "type": "function"
    },
    {
      "inputs": [
        {
          "internalType": "address",
          "name": "owner",
          "type": "address"
        }
      ],
      "name": "maxWithdraw",
      "outputs": [
        {
          "internalType": "uint256",
          "name": "",
          "type": "uint256"
        }
      ],
      "stateMutability": "view",
      "type": "function"
    },
    {
      "inputs": [],
      "name": "minDeposit",
      "outputs": [
        {
          "internalType": "uint256",
          "name": "",
          "type": "uint256"
        }
      ],
      "stateMutability": "view",
      "type": "function"
    },
    {
      "inputs": [
        {
          "internalType": "uint256",
          "name": "shares",
          "type": "uint256"
        },
        {
          "internalType": "address",
          "name": "receiver",
          "type": "address"
        }
      ],
      "name": "mint",
      "outputs": [
        {
          "internalType": "uint256",
          "name": "",
          "type": "uint256"
        }
      ],
      "stateMutability": "nonpayable",
      "type": "function"
    },
    {
      "inputs": [],
      "name": "name",
      "outputs": [
        {
          "internalType": "string",
          "name": "",
          "type": "string"
        }
      ],
      "stateMutability": "view",
      "type": "function"
    },
    {
      "inputs": [
        {
          "internalType": "uint256",
          "name": "assets",
          "type": "uint256"
        }
      ],
      "name": "previewDeposit",
      "outputs": [
        {
          "internalType": "uint256",
          "name": "",
          "type": "uint256"
        }
      ],
      "stateMutability": "view",
      "type": "function"
    },
    {
      "inputs": [
        {
          "internalType": "uint256",
          "name": "shares",
          "type": "uint256"
        }
      ],
      "name": "previewMint",
      "outputs": [
        {
          "internalType": "uint256",
          "name": "",
          "type": "uint256"
        }
      ],
      "stateMutability": "view",
      "type": "function"
    },
    {
      "inputs": [
        {
          "internalType": "uint256",
          "name": "shares",
          "type": "uint256"
        }
      ],
      "name": "previewRedeem",
      "outputs": [
        {
          "internalType": "uint256",
          "name": "",
          "type": "uint256"
        }
      ],
      "stateMutability": "view",
      "type": "function"
    },
    {
      "inputs": [
        {
          "internalType": "uint256",
          "name": "assets",
          "type": "uint256"
        }
      ],
      "name": "previewWithdraw",
      "outputs": [
        {
          "internalType": "uint256",
          "name": "",
          "type": "uint256"
        }
      ],
      "stateMutability": "view",
      "type": "function"
    },
    {
      "inputs": [
        {
          "internalType": "uint256",
          "name": "shares",
          "type": "uint256"
        },
        {
          "internalType": "address",
          "name": "receiver",
          "type": "address"
        },
        {
          "internalType": "address",
          "name": "owner",
          "type": "address"
        }
      ],
      "name": "redeem",
      "outputs": [
        {
          "internalType": "uint256",
          "name": "assets",
          "type": "uint256"
        }
      ],
      "stateMutability": "nonpayable",
      "type": "function"
    },
    {
      "inputs": [
        {
          "internalType": "bytes32",
          "name": "role",
          "type": "bytes32"
        },
        {
          "internalType": "address",
          "name": "callerConfirmation",
          "type": "address"
        }
      ],
      "name": "renounceRole",
      "outputs": [],
      "stateMutability": "nonpayable",
      "type": "function"
    },
    {
      "inputs": [
        {
          "internalType": "address",
          "name": "token",
          "type": "address"
        },
        {
          "internalType": "uint256",
          "name": "amount",
          "type": "uint256"
        }
      ],
      "name": "rescueTokens",
      "outputs": [],
      "stateMutability": "nonpayable",
      "type": "function"
    },
    {
      "inputs": [
        {
          "internalType": "bytes32",
          "name": "role",
          "type": "bytes32"
        },
        {
          "internalType": "address",
          "name": "account",
          "type": "address"
        }
      ],
      "name": "revokeRole",
      "outputs": [],
      "stateMutability": "nonpayable",
      "type": "function"
    },
    {
      "inputs": [
        {
          "internalType": "bytes4",
          "name": "interfaceId",
          "type": "bytes4"
        }
      ],
      "name": "supportsInterface",
      "outputs": [
        {
          "internalType": "bool",
          "name": "",
          "type": "bool"
        }
      ],
      "stateMutability": "view",
      "type": "function"
    },
    {
      "inputs": [],
      "name": "symbol",
      "outputs": [
        {
          "internalType": "string",
          "name": "",
          "type": "string"
        }
      ],
      "stateMutability": "view",
      "type": "function"
    },
    {
      "inputs": [],
      "name": "timeLeftToUnlock",
      "outputs": [
        {
          "internalType": "uint256",
          "name": "",
          "type": "uint256"
        }
      ],
      "stateMutability": "view",
      "type": "function"
    },
    {
      "inputs": [],
      "name": "totalAssets",
      "outputs": [
        {
          "internalType": "uint256",
          "name": "",
          "type": "uint256"
        }
      ],
      "stateMutability": "view",
      "type": "function"
    },
    {
      "inputs": [],
      "name": "totalSupply",
      "outputs": [
        {
          "internalType": "uint256",
          "name": "",
          "type": "uint256"
        }
      ],
      "stateMutability": "view",
      "type": "function"
    },
    {
      "inputs": [
        {
          "internalType": "address",
          "name": "to",
          "type": "address"
        },
        {
          "internalType": "uint256",
          "name": "value",
          "type": "uint256"
        }
      ],
      "name": "transfer",
      "outputs": [
        {
          "internalType": "bool",
          "name": "",
          "type": "bool"
        }
      ],
      "stateMutability": "nonpayable",
      "type": "function"
    },
    {
      "inputs": [
        {
          "internalType": "address",
          "name": "from",
          "type": "address"
        },
        {
          "internalType": "address",
          "name": "to",
          "type": "address"
        },
        {
          "internalType": "uint256",
          "name": "value",
          "type": "uint256"
        }
      ],
      "name": "transferFrom",
      "outputs": [
        {
          "internalType": "bool",
          "name": "",
          "type": "bool"
        }
      ],
      "stateMutability": "nonpayable",
      "type": "function"
    },
    {
      "inputs": [],
      "name": "unlockTime",
      "outputs": [
        {
          "internalType": "uint256",
          "name": "",
          "type": "uint256"
        }
      ],
      "stateMutability": "view",
      "type": "function"
    },
    {
      "inputs": [
        {
          "internalType": "uint256",
          "name": "assets",
          "type": "uint256"
        },
        {
          "internalType": "address",
          "name": "receiver",
          "type": "address"
        },
        {
          "internalType": "address",
          "name": "owner",
          "type": "address"
        }
      ],
      "name": "withdraw",
      "outputs": [
        {
          "internalType": "uint256",
          "name": "shares",
          "type": "uint256"
        }
      ],
      "stateMutability": "nonpayable",
      "type": "function"
    }
  ],
  "bytecode": "0x60c060405234801561000f575f5ffd5b50604051613b44380380613b4483398181016040528101906100319190610659565b86868681600390816100439190610935565b5080600490816100539190610935565b5050505f5f610067836101da60201b60201c565b9150915081610077576012610079565b805b60ff1660a08160ff16815250508273ffffffffffffffffffffffffffffffffffffffff1660808173ffffffffffffffffffffffffffffffffffffffff168152505050505060016006819055505f73ffffffffffffffffffffffffffffffffffffffff168473ffffffffffffffffffffffffffffffffffffffff1603610133576040517f08c379a000000000000000000000000000000000000000000000000000000000815260040161012a90610a5e565b60405180910390fd5b428111610175576040517f08c379a000000000000000000000000000000000000000000000000000000000815260040161016c90610ac6565b60405180910390fd5b6101875f5f1b856102e360201b60201c565b506101b87fa49807205ce4d355092ef5a8a18f56e8913cf4a201fbe287825b095693c21775856102e360201b60201c565b5082600781905550816008819055508060098190555050505050505050610b69565b5f5f5f5f8473ffffffffffffffffffffffffffffffffffffffff1660405160240160405160208183030381529060405263313ce56760e01b6020820180517bffffffffffffffffffffffffffffffffffffffffffffffffffffffff838183161783525050505060405161024d9190610b28565b5f60405180830381855afa9150503d805f8114610285576040519150601f19603f3d011682016040523d82523d5f602084013e61028a565b606091505b509150915081801561029e57506020815110155b156102d5575f818060200190518101906102b89190610b3e565b905060ff801681116102d357600181945094505050506102de565b505b5f5f9350935050505b915091565b5f6102f483836103d960201b60201c565b6103cf57600160055f8581526020019081526020015f205f015f8473ffffffffffffffffffffffffffffffffffffffff1673ffffffffffffffffffffffffffffffffffffffff1681526020019081526020015f205f6101000a81548160ff02191690831515021790555061036c61043d60201b60201c565b73ffffffffffffffffffffffffffffffffffffffff168273ffffffffffffffffffffffffffffffffffffffff16847f2f8788117e7eff1d82e926ec794901d17c78024a50270940304540a733656f0d60405160405180910390a4600190506103d3565b5f90505b92915050565b5f60055f8481526020019081526020015f205f015f8373ffffffffffffffffffffffffffffffffffffffff1673ffffffffffffffffffffffffffffffffffffffff1681526020019081526020015f205f9054906101000a900460ff16905092915050565b5f33905090565b5f604051905090565b5f5ffd5b5f5ffd5b5f73ffffffffffffffffffffffffffffffffffffffff82169050919050565b5f61047e82610455565b9050919050565b5f61048f82610474565b9050919050565b61049f81610485565b81146104a9575f5ffd5b50565b5f815190506104ba81610496565b92915050565b5f5ffd5b5f5ffd5b5f601f19601f8301169050919050565b7f4e487b71000000000000000000000000000000000000000000000000000000005f52604160045260245ffd5b61050e826104c8565b810181811067ffffffffffffffff8211171561052d5761052c6104d8565b5b80604052505050565b5f61053f610444565b905061054b8282610505565b919050565b5f67ffffffffffffffff82111561056a576105696104d8565b5b610573826104c8565b9050602081019050919050565b8281835e5f83830152505050565b5f6105a061059b84610550565b610536565b9050828152602081018484840111156105bc576105bb6104c4565b5b6105c7848285610580565b509392505050565b5f82601f8301126105e3576105e26104c0565b5b81516105f384826020860161058e565b91505092915050565b61060581610474565b811461060f575f5ffd5b50565b5f81519050610620816105fc565b92915050565b5f819050919050565b61063881610626565b8114610642575f5ffd5b50565b5f815190506106538161062f565b92915050565b5f5f5f5f5f5f5f60e0888a0312156106745761067361044d565b5b5f6106818a828b016104ac565b975050602088015167ffffffffffffffff8111156106a2576106a1610451565b5b6106ae8a828b016105cf565b965050604088015167ffffffffffffffff8111156106cf576106ce610451565b5b6106db8a828b016105cf565b95505060606106ec8a828b01610612565b94505060806106fd8a828b01610645565b93505060a061070e8a828b01610645565b92505060c061071f8a828b01610645565b91505092959891949750929550565b5f81519050919050565b7f4e487b71000000000000000000000000000000000000000000000000000000005f52602260045260245ffd5b5f600282049050600182168061077c57607f821691505b60208210810361078f5761078e610738565b5b50919050565b5f819050815f5260205f209050919050565b5f6020601f8301049050919050565b5f82821b905092915050565b5f600883026107f17fffffffffffffffffffffffffffffffffffffffffffffffffffffffffffffffff826107b6565b6107fb86836107b6565b95508019841693508086168417925050509392505050565b5f819050919050565b5f61083661083161082c84610626565b610813565b610626565b9050919050565b5f819050919050565b61084f8361081c565b61086361085b8261083d565b8484546107c2565b825550505050565b5f5f905090565b61087a61086b565b610885818484610846565b505050565b5b818110156108a85761089d5f82610872565b60018101905061088b565b5050565b601f8211156108ed576108be81610795565b6108c7846107a7565b810160208510156108d6578190505b6108ea6108e2856107a7565b83018261088a565b50505b505050565b5f82821c905092915050565b5f61090d5f19846008026108f2565b1980831691505092915050565b5f61092583836108fe565b9150826002028217905092915050565b61093e8261072e565b67ffffffffffffffff811115610957576109566104d8565b5b6109618254610765565b61096c8282856108ac565b5f60209050601f83116001811461099d575f841561098b578287015190505b610995858261091a565b8655506109fc565b601f1984166109ab86610795565b5f5b828110156109d2578489015182556001820191506020850194506020810190506109ad565b868310156109ef57848901516109eb601f8916826108fe565b8355505b6001600288020188555050505b505050505050565b5f82825260208201905092915050565b7f7a65726f2061646d696e000000000000000000000000000000000000000000005f82015250565b5f610a48600a83610a04565b9150610a5382610a14565b602082019050919050565b5f6020820190508181035f830152610a7581610a3c565b9050919050565b7f696e76616c696420756e6c6f636b0000000000000000000000000000000000005f82015250565b5f610ab0600e83610a04565b9150610abb82610a7c565b602082019050919050565b5f6020820190508181035f830152610add81610aa4565b9050919050565b5f81519050919050565b5f81905092915050565b5f610b0282610ae4565b610b0c8185610aee565b9350610b1c818560208601610580565b80840191505092915050565b5f610b338284610af8565b915081905092915050565b5f60208284031215610b5357610b5261044d565b5b5f610b6084828501610645565b91505092915050565b60805160a051612fba610b8a5f395f610b1301525f610bbf0152612fba5ff3fe608060405234801561000f575f5ffd5b5060043610610251575f3560e01c806375b238fc11610144578063b460af94116100c1578063ce96cb7711610085578063ce96cb77146107bd578063d547741f146107ed578063d905777e14610809578063dd62ed3e14610839578063e3b2594f14610869578063ef8b30f71461088757610251565b8063b460af94146106e1578063ba08765214610711578063c63d75b614610741578063c6e6f59214610771578063c8b2b546146107a157610251565b806395d89b411161010857806395d89b4114610615578063a217fddf14610633578063a9059cbb14610651578063acbd857f14610681578063b3d7f6b9146106b157610251565b806375b238fc1461055b5780637d6b6f9e146105795780637e70b5c81461059757806391d14854146105b557806394bf804d146105e557610251565b80632f2ff15d116101d257806341b3d1851161019657806341b3d185146104915780634cdad506146104af57806357376198146104df5780636e553f65146104fb57806370a082311461052b57610251565b80632f2ff15d146103ed578063313ce5671461040957806336568abe1461042757806338d52e0f14610443578063402d267d1461046157610251565b80630a28a477116102195780630a28a4771461032157806318160ddd1461035157806323b872dd1461036f578063248a9ca31461039f578063251c1aa3146103cf57610251565b806301e1d1141461025557806301ffc9a71461027357806306fdde03146102a357806307a2d13a146102c1578063095ea7b3146102f1575b5f5ffd5b61025d6108b7565b60405161026a919061242e565b60405180910390f35b61028d600480360381019061028891906124a0565b61093c565b60405161029a91906124e5565b60405180910390f35b6102ab6109b5565b6040516102b8919061256e565b60405180910390f35b6102db60048036038101906102d691906125b8565b610a45565b6040516102e8919061242e565b60405180910390f35b61030b6004803603810190610306919061263d565b610a57565b60405161031891906124e5565b60405180910390f35b61033b600480360381019061033691906125b8565b610a79565b604051610348919061242e565b60405180910390f35b610359610a8c565b604051610366919061242e565b60405180910390f35b6103896004803603810190610384919061267b565b610a95565b60405161039691906124e5565b60405180910390f35b6103b960048036038101906103b491906126fe565b610ac3565b6040516103c69190612738565b60405180910390f35b6103d7610ae0565b6040516103e4919061242e565b60405180910390f35b61040760048036038101906104029190612751565b610ae6565b005b610411610b08565b60405161041e91906127aa565b60405180910390f35b610441600480360381019061043c9190612751565b610b41565b005b61044b610bbc565b60405161045891906127d2565b60405180910390f35b61047b600480360381019061047691906127eb565b610be3565b604051610488919061242e565b60405180910390f35b610499610c0c565b6040516104a6919061242e565b60405180910390f35b6104c960048036038101906104c491906125b8565b610c12565b6040516104d6919061242e565b60405180910390f35b6104f960048036038101906104f4919061263d565b610c24565b005b61051560048036038101906105109190612816565b610d44565b604051610522919061242e565b60405180910390f35b610545600480360381019061054091906127eb565b610e03565b604051610552919061242e565b60405180910390f35b610563610e48565b6040516105709190612738565b60405180910390f35b610581610e6c565b60405161058e91906127d2565b60405180910390f35b61059f610e91565b6040516105ac919061242e565b60405180910390f35b6105cf60048036038101906105ca9190612751565b610eb6565b6040516105dc91906124e5565b60405180910390f35b6105ff60048036038101906105fa9190612816565b610f1a565b60405161060c919061242e565b60405180910390f35b61061d610f9a565b60405161062a919061256e565b60405180910390f35b61063b61102a565b6040516106489190612738565b60405180910390f35b61066b6004803603810190610666919061263d565b611030565b60405161067891906124e5565b60405180910390f35b61069b600480360381019061069691906127eb565b611052565b6040516106a891906124e5565b60405180910390f35b6106cb60048036038101906106c691906125b8565b61106f565b6040516106d8919061242e565b60405180910390f35b6106fb60048036038101906106f69190612854565b611082565b604051610708919061242e565b60405180910390f35b61072b60048036038101906107269190612854565b6110ec565b604051610738919061242e565b60405180910390f35b61075b600480360381019061075691906127eb565b611156565b604051610768919061242e565b60405180910390f35b61078b600480360381019061078691906125b8565b61117f565b604051610798919061242e565b60405180910390f35b6107bb60048036038101906107b691906125b8565b611191565b005b6107d760048036038101906107d291906127eb565b6112cf565b6040516107e4919061242e565b60405180910390f35b61080760048036038101906108029190612751565b6112e9565b005b610823600480360381019061081e91906127eb565b61130b565b604051610830919061242e565b60405180910390f35b610853600480360381019061084e91906128a4565b61131c565b604051610860919061242e565b60405180910390f35b61087161139e565b60405161087e919061242e565b60405180910390f35b6108a1600480360381019061089c91906125b8565b6113a4565b6040516108ae919061242e565b60405180910390f35b5f6108c0610bbc565b73ffffffffffffffffffffffffffffffffffffffff166370a08231306040518263ffffffff1660e01b81526004016108f891906127d2565b602060405180830381865afa158015610913573d5f5f3e3d5ffd5b505050506040513d601f19601f8201168201806040525081019061093791906128f6565b905090565b5f7f7965db0b000000000000000000000000000000000000000000000000000000007bffffffffffffffffffffffffffffffffffffffffffffffffffffffff1916827bffffffffffffffffffffffffffffffffffffffffffffffffffffffff191614806109ae57506109ad826113b6565b5b9050919050565b6060600380546109c49061294e565b80601f01602080910402602001604051908101604052809291908181526020018280546109f09061294e565b8015610a3b5780601f10610a1257610100808354040283529160200191610a3b565b820191905f5260205f20905b815481529060010190602001808311610a1e57829003601f168201915b5050505050905090565b5f610a50825f61141f565b9050919050565b5f5f610a61611477565b9050610a6e81858561147e565b600191505092915050565b5f610a85826001611490565b9050919050565b5f600254905090565b5f5f610a9f611477565b9050610aac8582856114e8565b610ab785858561157b565b60019150509392505050565b5f60055f8381526020019081526020015f20600101549050919050565b60095481565b610aef82610ac3565b610af88161166b565b610b02838361167f565b50505050565b5f610b11611769565b7f0000000000000000000000000000000000000000000000000000000000000000610b3c91906129ab565b905090565b610b49611477565b73ffffffffffffffffffffffffffffffffffffffff168173ffffffffffffffffffffffffffffffffffffffff1614610bad576040517f6697b23200000000000000000000000000000000000000000000000000000000815260040160405180910390fd5b610bb78282611770565b505050565b5f7f0000000000000000000000000000000000000000000000000000000000000000905090565b5f7fffffffffffffffffffffffffffffffffffffffffffffffffffffffffffffffff9050919050565b60085481565b5f610c1d825f61141f565b9050919050565b7fa49807205ce4d355092ef5a8a18f56e8913cf4a201fbe287825b095693c21775610c4e8161166b565b610c56610bbc565b73ffffffffffffffffffffffffffffffffffffffff168373ffffffffffffffffffffffffffffffffffffffff1603610cc3576040517f08c379a0000000000000000000000000000000000000000000000000000000008152600401610cba90612a29565b60405180910390fd5b8273ffffffffffffffffffffffffffffffffffffffff1663a9059cbb33846040518363ffffffff1660e01b8152600401610cfe929190612a47565b6020604051808303815f875af1158015610d1a573d5f5f3e3d5ffd5b505050506040513d601f19601f82011682018060405250810190610d3e9190612a98565b50505050565b5f610d4d61185a565b600854831015610d92576040517f08c379a0000000000000000000000000000000000000000000000000000000008152600401610d8990612b0d565b60405180910390fd5b60075483610d9e6108b7565b610da89190612b2b565b1115610de9576040517f08c379a0000000000000000000000000000000000000000000000000000000008152600401610de090612ba8565b60405180910390fd5b610df383836118a0565b9050610dfd611920565b92915050565b5f5f5f8373ffffffffffffffffffffffffffffffffffffffff1673ffffffffffffffffffffffffffffffffffffffff1681526020019081526020015f20549050919050565b7fa49807205ce4d355092ef5a8a18f56e8913cf4a201fbe287825b095693c2177581565b600a5f9054906101000a900473ffffffffffffffffffffffffffffffffffffffff1681565b5f600954421015610eaf5742600954610eaa9190612bc6565b610eb1565b5f5b905090565b5f60055f8481526020019081526020015f205f015f8373ffffffffffffffffffffffffffffffffffffffff1673ffffffffffffffffffffffffffffffffffffffff1681526020019081526020015f205f9054906101000a900460ff16905092915050565b5f5f610f2583611156565b905080841115610f70578284826040517f284ff667000000000000000000000000000000000000000000000000000000008152600401610f6793929190612bf9565b60405180910390fd5b5f610f7a8561106f565b9050610f8f610f87611477565b85838861192a565b809250505092915050565b606060048054610fa99061294e565b80601f0160208091040260200160405190810160405280929190818152602001828054610fd59061294e565b80156110205780601f10610ff757610100808354040283529160200191611020565b820191905f5260205f20905b81548152906001019060200180831161100357829003601f168201915b5050505050905090565b5f5f1b81565b5f5f61103a611477565b905061104781858561157b565b600191505092915050565b600b602052805f5260405f205f915054906101000a900460ff1681565b5f61107b82600161141f565b9050919050565b5f61108b61185a565b6009544210156110d0576040517f08c379a00000000000000000000000000000000000000000000000000000000081526004016110c790612c78565b60405180910390fd5b6110db8484846119b4565b90506110e5611920565b9392505050565b5f6110f561185a565b60095442101561113a576040517f08c379a000000000000000000000000000000000000000000000000000000000815260040161113190612c78565b60405180910390fd5b611145848484611a36565b905061114f611920565b9392505050565b5f7fffffffffffffffffffffffffffffffffffffffffffffffffffffffffffffffff9050919050565b5f61118a825f611490565b9050919050565b7fa49807205ce4d355092ef5a8a18f56e8913cf4a201fbe287825b095693c217756111bb8161166b565b6111c361185a565b5f8211611205576040517f08c379a00000000000000000000000000000000000000000000000000000000081526004016111fc90612ce0565b60405180910390fd5b61120d610bbc565b73ffffffffffffffffffffffffffffffffffffffff166323b872dd3330856040518463ffffffff1660e01b815260040161124993929190612cfe565b6020604051808303815f875af1158015611265573d5f5f3e3d5ffd5b505050506040513d601f19601f820116820180604052508101906112899190612a98565b507f48eabbe005cc9847391758013fa6b6a12e9f6f1791556c8b4ebe723d153fc81382426040516112bb929190612d33565b60405180910390a16112cb611920565b5050565b5f6112e26112dc83610e03565b5f61141f565b9050919050565b6112f282610ac3565b6112fb8161166b565b6113058383611770565b50505050565b5f61131582610e03565b9050919050565b5f60015f8473ffffffffffffffffffffffffffffffffffffffff1673ffffffffffffffffffffffffffffffffffffffff1681526020019081526020015f205f8373ffffffffffffffffffffffffffffffffffffffff1673ffffffffffffffffffffffffffffffffffffffff1681526020019081526020015f2054905092915050565b60075481565b5f6113af825f611490565b9050919050565b5f7f01ffc9a7000000000000000000000000000000000000000000000000000000007bffffffffffffffffffffffffffffffffffffffffffffffffffffffff1916827bffffffffffffffffffffffffffffffffffffffffffffffffffffffff1916149050919050565b5f61146f600161142d6108b7565b6114379190612b2b565b61143f611769565b600a61144b9190612e89565b611453610a8c565b61145d9190612b2b565b8486611ab8909392919063ffffffff16565b905092915050565b5f33905090565b61148b8383836001611b05565b505050565b5f6114e061149c611769565b600a6114a89190612e89565b6114b0610a8c565b6114ba9190612b2b565b60016114c46108b7565b6114ce9190612b2b565b8486611ab8909392919063ffffffff16565b905092915050565b5f6114f3848461131c565b90507fffffffffffffffffffffffffffffffffffffffffffffffffffffffffffffffff8110156115755781811015611566578281836040517ffb8f41b200000000000000000000000000000000000000000000000000000000815260040161155d93929190612bf9565b60405180910390fd5b61157484848484035f611b05565b5b50505050565b5f73ffffffffffffffffffffffffffffffffffffffff168373ffffffffffffffffffffffffffffffffffffffff16036115eb575f6040517f96c6fd1e0000000000000000000000000000000000000000000000000000000081526004016115e291906127d2565b60405180910390fd5b5f73ffffffffffffffffffffffffffffffffffffffff168273ffffffffffffffffffffffffffffffffffffffff160361165b575f6040517fec442f0500000000000000000000000000000000000000000000000000000000815260040161165291906127d2565b60405180910390fd5b611666838383611cd4565b505050565b61167c81611677611477565b611eed565b50565b5f61168a8383610eb6565b61175f57600160055f8581526020019081526020015f205f015f8473ffffffffffffffffffffffffffffffffffffffff1673ffffffffffffffffffffffffffffffffffffffff1681526020019081526020015f205f6101000a81548160ff0219169083151502179055506116fc611477565b73ffffffffffffffffffffffffffffffffffffffff168273ffffffffffffffffffffffffffffffffffffffff16847f2f8788117e7eff1d82e926ec794901d17c78024a50270940304540a733656f0d60405160405180910390a460019050611763565b5f90505b92915050565b5f5f905090565b5f61177b8383610eb6565b15611850575f60055f8581526020019081526020015f205f015f8473ffffffffffffffffffffffffffffffffffffffff1673ffffffffffffffffffffffffffffffffffffffff1681526020019081526020015f205f6101000a81548160ff0219169083151502179055506117ed611477565b73ffffffffffffffffffffffffffffffffffffffff168273ffffffffffffffffffffffffffffffffffffffff16847ff6391f5c32d9c69d2a47ea670b442974b53935d1edc7fd64eb21e047a839171b60405160405180910390a460019050611854565b5f90505b92915050565b600260065403611896576040517f3ee5aeb500000000000000000000000000000000000000000000000000000000815260040160405180910390fd5b6002600681905550565b5f5f6118ab83610be3565b9050808411156118f6578284826040517f79012fb20000000000000000000000000000000000000000000000000000000081526004016118ed93929190612bf9565b60405180910390fd5b5f611900856113a4565b905061191561190d611477565b85878461192a565b809250505092915050565b6001600681905550565b61193d611935610bbc565b853085611f3e565b6119478382611fc0565b8273ffffffffffffffffffffffffffffffffffffffff168473ffffffffffffffffffffffffffffffffffffffff167fdcbc1c05240f31ff3ad067ef1ee35ce4997762752e3a095284754544f4c709d784846040516119a6929190612d33565b60405180910390a350505050565b5f5f6119bf836112cf565b905080851115611a0a578285826040517ffe9cceec000000000000000000000000000000000000000000000000000000008152600401611a0193929190612bf9565b60405180910390fd5b5f611a1486610a79565b9050611a2a611a21611477565b8686898561203f565b80925050509392505050565b5f5f611a418361130b565b905080851115611a8c578285826040517fb94abeec000000000000000000000000000000000000000000000000000000008152600401611a8393929190612bf9565b60405180910390fd5b5f611a9686610c12565b9050611aac611aa3611477565b8686848a61203f565b80925050509392505050565b5f611ae6611ac58361211f565b8015611ae157505f8480611adc57611adb612ed3565b5b868809115b61214c565b611af1868686612157565b611afb9190612b2b565b9050949350505050565b5f73ffffffffffffffffffffffffffffffffffffffff168473ffffffffffffffffffffffffffffffffffffffff1603611b75575f6040517fe602df05000000000000000000000000000000000000000000000000000000008152600401611b6c91906127d2565b60405180910390fd5b5f73ffffffffffffffffffffffffffffffffffffffff168373ffffffffffffffffffffffffffffffffffffffff1603611be5575f6040517f94280d62000000000000000000000000000000000000000000000000000000008152600401611bdc91906127d2565b60405180910390fd5b8160015f8673ffffffffffffffffffffffffffffffffffffffff1673ffffffffffffffffffffffffffffffffffffffff1681526020019081526020015f205f8573ffffffffffffffffffffffffffffffffffffffff1673ffffffffffffffffffffffffffffffffffffffff1681526020019081526020015f20819055508015611cce578273ffffffffffffffffffffffffffffffffffffffff168473ffffffffffffffffffffffffffffffffffffffff167f8c5be1e5ebec7d5bd14f71427d1e84f3dd0314c0f7b2291e5b200ac8c7c3b92584604051611cc5919061242e565b60405180910390a35b50505050565b5f73ffffffffffffffffffffffffffffffffffffffff168373ffffffffffffffffffffffffffffffffffffffff1603611d24578060025f828254611d189190612b2b565b92505081905550611df2565b5f5f5f8573ffffffffffffffffffffffffffffffffffffffff1673ffffffffffffffffffffffffffffffffffffffff1681526020019081526020015f2054905081811015611dad578381836040517fe450d38c000000000000000000000000000000000000000000000000000000008152600401611da493929190612bf9565b60405180910390fd5b8181035f5f8673ffffffffffffffffffffffffffffffffffffffff1673ffffffffffffffffffffffffffffffffffffffff1681526020019081526020015f2081905550505b5f73ffffffffffffffffffffffffffffffffffffffff168273ffffffffffffffffffffffffffffffffffffffff1603611e39578060025f8282540392505081905550611e83565b805f5f8473ffffffffffffffffffffffffffffffffffffffff1673ffffffffffffffffffffffffffffffffffffffff1681526020019081526020015f205f82825401925050819055505b8173ffffffffffffffffffffffffffffffffffffffff168373ffffffffffffffffffffffffffffffffffffffff167fddf252ad1be2c89b69c2b068fc378daa952ba7f163c4a11628f55a4df523b3ef83604051611ee0919061242e565b60405180910390a3505050565b611ef78282610eb6565b611f3a5780826040517fe2517d3f000000000000000000000000000000000000000000000000000000008152600401611f31929190612f00565b60405180910390fd5b5050565b611fba848573ffffffffffffffffffffffffffffffffffffffff166323b872dd868686604051602401611f7393929190612cfe565b604051602081830303815290604052915060e01b6020820180517bffffffffffffffffffffffffffffffffffffffffffffffffffffffff8381831617835250505050612236565b50505050565b5f73ffffffffffffffffffffffffffffffffffffffff168273ffffffffffffffffffffffffffffffffffffffff1603612030575f6040517fec442f0500000000000000000000000000000000000000000000000000000000815260040161202791906127d2565b60405180910390fd5b61203b5f8383611cd4565b5050565b8273ffffffffffffffffffffffffffffffffffffffff168573ffffffffffffffffffffffffffffffffffffffff161461207e5761207d8386836114e8565b5b61208883826122d1565b61209a612093610bbc565b8584612350565b8273ffffffffffffffffffffffffffffffffffffffff168473ffffffffffffffffffffffffffffffffffffffff168673ffffffffffffffffffffffffffffffffffffffff167ffbde797d201c681b91056529119e0b02407c7bb96a4a2c75c01fc9667232c8db8585604051612110929190612d33565b60405180910390a45050505050565b5f6001600283600381111561213757612136612f27565b5b6121419190612f54565b60ff16149050919050565b5f8115159050919050565b5f5f5f61216486866123cf565b915091505f82036121895783818161217f5761217e612ed3565b5b049250505061222f565b8184116121a8576121a76121a25f8614601260116123ec565b612405565b5b5f8486880990508181118303925080820391505f855f038616905080860495508083049250600181825f0304019050808402831792505f600287600302189050808702600203810290508087026002038102905080870260020381029050808702600203810290508087026002038102905080870260020381029050808402955050505050505b9392505050565b5f5f60205f8451602086015f885af180612255576040513d5f823e3d81fd5b3d92505f519150505f821461226e576001811415612289565b5f8473ffffffffffffffffffffffffffffffffffffffff163b145b156122cb57836040517f5274afe70000000000000000000000000000000000000000000000000000000081526004016122c291906127d2565b60405180910390fd5b50505050565b5f73ffffffffffffffffffffffffffffffffffffffff168273ffffffffffffffffffffffffffffffffffffffff1603612341575f6040517f96c6fd1e00000000000000000000000000000000000000000000000000000000815260040161233891906127d2565b60405180910390fd5b61234c825f83611cd4565b5050565b6123ca838473ffffffffffffffffffffffffffffffffffffffff1663a9059cbb8585604051602401612383929190612a47565b604051602081830303815290604052915060e01b6020820180517bffffffffffffffffffffffffffffffffffffffffffffffffffffffff8381831617835250505050612236565b505050565b5f5f5f198385098385029150818110828203039250509250929050565b5f6123f68461214c565b82841802821890509392505050565b634e487b715f52806020526024601cfd5b5f819050919050565b61242881612416565b82525050565b5f6020820190506124415f83018461241f565b92915050565b5f5ffd5b5f7fffffffff0000000000000000000000000000000000000000000000000000000082169050919050565b61247f8161244b565b8114612489575f5ffd5b50565b5f8135905061249a81612476565b92915050565b5f602082840312156124b5576124b4612447565b5b5f6124c28482850161248c565b91505092915050565b5f8115159050919050565b6124df816124cb565b82525050565b5f6020820190506124f85f8301846124d6565b92915050565b5f81519050919050565b5f82825260208201905092915050565b8281835e5f83830152505050565b5f601f19601f8301169050919050565b5f612540826124fe565b61254a8185612508565b935061255a818560208601612518565b61256381612526565b840191505092915050565b5f6020820190508181035f8301526125868184612536565b905092915050565b61259781612416565b81146125a1575f5ffd5b50565b5f813590506125b28161258e565b92915050565b5f602082840312156125cd576125cc612447565b5b5f6125da848285016125a4565b91505092915050565b5f73ffffffffffffffffffffffffffffffffffffffff82169050919050565b5f61260c826125e3565b9050919050565b61261c81612602565b8114612626575f5ffd5b50565b5f8135905061263781612613565b92915050565b5f5f6040838503121561265357612652612447565b5b5f61266085828601612629565b9250506020612671858286016125a4565b9150509250929050565b5f5f5f6060848603121561269257612691612447565b5b5f61269f86828701612629565b93505060206126b086828701612629565b92505060406126c1868287016125a4565b9150509250925092565b5f819050919050565b6126dd816126cb565b81146126e7575f5ffd5b50565b5f813590506126f8816126d4565b92915050565b5f6020828403121561271357612712612447565b5b5f612720848285016126ea565b91505092915050565b612732816126cb565b82525050565b5f60208201905061274b5f830184612729565b92915050565b5f5f6040838503121561276757612766612447565b5b5f612774858286016126ea565b925050602061278585828601612629565b9150509250929050565b5f60ff82169050919050565b6127a48161278f565b82525050565b5f6020820190506127bd5f83018461279b565b92915050565b6127cc81612602565b82525050565b5f6020820190506127e55f8301846127c3565b92915050565b5f60208284031215612800576127ff612447565b5b5f61280d84828501612629565b91505092915050565b5f5f6040838503121561282c5761282b612447565b5b5f612839858286016125a4565b925050602061284a85828601612629565b9150509250929050565b5f5f5f6060848603121561286b5761286a612447565b5b5f612878868287016125a4565b935050602061288986828701612629565b925050604061289a86828701612629565b9150509250925092565b5f5f604083850312156128ba576128b9612447565b5b5f6128c785828601612629565b92505060206128d885828601612629565b9150509250929050565b5f815190506128f08161258e565b92915050565b5f6020828403121561290b5761290a612447565b5b5f612918848285016128e2565b91505092915050565b7f4e487b71000000000000000000000000000000000000000000000000000000005f52602260045260245ffd5b5f600282049050600182168061296557607f821691505b60208210810361297857612977612921565b5b50919050565b7f4e487b71000000000000000000000000000000000000000000000000000000005f52601160045260245ffd5b5f6129b58261278f565b91506129c08361278f565b9250828201905060ff8111156129d9576129d861297e565b5b92915050565b7f6e6f2072657363756520756e6465726c79696e670000000000000000000000005f82015250565b5f612a13601483612508565b9150612a1e826129df565b602082019050919050565b5f6020820190508181035f830152612a4081612a07565b9050919050565b5f604082019050612a5a5f8301856127c3565b612a67602083018461241f565b9392505050565b612a77816124cb565b8114612a81575f5ffd5b50565b5f81519050612a9281612a6e565b92915050565b5f60208284031215612aad57612aac612447565b5b5f612aba84828501612a84565b91505092915050565b7f62656c6f77206d696e00000000000000000000000000000000000000000000005f82015250565b5f612af7600983612508565b9150612b0282612ac3565b602082019050919050565b5f6020820190508181035f830152612b2481612aeb565b9050919050565b5f612b3582612416565b9150612b4083612416565b9250828201905080821115612b5857612b5761297e565b5b92915050565b7f63617020657863656564656400000000000000000000000000000000000000005f82015250565b5f612b92600c83612508565b9150612b9d82612b5e565b602082019050919050565b5f6020820190508181035f830152612bbf81612b86565b9050919050565b5f612bd082612416565b9150612bdb83612416565b9250828203905081811115612bf357612bf261297e565b5b92915050565b5f606082019050612c0c5f8301866127c3565b612c19602083018561241f565b612c26604083018461241f565b949350505050565b7f6c6f636b656400000000000000000000000000000000000000000000000000005f82015250565b5f612c62600683612508565b9150612c6d82612c2e565b602082019050919050565b5f6020820190508181035f830152612c8f81612c56565b9050919050565b7f7a65726f000000000000000000000000000000000000000000000000000000005f82015250565b5f612cca600483612508565b9150612cd582612c96565b602082019050919050565b5f6020820190508181035f830152612cf781612cbe565b9050919050565b5f606082019050612d115f8301866127c3565b612d1e60208301856127c3565b612d2b604083018461241f565b949350505050565b5f604082019050612d465f83018561241f565b612d53602083018461241f565b9392505050565b5f8160011c9050919050565b5f5f8291508390505b6001851115612daf57808604811115612d8b57612d8a61297e565b5b6001851615612d9a5780820291505b8081029050612da885612d5a565b9450612d6f565b94509492505050565b5f82612dc75760019050612e82565b81612dd4575f9050612e82565b8160018114612dea5760028114612df457612e23565b6001915050612e82565b60ff841115612e0657612e0561297e565b5b8360020a915084821115612e1d57612e1c61297e565b5b50612e82565b5060208310610133831016604e8410600b8410161715612e585782820a905083811115612e5357612e5261297e565b5b612e82565b612e658484846001612d66565b92509050818404811115612e7c57612e7b61297e565b5b81810290505b9392505050565b5f612e9382612416565b9150612e9e8361278f565b9250612ecb7fffffffffffffffffffffffffffffffffffffffffffffffffffffffffffffffff8484612db8565b905092915050565b7f4e487b71000000000000000000000000000000000000000000000000000000005f52601260045260245ffd5b5f604082019050612f135f8301856127c3565b612f206020830184612729565b9392505050565b7f4e487b71000000000000000000000000000000000000000000000000000000005f52602160045260245ffd5b5f612f5e8261278f565b9150612f698361278f565b925082612f7957612f78612ed3565b5b82820690509291505056fea2646970667358221220947233b1883a3eac00655fc821baac122407ac9f3dfc5945f7ae64e1ec2dd4ef64736f6c634300081e0033",
  "linkReferences": {},
  "deployedLinkReferences": {},
  "immutableReferences": {
    "1392": [
      {
        "length": 32,
        "start": 3007
      }
    ],
    "1394": [
      {
        "length": 32,
        "start": 2835
      }
    ]
  },
  "inputSourceName": "project/contracts/campaign.sol",
  "buildInfoId": "solc-0_8_30-19b881adaf0b50110b90813d84d01958b1657bc4"
}