{
  "_format": "hh-sol-artifact-1",
  "contractName": "CampaignVault",
  "sourceName": "contracts/campaign.sol",
  "abi": [
    {
      "inputs": [
        {
          "internalType": "contract IERC20",
          "name": "asset_",
          "type": "address"
        },
        {
          "internalType": "string",
          "name": "name_",
          "type": "string"
        },
        {
          "internalType": "string",
          "name": "symbol_",
          "type": "string"
        },
        {
          "internalType": "address",
          "name": "admin_",
          "type": "address"
        },
        {
          "internalType": "uint256",
          "name": "fundingCap_",
          "type": "uint256"
        },
        {
          "internalType": "uint256",
          "name": "minDeposit_",
          "type": "uint256"
        },
        {
          "internalType": "uint256",
          "name": "unlockTime_",
          "type": "uint256"
        }
      ],
      "stateMutability": "nonpayable",
      "type": "constructor"
    },
    {
      "inputs": [],
      "name": "AccessControlBadConfirmation",
      "type": "error"
    },
    {
      "inputs": [
        {
          "internalType": "address",
          "name": "account",
          "type": "address"
        },
        {
          "internalType": "bytes32",
          "name": "neededRole",
          "type": "bytes32"
        }
      ],
      "name": "AccessControlUnauthorizedAccount",
      "type": "error"
    },
    {
      "inputs": [
        {
          "internalType": "address",
          "name": "spender",
          "type": "address"
        },
        {
          "internalType": "uint256",
          "name": "allowance",
          "type": "uint256"
        },
        {
          "internalType": "uint256",
          "name": "needed",
          "type": "uint256"
        }
      ],
      "name": "ERC20InsufficientAllowance",
      "type": "error"
    },
    {
      "inputs": [
        {
          "internalType": "address",
          "name": "sender",
          "type": "address"
        },
        {
          "internalType": "uint256",
          "name": "balance",
          "type": "uint256"
        },
        {
          "internalType": "uint256",
          "name": "needed",
          "type": "uint256"
        }
      ],
      "name": "ERC20InsufficientBalance",
      "type": "error"
    },
    {
      "inputs": [
        {
          "internalType": "address",
          "name": "approver",
          "type": "address"
        }
      ],
      "name": "ERC20InvalidApprover",
      "type": "error"
    },
    {
      "inputs": [
        {
          "internalType": "address",
          "name": "receiver",
          "type": "address"
        }
      ],
      "name": "ERC20InvalidReceiver",
      "type": "error"
    },
    {
      "inputs": [
        {
          "internalType": "address",
          "name": "sender",
          "type": "address"
        }
      ],
      "name": "ERC20InvalidSender",
      "type": "error"
    },
    {
      "inputs": [
        {
          "internalType": "address",
          "name": "spender",
          "type": "address"
        }
      ],
      "name": "ERC20InvalidSpender",
      "type": "error"
    },
    {
      "inputs": [
        {
          "internalType": "address",
          "name": "receiver",
          "type": "address"
        },
        {
          "internalType": "uint256",
          "name": "assets",
          "type": "uint256"
        },
        {
          "internalType": "uint256",
          "name": "max",
          "type": "uint256"
        }
      ],
      "name": "ERC4626ExceededMaxDeposit",
      "type": "error"
    },
    {
      "inputs": [
        {
          "internalType": "address",
          "name": "receiver",
          "type": "address"
        },
        {
          "internalType": "uint256",
          "name": "shares",
          "type": "uint256"
        },
        {
          "internalType": "uint256",
          "name": "max",
          "type": "uint256"
        }
      ],
      "name": "ERC4626ExceededMaxMint",
      "type": "error"
    },
    {
      "inputs": [
        {
          "internalType": "address",
          "name": "owner",
          "type": "address"
        },
        {
          "internalType": "uint256",
          "name": "shares",
          "type": "uint256"
        },
        {
          "internalType": "uint256",
          "name": "max",
          "type": "uint256"
        }
      ],
      "name": "ERC4626ExceededMaxRedeem",
      "type": "error"
    },
    {
      "inputs": [
        {
          "internalType": "address",
          "name": "owner",
          "type": "address"
        },
        {
          "internalType": "uint256",
          "name": "assets",
          "type": "uint256"
        },
        {
          "internalType": "uint256",
          "name": "max",
          "type": "uint256"
        }
      ],
      "name": "ERC4626ExceededMaxWithdraw",
      "type": "error"
    },
    {
      "inputs": [],
      "name": "ReentrancyGuardReentrantCall",
      "type": "error"
    },
    {
      "inputs": [
        {
          "internalType": "address",
          "name": "token",
          "type": "address"
        }
      ],
      "name": "SafeERC20FailedOperation",
      "type": "error"
    },
    {
      "anonymous": false,
      "inputs": [
        {
          "indexed": true,
          "internalType": "address",
          "name": "owner",
          "type": "address"
        },
        {
          "indexed": true,
          "internalType": "address",
          "name": "spender",
          "type": "address"
        },
        {
          "indexed": false,
          "internalType": "uint256",
          "name": "value",
          "type": "uint256"
        }
      ],
      "name": "Approval",
      "type": "event"
    },
    {
      "anonymous": false,
      "inputs": [
        {
          "indexed": true,
          "internalType": "address",
          "name": "sender",
          "type": "address"
        },
        {
          "indexed": true,
          "internalType": "address",
          "name": "owner",
          "type": "address"
        },
        {
          "indexed": false,
          "internalType": "uint256",
          "name": "assets",
          "type": "uint256"
        },
        {
          "indexed": false,
          "internalType": "uint256",
          "name": "shares",
          "type": "uint256"
        }
      ],
      "name": "Deposit",
      "type": "event"
    },
    {
      "anonymous": false,
      "inputs": [
        {
          "indexed": true,
          "internalType": "address",
          "name": "user",
          "type": "address"
        },
        {
          "indexed": false,
          "internalType": "bool",
          "name": "allowed",
          "type": "bool"
        }
      ],
      "name": "KycSet",
      "type": "event"
    },
    {
      "anonymous": false,
      "inputs": [
        {
          "indexed": true,
          "internalType": "bytes32",
          "name": "role",
          "type": "bytes32"
        },
        {
          "indexed": true,
          "internalType": "bytes32",
          "name": "previousAdminRole",
          "type": "bytes32"
        },
        {
          "indexed": true,
          "internalType": "bytes32",
          "name": "newAdminRole",
          "type": "bytes32"
        }
      ],
      "name": "RoleAdminChanged",
      "type": "event"
    },
    {
      "anonymous": false,
      "inputs": [
        {
          "indexed": true,
          "internalType": "bytes32",
          "name": "role",
          "type": "bytes32"
        },
        {
          "indexed": true,
          "internalType": "address",
          "name": "account",
          "type": "address"
        },
        {
          "indexed": true,
          "internalType": "address",
          "name": "sender",
          "type": "address"
        }
      ],
      "name": "RoleGranted",
      "type": "event"
    },
    {
      "anonymous": false,
      "inputs": [
        {
          "indexed": true,
          "internalType": "bytes32",
          "name": "role",
          "type": "bytes32"
        },
        {
          "indexed": true,
          "internalType": "address",
          "name": "account",
          "type": "address"
        },
        {
          "indexed": true,
          "internalType": "address",
          "name": "sender",
          "type": "address"
        }
      ],
      "name": "RoleRevoked",
      "type": "event"
    },
    {
      "anonymous": false,
      "inputs": [
        {
          "indexed": true,
          "internalType": "address",
          "name": "from",
          "type": "address"
        },
        {
          "indexed": true,
          "internalType": "address",
          "name": "to",
          "type": "address"
        },
        {
          "indexed": false,
          "internalType": "uint256",
          "name": "value",
          "type": "uint256"
        }
      ],
      "name": "Transfer",
      "type": "event"
    },
    {
      "anonymous": false,
      "inputs": [
        {
          "indexed": true,
          "internalType": "address",
          "name": "sender",
          "type": "address"
        },
        {
          "indexed": true,
          "internalType": "address",
          "name": "receiver",
          "type": "address"
        },
        {
          "indexed": true,
          "internalType": "address",
          "name": "owner",
          "type": "address"
        },
        {
          "indexed": false,
          "internalType": "uint256",
          "name": "assets",
          "type": "uint256"
        },
        {
          "indexed": false,
          "internalType": "uint256",
          "name": "shares",
          "type": "uint256"
        }
      ],
      "name": "Withdraw",
      "type": "event"
    },
    {
      "anonymous": false,
      "inputs": [
        {
          "indexed": false,
          "internalType": "uint256",
          "name": "amount",
          "type": "uint256"
        },
        {
          "indexed": false,
          "internalType": "uint256",
          "name": "timestamp",
          "type": "uint256"
        }
      ],
      "name": "YieldAdded",
      "type": "event"
    },
    {
      "inputs": [],
      "name": "ADMIN_ROLE",
      "outputs": [
        {
          "internalType": "bytes32",
          "name": "",
          "type": "bytes32"
        }
      ],
      "stateMutability": "view",
      "type": "function"
    },
    {
      "inputs": [],
      "name": "DEFAULT_ADMIN_ROLE",
      "outputs": [
        {
          "internalType": "bytes32",
          "name": "",
          "type": "bytes32"
        }
      ],
      "stateMutability": "view",
      "type": "function"
    },
    {
      "inputs": [
        {
          "internalType": "uint256",
          "name": "amount",
          "type": "uint256"
        }
      ],
      "name": "addYield",
      "outputs": [],
      "stateMutability": "nonpayable",
      "type": "function"
    },
    {
      "inputs": [
        {
          "internalType": "address",
          "name": "owner",
          "type": "address"
        },
        {
          "internalType": "address",
          "name": "spender",
          "type": "address"
        }
      ],
      "name": "allowance",
      "outputs": [
        {
          "internalType": "uint256",
          "name": "",
          "type": "uint256"
        }
      ],
      "stateMutability": "view",
      "type": "function"
    },
    {
      "inputs": [
        {
          "internalType": "address",
          "name": "spender",
          "type": "address"
        },
        {
          "internalType": "uint256",
          "name": "value",
          "type": "uint256"
        }
      ],
      "name": "approve",
      "outputs": [
        {
          "internalType": "bool",
          "name": "",
          "type": "bool"
        }
      ],
      "stateMutability": "nonpayable",
      "type": "function"
    },
    {
      "inputs": [],
      "name": "asset",
      "outputs": [
        {
          "internalType": "address",
          "name": "",
          "type": "address"
        }
      ],
      "stateMutability": "view",
      "type": "function"
    },
    {
      "inputs": [
        {
          "internalType": "address",
          "name": "account",
          "type": "address"
        }
      ],
      "name": "balanceOf",
      "outputs": [
        {
          "internalType": "uint256",
          "name": "",
          "type": "uint256"
        }
      ],
      "stateMutability": "view",
      "type": "function"
    },
    {
      "inputs": [
        {
          "internalType": "uint256",
          "name": "shares",
          "type": "uint256"
        }
      ],
      "name": "convertToAssets",
      "outputs": [
        {
          "internalType": "uint256",
          "name": "",
          "type": "uint256"
        }
      ],
      "stateMutability": "view",
      "type": "function"
    },
    {
      "inputs": [
        {
          "internalType": "uint256",
          "name": "assets",
          "type": "uint256"
        }
      ],
      "name": "convertToShares",
      "outputs": [
        {
          "internalType": "uint256",
          "name": "",
          "type": "uint256"
        }
      ],
      "stateMutability": "view",
      "type": "function"
    },
    {
      "inputs": [],
      "name": "decimals",
      "outputs": [
        {
          "internalType": "uint8",
          "name": "",
          "type": "uint8"
        }
      ],
      "stateMutability": "view",
      "type": "function"
    },
    {
      "inputs": [
        {
          "internalType": "uint256",
          "name": "assets",
          "type": "uint256"
        },
        {
          "internalType": "address",
          "name": "receiver",
          "type": "address"
        }
      ],
      "name": "deposit",
      "outputs": [
        {
          "internalType": "uint256",
          "name": "shares",
          "type": "uint256"
        }
      ],
      "stateMutability": "nonpayable",
      "type": "function"
    },
    {
      "inputs": [],
      "name": "fundingCap",
      "outputs": [
        {
          "internalType": "uint256",
          "name": "",
          "type": "uint256"
        }
      ],
      "stateMutability": "view",
      "type": "function"
    },
    {
      "inputs": [
        {
          "internalType": "bytes32",
          "name": "role",
          "type": "bytes32"
        }
      ],
      "name": "getRoleAdmin",
      "outputs": [
        {
          "internalType": "bytes32",
          "name": "",
          "type": "bytes32"
        }
      ],
      "stateMutability": "view",
      "type": "function"
    },
    {
      "inputs": [
        {
          "internalType": "bytes32",
          "name": "role",
          "type": "bytes32"
        },
        {
          "internalType": "address",
          "name": "account",
          "type": "address"
        }
      ],
      "name": "grantRole",
      "outputs": [],
      "stateMutability": "nonpayable",
      "type": "function"
    },
    {
      "inputs": [
        {
          "internalType": "bytes32",
          "name": "role",
          "type": "bytes32"
        },
        {
          "internalType": "address",
          "name": "account",
          "type": "address"
        }
      ],
      "name": "hasRole",
      "outputs": [
        {
          "internalType": "bool",
          "name": "",
          "type": "bool"
        }
      ],
      "stateMutability": "view",
      "type": "function"
    },
    {
      "inputs": [
        {
          "internalType": "address",
          "name": "",
          "type": "address"
        }
      ],
      "name": "isKycVerified",
      "outputs": [
        {
          "internalType": "bool",
          "name": "",
          "type": "bool"
        }
      ],
      "stateMutability": "view",
      "type": "function"
    },
    {
      "inputs": [
        {
          "internalType": "address",
          "name": "",
          "type": "address"
        }
      ],
      "name": "maxDeposit",
      "outputs": [
        {
          "internalType": "uint256",
          "name": "",
          "type": "uint256"
        }
      ],
      "stateMutability": "view",
      "type": "function"
    },
    {
      "inputs": [
        {
          "internalType": "address",
          "name": "",
          "type": "address"
        }
      ],
      "name": "maxMint",
      "outputs": [
        {
          "internalType": "uint256",
          "name": "",
          "type": "uint256"
        }
      ],
      "stateMutability": "view",
      "type": "function"
    },
    {
      "inputs": [
        {
          "internalType": "address",
          "name": "owner",
          "type": "address"
        }
      ],
      "name": "maxRedeem",
      "outputs": [
        {
          "internalType": "uint256",
          "name": "",
          "type": "uint256"
        }
      ],
      "stateMutability": "view",
      "type": "function"
    },
    {
      "inputs": [
        {
          "internalType": "address",
          "name": "owner",
          "type": "address"
        }
      ],
      "name": "maxWithdraw",
      "outputs": [
        {
          "internalType": "uint256",
          "name": "",
          "type": "uint256"
        }
      ],
      "stateMutability": "view",
      "type": "function"
    },
    {
      "inputs": [],
      "name": "minDeposit",
      "outputs": [
        {
          "internalType": "uint256",
          "name": "",
          "type": "uint256"
        }
      ],
      "stateMutability": "view",
      "type": "function"
    },
    {
      "inputs": [
        {
          "internalType": "uint256",
          "name": "shares",
          "type": "uint256"
        },
        {
          "internalType": "address",
          "name": "receiver",
          "type": "address"
        }
      ],
      "name": "mint",
      "outputs": [
        {
          "internalType": "uint256",
          "name": "",
          "type": "uint256"
        }
      ],
      "stateMutability": "nonpayable",
      "type": "function"
    },
    {
      "inputs": [],
      "name": "name",
      "outputs": [
        {
          "internalType": "string",
          "name": "",
          "type": "string"
        }
      ],
      "stateMutability": "view",
      "type": "function"
    },
    {
      "inputs": [
        {
          "internalType": "uint256",
          "name": "assets",
          "type": "uint256"
        }
      ],
      "name": "previewDeposit",
      "outputs": [
        {
          "internalType": "uint256",
          "name": "",
          "type": "uint256"
        }
      ],
      "stateMutability": "view",
      "type": "function"
    },
    {
      "inputs": [
        {
          "internalType": "uint256",
          "name": "shares",
          "type": "uint256"
        }
      ],
      "name": "previewMint",
      "outputs": [
        {
          "internalType": "uint256",
          "name": "",
          "type": "uint256"
        }
      ],
      "stateMutability": "view",
      "type": "function"
    },
    {
      "inputs": [
        {
          "internalType": "uint256",
          "name": "shares",
          "type": "uint256"
        }
      ],
      "name": "previewRedeem",
      "outputs": [
        {
          "internalType": "uint256",
          "name": "",
          "type": "uint256"
        }
      ],
      "stateMutability": "view",
      "type": "function"
    },
    {
      "inputs": [
        {
          "internalType": "uint256",
          "name": "assets",
          "type": "uint256"
        }
      ],
      "name": "previewWithdraw",
      "outputs": [
        {
          "internalType": "uint256",
          "name": "",
          "type": "uint256"
        }
      ],
      "stateMutability": "view",
      "type": "function"
    },
    {
      "inputs": [
        {
          "internalType": "uint256",
          "name": "shares",
          "type": "uint256"
        },
        {
          "internalType": "address",
          "name": "receiver",
          "type": "address"
        },
        {
          "internalType": "address",
          "name": "owner",
          "type": "address"
        }
      ],
      "name": "redeem",
      "outputs": [
        {
          "internalType": "uint256",
          "name": "assets",
          "type": "uint256"
        }
      ],
      "stateMutability": "nonpayable",
      "type": "function"
    },
    {
      "inputs": [
        {
          "internalType": "bytes32",
          "name": "role",
          "type": "bytes32"
        },
        {
          "internalType": "address",
          "name": "callerConfirmation",
          "type": "address"
        }
      ],
      "name": "renounceRole",
      "outputs": [],
      "stateMutability": "nonpayable",
      "type": "function"
    },
    {
      "inputs": [
        {
          "internalType": "address",
          "name": "token",
          "type": "address"
        },
        {
          "internalType": "uint256",
          "name": "amount",
          "type": "uint256"
        }
      ],
      "name": "rescueTokens",
      "outputs": [],
      "stateMutability": "nonpayable",
      "type": "function"
    },
    {
      "inputs": [
        {
          "internalType": "bytes32",
          "name": "role",
          "type": "bytes32"
        },
        {
          "internalType": "address",
          "name": "account",
          "type": "address"
        }
      ],
      "name": "revokeRole",
      "outputs": [],
      "stateMutability": "nonpayable",
      "type": "function"
    },
    {
      "inputs": [
        {
          "internalType": "address",
          "name": "user",
          "type": "address"
        },
        {
          "internalType": "bool",
          "name": "allowed",
          "type": "bool"
        }
      ],
      "name": "setKyc",
      "outputs": [],
      "stateMutability": "nonpayable",
      "type": "function"
    },
    {
      "inputs": [
        {
          "internalType": "bytes4",
          "name": "interfaceId",
          "type": "bytes4"
        }
      ],
      "name": "supportsInterface",
      "outputs": [
        {
          "internalType": "bool",
          "name": "",
          "type": "bool"
        }
      ],
      "stateMutability": "view",
      "type": "function"
    },
    {
      "inputs": [],
      "name": "symbol",
      "outputs": [
        {
          "internalType": "string",
          "name": "",
          "type": "string"
        }
      ],
      "stateMutability": "view",
      "type": "function"
    },
    {
      "inputs": [],
      "name": "timeLeftToUnlock",
      "outputs": [
        {
          "internalType": "uint256",
          "name": "",
          "type": "uint256"
        }
      ],
      "stateMutability": "view",
      "type": "function"
    },
    {
      "inputs": [],
      "name": "totalAssets",
      "outputs": [
        {
          "internalType": "uint256",
          "name": "",
          "type": "uint256"
        }
      ],
      "stateMutability": "view",
      "type": "function"
    },
    {
      "inputs": [],
      "name": "totalSupply",
      "outputs": [
        {
          "internalType": "uint256",
          "name": "",
          "type": "uint256"
        }
      ],
      "stateMutability": "view",
      "type": "function"
    },
    {
      "inputs": [
        {
          "internalType": "address",
          "name": "to",
          "type": "address"
        },
        {
          "internalType": "uint256",
          "name": "value",
          "type": "uint256"
        }
      ],
      "name": "transfer",
      "outputs": [
        {
          "internalType": "bool",
          "name": "",
          "type": "bool"
        }
      ],
      "stateMutability": "nonpayable",
      "type": "function"
    },
    {
      "inputs": [
        {
          "internalType": "address",
          "name": "from",
          "type": "address"
        },
        {
          "internalType": "address",
          "name": "to",
          "type": "address"
        },
        {
          "internalType": "uint256",
          "name": "value",
          "type": "uint256"
        }
      ],
      "name": "transferFrom",
      "outputs": [
        {
          "internalType": "bool",
          "name": "",
          "type": "bool"
        }
      ],
      "stateMutability": "nonpayable",
      "type": "function"
    },
    {
      "inputs": [],
      "name": "unlockTime",
      "outputs": [
        {
          "internalType": "uint256",
          "name": "",
          "type": "uint256"
        }
      ],
      "stateMutability": "view",
      "type": "function"
    },
    {
      "inputs": [
        {
          "internalType": "uint256",
          "name": "assets",
          "type": "uint256"
        },
        {
          "internalType": "address",
          "name": "receiver",
          "type": "address"
        },
        {
          "internalType": "address",
          "name": "owner",
          "type": "address"
        }
      ],
      "name": "withdraw",
      "outputs": [
        {
          "internalType": "uint256",
          "name": "shares",
          "type": "uint256"
        }
      ],
      "stateMutability": "nonpayable",
      "type": "function"
    }
  ],
  "bytecode": "0x60c060405234801561001057600080fd5b5060405161217438038061217483398101604081905261002f916103c1565b868686600361003e83826104f8565b50600461004b82826104f8565b5050506000806100608361015a60201b60201c565b9150915081610070576012610072565b805b60ff1660a05250506001600160a01b03908116608052600160065584166100cd5760405162461bcd60e51b815260206004820152600a6024820152693d32b9379030b236b4b760b11b60448201526064015b60405180910390fd5b42811161010d5760405162461bcd60e51b815260206004820152600e60248201526d696e76616c696420756e6c6f636b60901b60448201526064016100c4565b610118600085610236565b506101437fa49807205ce4d355092ef5a8a18f56e8913cf4a201fbe287825b095693c2177585610236565b50600792909255600855600955506105eb92505050565b60408051600481526024810182526020810180516001600160e01b031663313ce56760e01b17905290516000918291829182916001600160a01b038716916101a1916105b6565b600060405180830381855afa9150503d80600081146101dc576040519150601f19603f3d011682016040523d82523d6000602084013e6101e1565b606091505b50915091508180156101f557506020815110155b156102295760008180602001905181019061021091906105d2565b905060ff8111610227576001969095509350505050565b505b5060009485945092505050565b60008281526005602090815260408083206001600160a01b038516845290915281205460ff166102dc5760008381526005602090815260408083206001600160a01b03861684529091529020805460ff191660011790556102943390565b6001600160a01b0316826001600160a01b0316847f2f8788117e7eff1d82e926ec794901d17c78024a50270940304540a733656f0d60405160405180910390a45060016102e0565b5060005b92915050565b6001600160a01b03811681146102fb57600080fd5b50565b634e487b7160e01b600052604160045260246000fd5b60005b8381101561032f578181015183820152602001610317565b50506000910152565b600082601f83011261034957600080fd5b81516001600160401b03811115610362576103626102fe565b604051601f8201601f19908116603f011681016001600160401b0381118282101715610390576103906102fe565b6040528181528382016020018510156103a857600080fd5b6103b9826020830160208701610314565b949350505050565b600080600080600080600060e0888a0312156103dc57600080fd5b87516103e7816102e6565b60208901519097506001600160401b0381111561040357600080fd5b61040f8a828b01610338565b60408a015190975090506001600160401b0381111561042d57600080fd5b6104398a828b01610338565b955050606088015161044a816102e6565b608089015160a08a015160c0909a0151989b979a509598909795969095945092505050565b600181811c9082168061048357607f821691505b6020821081036104a357634e487b7160e01b600052602260045260246000fd5b50919050565b601f8211156104f357806000526020600020601f840160051c810160208510156104d05750805b601f840160051c820191505b818110156104f057600081556001016104dc565b50505b505050565b81516001600160401b03811115610511576105116102fe565b6105258161051f845461046f565b846104a9565b6020601f82116001811461055957600083156105415750848201515b600019600385901b1c1916600184901b1784556104f0565b600084815260208120601f198516915b828110156105895787850151825560209485019460019092019101610569565b50848210156105a75786840151600019600387901b60f8161c191681555b50505050600190811b01905550565b600082516105c8818460208701610314565b9190910192915050565b6000602082840312156105e457600080fd5b5051919050565b60805160a051611b41610633600039600061076d01526000818161037a0152818161058b015281816107e301528181610bfe01528181610fd701526114360152611b416000f3fe608060405234801561001057600080fd5b50600436106102535760003560e01c806375b238fc11610146578063b460af94116100c3578063ce96cb7711610087578063ce96cb771461050c578063d547741f1461051f578063d905777e14610532578063dd62ed3e14610545578063e3b2594f1461057e578063ef8b30f7146104e657600080fd5b8063b460af94146104c0578063ba087652146104d3578063c63d75b6146103a4578063c6e6f592146104e6578063c8b2b546146104f957600080fd5b806395d89b411161010a57806395d89b4114610467578063a217fddf1461046f578063a9059cbb14610477578063acbd857f1461048a578063b3d7f6b9146104ad57600080fd5b806375b238fc146104115780637807aeba146104265780637e70b5c81461043957806391d148541461044157806394bf804d1461045457600080fd5b80632f2ff15d116101d457806341b3d1851161019857806341b3d185146103b95780634cdad506146102ab57806357376198146103c25780636e553f65146103d557806370a08231146103e857600080fd5b80632f2ff15d1461032b578063313ce5671461034057806336568abe1461035a57806338d52e0f1461036d578063402d267d146103a457600080fd5b80630a28a4771161021b5780630a28a477146102d157806318160ddd146102e457806323b872dd146102ec578063248a9ca3146102ff578063251c1aa31461032257600080fd5b806301e1d1141461025857806301ffc9a71461027357806306fdde031461029657806307a2d13a146102ab578063095ea7b3146102be575b600080fd5b610260610587565b6040519081526020015b60405180910390f35b6102866102813660046116ad565b610619565b604051901515815260200161026a565b61029e610650565b60405161026a91906116d7565b6102606102b9366004611725565b6106e2565b6102866102cc36600461175a565b6106ef565b6102606102df366004611725565b610707565b600254610260565b6102866102fa366004611784565b610714565b61026061030d366004611725565b60009081526005602052604090206001015490565b61026060095481565b61033e6103393660046117c1565b61073a565b005b610348610765565b60405160ff909116815260200161026a565b61033e6103683660046117c1565b610791565b6040516001600160a01b037f000000000000000000000000000000000000000000000000000000000000000016815260200161026a565b6102606103b23660046117ed565b5060001990565b61026060085481565b61033e6103d036600461175a565b6107c9565b6102606103e33660046117c1565b6108cf565b6102606103f63660046117ed565b6001600160a01b031660009081526020819052604090205490565b610260600080516020611aec83398151915281565b61033e610434366004611816565b6109d7565b610260610a4f565b61028661044f3660046117c1565b610a6f565b6102606104623660046117c1565b610a9a565b61029e610ac0565b610260600081565b61028661048536600461175a565b610acf565b6102866104983660046117ed565b600a6020526000908152604090205460ff1681565b6102606104bb366004611725565b610add565b6102606104ce36600461184d565b610aea565b6102606104e136600461184d565b610b46565b6102606104f4366004611725565b610b96565b61033e610507366004611725565b610ba3565b61026061051a3660046117ed565b610cdd565b61033e61052d3660046117c1565b610d01565b6102606105403660046117ed565b610d26565b610260610553366004611889565b6001600160a01b03918216600090815260016020908152604080832093909416825291909152205490565b61026060075481565b60007f00000000000000000000000000000000000000000000000000000000000000006040516370a0823160e01b81523060048201526001600160a01b0391909116906370a0823190602401602060405180830381865afa1580156105f0573d6000803e3d6000fd5b505050506040513d601f19601f8201168201806040525081019061061491906118b3565b905090565b60006001600160e01b03198216637965db0b60e01b148061064a57506301ffc9a760e01b6001600160e01b03198316145b92915050565b60606003805461065f906118cc565b80601f016020809104026020016040519081016040528092919081815260200182805461068b906118cc565b80156106d85780601f106106ad576101008083540402835291602001916106d8565b820191906000526020600020905b8154815290600101906020018083116106bb57829003601f168201915b5050505050905090565b600061064a826000610d44565b6000336106fd818585610d7e565b5060019392505050565b600061064a826001610d8b565b600033610722858285610dbb565b61072d858585610e21565b60019150505b9392505050565b60008281526005602052604090206001015461075581610e80565b61075f8383610e8d565b50505050565b6000610614817f000000000000000000000000000000000000000000000000000000000000000061191c565b6001600160a01b03811633146107ba5760405163334bd91960e11b815260040160405180910390fd5b6107c48282610f21565b505050565b600080516020611aec8339815191526107e181610e80565b7f00000000000000000000000000000000000000000000000000000000000000006001600160a01b0316836001600160a01b03160361085e5760405162461bcd60e51b81526020600482015260146024820152736e6f2072657363756520756e6465726c79696e6760601b60448201526064015b60405180910390fd5b60405163a9059cbb60e01b8152336004820152602481018390526001600160a01b0384169063a9059cbb906044016020604051808303816000875af11580156108ab573d6000803e3d6000fd5b505050506040513d601f19601f8201168201806040525081019061075f9190611935565b60006108d9610f8e565b6001600160a01b0382166000908152600a602052604090205460ff166109305760405162461bcd60e51b815260206004820152600c60248201526b12d650c81c995c5d5a5c995960a21b6044820152606401610855565b60085483101561096e5760405162461bcd60e51b81526020600482015260096024820152683132b637bb9036b4b760b91b6044820152606401610855565b6007548361097a610587565b6109849190611952565b11156109c15760405162461bcd60e51b815260206004820152600c60248201526b18d85c08195e18d95959195960a21b6044820152606401610855565b6109cb8383610fb8565b905061064a6001600655565b600080516020611aec8339815191526109ef81610e80565b6001600160a01b0383166000818152600a6020908152604091829020805460ff191686151590811790915591519182527f7bbd64a7abd041ed0a5722e484fde418f9776ac69c0e67e9652f60ac5ca35dc0910160405180910390a2505050565b6000600954421015610a6957426009546106149190611965565b50600090565b60009182526005602090815260408084206001600160a01b0393909316845291905290205460ff1690565b60006000196000610aaa85610add565b9050610ab833858388610fd2565b949350505050565b60606004805461065f906118cc565b6000336106fd818585610e21565b600061064a826001610d44565b6000610af4610f8e565b600954421015610b2f5760405162461bcd60e51b81526020600482015260066024820152651b1bd8dad95960d21b6044820152606401610855565b610b3a848484611064565b90506107336001600655565b6000610b50610f8e565b600954421015610b8b5760405162461bcd60e51b81526020600482015260066024820152651b1bd8dad95960d21b6044820152606401610855565b610b3a8484846110bc565b600061064a826000610d8b565b600080516020611aec833981519152610bbb81610e80565b610bc3610f8e565b60008211610bfc5760405162461bcd60e51b8152600401610855906020808252600490820152637a65726f60e01b604082015260600190565b7f00000000000000000000000000000000000000000000000000000000000000006040516323b872dd60e01b8152336004820152306024820152604481018490526001600160a01b0391909116906323b872dd906064016020604051808303816000875af1158015610c72573d6000803e3d6000fd5b505050506040513d601f19601f82011682018060405250810190610c969190611935565b50604080518381524260208201527f48eabbe005cc9847391758013fa6b6a12e9f6f1791556c8b4ebe723d153fc813910160405180910390a1610cd96001600655565b5050565b6001600160a01b03811660009081526020819052604081205461064a906000610d44565b600082815260056020526040902060010154610d1c81610e80565b61075f8383610f21565b6001600160a01b03811660009081526020819052604081205461064a565b6000610733610d51610587565b610d5c906001611952565b610d686000600a611a80565b600254610d759190611952565b8591908561110b565b6107c4838383600161114f565b6000610733610d9b82600a611a80565b600254610da89190611952565b610db0610587565b610d75906001611952565b6001600160a01b0383811660009081526001602090815260408083209386168352929052205460001981101561075f5781811015610e1257828183604051637dc7a0d960e11b815260040161085593929190611978565b61075f8484848403600061114f565b6001600160a01b038316610e4b57604051634b637e8f60e11b815260006004820152602401610855565b6001600160a01b038216610e755760405163ec442f0560e01b815260006004820152602401610855565b6107c4838383611216565b610e8a813361132d565b50565b6000610e998383610a6f565b610f195760008381526005602090815260408083206001600160a01b03861684529091529020805460ff19166001179055610ed13390565b6001600160a01b0316826001600160a01b0316847f2f8788117e7eff1d82e926ec794901d17c78024a50270940304540a733656f0d60405160405180910390a450600161064a565b50600061064a565b6000610f2d8383610a6f565b15610f195760008381526005602090815260408083206001600160a01b0386168085529252808320805460ff1916905551339286917ff6391f5c32d9c69d2a47ea670b442974b53935d1edc7fd64eb21e047a839171b9190a450600161064a565b600260065403610fb157604051633ee5aeb560e01b815260040160405180910390fd5b6002600655565b60006000196000610fc885610b96565b9050610ab8338587845b610ffe7f0000000000000000000000000000000000000000000000000000000000000000853085611366565b61100883826113cd565b826001600160a01b0316846001600160a01b03167fdcbc1c05240f31ff3ad067ef1ee35ce4997762752e3a095284754544f4c709d78484604051611056929190918252602082015260400190565b60405180910390a350505050565b60008061107083610cdd565b90508085111561109957828582604051633fa733bb60e21b815260040161085593929190611978565b60006110a486610707565b90506110b33386868985611403565b95945050505050565b6000806110c883610d26565b9050808511156110f157828582604051632e52afbb60e21b815260040161085593929190611978565b60006110fc866106e2565b90506110b3338686848a611403565b600061113a611119836114c3565b801561113557506000848061113057611130611a8f565b868809115b151590565b6111458686866114f0565b6110b39190611952565b6001600160a01b0384166111795760405163e602df0560e01b815260006004820152602401610855565b6001600160a01b0383166111a357604051634a1406b160e11b815260006004820152602401610855565b6001600160a01b038085166000908152600160209081526040808320938716835292905220829055801561075f57826001600160a01b0316846001600160a01b03167f8c5be1e5ebec7d5bd14f71427d1e84f3dd0314c0f7b2291e5b200ac8c7c3b9258460405161105691815260200190565b6001600160a01b0383166112415780600260008282546112369190611952565b909155506112a09050565b6001600160a01b038316600090815260208190526040902054818110156112815783818360405163391434e360e21b815260040161085593929190611978565b6001600160a01b03841660009081526020819052604090209082900390555b6001600160a01b0382166112bc576002805482900390556112db565b6001600160a01b03821660009081526020819052604090208054820190555b816001600160a01b0316836001600160a01b03167fddf252ad1be2c89b69c2b068fc378daa952ba7f163c4a11628f55a4df523b3ef8360405161132091815260200190565b60405180910390a3505050565b6113378282610a6f565b610cd95760405163e2517d3f60e01b81526001600160a01b038216600482015260248101839052604401610855565b6040516001600160a01b03848116602483015283811660448301526064820183905261075f9186918216906323b872dd906084015b604051602081830303815290604052915060e01b6020820180516001600160e01b0383818316178352505050506115a5565b6001600160a01b0382166113f75760405163ec442f0560e01b815260006004820152602401610855565b610cd960008383611216565b826001600160a01b0316856001600160a01b03161461142757611427838683610dbb565b6114318382611616565b61145c7f0000000000000000000000000000000000000000000000000000000000000000858461164c565b826001600160a01b0316846001600160a01b0316866001600160a01b03167ffbde797d201c681b91056529119e0b02407c7bb96a4a2c75c01fc9667232c8db85856040516114b4929190918252602082015260400190565b60405180910390a45050505050565b600060028260038111156114d9576114d9611aa5565b6114e39190611abb565b60ff166001149050919050565b60008060006114ff868661167d565b91509150816000036115245783818161151a5761151a611a8f565b0492505050610733565b81841161153b5761153b600385150260111861169b565b6000848688096000868103871696879004966002600389028118808a02820302808a02820302808a02820302808a02820302808a02820302808a02909103029181900381900460010185841190960395909502919093039390930492909217029150509392505050565b600080602060008451602086016000885af1806115c8576040513d6000823e3d81fd5b50506000513d915081156115e05780600114156115ed565b6001600160a01b0384163b155b1561075f57604051635274afe760e01b81526001600160a01b0385166004820152602401610855565b6001600160a01b03821661164057604051634b637e8f60e11b815260006004820152602401610855565b610cd982600083611216565b6040516001600160a01b038381166024830152604482018390526107c491859182169063a9059cbb9060640161139b565b60008060001983850993909202808410938190039390930393915050565b634e487b71600052806020526024601cfd5b6000602082840312156116bf57600080fd5b81356001600160e01b03198116811461073357600080fd5b602081526000825180602084015260005b8181101561170557602081860181015160408684010152016116e8565b506000604082850101526040601f19601f83011684010191505092915050565b60006020828403121561173757600080fd5b5035919050565b80356001600160a01b038116811461175557600080fd5b919050565b6000806040838503121561176d57600080fd5b6117768361173e565b946020939093013593505050565b60008060006060848603121561179957600080fd5b6117a28461173e565b92506117b06020850161173e565b929592945050506040919091013590565b600080604083850312156117d457600080fd5b823591506117e46020840161173e565b90509250929050565b6000602082840312156117ff57600080fd5b6107338261173e565b8015158114610e8a57600080fd5b6000806040838503121561182957600080fd5b6118328361173e565b9150602083013561184281611808565b809150509250929050565b60008060006060848603121561186257600080fd5b833592506118726020850161173e565b91506118806040850161173e565b90509250925092565b6000806040838503121561189c57600080fd5b6118a58361173e565b91506117e46020840161173e565b6000602082840312156118c557600080fd5b5051919050565b600181811c908216806118e057607f821691505b60208210810361190057634e487b7160e01b600052602260045260246000fd5b50919050565b634e487b7160e01b600052601160045260246000fd5b60ff818116838216019081111561064a5761064a611906565b60006020828403121561194757600080fd5b815161073381611808565b8082018082111561064a5761064a611906565b8181038181111561064a5761064a611906565b6001600160a01b039390931683526020830191909152604082015260600190565b6001815b60018411156119d4578085048111156119b8576119b8611906565b60018416156119c657908102905b60019390931c92800261199d565b935093915050565b6000826119eb5750600161064a565b816119f85750600061064a565b8160018114611a0e5760028114611a1857611a34565b600191505061064a565b60ff841115611a2957611a29611906565b50506001821b61064a565b5060208310610133831016604e8410600b8410161715611a57575081810a61064a565b611a646000198484611999565b8060001904821115611a7857611a78611906565b029392505050565b600061073360ff8416836119dc565b634e487b7160e01b600052601260045260246000fd5b634e487b7160e01b600052602160045260246000fd5b600060ff831680611adc57634e487b7160e01b600052601260045260246000fd5b8060ff8416069150509291505056fea49807205ce4d355092ef5a8a18f56e8913cf4a201fbe287825b095693c21775a26469706673582212205ebcb5f36a1196696d5213bd02b99efc60d1f522c6f576e730db4bef6e7cfb6264736f6c634300081d0033",
  "linkReferences": {},
  "deployedLinkReferences": {}
}